:020000040000FA
:100000000C94F5020C9426030C9426030C942603FE
:100010000C9426030C9426030C9426030C942603BC
:100020000C9426030C9426030C9426030C942603AC
:100030000C94A11C0C9426030C9426030C94260308
:100040000C9426030C9426030C9426030C9426038C
:100050000C9426030C9426030C9426030C94201174
:100060000C9426030C94EA100C94C0100C942603F4
:100070000C9426030C9426030C9426030C9426035C
:100080000C9426030C9426030C9426030C9426034C
:100090000C9426030C9426030C9426030C9426033C
:1000A0000C9426030C9426030C9426030C9426032C
:1000B0000C9426030C9426030C9426030C9426031C
:1000C0000C9426030C9426030C9426030C9426030C
:1000D0000C9426030C9426030C9426030C942603FC
:1000E0000C9426030C9443050C9437050C94990A40
:1000F0000C94CD0E0C94E5060C9431050C9475040B
:100100000C94040C0C94050F0C945A050C945E0589
:100110000C946C050C942A070C9476050C941D071E
:100120000C94D5020C94F61E0C94C2040C94310766
:100130000C9450050C944C050C94A41C0C941B04BA
:100140000C9468050C94D30D0C94DF030C94640597
:100150000C946F0F0C943B050C94560F0C940507F0
:100160000C940F070C94AF020C94290E0C9471059B
:100170000C942F040C942E070C94D3060C94FD06BB
:100180000C9446050C9423070C9456050C942F0FE1
:100190000C943F050C9494010C94C2010C94BB0682
:1001A0000C94EE020C94880F0C94D6080C940C045A
:1001B0000C943D040C94E5090C94E8020C9472052F
:1001C0000C94FF060C94820E0C9435070C94C50613
:1001D0000C942B07253032753A25303275202530A6
:1001E000327500253032752F25303275202530329A
:1001F000753A253032753A253032750000002100FD
:10020000240027002A002D003000330001010000E7
:10021000040107010A0100002200250028002B002C
:100220002E003100340002010000050108010B011D
:10023000000020002300260029002C002F0032009F
:100240000001000003010601090105050505070578
:1002500008080808020202020A0A08080404040442
:10026000010101010101010103030303030303036E
:10027000040707070C0C0C0C0C0C0C0C02020202FD
:1002800006060606060606060B0B0B0B0B0B0B0BE6
:100290000102102020080810204010204080020198
:1002A000020108040201010204081020408080407D
:1002B000201008040201800402018040201008047C
:1002C000020108040201010204081020408001021A
:1002D00004081020408000000A0B02090C0D0E08D3
:1002E00007030401000000000000000000000000FF
:1002F00000000000000000000000000000000000FE
:1003000000001211100000000000000000000000BA
:100310000000000000000000000000001F1C1F1E65
:100320001F1E1F1F1E1F1E1F80911C03811109C04D
:1003300080917B03823010F00E94CE150E94E2046F
:10034000F3CF0FB6F8940F92E0912203F0912303BC
:10035000C681D781CE0102960E94B31180913F03DE
:10036000815080933F0380911C03815080931C0334
:100370000F900FBE8F89988D0E947519CE010E9433
:100380007519D2CFCF93DF9300D01F921F92CDB7B4
:10039000DEB7E0915F03F0916003F08010E000E0D1
:1003A000FF2029F00580F681E02D008111810E9457
:1003B00082110E9478116C0180915B0390915C0323
:1003C000C816D90608F04DC00E942519D0925C03CA
:1003D000C0925B030E94BF1650E040E0BE016F5F19
:1003E0007F4F80917603909177030E94F8198823BC
:1003F00081F2898187FDF0CF0C811D81D8011A9689
:100400008D919C91892B21F0C80102960E94B31115
:100410000E9478117C0180915B0390915C03E81647
:10042000F90610F40E942519F0925C03E0925B0338
:10043000E981EA3088F60E2E000CFF0BD8015296A7
:100440009C918827E95DFD4F8F4F0C948A23AF0262
:10045000AF02AF02EE02D502E802AF02AF02EE0237
:10046000D502D0925C03C0925B03FF20B1F1C016AD
:10047000D106D8F10E94BF16E0915F03F0916003AE
:100480000580F681E02DE680F780C70102960E9484
:10049000B311D70152968C91529782FF14C01C96CB
:1004A0006D917C91600F711F9801A601C7010E9498
:1004B0000D12882359F0B801C7010E94F618811166
:1004C00005C00E94B5098E7FF701828BD701509637
:1004D000ED91FC91C70119957FCFE0915D03F091FB
:1004E0005E038081BB24B3948111B12CE09076032C
:1004F000F09077030FB6F8940F92F701858D8F3F38
:1005000009F4158ED7015E968C915E978F3F11F49A
:100510005E961C920F900FBEF701828D811115C05F
:10052000C701419671F26091080370910903645FFD
:100530007F4F0E949311C8018C199D09BB2011F0B7
:100540008FEF9FEF6B2D0E943712C7010E944A1355
:100550000E94BF16811140CF0E94CE153DCF916001
:10056000F801928B2A813B8164857585620F731F28
:10057000A701C8010E940D12882309F42DCFD801CC
:100580005096ED91FC91C8011995F801828982FF7E
:1005900023CF6A817B8184859585680F791FC80187
:1005A0000E94F618811118CF8CCF9160F801928BC0
:1005B0006A817B81758764876115710509F481CF34
:1005C0006E0D7F1D9701A701C8010E940D1204CF77
:1005D00091FD04C0C8010E947519FECE9E7FD8010E
:1005E00052969C93F9CEA41CF61E11241FBECFEF89
:1005F000D1E2DEBFCDBF00E00CBF13E0A0E0B2E06F
:10060000E0E6F9E400E00BBF02C007900D92A830CD
:10061000B107D9F725E0A8E0B3E001C01D92A437E7
:10062000B207E1F712E0C4EFD2E000E006C0219784
:100630000109802FFE010E948A23C33FD10780E079
:100640000807A9F70E94711E0C949E240C940000C8
:1006500096E0899FD0011124AF5FBA4F90967C93AA
:100660006E935F9791E091969C939197E0916E05C0
:10067000F0916F0590916D05992339F0309751F005
:10068000811108C080911D051994309719F05C966E
:100690008C91FACF0895CF92DF92EF92FF920F9351
:1006A0001F9396E0899FF0011124EF5FFA4F11A28A
:1006B000278D30A12130310551F178F022303105FC
:1006C00009F451C02330310509F452C01F910F9134
:1006D000FF90EF90DF90CF9008956623B9F361E02B
:1006E00070E00E9428032FB7F894809172039091D4
:1006F0007303A0917403B09175032FBF80935905C4
:1007000090935A05A0935B05B0935C05DFCF9FB72C
:10071000F894C0907203D0907303E0907403F0904B
:1007200075039FBF0091590510915A0520915B05F3
:1007300030915C05C01AD10AE20AF30A00916B05F8
:1007400010916C0530E020E00C151D052E053F05CD
:1007500050F462E070E01F910F91FF90EF90DF90F6
:10076000CF900C9428036111B1CF63E070E0F3CF18
:1007700070E060E0F0CFDC0115961C92159714969E
:100780001C92149713961C9213971C9281E0119659
:100790008C93119711968C911197282F2150330B20
:1007A000F901E45EFC4FE491823009F4EF5FE1115E
:1007B00002C08F5FECCF81E012968C930895AF92C8
:1007C000BF92CF92DF92EF92FF920F931F93CF933E
:1007D000DF936C017B018B01040F151FEB015E01A0
:1007E000AE18BF08C017D10759F06991D601ED9135
:1007F000FC910190F081E02DC6011995892B79F7C4
:10080000C501DF91CF911F910F91FF90EF90DF9085
:10081000CF90BF90AF900895FC01538D448D252F4C
:1008200030E0842F90E0821B930B541710F0CF968A
:10083000089501970895FC01918D828D981761F0BC
:10084000A28DAE0FBF2FB11D5D968C91928D9F5FD3
:100850009F73928F90E008958FEF9FEF0895FC01B2
:10086000918D828D981731F0828DE80FF11D858D65
:1008700090E008958FEF9FEF0895FC01918D228DF8
:10088000892F90E0805C9F4F821B91098F7399277D
:10089000089580EA93E00E943D0421E0892B09F449
:1008A00020E0822F0895FC01A48DA80FB92FB11D5F
:1008B000A35ABF4F2C91848D90E001968F73992796
:1008C000848FA689B7892C93A089B1898C91837074
:1008D00080648C93938D848D981306C00288F3896D
:1008E000E02D80818F7D80830895EF92FF920F939A
:1008F0001F93CF93DF93EC0181E0888F9B8D8C8DCC
:1009000098131AC0E889F989808185FF15C09FB7BF
:10091000F894EE89FF896083E889F9898081837082
:10092000806480839FBF81E090E0DF91CF911F9131
:100930000F91FF90EF900895F62E0B8D10E00F5F52
:100940001F4F0F731127E02E8C8D8E110CC00FB628
:1009500007FCFACFE889F989808185FFF5CFCE01C0
:100960000E945304F1CFEB8DEC0FFD2FF11DE35AE4
:10097000FF4FF0829FB7F8940B8FEA89FB89808143
:100980008062CFCFCF93DF93EC01888D8823B9F0BD
:10099000AA89BB89E889F9898C9185FD03C080818A
:1009A00086FD0DC00FB607FCF7CF8C9185FFF2CF07
:1009B000808185FFEDCFCE010E945304E9CFDF9106
:1009C000CF91089580E090E0892B29F00E9449049E
:1009D00081110E94000080E090E0892B49F080E0C6
:1009E00090E0892B29F00E94000081110E940000F4
:1009F00080E090E0892B49F080E090E0892B29F09D
:100A00000E94000081110E94000080E090E0892B8C
:100A100049F080E090E0892B29F00E9400008111CC
:100A20000C94000008958150823108F05AC0E82FDC
:100A3000F0E08827E15EFA4F8F4F0C948A233F0540
:100A40004305310537053B05710546054C05500545
:100A500056055A055E056405680571056C05720545
:100A60007605809180008F77809380000895809133
:100A700080008F7DF9CF80918000877FF5CF84B58E
:100A80008F7784BD089584B58F7DFBCF8091B000B2
:100A90008F778093B00008958091B0008F7DF9CF5B
:100AA000809190008F7780939000089580919000BE
:100AB0008F7DF9CF80919000877FF5CF8091A00046
:100AC0008F778093A00008958091A0008F7DF9CF4B
:100AD0008091A000877FF5CF809120018F77809350
:100AE00020010895809120018F7DF9CF8091200110
:100AF000877FF5CFCF93DF93282F30E0F901EA52BB
:100B0000FD4F8491F901E057FD4FD491F901E65B67
:100B1000FD4FC491CC23A1F081110E941305EC2F4D
:100B2000F0E0EE0FFF1FE05DFD4FA591B491EC9159
:100B3000ED2381E090E009F480E0DF91CF9108950A
:100B400080E090E0FACF1F93CF93DF93282F30E01F
:100B5000F901EA52FD4F8491F901E057FD4FD4911C
:100B6000F901E65BFD4FC491CC23A9F0162F81114A
:100B70000E941305EC2FF0E0EE0FFF1FEA5EFD4F21
:100B8000A591B4918FB7F894EC91111108C0D0954C
:100B9000DE23DC938FBFDF91CF911F910895DE2B71
:100BA000F8CFCF93DF9390E0FC01E057FD4F249105
:100BB000865B9D4FFC0184918823C9F090E0880FEB
:100BC000991FFC01E450FE4FA591B491FC01EA5E2F
:100BD000FD4FC591D49161110DC09FB7F8948C91D0
:100BE000209582238C938881282328839FBFDF91BF
:100BF000CF910895623051F49FB7F8943C91822FC1
:100C0000809583238C93E8812E2BEFCF8FB7F894B8
:100C1000EC912E2B2C938FBFEACF3FB7F8948091A5
:100C20006E0390916F03A0917003B091710326B58C
:100C3000A89B05C02F3F19F00196A11DB11D3FBF14
:100C4000BA2FA92F982F8827BC01CD01620F711DE3
:100C5000811D911D42E0660F771F881F991F4A95DD
:100C6000D1F708950F931F93CF93DF93EC018B017E
:100C700088859985029751F46130710509F43AC06D
:100C80006CF560E00115110509F435C0888599857A
:100C9000049751F40130110509F45DC00CF035C022
:100CA0000115110509F446C088859985059709F055
:100CB000CCC00A30110508F0C8C0F8018827EC59EB
:100CC000F94F8F4F0C948A23BB06C506D306E50661
:100CD000FD06FF0605070F071D0723076230710594
:100CE00091F060E00330110589F68C850E94A30520
:100CF00060E005C061E08C850E94A30561E08E85FF
:100D00000E94A305C3CF61E0F0CF0230110549F185
:100D10000330110509F0C8CF60E08C850E94A3055F
:100D200060E08E850E94A30560E088890E94A3058B
:100D300061E00DC061E08C850E94A30560E08E85B6
:100D40000E94A30560E088890E94A30560E08A896B
:100D50000E94A305A9CF60E08C850E94A30561E0F5
:100D6000EECF60E08C850E94A30560E08E850E9436
:100D7000A30561E0E8CF60E08C850E94A30561E0F7
:100D80008E850E94A30561E009C060E08C850E9409
:100D9000A30561E08E850E94A30560E088890E941A
:100DA000A30560E00DC060E08C850E94A30561E0B2
:100DB0008E850E94A30560E088890E94A30561E0FA
:100DC0008A890E94A30561E011C060E08C850E94C1
:100DD000A30561E08E850E94A30560E088890E94DA
:100DE000A30561E08A890E94A30560E08C89DF91F8
:100DF000CF911F910F910C94A30561E0E7CF61E0C3
:100E00008C850E94A30560E0E5CF61E08C850E949F
:100E1000A30560E08E850E94A30561E0DFCF61E05D
:100E20008C850E94A30560E08E850E94A30561E089
:100E300088890E94A30560E0D5CF61E08C850E947F
:100E4000A30560E09DCF60E0F9CFDF91CF911F91C6
:100E50000F910895089590E080E00895862F0C94F6
:100E60007A05862F642F0C94A305862F642F0C948B
:100E7000D1051F9A0895279A2F9A0895CF93DF934B
:100E8000EC018A819881992339F061E00E94A305E1
:100E90001882DF91CF91089560E00E94A30581E060
:100EA0008883F7CFCF93DF93EC0161E089810E94C3
:100EB000D10561E089810E94A30561E08A810E94D9
:100EC000D10561E08A81DF91CF910C94A305E09177
:100ED0005703F09158038081811107C08FEF9FEF76
:100EE00090935603809355030895E0915703F09132
:100EF00058030580F681E02D0680F781E02D828180
:100F00009381EECFCF93DF93EC0160E08E810E945E
:100F1000A30561E08E810E94A30560E08E810E949E
:100F2000A3058BE891E00197F1F7DF91CF91089548
:100F3000CF92DF92EF92FF920F931F93CF93DF93A5
:100F40006C017C0187E0E80EF11CD0E0C0E0062FC8
:100F500010E0B8010C2E02C0759567950A94E2F76F
:100F60006170F70181917F010E94A3052196C43031
:100F7000D10579F7C601DF91CF911F910F91FF90B5
:100F8000EF90DF90CF900C948207CF92DF92EF9298
:100F9000FF920F931F93CF93DF93EC01F62E642FF4
:100FA0008C810E94A3058D818F3F19F060E00E9423
:100FB000A3050F2D10E08F8584FF25C06E0187E00B
:100FC000C80ED11CF12CE12CB8010E2C02C0759575
:100FD00067950A94E2F76170F60181916F010E94B2
:100FE000A305FFEFEF1AFF0A88E0E816F10461F7A6
:100FF000CE01DF91CF911F910F91FF90EF90DF9085
:10100000CF900C948207B80184E0759567958A9516
:10101000E1F7CE010E9498076F2DCE01DF91CF91AD
:101020001F910F91FF90EF90DF90CF900C94980755
:1010300040E0682F89EE94E00C94C507CF93DF93CE
:10104000823029F49091F80498609093F80480938A
:10105000FC041092FD0480E48093FE0480E1809300
:10106000FF0480E58093000561E08091ED040E941B
:10107000D1058091EE048F3F19F061E00E94D10507
:1010800061E08091EF040E94D105C9EED4E09E0199
:10109000295E34408091F80484FD0BC084E090E028
:1010A00021962817390744F461E08E810E94D1050A
:1010B000EECF88E090E0F4CF8BE39DE00197F1F76D
:1010C00060E08091ED040E94A30560E08091EF0450
:1010D0000E94A3058091EE048F3F19F060E00E940A
:1010E000A3058091F80484FD39C063E089EE94E0A3
:1010F0000E949807CBE4D6E4CE010197F1F763E0B4
:1011000089EE94E00E9498072197F1F763E089EE59
:1011100094E00E94980783E592E00197F1F762E07E
:1011200089EE94E00E9498078091F80480620E9402
:10113000180884E08093F9048CE00E94180881E08C
:101140000E9418088BE39FE10197F1F782E08093FA
:10115000FA0486E0DF91CF910C94180880620E9417
:1011600018088BE496E40197F1F78091F804806207
:101170000E94180883E592E00197F1F78091F80446
:1011800080620E941808D0CF643008F063E090912C
:10119000FC04691710F06FEF690FE62FF0E0E751DC
:1011A000FB4F9489890F80680C94180841E00E94D5
:1011B000C50781E090E00895EF92FF921F93CF93CF
:1011C000DF937C01D0E0C0E010E0F70180810E9455
:1011D0007A050C2E01C0880F0A94EAF7182B61E0FB
:1011E000F70181810E94A30560E0F70181810E94DF
:1011F000A3052196C830D10541F7812FDF91CF910A
:101200001F91FF90EF900895FB0101900020E9F7F6
:101210003197AF01461B570BDC01ED91FC91028029
:10122000F381E02D19948F929F92AF92BF920F930A
:101230001F93CF93DF93CDB7DEB7A1970FB6F89486
:10124000DEBF0FBECDBF19A2423008F44AE08E01C6
:101250000F5D1F4F842E912CB12CA12CA501940160
:101260000E944923E62FB901CA01EA3004F5E05D86
:10127000D801EE938D01232B242B252B79F790E0B9
:1012800080E0109729F0BD0180EA93E00E940409F4
:10129000A1960FB6F894DEBF0FBECDBFDF91CF9100
:1012A0001F910F91BF90AF909F908F900895E95C30
:1012B000DFCFCF93DF93BC0180EA93E00E94040963
:1012C000EC0166E572E080EA93E00E9404098C0F6D
:1012D0009D1FDF91CF910895EF92FF920F931F937F
:1012E000CF93DF93EC017B01198218821B821A8253
:1012F0001D821C82FB0101900020E9F731978F01CC
:10130000061B170BB8016F5F7F4F90E080E00E94D3
:10131000A6230097B9F0998388831B830A832C81C5
:101320003D81232B11F4FC0110821D830C83B70136
:1013300088819981DF91CF911F910F91FF90EF905C
:101340000C94972488819981009711F00E94B31F13
:10135000198218821D821C821B821A82DF91CF9112
:101360001F910F91FF90EF900895F8940E943B0712
:101370002FEF81EE94E0215080409040E1F700C0D3
:1013800000000E9439072FEF87EA91E62150804044
:101390009040E1F700C000000E9439072FEF81EE76
:1013A00094E0215080409040E1F700C000000E948E
:1013B00039072FEF81EE94E0215080409040E1F713
:1013C00000C000000E943907D3CFCF93DF93CDB781
:1013D000DEB76A970FB6F894DEBF0FBECDBFFC0133
:1013E000238130E0428150E0618170E080811C8681
:1013F0001B861A8219821F8A188E198E1A8EE4E6AD
:10140000F0E0F887EF83E82FF0E0FE87ED87788B38
:101410006F875A8B498B3C8B2B8B61E00E94D105E7
:1014200061E08F850E94D10561E089890E94D10524
:1014300061E08B890E94D1051E8A1D8A84E090E0BC
:101440009A8789872F813885032E000C440B550B12
:1014500060E077E883E993E00E946B23CA01B90159
:1014600028EC30E040E050E00E946B232B833C836B
:101470004D835E83EE24E394F12C94E0C92ED12CAD
:101480002AE0A22EB12CFA82E98204E610E00115CE
:10149000110509F449C00E940D064F88588C698CCB
:1014A0007A8C9B01AC0124193509460957094B80F8
:1014B0005C806D807E80241535054605570538F320
:1014C0006F8B788F898F9A8F8B859C8529813A8144
:1014D00021303105E9F401969C878B872F8138856F
:1014E0008217930711F41C861B86015011098B8506
:1014F0009C8529853A85B5012530310509F0B6016D
:101500000E943523BC01CE0101960E943206BFCF56
:10151000892B21F48F8198859C878B878B859C856F
:1015200001979C878B87E1CF8CE790E00E9486191A
:10153000AACFCF93DF931F92CDB7DEB7412C512CAA
:1015400032014394AA24AA94BA2C51E050936D0519
:101550008FB7F894409172035091730360917403B4
:10156000709175038FBF80915D0590915E05A0918C
:101570005F05B0916005481B590B6A0B7B0B80918E
:10158000690590916A05B0E0A0E084179507A60769
:10159000B70708F015C110E080916705181760F4CF
:1015A000E0916305F0916405E10FF11D62E0808137
:1015B0000E94D1051F5FF0CF312C8091680538164D
:1015C00008F061C0E32CF12CE0916505F09166050F
:1015D000EE0DFF1D61E080810E94D105E09165055F
:1015E000F0916605EE0DFF1D60E080810E94A3056D
:1015F000D301C201032C04C0880F991FAA1FBB1F6F
:101600000A94D2F74C016C01C094D094212C8091A3
:101610006705281608F5022D10E0E0916305F091AA
:101620006405E00FF11F80810E947A050C5F1F4F57
:10163000000F111FF801EF5FFA4F892B41F48081F1
:10164000918188299929918380832394E0CF808197
:1016500091818C219D21F7CFE0916505F091660580
:10166000EE0DFF1D61E080810E94A305809165055C
:1016700090916605E80EF91E60E0F70180810E94F6
:10168000D10533949ACF01E015E0F801878D90A140
:10169000892B21F4148EB68EA58E11A2369655E0B4
:1016A000ED33F50799F7D12C80916705D81608F02E
:1016B00053C0C12CED2CF12CEE0CFF1CC701875F31
:1016C0009A4F7C0120916805C21608F043C0F701CB
:1016D000608171810C2C02C0769567950A94E2F7BF
:1016E000D29E900111242C0D311DE1E0F5E080E047
:1016F000458D568D2417350709F484C08F5F3696C3
:101700008A30B1F760FF24C0E1E0F5E090E080E0CE
:10171000448D411118C0E0916105F0916205E20F1E
:10172000F31F408156E0589FF001599FF00D11249E
:10173000EF5FFA4F448F368F258F10A2178E61E02E
:101740000E944B0305C0019636968A30910501F739
:10175000C394B8CFD394A8CF80E0F80191A19111A0
:10176000892F0A5F1F4FF5E00D331F07B1F79FB7B1
:10177000F8944091720350917303609174037091D7
:1017800075039FBF40935D0550935E0560935F05B1
:10179000709360058823A1F080912205882381F051
:1017A0008091200590912105019751F480911D05AC
:1017B0008983811109C081E090E00E948619C5CE1D
:1017C00010926D051982F7CF41E050E0BE016F5FC6
:1017D0007F4F8091690390916A030E94F217182F3E
:1017E000698180EA93E00E94750466E572E080EA10
:1017F00093E00E9404091130F1F289E592E00E9421
:101800005909D9CF61709CCFCF93DF93CDB7DEB7A5
:10181000AE970FB6F894DEBF0FBECDBF8FE08AA79C
:10182000CE0101967C011BE0A12EB12C0BE3602EB2
:101830000FE1702E89E1582E6E019FE1C90ED11C77
:1018400094ED892E91E0992E41E050E0BE01675D54
:101850007F4F80916B0390916C030E94F819813047
:1018600021F080E692E00E9459090FB6F8940F9299
:10187000F7012EE111922A95E9F700916704109182
:10188000680460E0F80182810E94A30561E0F8012C
:1018900082810E94D10560E0F80181810E94A30548
:1018A00061E0F80181810E94D10561E0F801808149
:1018B0000E94D10561E0F80182810E94A305C50163
:1018C0000197F1F7BFEB3B2E412C632D6170F801BE
:1018D00080810E94A30561E0F80181810E94A30537
:1018E000F7E04F1205C060E0F80180810E94D10549
:1018F00060E0F80181810E94A30536944394F8E0EA
:101900004F12E3CF80916704909168040E94DC0835
:101910008F77282F30E0F4E035952795FA95E1F799
:10192000922F990F990F422E491A440C480E80911C
:101930006704909168040E94DC08282F30E0A4E03E
:1019400035952795AA95E1F7922F990F990F022FB8
:10195000091B000F080F80916704909168040E9492
:10196000DC0886FF08C1982F9F71292F30E0E4E042
:1019700035952795EA95E1F7322F330F330F122F64
:10198000131B110F190F85FD145F8091670490914F
:1019900068040E94DC08282F30E044E03595279544
:1019A0004A95E1F7922F990F990F322E391A330C7D
:1019B000380E80916704909168040E94DC08282FFB
:1019C00030E054E0359527955A95E1F7922F990F1D
:1019D000990F222E291A220C280E809167049091CB
:1019E00068040E94DC0880916704909168040E945A
:1019F000DC08282F30E064E0359527956A95E1F7FB
:101A0000922F990F990F291B220F280F2EA7809133
:101A10006704909168040E94DC08E0916704F091EB
:101A2000680460E082810E94A305C5010197F1F777
:101A30002EA52093610420926204309263041093D7
:101A4000640400936504409266041F924F921F92B3
:101A50000F931F921F931F923F921F922F9283EE1C
:101A600091E09F938F931F92FEE1FF93FF92EF927D
:101A70000E943C20C7010E94590981E00E94180879
:101A8000C3010197F1F760E080E00E94C408B7014C
:101A900089EE94E00E940409EBA55E9EF0011124FA
:101AA000E459FB4F618180810E94C408EBA5E59D4C
:101AB000F0011124E259FB4F44815581608171810D
:101AC00089EE94E00E94DF030FB6F894DEBF0FBEEC
:101AD000CDBF8BA5882309F45DC061E088E00E943A
:101AE000C408F6012AE011922A95E9F7EBA55E9E5B
:101AF000F0011124E459FB4F808D1F928F9385894B
:101B00001F928F9382891F928F939F928F921F9221
:101B10008AE08F93DF92CF920E943C20B60189EE3B
:101B200094E00E9404092BA5ECA58E2F90E0FC0107
:101B3000EE0FFF1FE80FF91F529EE00DF11D11245B
:101B4000E459FB4F618980890E94C4088091F9049F
:101B5000982F92609093F9048A600E9418080FB63B
:101B6000F894DEBF0FBECDBF0F900FBE82E190E0B4
:101B70000E94861969CE282F30E074E035952795AC
:101B80007A95E1F7922F990F990F122F191B110FC8
:101B9000180FFBCE8091F9048D7F8093F904886043
:101BA0000E941808E1CFCF93DF9300D000D000D07F
:101BB0001F921F92CDB7DEB75E0186E0A80EB11C62
:101BC00085E0F50111928A95E9F78FE08F8319E19D
:101BD0007BEA572EE3E04E2EFFE03F2E41E050E03F
:101BE000BE01655F7F4F8091690390916A030E94F7
:101BF000F819813009F086C06B8580EA93E00E9475
:101C0000750466E572E080EA93E00E94040960E0F2
:101C10008AE10E94A30581E090E00E94861961E0BC
:101C20008AE10E94A305EB85E053E83008F06AC022
:101C30000E2E000CFF0B8827EF5DF14F8F4F0C9499
:101C40008A23290ECD0E050F820E2F0F560F6F0F10
:101C5000880F9E818F81981708F076C08885811142
:101C600001C04E8281E08A879E81959D812D11243D
:101C700086958887282F220F220F821B890F89873C
:101C80009F5F9E8360E772E080EA93E00E94040910
:101C90006E8170E090E080E04AE00E94130966E502
:101CA00072E080EA93E00E9404096DE772E080EA46
:101CB00093E00E940409688570E090E080E04AE0CB
:101CC0000E94130963E872E080EA93E00E9404092D
:101CD000698570E090E080E04AE00E94130960E7C7
:101CE00072E080EA93E00E9404096E8170E090E067
:101CF00080E04AE00E94130966E572E080EA93E022
:101D00000E94040941E050E0B50180916B0390917D
:101D10006C030E94F217813009F460CF3A8241E0EF
:101D200050E0BE016F5F7F4F80916B0390916C0319
:101D30000E94F81941E050E0B50180916B03909149
:101D40006C030E94F2174ACF1E821A8619861886E3
:101D50006CE6862E64E0962EF12CE12C3401D12C19
:101D6000C12CF3016289C6018E0D9F1D0E9427239D
:101D7000FFEFCF1ADF0A83E0680E711CE3E0CE1696
:101D8000D10479F7F9E18F0E911C83E0E80EF11C84
:101D9000EFE0EE16F10411F788CF2885222309F42D
:101DA000B1CF6985E62FF0E0CF01880F991FDC01E4
:101DB000AE0FBF1F422F50E0129FA00DB11D112486
:101DC000A459BB4F52963C9121E0230F2D3024F0B3
:101DD00061110FC025EF230FE80FF91F149FC001F9
:101DE000159F900D1124E80FF91FE459FB4F228B2A
:101DF00089CF2D338CF3613011F425ECECCF2436F0
:101E00005CF3623049F72EE9E6CF2885222339F1C9
:101E10006985E62FF0E0CF01880F991FDC01AE0F36
:101E2000BF1F422F50E0129FA00DB11D1124A459D5
:101E3000BB4F52963C912FEF230F121624F06111E5
:101E400026C02BE0230FE80FF91F149FC001159F38
:101E5000900D1124E80FF91FE459FB4F228B86E403
:101E600094E00E943E07809146048823C1F037E643
:101E7000E32E33E0F32E02E020E032E048EE53E0C0
:101E80006CE872E085EE99E00E94D11A3BCF613098
:101E900011F42BE3D7CF6230B1F622E6D3CF809195
:101EA0006703909168030E949D192CCF83E494E00E
:101EB0000E943E0780914304882361F025E6E22ECC
:101EC00023E0F22E02E024E032E048EE53E067E93E
:101ED00072E0D8CF8091650390916603E4CF80E4EF
:101EE00094E00E943E0780914004882361F093E6CD
:101EF000E92E93E0F92E02E028E032E048EE53E0CC
:101F000062EA72E0BFCF8091630390916403CBCF0C
:101F10008DE394E00E943E0780913D04882361F0A8
:101F200081E6E82E83E0F82E02E020E132E048EE80
:101F300053E06DEA72E0A6CF809161039091620355
:101F4000B2CF8F929F92AF92BF92CF92DF92EF92D9
:101F5000FF920F931F93CF93DF93E091B003F09123
:101F6000B10382E08083E091AC03F091AD03108275
:101F7000E091AE03F091AF0380E180831092B8034B
:101F8000E091B403F091B50386E08083E091B20361
:101F9000F091B303808180618083E091B203F0917E
:101FA000B303808188608083E091B203F091B30332
:101FB000808180688083E091B203F091B3038081D7
:101FC0008F7D80839CE6E92E94E0F92ED0E0C0E07E
:101FD000670110E000E0C8018C0F9D1F0E941F23C5
:101FE000F601828B0F5F1F4FF3E0CF0ED11C033041
:101FF000110589F729E1E20EF11C2396CF30D105B6
:1020000039F782E00E941E0886E494E00E9452079D
:1020100083E494E00E94520780E494E00E94520717
:102020008DE394E00E945207C0916704D091680448
:1020300060E089810E94D10560E088810E94D1051D
:1020400060E08A810E94D10562E086E10E94D105AC
:1020500061E08AE10E94D10561E08AE10E94A30566
:1020600065EC72E080EA93E00E94040960ED72E0A2
:1020700080EA93E00E9404098CED92E00E945909E5
:102080000E940D064B015C0184EFC82EDD24D39421
:10209000E12CF12C0E940D06681979098A099B0927
:1020A000683E734081059105A8F381E0C81AD10804
:1020B000E108F108E8EE8E0EE3E09E1EA11CB11CC3
:1020C000C114D104E104F10429F789E290E00E94EF
:1020D000B21AEC01009751F04F96998388838AE0F9
:1020E0008B8F81E08C8FCE010E94A012D0936A0367
:1020F000C09369038EE290E00E94B21AEC0100974F
:1021000051F04F969983888383E08B8F85E08C8F85
:10211000CE010E94A012D0936C03C0936B03F12CEC
:10212000E12C04E030E020E040E850E065EE72E0B1
:1021300089E99AE00E94D11A03E030E020E040E80B
:1021400050E062EF72E083ED9DE00E94D11A05E05D
:1021500030E020E040E850E06CEF72E084E09CE08A
:102160000E94D11ADF91CF911F910F91FF90EF90B4
:10217000DF90CF90BF90AF909F908F900C94EA1B10
:102180001F920F920FB60F9211240BB60F922F933E
:102190003F934F935F936F937F938F939F93AF93EF
:1021A000BF93EF93FF9380EA93E00E945304FF9163
:1021B000EF91BF91AF919F918F917F916F915F91BF
:1021C0004F913F912F910F900BBE0F900FBE0F902C
:1021D0001F9018951F920F920FB60F9211240BB6F5
:1021E0000F922F938F939F93EF93FF93E091B00300
:1021F000F091B1038081E091B603F091B70382FDC5
:102200001DC090818091B9038F5F8F732091BA03B5
:10221000821741F0E091B903F0E0E056FC4F958F52
:102220008093B903FF91EF919F918F912F910F9020
:102230000BBE0F900FBE0F901F9018958081F2CFAC
:102240001F920F920FB60F9211242F933F938F93EB
:102250009F93AF93BF938091720390917303A0916A
:102260007403B091750330916D0323E0230F2D3774
:1022700058F50196A11DB11D20936D038093720343
:1022800090937303A0937403B093750380916E03CE
:1022900090916F03A0917003B09171030196A11DFD
:1022A000B11D80936E0390936F03A0937003B0935E
:1022B0007103BF91AF919F918F913F912F910F909B
:1022C0000FBE0F901F90189526E8230F0296A11DB0
:1022D000B11DD2CF80914B03882331F080914A0306
:1022E000882321F080E0089581E0089582E0089538
:1022F0000FB6F8940F9280917803909179030F9024
:102300000FBE089580914A038F5F80934A0308951A
:102310000FB6F8940F92FC01928D0F900FBE81E0E2
:10232000911180E00895CF93DF939C01FB01DC01C4
:102330001196CD91DC91D383C2838C819D8195834D
:1023400084838C819D81DC0113967C936E9312971C
:102350007D836C8331872087F90180818F5F808343
:10236000DF91CF910895CF93DF93FC01A085B185D4
:102370008281938124813581EC013D832C83C4814A
:10238000D5819B838A8311968D919C9112978E178C
:102390009F0721F41296DC93CE9311971186108635
:1023A0008C9181508C938C91DF91CF9108950F93F4
:1023B0001F93CF93DF938C01FB0180819181D80122
:1023C00013968F3F9807F1F4E801AF81B885129614
:1023D0008D919C91139793838283EC01FD83EC8311
:1023E000B583A4831396FC93EE931297118700870D
:1023F000F80180818F5F8083DF91CF911F910F91D2
:102400000895D90112962D913C911397E9014881C5
:10241000598184179507A8F7DACFFC01738362838B
:10242000918780874617570790F0421B530B84858E
:10243000958548175907C8F4BF016E5F7F4F80919B
:102440005D0390915E030E94D71180E008954217CA
:10245000530718F46217730740F4BF016E5F7F4F94
:1024600080915F0390916003EECF81E00895FF9229
:102470000F931F93CF93DF93EC01F62E0091780317
:1024800010917903809108039091090302960E94AC
:10249000B311CF3FDC0789F4FF2079F06091080386
:1024A000709109036E5F7F4F8CE493E0DF91CF91D1
:1024B0001F910F91FF900C949311C00FD11FE091C9
:1024C0000803F0910903D383C283609108037091DC
:1024D0000903C017D10768F48091590390915A03FA
:1024E0006E5F7F4FDF91CF911F910F91FF900C9402
:1024F000D71180915703909158036E5F7F4F0E94D0
:10250000D7118091550390915603C817D90720F42D
:10251000D0935603C0935503DF91CF911F910F9134
:10252000FF900895FC010396928381832FEF3FEF84
:1025300034832383968385839087878310820895CD
:10254000CF93DF93EC01892B11F40E94B5090FB6EC
:10255000F8940F92888199812B8D4C8DBC01249F1A
:10256000600D711D11247D836C831A8E9B838A8379
:102570002150330B429FB001439F700D1124860FF1
:10258000971F9F838E838FEF8D8F8E8FCE0108963E
:102590000E949212CE0141960E9492120F900FBE9D
:1025A00081E0DF91CF910895FC01DB010FB6F89433
:1025B0000F9240917803509179032D913C9111979E
:1025C0002F3F3207E1F08181928160917A0370811F
:1025D000761719F048175907C0F4481B590B4217D2
:1025E000530788F4241B350B2D933C9380917A0379
:1025F000808380917803909179039283818380E036
:102600000F900FBE08951D921C9281E0F9CF0F9399
:102610001F93CF93DF93DC011596ED91FC91C6815A
:10262000D781209711F40E94B5098E01045F1F4FD6
:10263000C8010E94B31180914A03811125C00A503C
:102640001109C8010E94B3118E8990919F039817B8
:1026500010F480939F03B9E08B9FC0011124B8014F
:1026600085589C4F0E949311E0910803F091090353
:102670009E898689891760F481E080934003DF9109
:10268000CF911F910F910895B80181E493E0EACFB3
:1026900080E0F5CFEF92FF920F931F93CF93DF93DC
:1026A000EC010FB6F8940F921E8D7C0181E1E80ECB
:1026B000F11C01E01116D4F08FEF8E8F0F900FBE3A
:1026C0000FB6F8940F921D8D7E0188E0E80EF11C84
:1026D00001E01116B4F08FEF8D8F0F900FBEDF91D8
:1026E000CF911F910F91FF90EF90089589898823D2
:1026F00019F3C7010E940713811100934003115081
:10270000D9CF8885882339F3C7010E940713811127
:10271000009340031150DDCFCF93DF93EB0100977F
:1027200011F40E94B5096091080370910903645F78
:102730007F4F0E94D71161E0CE01DF91CF910C94C1
:1027400037120F920FB6F8940F920BB60F920CB689
:102750000F921F9211242F923F924F925F926F928D
:102760007F928F929F92AF92BF92CF92DF92EF9221
:10277000FF920F931F932F933F934F935F936F930A
:102780007F938F939F93AF93BF93CF93DF93EF93F9
:10279000FF93A0910803B09109030DB60D920EB6F8
:1027A0000D9213BE80914A0381112AC18091780352
:1027B0009091790301969093790380937803009721
:1027C00009F066C0E0915703F0915803208122235D
:1027D00061F1F894279A2F9A2FEF61EE74E021505F
:1027E00060407040E1F700C000001F9A8FEF97EA49
:1027F000A1E681509040A040E1F700C000001F9A80
:10280000BFEFC1EED4E0B150C040D040E1F700C00E
:1028100000001F9A2FEF61EE74E02150604070407D
:10282000E1F700C000001F9AD7CF209157033091E5
:1028300058034091590350915A03509358034093C1
:10284000570330935A032093590320917A032F5F43
:1028500020937A03E0915703F091580320812111CE
:1028600007C02FEF3FEF309356032093550310C05E
:10287000E0915703F09158030580F681E02D068022
:10288000F781E02D22813381309356032093550345
:1028900020915503309156038217930710F420E0DE
:1028A0009BC020E019E0E0915703F091580330817C
:1028B000311107C08FEF9FEF90935603809355031C
:1028C0008BC0E0915703F09158030580F681E02D0D
:1028D0000680F781E02D428153818417950728F403
:1028E000509356034093550377C0AF014E5F5F4F3F
:1028F000A285B38564817581E680F780EB01FD8256
:10290000EC82C681D7817B836A8311966D917C911D
:1029100012974617570721F41296DC93CE9311971E
:10292000138612863C9131503C933C91A489B58921
:102930001097F9F066857785E088F188EB01FD82D4
:10294000EC82C089D1897B836A831196ED90FC90DB
:102950001297BF01645F7F4FE616F70621F41296C7
:10296000DC93CE931197158A148A3C9131503C9395
:102970003C91A68930919F033A1710F4A0939F03CE
:102980001A9FD0011124BD0165587C4F7B01DB01EA
:102990001196CD91DC91D583C4836C817D81778341
:1029A00066836C817D81DB0113965C934E93129755
:1029B0005D834C83F386E286E70138813F5F38838D
:1029C000A0910803B0910903468956963C9143179C
:1029D00008F469CF21E067CFE0910803F091090383
:1029E000E689D9E0ED9FF0011124E558FC4F808184
:1029F000823008F021E08091400381110EC00AC0AE
:102A000080913D0390913E03019690933E03809305
:102A10003D0395C0222309F492C080914A03882384
:102A200021F081E0809340038AC010924003A0917E
:102A30000803B0910903E0910803F09109032D9177
:102A40003C918789908D82179307A8F080910803A5
:102A5000909109038091080390910903279A2F9A76
:102A60002FEF67EA71E6215060407040E1F700C047
:102A700000001F9AF5CF80919F0390E069E02EC07F
:102A8000019760F5F894279A2F9ABFEFC1EED4E032
:102A9000B150C040D040E1F700C000001F9A2FEFB6
:102AA00067EA71E6215060407040E1F700C0000025
:102AB0001F9A8FEF91EEA4E081509040A040E1F783
:102AC00000C000001F9ABFEFC1EED4E0B150C0407B
:102AD000D040E1F700C000001F9AD7CF482F689F71
:102AE0009001699F300D1124F901E558FC4F508188
:102AF000552331F2A181B28112960D90BC91A02D87
:102B0000B283A18322583C4FA217B30729F412962F
:102B10002D913C913283218329E0289FF001299F48
:102B2000F00D1124E558FC4F0180F281E02D8681E3
:102B30009781909309038093080340939F03A0918A
:102B40000803B0910903CD91CDBFDD91DEBFFF91A8
:102B5000EF91DF91CF91BF91AF919F918F917F9135
:102B60006F915F914F913F912F911F910F91FF9026
:102B7000EF90DF90CF90BF90AF909F908F907F901D
:102B80006F905F904F903F902F901F900F900CBED2
:102B90000F900BBE0F900FBE0F9008950F920FB6BF
:102BA000F8940F920BB60F920CB60F921F9211244D
:102BB0002F923F924F925F926F927F928F929F924D
:102BC000AF92BF92CF92DF92EF92FF920F931F933B
:102BD0002F933F934F935F936F937F938F939F9325
:102BE000AF93BF93CF93DF93EF93FF93A09108032D
:102BF000B09109030DB60D920EB60D9280914A0365
:102C0000882321F081E0809340038AC01092400322
:102C1000A0910803B0910903E0910803F091090322
:102C20002D913C918789908D82179307A8F0809110
:102C30000803909109038091080390910903279A52
:102C40002F9A2FEF87EA91E6215080409040E1F7DC
:102C500000C000001F9AF5CF80919F0390E069E0CB
:102C60002EC0019760F5F894279A2F9A8FEF91EE76
:102C700024E0815090402040E1F700C000001F9AFE
:102C80008FEF97EA21E6815090402040E1F700C0A5
:102C900000001F9A8FEF91EE24E081509040204079
:102CA000E1F700C000001F9A8FEF91EE24E0815001
:102CB00090402040E1F700C000001F9AD7CF482F76
:102CC000689F9001699F300D1124F901E558FC4F70
:102CD0005081552331F2A181B28112960D90BC91A1
:102CE000A02DB283A18322583C4FA217B30729F429
:102CF00012962D913C913283218329E0289FF00187
:102D0000299FF00D1124E558FC4F0180F281E02D40
:102D100086819781909309038093080340939F03D2
:102D2000A0910803B0910903CD91CDBFDD91DEBF25
:102D3000FF91EF91DF91CF91BF91AF919F918F91D3
:102D40007F916F915F914F913F912F911F910F91C3
:102D5000FF90EF90DF90CF90BF90AF909F908F90BB
:102D60007F906F905F904F903F902F901F900F90AB
:102D70000CBE0F900BBE0F900FBE0F9008957F9268
:102D80008F929F92AF92BF92CF92DF92EF92FF927B
:102D90000F931F93CF93DF9380914A03811102C059
:102DA0000E94B5090FB6F8940F9280914A038150A2
:102DB00080934A0380914A03882389F080E00F9032
:102DC0000FBEDF91CF911F910F91FF90EF90DF9099
:102DD000CF90BF90AF909F908F907F9008958091FB
:102DE0003F03882359F3D0E0C0E029E0F22EEE241F
:102DF000E39429C0E0914603F0914703C681D7814F
:102E0000CE010C960E94B3118E010E5F1F4FC801B8
:102E10000E94B3118E8990919F03981710F48093AC
:102E20009F038F9DC0011124B80185589C4F0E94BB
:102E30009311E0910803F09109039E898689981700
:102E400010F0E0924003809141038111D3CFCD2B4C
:102E500011F00E946707E0903D03F0903E03E114FB
:102E6000F10409F4B6C089E0A82E77247394CC2429
:102E7000CA94DC2C80914A03811199C0C0917803D7
:102E8000D09179032196D0937903C093780320974A
:102E9000F1F4E0915703F09158038081811180CFC4
:102EA00080915703909158032091590330915A0310
:102EB000309358032093570390935A0380935903F8
:102EC00080917A038F5F80937A030E9467078091D5
:102ED000550390915603B12CC817D90708F05BC071
:102EE000E0910803F0910903E689AE9EF0011124F8
:102EF000E558FC4F8081823010F0BB24B394809160
:102F00004003811103C0BB2009F45AC070924003F2
:102F100057C0E0915703F09158030580F681E02DEA
:102F200006811781D80112968D919C91C817D907F7
:102F300028F49093560380935503D2CF4801B2E012
:102F40008B0E911CC4010E94B311F80184899589EC
:102F5000892B21F0C8010C960E94B311D801569616
:102F60008C9190919F03981710F480939F038A9DF2
:102F7000C0011124B40185589C4F0E949311E09127
:102F80000803F0910903D80156969C9186899817F9
:102F900010F0BB24B394E0915703F0915803808163
:102FA0008111B7CFD0925603C092550399CF80912B
:102FB0003D0390913E03019690933E0380933D0321
:102FC000B1E0EB1AF10809F055CF10923E031092D0
:102FD0003D0380914003882309F4F0CE0E94CE1572
:102FE00081E0EDCEAF92BF92DF92EF92FF920F930E
:102FF0001F93CF93DF9300D01F921F92CDB7DEB700
:103000008C017B015D834C83892B11F40E94B509EF
:103010000E946A11811104C08C819D81892BB1F7B6
:1030200080E0580128E0A20EB11CC0C0E480F58009
:10303000E114F10419F580E0F80115821482D394AB
:10304000F801D28E9189992321F0C80141960E94FE
:10305000071381110E94CE150F900FBE81E00F90D3
:103060000F900F900F900F90DF91CF911F910F91C4
:10307000FF90EF90DF90BF90AF900895809108038C
:1030800090910903E816F90609F0C0CFF70182A173
:10309000882309F4BBCF815082A3268991A12917E7
:1030A00051F28111C8CF5701F2E0AF0EB11CC5013A
:1030B0000E94B311F70181A1868B24E030E0281B28
:1030C00031093587248790919F03981710F48093D6
:1030D0009F03F9E08F9FC0011124B50185589C4FD3
:1030E0000E94931181E0A8CF50E0B70182819381C3
:1030F0000E948724F801848D22813381820F932FCF
:10310000911D93838283248135818217930708F46C
:103110005FC080819181938382835AC02C813D81DD
:10312000232B21F40F900FBE80E099CF811109C0AD
:1031300080917A03898380917803909179039B83AE
:103140008A830F900FBE0E9482110FB6F8940F92DF
:10315000F801858D8F3F09F4158EF801868D8F3F1C
:1031600009F4168E0F900FBEBE016C5F7F4FCE012B
:1031700001960E94D412811133C00FB6F8940F92B9
:10318000F801928D838D0F900FBE981323C06C8130
:103190007D81C5010E948C13C8010E944A130E94C0
:1031A000BF16811102C00E94CE1581E00FB6F894BF
:1031B0000F92F801228D938D291708F0AFCFD28C92
:1031C000448D411191CF80819181892B09F42ECFBB
:1031D00080E035CFC8010E944A130E94BF16E5CF98
:1031E000C8010E944A130E94BF169ECF0F931F93DF
:1031F000CF93DF9300D01F921F92CDB7DEB7009719
:1032000011F40E94B509009176031091770301151E
:103210001105C9F019827B836A839D838C830E9488
:103220006A1150E040E0BE016F5F7F4FC8010E940D
:10323000F2170F900F900F900F900F90DF91CF919A
:103240001F910F91089580E0F4CFEF92FF920F93BA
:103250001F93CF93DF93E0915F03F0916003808130
:10326000811113C080915D0390915E039093600380
:1032700080935F03F0935E03E0935D03DF91CF9152
:103280001F910F91FF90EF9008950580F681E02D3A
:1032900000811181C681D7817E0182E0E80EF11C98
:1032A000C7010E94B311E889F989CE0119958A896D
:1032B00082FFD1CF8C859D85800F911F081719073C
:1032C00060F49B838A83D987C887B70180915F03A5
:1032D000909160030E94D711BECFB801CE010E9429
:1032E000F6188111B8CF0E94B509CF93DF930097EC
:1032F00051F0EC010E948211CE010E94B31FDF91B8
:10330000CF910C94BF16DF91CF910895CF93DF93A7
:10331000EC0180914A0381110E94B5090E9482113B
:1033200060E0CE010E9437120E94BF16811102C0D8
:103330000E94CE15DF91CF9108950F931F93CF93E5
:10334000DF93EC010FB6F8940F92892B21F4C09112
:103350000803D09109038E010E5F1F4FC8010E9420
:10336000B3118C899D89892B21F0CE010C960E9486
:10337000B311809126038F5F809326038091080309
:10338000909109038C179D07E9F4B8018DE193E052
:103390000E94931180911C038F5F80931C030F90F8
:1033A0000FBE80914B038823F1F080910803909128
:1033B00009038C179D07B9F480914A03882389F08B
:1033C0000E94B50980913F03815080933F038F890C
:1033D000988D0E947519CE010E9475190E94670789
:1033E000DECF0E94CE15DF91CF911F910F910895EE
:1033F000AF92BF92CF92DF92FF920F931F93CF9322
:10340000DF9300D01F921F92CDB7DEB78C016B0106
:103410005D834C83892B11F40E94B5090E946A11C7
:10342000811104C08C819D81892BB1F780E0580106
:1034300091E1A90EB11C44C02C813D81232B21F4C4
:103440000F900FBE80E06DC0811109C080917A039A
:10345000898380917803909179039B838A830F906D
:103460000FBE0E9482110FB6F8940F92F801858D5D
:103470008F3F09F4158EF801868D8F3F09F4168E63
:103480000F900FBEBE016C5F7F4FCE0101960E9470
:10349000D41281115BC0C8010E948811882309F4ED
:1034A0004FC06C817D81C5010E948C13C8010E94B0
:1034B0004A130E94BF16811102C00E94CE1581E0FE
:1034C0000FB6F8940F92F801F28CFF2009F4B4CFF4
:1034D000448D4423B1F050E086819781840F951F7D
:1034E00097838683248135818217930720F080811A
:1034F000918197838683F80166817781C6010E9456
:103500008724FA94F801F28E8085882339F0C80167
:1035100008960E94071381110E94CE150F900FBECE
:1035200081E00F900F900F900F900F90DF91CF914F
:103530001F910F91FF90DF90CF90BF90AF900895B3
:10354000C8010E944A130E94BF16B9CFC8010E9449
:103550004A130E94BF16C8010E948811882309F4EB
:10356000AECF70CFCF93DF93EC010E948211CE01DA
:103570000E94171FEC010E94BF16209771F40E9451
:103580003B072FEF80E792E0215080409040E1F729
:1035900000C000000E943907F4CFCE01DF91CF9127
:1035A00008955F926F927F928F929F92AF92BF9297
:1035B000CF92DF92EF92FF920F931F93CF93DF93FF
:1035C000782E892E562E672E6A01922E132FCA014D
:1035D0000E94B21A5C01892B09F4D9C088E290E0FC
:1035E0000E94B21AEC01892B09F4CEC0B88EAF8AC2
:1035F000A60165EA70E0C5010E94902421E0C21A8C
:10360000D108EF89F88DEC0DFD1D652D762DCE01CD
:1036100049969B01285F3F4FDB014D91BD01DC01C5
:103620004D93CD01AB0141505109DA014C91442336
:1036300019F06217730781F718A2043008F003E04D
:103640000E8B09A31AA21B861A861D8A1C8AD9878B
:10365000C88784E090E0801B91099D878C87DB8B75
:10366000CA8B1BA21CA21DA21EA21FA27082DF0178
:1036700011978C9211971C9211971C92119780E8C8
:103680008C9311971C9211971C9211971C9257972B
:103690009C9211971C93B697F983E883E114F10487
:1036A00019F0F701D183C0830FB6F8940F9280917F
:1036B0003F038F5F80933F0380910803909109033C
:1036C000892B09F075C0D0930903C093080380913A
:1036D0003F03813081F58BE793E00E94921284E8EA
:1036E00093E00E9492128DE893E00E94921286E984
:1036F00093E00E94921283E193E00E9492128AE08A
:1037000093E00E94921281E493E00E9492128DE174
:1037100093E00E9492128CE493E00E94921283E163
:1037200093E090935803809357038AE093E090933B
:103730005A0380935903809126038F5F8093260359
:103740008E8990919F03981710F480939F03F9E05E
:103750008F9FC0011124BE016E5F7F4F85589C4F23
:103760000E9493110F900FBE80914B03882351F05C
:10377000E0910803F091090396898E89981710F457
:103780000E94CE1581E004C0C5010E9475198FEF1B
:10379000DF91CF911F910F91FF90EF90DF90CF902D
:1037A000BF90AF909F908F907F906F905F900895A3
:1037B00080914B038111BFCFE0910803F091090381
:1037C00096898E89891708F4B6CFD0930903C093E0
:1037D0000803B1CFEF92FF920F93CF93DF939BE358
:1037E000E92E93E0F92E00E030E020E040EC50E0DC
:1037F00068EB72E084E991E00E94D11A813009F00F
:103800009DC00FB6F8940F92809176039091770344
:10381000892B49F580E393E00E94921287E293E0BE
:103820000E94921280E393E09093600380935F0381
:1038300087E293E090935E0380935D0381E590E0DF
:103840000E94B21AEC01009751F04F969983888339
:103850008AE08B8F85E08C8FCE010E94A012D093DE
:103860007703C09376030F900FBE809176039091FB
:103870007703892B89F089E3E82E83E0F82E03E0B3
:1038800030E020E045E550E06DEB72E082EC91E045
:103890000E94D11A811102C00E94B509813009F03D
:1038A0004DC0F8942FEF3FEF30935603209355030C
:1038B00080934B031092790310927803A89588E1C6
:1038C00090EC0FB6F894A895809360000FBE90938B
:1038D0006000A0910803B0910903CD91CDBFDD91A7
:1038E000DEBFFF91EF91DF91CF91BF91AF919F919B
:1038F0008F917F916F915F914F913F912F911F9188
:103900000F91FF90EF90DF90CF90BF90AF909F907E
:103910008F907F906F905F904F903F902F901F906F
:103920000F900CBE0F900BBE0F900FBE0F9008951E
:10393000DF91CF910F91FF90EF9008958F3FC1F7E6
:10394000ABCF0E94A1131895DF92EF92FF920F93D5
:103950001F93CF93DF931092A3031092A20388EEDC
:1039600093E0A0E0B0E08093A4039093A503A0931C
:10397000A603B093A70382E392E09093A103809300
:10398000A00385EC90E09093AD038093AC0384ECAE
:1039900090E09093AF038093AE0380EC90E090931F
:1039A000B1038093B00381EC90E09093B3038093D4
:1039B000B20382EC90E09093B5038093B40386EC5D
:1039C00090E09093B7038093B6031092B9031092DE
:1039D000BA031092BB031092BC031092460484E118
:1039E0008093470485E1809348041092430482E168
:1039F0008093440483E1809345041092400480E165
:103A00008093410481E18093420410923D048EE052
:103A100080933E048FE080933F0410920305109240
:103A20000705109206051092080580E592E0909334
:103A3000020580930105EDE1F5E089E595E010824E
:103A400014821382158236968E179F07C1F784E180
:103A500092E0909364058093630580E192E09093F7
:103A600066058093650584E0E82EE0926705E092A4
:103A7000680588E192E090936205809361058AE091
:103A800090E090936A058093690584EF91E09093AC
:103A90006C0580936B0510926F0510926E05109265
:103AA0005D0510925E0510925F0510926005109200
:103AB0006D051092EC041092EB0484E492E0909374
:103AC000EA048093E9048DE08093ED048FEF809306
:103AD000EE041CE01093EF048BE08093F0049AE076
:103AE000F92EF092F10409E00093F204D8E0D093AB
:103AF000F3041092F4041092F5041092F60410925C
:103B0000F7041092F80481E00E941E0810926C04E1
:103B1000C1E0C0936D046EEC72E08EE694E00E940A
:103B20006C09D0937404C09375046EEC72E086E760
:103B300094E00E946C0910927C0410927D04109213
:103B40007E0425E0D22ED0927F0410928004109241
:103B50008104F092820410928304109284041092E3
:103B60008504C093860460E972E087E894E00E94CF
:103B70006C09D0938D04C0938E0464E073E08FE8E9
:103B800094E00E946C0900939504C09396041092EF
:103B9000970410939804C093990410929A043FE0FC
:103BA000F32EF0929B04C0939C0410929D041092FB
:103BB0009E04C0939F046BE972E080EA94E00E9447
:103BC0006C09D093A604C093A70466E073E088EA6A
:103BD00094E00E946C090093AE04C093AF0410926D
:103BE000B0041093B104C093B2041092B304F092E5
:103BF000B404C093B5041092B6041092B704C093F5
:103C0000B80466EA72E089EB94E00E946C09D093F4
:103C1000BF04C093C00464E073E081EC94E00E94B0
:103C20006C090093C704C093C8041092C904109390
:103C3000CA04C093CB041092CC04F092CD04C0937C
:103C4000CE041092CF041092D004C093D10461EB43
:103C500072E082ED94E00E946C09D093D804C09386
:103C6000D90464E073E08AED94E00E946C0900934B
:103C7000E004C093E1041092E2041093E304C093C3
:103C8000E4041092E504F092E604C093E704109275
:103C9000E804E0926904D0926A0482E080936B04A5
:103CA00089E694E0909368048093670481E694E049
:103CB0000E94BB0389E494E00E94BB038FE494E07C
:103CC0000E94BB0385E594E00E94BB038BE594E072
:103CD000DF91CF911F910F91FF90EF90DF900C94A7
:103CE000BB03789484B5826084BD84B5816084BD53
:103CF00085B5826085BD85B5816085BD80916E008A
:103D0000816080936E0010928100809181008260BA
:103D100080938100809181008160809381008091F7
:103D200080008160809380008091B10084608093E6
:103D3000B1008091B00081608093B00080919100CB
:103D400082608093910080919100816080939100C6
:103D5000809190008160809390008091A1008260AA
:103D60008093A1008091A10081608093A100809147
:103D7000A00081608093A0008091210182608093E7
:103D80002101809121018160809321018091200196
:103D900081608093200180917A00846080937A0012
:103DA00080917A00826080937A0080917A008160AD
:103DB00080937A0080917A00806880937A001092D4
:103DC000C10020912C0230912D028FEF91E2821BD5
:103DD000930B90932902809328020E94A10F0E94C6
:103DE000EA1B0E94A10F0E94E204FDCF0F931F93D4
:103DF000CF93DF93C9EED4E06997F1F38E01005FB2
:103E00001F4FC017D10751F008501109F8018281E6
:103E100093810097B1F30E94B31FF3CFF4E0CC3647
:103E2000DF0751F7DF91CF911F910F9108950F9305
:103E30001F93CF93DF938230910510F482E090E0DE
:103E4000E0917205F091730530E020E0B0E0A0E071
:103E5000309799F42115310509F44AC0281B390B14
:103E600024303105D8F58A819B816115710589F16E
:103E7000FB0193838283FE0111C040815181028145
:103E8000138148175907E0F04817590799F410971C
:103E900061F012960C93129713961C933296CF01F1
:103EA000DF91CF911F910F910895009372051093A8
:103EB0007305F4CF2115310551F04217530738F03F
:103EC000A901DB019A01BD01DF01F801C1CFEF01BA
:103ED000F9CF9093730580937205CDCFFE01E20F69
:103EE000F31F819391932250310939832883D7CFCF
:103EF0002091700530917105232B41F420912A0205
:103F000030912B0230937105209370052091280287
:103F1000309129022115310541F42DB73EB740916A
:103F20002C0250912D02241B350BE0917005F0916D
:103F30007105E217F307A0F42E1B3F0B2817390772
:103F400078F0AC014E5F5F4F2417350748F04E0FF5
:103F50005F1F5093710540937005819391939FCF9C
:103F6000F0E0E0E09CCFCF93DF930097E9F0FC0115
:103F7000329713821282A0917205B0917305ED0100
:103F800030E020E01097A1F420813181820F931F4F
:103F900020917005309171052817390709F061C02B
:103FA000F0937105E0937005DF91CF910895EA01D8
:103FB000CE17DF07E8F54A815B819E014115510567
:103FC000B1F7E901FB83EA8349915991C40FD51FE9
:103FD000EC17FD0761F4808191810296840F951F93
:103FE000E90199838883828193819B838A83F0E0AE
:103FF000E0E012968D919C9113970097B9F52D9161
:104000003C911197CD010296820F931F209170056C
:10401000309171052817390739F6309751F510920C
:10402000730510927205B0937105A0937005BCCF13
:10403000D383C28340815181840F951FC817D9074C
:1040400061F44E5F5F4F88819981480F591F5183FA
:1040500040838A819B81938382832115310509F0F6
:10406000B0CFF0937305E09372059ECFFD01DC01A4
:10407000C0CF13821282D7CF0F931F93CF93DF93BA
:10408000CDB7DEB72E970FB6F894DEBF0FBECDBF0B
:104090000E891F89888D998D2EE02C831A830983C0
:1040A00097FF02C080E090E801979E838D83AE0168
:1040B000445E5F4F6A8D7B8DCE0101960E94792010
:1040C0004D815E8157FD0AC02F8138854217530705
:1040D0000CF49A01020F131FF80110822E960FB6EE
:1040E000F894DEBF0FBECDBFDF91CF911F910F912E
:1040F00008952F923F924F925F926F927F928F928C
:104100009F92AF92BF92CF92DF92EF92FF920F9366
:104110001F93CF93DF9300D000D000D01F921F9247
:10412000CDB7DEB77C013B018A01FC011782168204
:10413000838181FFDDC1CE0101965C01F70193818E
:10414000F30193FD859193FF81913F01882309F449
:1041500053C1853239F493FD859193FF81913F01DD
:10416000853229F4B70190E00E949122E7CF912C8B
:10417000212C312CFFE1F31538F08B3211F190F442
:10418000803209F1833229F137FC3CC020ED280F41
:104190002A3050F536FE20C08AE0989E200D11246A
:1041A000922E06C08D3291F0803371F7689430F80A
:1041B000F30193FD859193FF81913F018111DACF46
:1041C00021C0689431F8689432F8F2CF689433F8DB
:1041D000EFCF689434F8ECCFEAE02E9E200D112446
:1041E000222E689435F8E4CF8E3229F436FC04C1CF
:1041F000689436F8DDCF8C3619F4689437F8D8CF48
:104200008836B1F2982F9F7D95549330E0F0833635
:10421000A1F18337C1F1833509F063C02801F2E0D1
:104220004F0E511CF801C080D180692D70E036FC22
:1042300002C06FEF7FEFC6010E947B224C016894A1
:1042400037F882010AC00C5F1F4FFFE3F98388240F
:104250008394912C6501E89437F833FE2DC0522CDD
:104260008114910471F5552009F468CFB70180E2FB
:1042700090E00E9491225A94F6CFF80180818983C0
:104280000E5F1F4FE4CF2801F2E04F0E511CF801E2
:10429000C080D180692D70E036FC02C06FEF7FEFE7
:1042A000C6010E9486224C018201D5CFB70180E26F
:1042B00090E00E9491222A942814190409F0B0F782
:1042C000CECFF60137FC859137FE81916F01B701A2
:1042D00090E00E94912251105A94F1E08F1A9108B7
:1042E000BFCF843619F0893609F077C0F80137FE60
:1042F0006BC060817181828193810C5F1F4FF32DB0
:10430000FF763F2E97FF09C0909580957095619537
:104310007F4F8F4F9F4F689437F82AE030E0A50118
:104320000E94C122C82ECA188C2C432C36FE0CC009
:10433000E89440F8C91440F434FE05C032FC03C0D0
:10434000F32DFE7E4F2E892C44FEAAC0FE01EC0DFB
:10435000F11D8081803309F09CC0242D297E422EDE
:10436000842D8870582E43FCAAC040FEA4C09C2C0B
:10437000821418F42C0C922C981844FEA6C0B70195
:1043800080E390E00E94912242FE09C088E790E01D
:1043900041FE02C088E590E0B7010E949122C91455
:1043A00008F49FC0CA94D12C9FEFC91AD90ACA0C2D
:1043B000DB1CF60182916F01B70190E00E9491220F
:1043C000AC14BD04B1F74FCF60817181072E000C92
:1043D000880B990B0E5F1F4F92CFD32CE894D4F823
:1043E0002AE030E08537E1F1232D297FD22E8F3668
:1043F000A9F1F0F4883551F1F701868197812B9668
:104400000FB6F894DEBF0FBECDBFDF91CF911F91E5
:104410000F91FF90EF90DF90CF90BF90AF909F9063
:104420008F907F906F905F904F903F902F90089566
:10443000803749F0883701F7D4FE02C06894D2F87B
:1044400020E130E00DC06894D4F8F6CF34FE03C00C
:10445000822F8660D82E20E132E002C028E030E0D2
:10446000F801D7FE0FC060817181828193810C5F5A
:104470001F4FA5010E94C122C82ECA183D2CE894E6
:1044800037F852CF6081718190E080E00E5F1F4F5E
:10449000F0CF42FC02C0839463CF8394839460CFB7
:1044A000842D867809F45CCFF6CFB70180E290E0E6
:1044B0000E94912283948214C0F3512C5ECF522C1F
:1044C0005818821408F459CFF8CF842D867809F44F
:1044D00066CF8BE241FE80E247FC8DE2B70190E0BF
:1044E0005CCFB70180E390E00E9491229A9457CF6D
:1044F0008FEF9FEF84CFFC01059061507040011059
:10450000D8F7809590958E0F9F1F0895FC016150FC
:10451000704001900110D8F7809590958E0F9F1FE5
:1045200008950F931F93CF93DF93182F092FEB015B
:104530008B8181FD09C01FEF0FEF812F902FDF913D
:10454000CF911F910F91089582FF14C02E813F815A
:104550008C819D81281739073CF4E881F981CF01CE
:1045600001969983888310838E819F8101969F8312
:104570008E83E3CFE885F985812F1995892BA1F3E7
:10458000DACFFA01AA27283051F1203181F1E894DD
:104590006F936E7F6E5F7F4F8F4F9F4FAF4FB1E036
:1045A0003ED0B4E03CD0670F781F891F9A1FA11D31
:1045B000680F791F8A1F911DA11D6A0F711D811D32
:1045C000911DA11D20D009F468943F912AE0269FF7
:1045D00011243019305D3193DEF6CF010895462F56
:1045E0004770405D4193B3E00FD0C9F7F6CF462F37
:1045F0004F70405D4A3318F0495D31FD40524193A0
:1046000002D0A9F7EACFB4E0A6959795879577955C
:104610006795BA95C9F700976105710508959B01E3
:10462000AC010A2E06945795479537952795BA956C
:10463000C9F7620F731F841F951FA01D0895F99974
:10464000FECF92BD81BDF89A992780B50895262F97
:10465000F999FECF1FBA92BD81BD20BD0FB6F89467
:10466000FA9AF99A0FBE0196089597FB072E16F451
:10467000009407D077FD09D00E94922307FC05D053
:104680003EF4909581959F4F0895709561957F4F69
:104690000895A1E21A2EAA1BBB1BFD010DC0AA1F83
:1046A000BB1FEE1FFF1FA217B307E407F50720F09B
:1046B000A21BB30BE40BF50B661F771F881F991F16
:1046C0001A9469F760957095809590959B01AC015F
:1046D000BD01CF010895052E97FB1EF400940E94A2
:1046E000822357FD07D00E94492307FC03D04EF4D4
:1046F0000C94822350954095309521953F4F4F4F14
:104700005F4F089590958095709561957F4F8F4F7D
:104710009F4F0895EE0FFF1F881F8BBF0790F691E4
:10472000E02D1994AA1BBB1B51E107C0AA1FBB1F98
:10473000A617B70710F0A61BB70B881F991F5A952D
:10474000A9F780959095BC01CD0108954F925F9295
:104750006F927F928F929F92AF92BF92CF92DF9291
:10476000EF92FF920F931F93CF93DF938C010097EB
:1047700099F4CB01DF91CF911F910F91FF90EF90B2
:10478000DF90CF90BF90AF909F908F907F906F9071
:104790005F904F900C94171FFC01E60FF71F9C01D0
:1047A00022503109E217F30708F4AEC0D901CD91C8
:1047B000DC911197C617D70720F1C530D10578F0E5
:1047C000CE0104978617970750F0C61BD70B229788
:1047D000C193D1936D937C93CF010E94B31FC80105
:1047E000DF91CF911F910F91FF90EF90DF90CF90CD
:1047F000BF90AF909F908F907F906F905F904F9001
:1048000008955B01AC1ABD0A4C018C0E9D1EA0914F
:104810007205B0917305512C412CF12CE12C1097AD
:1048200031F580917005909171058815990509F011
:104830005CC04616570608F058C080912802909137
:104840002902009741F48DB79EB740912C025091F8
:104850002D02841B950BE817F90708F055C0F0935B
:104860007105E0937005F90171836083B8CF8D9174
:104870009C91119712966C90129713967C901397B7
:10488000A815B90559F56C0142E0C40ED11CCA1433
:10489000DB0420F1AC014A195B09DA011296159785
:1048A00080F06282738251834083D9016D937C933F
:1048B000E114F10471F0D7011396FC93EE93129773
:1048C0008ECF22968C0F9D1FF90191838083F30177
:1048D000EFCFF0937305E093720581CF4816590628
:1048E00008F42C017D01D3019ACFCB010E94171F40
:1048F0007C01009749F0AE01B8010E948724C801ED
:104900000E94B31F87016BCF10E000E068CFFB016E
:10491000DC0102C001900D9241505040D8F708953B
:10492000DC0101C06D9341505040E0F70895FB0158
:10493000DC0101900D920020E1F7089512E0C4EF30
:10494000D2E000E006C0802FFE010E948A2321965B
:10495000011DC53FD10780E00807A9F7F894FFCFF4
:10496000323334352E2F30312A2B2C2D262728296F
:10497000393837363D3C3B3A3031323334353637CF
:104980003839414243444546000074058000000028
:1049900000007504DF030C04C2043D041B042F0453
:1049A00000000000D608DF032B072A0700000000E4
:1049B000350731072E070D0A004552524F5221008C
:1049C0004552524F5220434F44453A203030330035
:1049D0002020465F6B65795F6E756D3A0070616788
:1049E000653A002020696E6465783A005461736B03
:1049F000416C61726D31005461736B416C61726D19
:104A000032005461736B416C61726D330054617399
:104A10006B416C61726D340049444C4500546D72B9
:104A20002053766300636F6D70696C65643A200093
:104A300053657020313920323032300032333A330E
:104A4000383A3435004B6579626F61726452656142
:104A500064004D61696E4C6F6769630044697370EF
:084A60006C6179004200440082
:10E000000D9489F10D94B2F10D94B2F10D94B2F129
:10E010000D94B2F10D94B2F10D94B2F10D94B2F1F0
:10E020000D94B2F10D94B2F10D94B2F10D94B2F1E0
:10E030000D94B2F10D94B2F10D94B2F10D94B2F1D0
:10E040000D94B2F10D94B2F10D94B2F10D94B2F1C0
:10E050000D94B2F10D94B2F10D94B2F10D94B2F1B0
:10E060000D94B2F10D94B2F10D94B2F10D94B2F1A0
:10E070000D94B2F10D94B2F10D94B2F10D94B2F190
:10E080000D94B2F10D94B2F10D94B2F10D94B2F180
:10E090000D94B2F10D94B2F10D94B2F10D94B2F170
:10E0A0000D94B2F10D94B2F10D94B2F10D94B2F160
:10E0B0000D94B2F10D94B2F10D94B2F10D94B2F150
:10E0C0000D94B2F10D94B2F10D94B2F10D94B2F140
:10E0D0000D94B2F10D94B2F10D94B2F10D94B2F130
:10E0E0000D94B2F141546D656761323536300041AF
:10E0F000726475696E6F206578706C6F72657220DE
:10E1000073746B3530305632206279204D4C530099
:10E11000426F6F746C6F616465723E004875683F52
:10E1200000436F6D70696C6564206F6E203D200048
:10E130004350552054797065202020203D20005FF9
:10E140005F4156525F415243485F5F3D2000415658
:10E1500052204C696243205665723D20004743437C
:10E160002056657273696F6E203D20004350552024
:10E1700049442020202020203D20004C6F7720663D
:10E18000757365202020203D20004869676820665F
:10E190007573652020203D200045787420667573D6
:10E1A00065202020203D20004C6F636B2066757336
:10E1B000652020203D20004D617220203720323024
:10E1C000313300312E362E3800342E332E350056A2
:10E1D00023202020414444522020206F7020636F70
:10E1E00064652020202020696E73747275637469E1
:10E1F0006F6E2061646472202020496E74657272B3
:10E20000757074006E6F20766563746F7200726A49
:10E210006D702020006A6D70200057686174207056
:10E220006F72743A00506F7274206E6F7420737541
:10E2300070706F72746564004D7573742062652030
:10E2400061206C6574746572002000577269747483
:10E25000696E672045450052656164696E672045B7
:10E26000450045452065727220636E743D00504F35
:10E27000525400303D5A65726F2061646472003FF1
:10E280003D43505520737461747300403D454550C3
:10E29000524F4D207465737400423D426C696E6B41
:10E2A000204C454400453D44756D70204545505215
:10E2B0004F4D00463D44756D7020464C415348001B
:10E2C000483D48656C70004C3D4C69737420492F83
:10E2D0004F20506F72747300513D51756974005234
:10E2E0003D44756D702052414D00563D73686F7707
:10E2F00020696E7465727275707420566563746FF0
:10E30000727300593D506F727420626C696E6B00BD
:10E310002A0011241FBECFEFD1E2DEBFCDBF01E046
:10E320000CBF12E0A0E0B2E0EEE1FDEF03E00BBFB6
:10E3300002C007900D92A030B107D9F712E0A0E01B
:10E34000B2E001C01D92AE30B107E1F70F9460F367
:10E350000D948DFE01E20EBF0FEF0DBF11241FBE05
:10E360000D9460F30D9400F020E030E040ED57E0B4
:10E3700005C0FA013197F1F72F5F3F4F2817390792
:10E38000C0F308959C01260F311DC901A0E0B0E043
:10E390002F5F3F4FABBFFC018791882361F08093D3
:10E3A000C6008091C00086FFFCCF8091C0008064D1
:10E3B0008093C000EACF08958DE08093C6008091DD
:10E3C000C00086FFFCCF8091C00080648093C000B5
:10E3D0008AE08093C6008091C00086FFFCCF8091C8
:10E3E000C00080648093C00008950F94C2F10F9420
:10E3F000DCF10895FC019081992359F09093C600B7
:10E400008091C00086FFFCCF8091C0008064809323
:10E41000C0003196992379F70895282F982F929567
:10E420009F70892F805D8A3308F0895F8093C600D2
:10E430008091C00086FFFCCF8091C00080648093F3
:10E44000C000822F8F70982F905D9A3308F0995FEB
:10E450009093C6008091C00086FFFCCF8091C000E1
:10E4600080648093C00008959C01FB01853691056E
:10E470001CF46330710594F0C90164E670E00F94F8
:10E480002EFE605D7F4F6093C6008091C00086FFC6
:10E49000FCCF8091C00080648093C0002B30310598
:10E4A00014F43297B4F0C90164E670E00F942EFEC4
:10E4B0006AE070E00F942EFE605D7F4F6093C600AF
:10E4C0008091C00086FFFCCF8091C0008064809363
:10E4D000C000C9016AE070E00F942EFEC0968093E0
:10E4E000C6008091C00086FFFCCF8091C000806490
:10E4F0008093C00008951F93182F8EE692EE60E07F
:10E500000F94C2F11093C6008091C00086FFFCCF2B
:10E510008091C00080648093C0000F94DCF11F9153
:10E5200008952F923F924F925F926F927F928F92B7
:10E530009F92AF92BF92CF92DF92EF92FF920F9392
:10E540001F93DF93CF93CDB7DEB762970FB6F894E2
:10E55000DEBF0FBECDBF382E622ECA01DB015C01CB
:10E560006D01772420E2222E2E010894411C511CBB
:10E570008BC081E0A81680E0B80681E0C80680E084
:10E58000D80628F0C601AA27BB270F940DF2BB2797
:10E59000AD2D9C2D8B2D0F940DF28A2D0F940DF225
:10E5A0002092C6008091C00086FFFCCF8091C00001
:10E5B00080648093C0009DE29093C6008091C0006B
:10E5C00086FFFCCF8091C00080648093C0002092C1
:10E5D000C6008091C00086FFFCCF8091C00080649F
:10E5E0008093C00019828601750188249924A1E0D6
:10E5F0003A1651F03A1620F0B2E03B1661F409C029
:10E600000BBFF701779007C0C7010F9477FE782EF4
:10E6100002C0F7017080872D0F940DF22092C60082
:10E620008091C00086FFFCCF8091C0008064809301
:10E63000C000872D8052F401EF70F0708F3520F408
:10E64000E40DF51D708204C0E40DF51D8EE280839B
:10E650000894E11CF11C011D111D0894811C911CE2
:10E6600090E18916910409F0C2CF80E190E0A0E02A
:10E67000B0E0A80EB91ECA1EDB1E198AC2010F9493
:10E68000FAF10F94DCF16A94662009F072CF629679
:10E690000FB6F894DEBF0FBECDBFCF91DF911F91B3
:10E6A0000F91FF90EF90DF90CF90BF90AF909F9031
:10E6B0008F907F906F905F904F903F902F90089534
:10E6C0002F923F924F925F926F927F928F929F9282
:10E6D000AF92BF92CF92DF92EF92FF920F931F9370
:10E6E000DF93CF93CDB7DEB7CD53D1400FB6F894BB
:10E6F000DEBF0FBECDBF01E20EBF0FEF0DBF94B75F
:10E70000F894A89514BE80916000886180936000A1
:10E7100010926000789493FF05C0E0910002F091A0
:10E7200001021995279A2F9A8091C00082608093E8
:10E73000C00080E18093C40088E18093C1000000A4
:10E74000EE24FF24870144E0A42EB12CCC24DD2448
:10E7500024C0C5010197F1F70894E11CF11C011DCB
:10E76000111D21E2E2162EE4F20620E0020720E06D
:10E77000120718F031E0C32ED12CC801B70127ECE5
:10E780003BE140E050E00F9441FE611571058105C9
:10E79000910519F485B1805885B98091C00087FD35
:10E7A00003C0C114D104A9F2A6014F5F5F4FC25E3E
:10E7B000DE4F59834883CE51D140C25EDE4F8881FF
:10E7C0009981CE51D140019711F00D9410FEC05D9A
:10E7D000DE4F19821882C053D14060E0C15DDE4F28
:10E7E0001882CF52D14088249924C35DDE4F19820C
:10E7F0001882CD52D140C05EDE4F188219821A8233
:10E800001B82C052D140CE5CDE4F188219821A8220
:10E810001B82C253D140EE24FF2487010BBFF701B6
:10E8200007911691C45CDE4F19830883CC53D14005
:10E830000D940BFEC25EDE4F28813981CE51D1404E
:10E840002130310509F52091C600C25EDE4F1982E4
:10E850001882CE51D14022C02F5F3F4F4F4F5F4FA4
:10E86000213082E138078AE7480780E0580780F0C6
:10E87000C45CDE4FE881F981CC53D140EF5FFF4F9C
:10E8800019F0EE27FF27099420E030E040E050E047
:10E890008091C00087FFE0CF2091C600C35DDE4FAE
:10E8A00048815981CD52D1404F5F5F4FC35DDE4FEC
:10E8B00059834883CD52D140213209F063C64A3092
:10E8C000510508F05FC60894811C911C53E0851621
:10E8D000910409F059C600E010E018C081E280936D
:10E8E000C6008091C00086FFFCCF8091C00080648C
:10E8F0008093C0002F5F3F4F2931310579F70F9486
:10E90000DCF10F5F1F4F0530110519F020E030E0FA
:10E91000E5CF10920A0210920B0210920C02109294
:10E920000D02109206021092070210920802109235
:10E930000902109202021092030210920402109235
:10E9400005028FEE90EE60E00F94F5F180E191EE1C
:10E9500060E00F94C2F18091C00087FFFCCF9091DE
:10E96000C600903608F09F759032B8F09093C600BC
:10E970008091C00086FFFCCF8091C00080648093AE
:10E98000C000A0E2A093C6008091C00086FFFCCF2B
:10E990008091C00080648093C000983409F4D7C18E
:10E9A0009934B8F4923409F459C1933458F490333B
:10E9B00019F1903308F4E3C59F33A1F1903409F0C5
:10E9C000DEC5BDC0953409F470C1963409F0D7C5D1
:10E9D00098C1923509F42BC2933538F49C3409F46C
:10E9E000F5C1913509F0CBC518C2963509F445C279
:10E9F000993509F0C4C567C483E792EE62E00F94CD
:10EA0000F5F110920602109207021092080210927D
:10EA1000090210920A0210920B0210920C0210923C
:10EA20000D0213C18FE792EE62E00F94F5F18FEEC5
:10EA300090EE60E00F94F5F181E291EE60E00F94CA
:10EA4000C2F187EB91EE60E00F94F5F180E391EE77
:10EA500060E00F94C2F184EE90EE60E00F94F5F167
:10EA60008FE391EE60E00F94C2F186E090E061E008
:10EA700070E00F9434F20F94DCF18DE591EE60E0DC
:10EA80000F94C2F189EC91EE60E00F94F5F18EE401
:10EA900091EE60E00F94C2F183EC91EE60E00F9490
:10EAA000F5F18CE691EE60E00F94C2F18EE10F94E7
:10EAB0000DF288E90F940DF281E00F940DF20F949E
:10EAC000DCF18BE791EE60E00F94C2F119E0E0E039
:10EAD000F0E010935700E4918E2F0F940DF20F94F5
:10EAE000DCF18AE891EE60E00F94C2F1E3E0F0E03F
:10EAF00010935700E4918E2F0F940DF20F94DCF1D8
:10EB000089E991EE60E00F94C2F1E2E0F0E0109349
:10EB10005700E4918E2F0F940DF20F94DCF188EAE8
:10EB200091EE60E00F94C2F1E1E0F0E01093570045
:10EB30001491812F0F940DF20F94DCF107CF8BE825
:10EB400092EE62E00F94F5F18BE492EE60E00F94A8
:10EB5000F5F10F94DCF100E010E019C0C8016F2D51
:10EB60000F947FFEFF2031F489E492EE60E00F9471
:10EB7000C2F10BC0F092C6008091C00086FFFCCFAE
:10EB80008091C00080648093C0000F5F1F4FC80158
:10EB900081519F41A0E0B0E0ABBFFC01F790BAE229
:10EBA000FB1621F0E2E000301E07C1F60F94DCF105
:10EBB0000F94DCF187E592EE60E00F94F5F10F948D
:10EBC000DCF1CC24DD2400E010E01EC0C8010F946D
:10EBD00077FEF82E882331F489E492EE60E00F94FA
:10EBE000C2F10BC08093C6008091C00086FFFCCFAD
:10EBF0008091C00080648093C000FE1419F00894D6
:10EC0000C11CD11C0F5F1F4FC80181519F41A0E063
:10EC1000B0E0ABBFFC01E790FAE2EF1621F022E092
:10EC20000030120799F60F94DCF10F94DCF182E6C4
:10EC300092EE60E00F94C2F1C60161E070E00F94C3
:10EC400034F20F94DCF10F94DCF110920202109276
:10EC50000302109204021092050278CE89E992EE26
:10EC600062E00F94F5F1279A2F9A16C02F9880E052
:10EC700090E0E0EDF7E03197F1F7019684369105E9
:10EC8000C1F72F9A80E090E0E0EDF7E03197F1F7DF
:10EC9000019684369105C1F78091C00087FFE6CFC9
:10ECA0008091C00087FFFCCF64C485EA92EE62E0E9
:10ECB0000F94F5F140910202509103026091040219
:10ECC0007091050281E020E10F9491F2809102029F
:10ECD00090910302A0910402B091050280509F4FD1
:10ECE000AF4FBF4F8093020290930302A0930402A0
:10ECF000B093050280509041A040B04008F426CE69
:10ED0000A4CF83EB92EE62E00F94F5F140910602FE
:10ED100050910702609108027091090280E020E1A1
:10ED20000F9491F28091060290910702A09108023F
:10ED3000B091090280509F4FAF4FBF4F80930602A2
:10ED400090930702A0930802B0930902FFCD80ECD4
:10ED500092EE62E00F94F5F183E792EE60E00F949B
:10ED6000F5F18FE792EE60E00F94F5F18BE892EE0B
:10ED700060E00F94F5F189E992EE60E00F94F5F10F
:10ED800085EA92EE60E00F94F5F183EB92EE60E09D
:10ED90000F94F5F180EC92EE60E00F94F5F187ECC2
:10EDA00092EE60E00F94F5F188ED92EE60E00F9442
:10EDB000F5F18FED92EE60E00F94F5F18AEE92EEB0
:10EDC00060E00F94F5F183E093EEBDCD87EC92EE19
:10EDD00062E00F94F5F181E40F947BF282E40F94EA
:10EDE0007BF283E40F947BF284E40F947BF285E45E
:10EDF0000F947BF286E40F947BF287E40F947BF20E
:10EE000088E40F947BF28AE40F947BF28BE40F94F6
:10EE10007BF28CE40F947BF299CD88ED92EE62E068
:10EE20000F94F5F1772473948824992409C48FED05
:10EE300092EE62E00F94F5F140910A0250910B02BC
:10EE400060910C0270910D0282E020E10F9491F22A
:10EE500080910A0290910B02A0910C02B0910D02D8
:10EE600080509F4FAF4FBF4F80930A0290930B0289
:10EE7000A0930C02B0930D0269CD8AEE92EE62E08F
:10EE80000F94F5F184EE90EE60E00F94F5F18FECC5
:10EE900091EE60E00F94F5F1662477244301CC5D98
:10EEA000DE4F19821882C452D140D401C301B695F5
:10EEB000A79597958795CA5DDE4F88839983AA8326
:10EEC000BB83C652D140CC5DDE4FA881B981C4520C
:10EED000D1401196CC5DDE4FB983A883C452D14096
:10EEE000CD0162E070E00F9434F2B0E2B093C6005E
:10EEF0008091C00086FFFCCF8091C0008064809329
:10EF0000C000EDE2E093C6008091C00086FFFCCF18
:10EF10008091C00080648093C000F0E2F093C6004E
:10EF20008091C00086FFFCCF8091C00080648093F8
:10EF3000C000CA5DDE4FE880F9800A811B81C6529D
:10EF4000D140BB27A12F902F8F2D0F940DF2CA5DBA
:10EF5000DE4F8881C652D1400F940DF2B0E2FB2EF5
:10EF6000F092C6008091C00086FFFCCF8091C00067
:10EF700080648093C0000DE30093C6008091C000C0
:10EF800086FFFCCF8091C00080648093C00010E2B7
:10EF90001093C6008091C00086FFFCCF8091C00016
:10EFA00080648093C0008BBEF3012791C65DDE4F65
:10EFB0002883CA52D140A22EBB24CC24DD2408943D
:10EFC000611C711C811C911C8BBEF3018791282E42
:10EFD0003324442455240894611C711C811C911C09
:10EFE0008BBEF3013791C55DDE4F3883CB52D140E4
:10EFF0000894611C711C811C911C8BBEF30147910C
:10F00000C45DDE4F4883CC52D140ADEFEA2EAFEF66
:10F01000FA2EAFEF0A2FAFEF1A2F6E0C7F1C801E57
:10F02000911E142D032DF22CEE24EA0CFB1C0C1D5A
:10F030001D1D0F940DF220E22093C6008091C000A8
:10F0400086FFFCCF8091C00080648093C000C65DC5
:10F05000DE4F8881CA52D1400F940DF230E23093D6
:10F06000C6008091C00086FFFCCF8091C000806404
