:100000000C94F5020C9426030C9426030C942603FE
:100010000C9426030C9426030C9426030C942603BC
:100020000C9426030C9426030C9426030C942603AC
:100030000C943A1C0C9426030C9426030C9426036F
:100040000C9426030C9426030C9426030C9426038C
:100050000C9426030C9426030C9426030C94221172
:100060000C9426030C94EC100C94C2100C942603F0
:100070000C9426030C9426030C9426030C9426035C
:100080000C9426030C9426030C9426030C9426034C
:100090000C9426030C9426030C9426030C9426033C
:1000A0000C9426030C9426030C9426030C9426032C
:1000B0000C9426030C9426030C9426030C9426031C
:1000C0000C9426030C9426030C9426030C9426030C
:1000D0000C9426030C9426030C9426030C942603FC
:1000E0000C9426030C944C050C9431070C94500589
:1000F0000C9468050C94C2010C94B7060C94940AF5
:100100000C9475040C947B0E0C94C40E0C94720524
:100110000C94EE020C945E050C9427070C94C10617
:100120000C942F040C9494010C949E0F0C94260FA5
:100130000C9437050C943F050C94DF030C948F1E30
:100140000C94F9060C943D1C0C9456050C94430534
:100150000C943D040C94A30F0C94AF020C94010773
:100160000C94CF060C94D2080C946C050C942A07BE
:100170000C94E1060C94CB0D0C940C040C94190710
:100180000C945A050C94220E0C94E8020C94C204B0
:100190000C9471050C9464050C94FC0E0C94D5021F
:1001A0000C94FB060C94FF0B0C942D070C943B0550
:1001B0000C94A60F0C94E1090C941F070C9476057F
:1001C0000C940B070C9426070C941B040C9431051B
:1001D0000C944605253032753A253032752025308D
:1001E000327500253032752F25303275202530329A
:1001F000753A253032753A253032750000002100FD
:10020000240027002A002D003000330001010000E7
:10021000040107010A0100002200250028002B002C
:100220002E003100340002010000050108010B011D
:10023000000020002300260029002C002F0032009F
:100240000001000003010601090105050505070578
:1002500008080808020202020A0A08080404040442
:10026000010101010101010103030303030303036E
:10027000040707070C0C0C0C0C0C0C0C02020202FD
:1002800006060606060606060B0B0B0B0B0B0B0BE6
:100290000102102020080810204010204080020198
:1002A000020108040201010204081020408080407D
:1002B000201008040201800402018040201008047C
:1002C000020108040201010204081020408001021A
:1002D00004081020408000000A0B02090C0D0E08D3
:1002E00007030401000000000000000000000000FF
:1002F00000000000000000000000000000000000FE
:1003000000001211100000000000000000000000BA
:100310000000000000000000000000001F1C1F1E65
:100320001F1E1F1F1E1F1E1F80911603811109C053
:1003300080915F03823010F00E94D0150E94E20489
:10034000F3CF0FB6F8940F92E0913A03F0913B038C
:10035000C681D781CE0102960E94B51180915B03C0
:10036000815080935B038091160381508093160324
:100370000F900FBE8F89988D0E947719CE010E9431
:100380007719D2CFCF93DF9300D01F921F92CDB7B2
:10039000DEB7E0911303F0911403F08010E000E069
:1003A000FF2029F00580F681E02D008111810E9457
:1003B00084110E947A116C0180910F0390911003B7
:1003C000C816D90608F04DC00E942719D092100314
:1003D000C0920F030E94C11650E040E0BE016F5F63
:1003E0007F4F80912603909127030E949F198823B5
:1003F00081F2898187FDF0CF0C811D81D8011A9689
:100400008D919C91892B21F0C80102960E94B51113
:100410000E947A117C0180910F0390911003E816DD
:10042000F90610F40E942719F0921003E0920F03CE
:10043000E981EA3088F60E2E000CFF0BD8015296A7
:100440009C918827E95DFD4F8F4F0C942323AF02C9
:10045000AF02AF02EE02D502E802AF02AF02EE0237
:10046000D502D0921003C0920F03FF20B1F1C01645
:10047000D106D8F10E94C116E0911303F091140344
:100480000580F681E02DE680F780C70102960E9484
:10049000B511D70152968C91529782FF14C01C96C9
:1004A0006D917C91600F711F9801A601C7010E9498
:1004B0000F12882359F0B801C7010E94F818811162
:1004C00005C00E94B1098E7FF701828BD70150963B
:1004D000ED91FC91C70119957FCFE0911103F09147
:1004E00012038081BB24B3948111B12CE0902603C8
:1004F000F09027030FB6F8940F92F701858D8F3F88
:1005000009F4158ED7015E968C915E978F3F11F49A
:100510005E961C920F900FBEF701828D811115C05F
:10052000C701419671F26091F2027091F302645F2B
:100530007F4F0E949511C8018C199D09BB2011F0B5
:100540008FEF9FEF6B2D0E943912C7010E944C1351
:100550000E94C116811140CF0E94D0153DCF9160FD
:10056000F801928B2A813B8164857585620F731F28
:10057000A701C8010E940F12882309F42DCFD801CA
:100580005096ED91FC91C8011995F801828982FF7E
:1005900023CF6A817B8184859585680F791FC80187
:1005A0000E94F818811118CF8CCF9160F801928BBE
:1005B0006A817B81758764876115710509F481CF34
:1005C0006E0D7F1D9701A701C8010E940F1204CF75
:1005D00091FD04C0C8010E947719FECE9E7FD8010C
:1005E00052969C93F9CE3D1C8F1E11241FBECFEF57
:1005F000D1E2DEBFCDBF00E00CBF12E0A0E0B2E070
:10060000E2E9F8E400E00BBF02C007900D92A23FC0
:10061000B107D9F725E0A2EFB2E001C01D92A835DD
:10062000B207E1F712E0C4EFD2E000E006C0219784
:100630000109802FFE010E942323C33FD10780E0E0
:100640000807A9F70E940A1E0C9437240C94000096
:1006500096E0899FD0011124AB51BB4F90967C93BB
:100660006E935F9791E091969C939197E0915205DC
:10067000F091530590915105992339F0309751F03D
:10068000811108C0809101051994309719F05C968A
:100690008C91FACF0895CF92DF92EF92FF920F9351
:1006A0001F9396E0899FF0011124EB51FB4F11A29B
:1006B000278D30A12130310551F178F022303105FC
:1006C00009F451C02330310509F452C01F910F9134
:1006D000FF90EF90DF90CF9008956623B9F361E02B
:1006E00070E00E9428032FB7F89480912203909124
:1006F0002303A0912403B09125032FBF80933D05D0
:1007000090933E05A0933F05B0934005DFCF9FB780
:10071000F894C0902203D0902303E0902403F0903B
:1007200025039FBF00913D0510913E0520913F0597
:1007300030914005C01AD10AE20AF30A00914F0530
:100740001091500530E020E00C151D052E053F05E9
:1007500050F462E070E01F910F91FF90EF90DF90F6
:10076000CF900C9428036111B1CF63E070E0F3CF18
:1007700070E060E0F0CFDC0115961C92159714969E
:100780001C92149713961C9213971C9281E0119659
:100790008C93119711968C911197282F2150330B20
:1007A000F901E45EFC4FE491823009F4EF5FE1115E
:1007B00002C08F5FECCF81E012968C930895AF92C8
:1007C000BF92CF92DF92EF92FF920F931F93CF933E
:1007D000DF936C017B018B01040F151FEB015E01A0
:1007E000AE18BF08C017D10759F06991D601ED9135
:1007F000FC910190F081E02DC6011995892B79F7C4
:10080000C501DF91CF911F910F91FF90EF90DF9085
:10081000CF90BF90AF900895FC01538D448D252F4C
:1008200030E0842F90E0821B930B541710F0CF968A
:10083000089501970895FC01918D828D981761F0BC
:10084000A28DAE0FBF2FB11D5D968C91928D9F5FD3
:100850009F73928F90E008958FEF9FEF0895FC01B2
:10086000918D828D981731F0828DE80FF11D858D65
:1008700090E008958FEF9FEF0895FC01918D228DF8
:10088000892F90E0805C9F4F821B91098F7399277D
:10089000089584E893E00E943D0421E0892B09F447
:1008A00020E0822F0895FC01A48DA80FB92FB11D5F
:1008B000A35ABF4F2C91848D90E001968F73992796
:1008C000848FA689B7892C93A089B1898C91837074
:1008D00080648C93938D848D981306C00288F3896D
:1008E000E02D80818F7D80830895EF92FF920F939A
:1008F0001F93CF93DF93EC0181E0888F9B8D8C8DCC
:1009000098131AC0E889F989808185FF15C09FB7BF
:10091000F894EE89FF896083E889F9898081837082
:10092000806480839FBF81E090E0DF91CF911F9131
:100930000F91FF90EF900895F62E0B8D10E00F5F52
:100940001F4F0F731127E02E8C8D8E110CC00FB628
:1009500007FCFACFE889F989808185FFF5CFCE01C0
:100960000E945304F1CFEB8DEC0FFD2FF11DE35AE4
:10097000FF4FF0829FB7F8940B8FEA89FB89808143
:100980008062CFCFCF93DF93EC01888D8823B9F0BD
:10099000AA89BB89E889F9898C9185FD03C080818A
:1009A00086FD0DC00FB607FCF7CF8C9185FFF2CF07
:1009B000808185FFEDCFCE010E945304E9CFDF9106
:1009C000CF91089580E090E0892B29F00E9449049E
:1009D00081110E94000080E090E0892B49F080E0C6
:1009E00090E0892B29F00E94000081110E940000F4
:1009F00080E090E0892B49F080E090E0892B29F09D
:100A00000E94000081110E94000080E090E0892B8C
:100A100049F080E090E0892B29F00E9400008111CC
:100A20000C94000008958150823108F05AC0E82FDC
:100A3000F0E08827E15EFA4F8F4F0C9423233F05A7
:100A40004305310537053B05710546054C05500545
:100A500056055A055E056405680571056C05720545
:100A60007605809180008F77809380000895809133
:100A700080008F7DF9CF80918000877FF5CF84B58E
:100A80008F7784BD089584B58F7DFBCF8091B000B2
:100A90008F778093B00008958091B0008F7DF9CF5B
:100AA000809190008F7780939000089580919000BE
:100AB0008F7DF9CF80919000877FF5CF8091A00046
:100AC0008F778093A00008958091A0008F7DF9CF4B
:100AD0008091A000877FF5CF809120018F77809350
:100AE00020010895809120018F7DF9CF8091200110
:100AF000877FF5CFCF93DF93282F30E0F901EA52BB
:100B0000FD4F8491F901E057FD4FD491F901E65B67
:100B1000FD4FC491CC23A1F081110E941305EC2F4D
:100B2000F0E0EE0FFF1FE05DFD4FA591B491EC9159
:100B3000ED2381E090E009F480E0DF91CF9108950A
:100B400080E090E0FACF1F93CF93DF93282F30E01F
:100B5000F901EA52FD4F8491F901E057FD4FD4911C
:100B6000F901E65BFD4FC491CC23A9F0162F81114A
:100B70000E941305EC2FF0E0EE0FFF1FEA5EFD4F21
:100B8000A591B4918FB7F894EC91111108C0D0954C
:100B9000DE23DC938FBFDF91CF911F910895DE2B71
:100BA000F8CFCF93DF9390E0FC01E057FD4F249105
:100BB000865B9D4FFC0184918823C9F090E0880FEB
:100BC000991FFC01E450FE4FA591B491FC01EA5E2F
:100BD000FD4FC591D49161110DC09FB7F8948C91D0
:100BE000209582238C938881282328839FBFDF91BF
:100BF000CF910895623051F49FB7F8943C91822FC1
:100C0000809583238C93E8812E2BEFCF8FB7F894B8
:100C1000EC912E2B2C938FBFEACF3FB7F8948091A5
:100C20001E0390911F03A0912003B091210326B5CC
:100C3000A89B05C02F3F19F00196A11DB11D3FBF14
:100C4000BA2FA92F982F8827BC01CD01620F711DE3
:100C5000811D911D42E0660F771F881F991F4A95DD
:100C6000D1F708950F931F93CF93DF93EC018B017E
:100C700088859985029751F46130710509F43AC06D
:100C80006CF560E00115110509F435C0888599857A
:100C9000049751F40130110509F455C00CF035C02A
:100CA0000115110509F43EC088859985059709F05D
:100CB000C8C00A30110508F0C4C0F8018827EC59F3
:100CC000F94F8F4F0C942323B706C106CF06E106D8
:100CD000F906FB0601070B0719071F0762307105AC
:100CE00091F060E00330110589F68C850E94A30520
:100CF00060E005C061E08C850E94A30561E08E85FF
:100D00000E94A305C3CF61E0F0CF0230110509F1C5
:100D10000330110509F0C8CF61E08C850E94A3055E
:100D200060E01CC061E08C850E94A30560E08E85B8
:100D30000E94A30561E088890E94A30560E08A897A
:100D40000E94A305B1CF60E08C850E94A30561E0FD
:100D5000EECF60E08C850E94A30561E08E850E9445
:100D6000A30560E088890E94A30561E0E8CF60E008
:100D70008C850E94A30561E08E850E94A30561E039
:100D800009C060E08C850E94A30561E08E850E9409
:100D9000A30560E088890E94A30560E00DC060E0C3
:100DA0008C850E94A30561E08E850E94A30560E00A
:100DB00088890E94A30561E08A890E94A30561E0F9
:100DC00011C060E08C850E94A30561E08E850E94C1
:100DD000A30560E088890E94A30561E08A890E94DA
:100DE000A30560E08C89DF91CF911F910F910C9446
:100DF000A30561E0E7CF61E08C850E94A30560E078
:100E0000E5CF61E08C850E94A30560E08E850E949D
:100E1000A30561E0DFCF61E08C850E94A30560E05F
:100E20008E850E94A30561E088890E94A30560E089
:100E3000D5CF61E08C850E94A30560E09DCF60E086
:100E4000F9CFDF91CF911F910F910895089590E010
:100E500080E00895862F0C947A05862F642F0C94D9
:100E6000A305862F642F0C94D1051F9A0895279A05
:100E70002F9A0895CF93DF93EC018A81988199236B
:100E800039F061E00E94A3051882DF91CF910895A7
:100E900060E00E94A30581E08883F7CFCF93DF93C2
:100EA000EC0161E089810E94D10561E089810E94A5
:100EB000A30561E08A810E94D10561E08A81DF910A
:100EC000CF910C94A305E0912A03F0912B0380812C
:100ED000811107C08FEF9FEF90930E0380930D0356
:100EE0000895E0912A03F0912B030580F681E02D0F
:100EF0000680F781E02D82819381EECFCF93DF933F
:100F0000EC0160E08E810E94A30561E08E810E9469
:100F1000A30560E08E810E94A3058BE891E0019714
:100F2000F1F7DF91CF910895CF92DF92EF92FF9288
:100F30000F931F93CF93DF936C017C0187E0E80E42
:100F4000F11CD0E0C0E0062F10E0B8010C2E02C06A
:100F5000759567950A94E2F76170F70181917F01B9
:100F60000E94A3052196C430D10579F7C601DF910F
:100F7000CF911F910F91FF90EF90DF90CF900C9445
:100F80007E07CF92DF92EF92FF920F931F93CF9342
:100F9000DF93EC01F62E642F8C810E94A3058D81D6
:100FA0008F3F19F060E00E94A3050F2D10E08F85A0
:100FB00084FF25C06E0187E0C80ED11CF12CE12C06
:100FC000B8010E2C02C0759567950A94E2F761701E
:100FD000F60181916F010E94A305FFEFEF1AFF0A4E
:100FE00088E0E816F10461F7CE01DF91CF911F91FF
:100FF0000F91FF90EF90DF90CF900C947E07B80197
:1010000084E0759567958A95E1F7CE010E94940773
:101010006F2DCE01DF91CF911F910F91FF90EF9037
:10102000DF90CF900C94940740E0682F8DEC94E013
:101030000C94C107CF93DF93823029F49091DC04A4
:1010400098609093DC048093E0041092E10480E4C3
:101050008093E20480E18093E30480E58093E404DC
:1010600061E08091D1040E94D1058091D2048F3F2C
:1010700019F061E00E94D10561E08091D3040E94E3
:10108000D105CDECD4E09E012D5C34408091DC0490
:1010900084FD0BC084E090E021962817390744F4C2
:1010A00061E08E810E94D105EECF88E090E0F4CF20
:1010B0008BE39DE00197F1F760E08091D1040E94FD
:1010C000A30560E08091D3040E94A3058091D2041F
:1010D0008F3F19F060E00E94A3058091DC0484FD3D
:1010E00039C063E08DEC94E00E949407CBE4D6E431
:1010F000CE010197F1F763E08DEC94E00E94940734
:101100002197F1F763E08DEC94E00E94940783E56A
:1011100092E00197F1F762E08DEC94E00E94940771
:101120008091DC0480620E94140884E08093DD04D6
:101130008CE00E94140881E00E9414088BE39FE178
:101140000197F1F782E08093DE0486E0DF91CF9192
:101150000C94140880620E9414088BE496E40197B2
:10116000F1F78091DC0480620E94140883E592E02C
:101170000197F1F78091DC0480620E941408D0CFBF
:10118000643008F063E09091E004691710F06FEFAD
:10119000690FE62FF0E0E353FB4F9489890F8068D5
:1011A0000C94140841E00E94C10781E090E008958A
:1011B000EF92FF921F93CF93DF937C01D0E0C0E0CA
:1011C00010E0F70180810E947A050C2E01C0880F83
:1011D0000A94EAF7182B61E0F70181810E94A305C8
:1011E00060E0F70181810E94A3052196C830D105F6
:1011F00041F7812FDF91CF911F91FF90EF900895DC
:10120000FB0101900020E9F73197AF01461B570B16
:10121000DC01ED91FC910280F381E02D19948F9215
:101220009F92AF92BF920F931F93CF93DF93CDB74F
:10123000DEB7A1970FB6F894DEBF0FBECDBF19A2DF
:10124000423008F44AE08E010F5D1F4F842E912C2E
:10125000B12CA12CA50194010E94E222E62FB90134
:10126000CA01EA3004F5E05DD801EE938D01232B2D
:10127000242B252B79F790E080E0109729F0BD0111
:1012800084E893E00E940009A1960FB6F894DEBFAF
:101290000FBECDBFDF91CF911F910F91BF90AF9047
:1012A0009F908F900895E95CDFCFCF93DF93BC01CF
:1012B00084E893E00E940009EC0166E472E084E8AF
:1012C00093E00E9400098C0F9D1FDF91CF9108953C
:1012D000EF92FF920F931F93CF93DF93EC017B016B
:1012E000198218821B821A821D821C82FB010190C6
:1012F0000020E9F731978F01061B170BB8016F5FCC
:101300007F4F90E080E00E943F230097B9F09983DF
:1013100088831B830A832C813D81232B11F4FC01DC
:1013200010821D830C83B70188819981DF91CF9151
:101330001F910F91FF90EF900C9430248881998138
:10134000009711F00E944C1F198218821D821C8286
:101350001B821A82DF91CF911F910F91FF90EF9026
:101360000895F8940E9437072FEF81EE94E0215002
:1013700080409040E1F700C000000E9435072FEF49
:1013800087EA91E6215080409040E1F700C00000DC
:101390000E9435072FEF81EE94E02150804090406D
:1013A000E1F700C000000E9435072FEF81EE94E0C6
:1013B000215080409040E1F700C000000E943507B6
:1013C000D3CFCF93DF93CDB7DEB76A970FB6F8943C
:1013D000DEBF0FBECDBF1C861B861A8219821F8AF4
:1013E000188E198E1A8E84E690E098878F8382E398
:1013F00090E09E878D8783E390E0988B8F8784E3CE
:1014000090E09A8B898B85E390E09C8B8B8B61E0DD
:1014100082E30E94D10561E08F850E94D10561E0E1
:1014200089890E94D10561E08B890E94D1051E8ABD
:101430001D8A84E090E09A8789872F813885032E62
:10144000000C440B550B60E077E883E993E00E94C1
:101450000423CA01B9012AE530E040E050E00E94CF
:1014600004232B833C834D835E83EE24E394F12C91
:1014700094E0C92ED12C2AE0A22EB12CFA82E98266
:1014800000E018E00115110509F449C00E940D069D
:101490004F88588C698C7A8C9B01AC0124193509D2
:1014A000460957094B805C806D807E802415350588
:1014B0004605570538F36F8B788F898F9A8F8B8508
:1014C0009C8529813A8121303105E9F401969C8778
:1014D0008B872F8138858217930711F41C861B8612
:1014E000015011098B859C8529853A85B5012530E8
:1014F000310509F0B6010E94CE22BC01CE01019651
:101500000E943206BFCF892B21F48F8198859C875A
:101510008B878B859C8501979C878B87E1CF8EE39A
:1015200090E00E948819AACFCF93DF931F92CDB786
:10153000DEB7412C512C32014394AA24AA94BA2C30
:1015400051E0509351058FB7F89440912203509188
:10155000230360912403709125038FBF809141057F
:1015600090914205A0914305B0914405481B590B49
:101570006A0B7B0B80914D0590914E05B0E0A0E089
:1015800084179507A607B70708F015C110E08091EA
:101590004B05181760F4E0914705F0914805E10FFD
:1015A000F11D62E080810E94D1051F5FF0CF312CD8
:1015B00080914C05381608F061C0E32CF12CE091C5
:1015C0004905F0914A05EE0DFF1D61E080810E9402
:1015D000D105E0914905F0914A05EE0DFF1D60E04F
:1015E00080810E94A305D301C201032C04C0880F8F
:1015F000991FAA1FBB1F0A94D2F74C016C01C0941B
:10160000D094212C80914B05281608F5022D10E06E
:10161000E0914705F0914805E00FF11F80810E949D
:101620007A050C5F1F4F000F111FF801EB51FB4FA4
:10163000892B41F480819181882999299183808324
:101640002394E0CF808191818C219D21F7CFE0917F
:101650004905F0914A05EE0DFF1D61E080810E9471
:10166000A3058091490590914A05E80EF91E60E0B6
:10167000F70180810E94D10533949ACF05EE14E0E2
:10168000F801878D90A1892B21F4148EB68EA58E3A
:1016900011A2369655E0E132F50799F7D12C8091E9
:1016A0004B05D81608F053C0C12CED2CF12CEE0CD4
:1016B000FF1CC70183519B4F7C0120914C05C21632
:1016C00008F043C0F701608171810C2C02C076954F
:1016D00067950A94E2F7D29E900111242C0D311DDA
:1016E000E5EEF4E080E0458D568D2417350709F4CA
:1016F00084C08F5F36968A30B1F760FF24C0E5EE74
:10170000F4E090E080E0448D411118C0E09145057F
:10171000F0914605E20FF31F408156E0589FF0011B
:10172000599FF00D1124EB51FB4F448F368F258FBD
:1017300010A2178E61E00E944B0305C001963696F9
:101740008A30910501F7C394B8CFD394A8CF80E035
:10175000F80191A19111892F0A5F1F4FF5E0013225
:101760001F07B1F79FB7F8944091220350912303CC
:1017700060912403709125039FBF409341055093CE
:10178000420560934305709344058823A1F080913E
:101790000605882381F08091040590910505019745
:1017A00051F4809101058983811109C081E090E0A5
:1017B0000E948819C5CE109251051982F7CF41E0D9
:1017C00050E0BE016F5F7F4F8091190390911A0323
:1017D0000E94F417182F698184E893E00E94750431
:1017E00066E472E084E893E00E9400091130F1F2AF
:1017F00089E492E00E945509D9CF61709CCFCF93C4
:10180000DF93CDB7DEB7AE970FB6F894DEBF0FBE4D
:10181000CDBF8FE08AA7CE0101966C011BE0A12EFF
:10182000B12C0BE3602E0FE1702E89E1582E7E0162
:101830009FE1E90EF11C94ED892E91E0992E41E093
:1018400050E0BE01675D7F4F80911B0390911C03A8
:101850000E949F19813021F080E592E00E94550995
:101860000FB6F8940F92F6012EE111922A95E9F73E
:1018700000914B0410914C0460E0F80182810E94B9
:10188000A30561E0F80182810E94D10560E0F801C2
:1018900081810E94A30561E0F80181810E94D10548
:1018A00061E0F80180810E94D10561E0F801828148
:1018B0000E94A305C5010197F1F7BFEB3B2E412C18
:1018C000632D6170F80180810E94A30561E0F80139
:1018D00081810E94A305F7E04F1205C060E0F80186
:1018E00080810E94D10560E0F80181810E94A305FA
:1018F00036944394F8E04F12E3CF80914B049091DB
:101900004C040E94D8088F77282F30E0F4E03595FA
:101910002795FA95E1F7922F990F990F422E491AC0
:10192000440C480E80914B0490914C040E94D808BE
:10193000282F30E0A4E035952795AA95E1F7922F5E
:10194000990F990F022F091B000F080F80914B046C
:1019500090914C040E94D80886FF05C1982F9F7172
:10196000292F30E0E4E035952795EA95E1F7322F0D
:10197000330F330F122F131B110F190F85FD145F37
:1019800080914B0490914C040E94D808282F30E09D
:1019900044E0359527954A95E1F7922F990F990FD5
:1019A000322E391A330C380E80914B0490914C042E
:1019B0000E94D808282F30E054E0359527955A9595
:1019C000E1F7922F990F990F222E291A220C280E37
:1019D00080914B0490914C040E94D80880914B0454
:1019E00090914C040E94D808282F30E064E035958F
:1019F00027956A95E1F7922F990F990F291B220FCE
:101A0000280F2EA780914B0490914C040E94D80877
:101A1000E0914B04F0914C0460E082810E94A305A8
:101A2000C5010197F1F72EA52093450420924604A5
:101A300030924704109348040093490440924A04AA
:101A40001F924F921F920F931F921F931F923F92CC
:101A50001F922F9283EE91E09F938F931F92FEE14E
:101A6000FF93DF92CF920E94D51F81E00E9414085D
:101A7000C3010197F1F760E080E00E94C008B60161
:101A80008DEC94E00E940009EBA55E9EF00111240C
:101A9000E05BFB4F618180810E94C008EBA5E59D62
:101AA000F0011124EE5AFB4F448155816081718110
:101AB0008DEC94E00E94DF030FB6F894DEBF0FBEFA
:101AC000CDBF8BA5882309F45DC061E088E00E944A
:101AD000C008F7012AE011922A95E9F7EBA55E9E6E
:101AE000F0011124E05BFB4F808D1F928F9385895D
:101AF0001F928F9382891F928F939F928F921F9232
:101B00008AE08F93FF92EF920E94D51FB7018DEC70
:101B100094E00E9400092BA5ECA58E2F90E0FC011B
:101B2000EE0FFF1FE80FF91F529EE00DF11D11246B
:101B3000E05BFB4F618980890E94C0088091DD04D1
:101B4000982F92609093DD048A600E9414080FB66B
:101B5000F894DEBF0FBECDBF0F900FBE82E190E0C4
:101B60000E9488196CCE282F30E074E035952795B7
:101B70007A95E1F7922F990F990F122F191B110FD8
:101B8000180FFECE8091DD048D7F8093DD04886088
:101B90000E941408E1CFCF93DF9300D000D000D093
:101BA0001F921F92CDB7DEB75E0186E0A80EB11C72
:101BB00085E0F50111928A95E9F78FE08F8369E15D
:101BC000F62E7BEAE72EE3E05E2EFFE04F2E41E0AB
:101BD00050E0BE01655F7F4F8091190390911A0319
:101BE0000E949F19813009F086C06B8584E893E0DC
:101BF0000E94750466E472E084E893E00E940009A4
:101C000060E08AE10E94A30581E090E00E948819CB
:101C100061E08AE10E94A305EB85E053E83008F01B
:101C20006AC00E2E000CFF0B8827E65EF14F8F4F27
:101C30000C942323220EC40EFC0E7B0E260F9E0F47
:101C4000A30FA60F9E818F81981708F076C0888514
:101C5000811101C05E8281E08A879E819E9D812DD7
:101C6000112486958887282F220F220F821B890F27
:101C700089879F5F9E8360E672E084E893E00E941C
:101C800000096E8170E090E080E04AE00E940F0958
:101C900066E472E084E893E00E9400096DE672E079
:101CA00084E893E00E940009688570E090E080E09D
:101CB0004AE00E940F0963E772E084E893E00E9423
:101CC0000009698570E090E080E04AE00E940F0919
:101CD00060E672E084E893E00E9400096E8170E0A3
:101CE00090E080E04AE00E940F0966E472E084E838
:101CF00093E00E94000941E050E0B50180911B0390
:101D000090911C030E94F417813009F460CF4A823D
:101D100041E050E0BE016F5F7F4F80911B039091C7
:101D20001C030E949F1941E050E0B50180911B0304
:101D300090911C030E94F4174ACF1E821A861986BE
:101D4000188650E5852E54E0952E10E000E0340111
:101D5000D12CC12CF3016289C601800F911F0E9412
:101D6000C022FFEFCF1ADF0A83E0680E711CE3E0A8
:101D7000CE16D10479F7F9E18F0E911C0D5F1F4F3C
:101D80000F30110521F78ACF2885222309F4B3CF1C
:101D90006985E62FF0E0CF01880F991FDC01AE0FB7
:101DA000BF1F422F50E0F29EA00DB11D1124A05B79
:101DB000BB4F52963C9121E0230F2D3024F061114E
:101DC0000FC025EF230FE80FF91FF49EC001F59E09
:101DD000900D1124E80FF91FE05BFB4F228B8BCF96
:101DE0002D338CF3613011F425ECECCF24365CF309
:101DF000623049F72EE9E6CF2885222339F169853B
:101E0000E62FF0E0CF01880F991FDC01AE0FBF1F56
:101E1000422F50E0F29EA00DB11D1124A05BBB4FDC
:101E200052963C912FEF230F121624F0611122C01D
:101E30002BE0230FE80FF91FF49EC001F59E900DD3
:101E40001124E80FF91FE05BFB4F228B8AE294E03C
:101E50000E943A0780912A048823A1F007E113E049
:101E600022E048EE53E06CE772E081EE99E00E94D8
:101E7000781A41CF613011F42BE3DBCF6230D1F619
:101E800022E6D7CF00911703109118030FB6F894EC
:101E90000F920115110521F40091F2021091F30245
:101EA000680182E0C80ED11CC6010E94B511F8017C
:101EB00084899589892B21F0C8010C960E94B5115F
:101EC000809159038F5F809359038091F202909122
:101ED000F30208171907F9F4B60185E393E00E94AD
:101EE0009511809116038F5F809316030F900FBE9C
:101EF00080915A03882309F4FECE8091F2029091DA
:101F0000F3020817190709F0F6CE8091150388230C
:101F100091F00E94B10980915B03815080935B0333
:101F2000F8018789908D0E947719C8010E9477195E
:101F30000E946307DBCF0E94D015DDCE87E294E0DC
:101F40000E943A07D8CE84E294E0FACF81E294E08E
:101F5000F7CF8F929F92AF92BF92CF92DF92EF9284
:101F6000FF920F931F93CF93DF93E0919403F0912F
:101F7000950382E08083E0919003F09191031082B9
:101F8000E0919203F091930380E1808310929C038F
:101F9000E0919803F091990386E08083E0919603A5
:101FA000F0919703808180618083E0919603F091A6
:101FB0009703808188608083E0919603F091970376
:101FC000808180688083E0919603F09197038081FF
:101FD0008F7D808390E5E92E94E0F92ED0E0C0E07B
:101FE000670110E000E0C8018C0F9D1F0E94B8221D
:101FF000F601828B0F5F1F4FF3E0CF0ED11C033031
:10200000110589F729E1E20EF11C2396CF30D105A5
:1020100039F782E00E941A088AE294E00E944E0793
:1020200087E294E00E944E0784E294E00E944E070B
:1020300081E294E00E944E07C0914B04D0914C0481
:1020400060E089810E94D10560E088810E94D1050D
:1020500060E08A810E94D10562E086E10E94D1059C
:1020600061E08AE10E94D10561E08AE10E94A30556
:1020700063E972E084E893E00E9400096EE972E08F
:1020800084E893E00E9400098AEA92E00E945509E0
:102090000E940D064B015C0184EFC82EDD24D39411
:1020A000E12CF12C0E940D06681979098A099B0917
:1020B000683E734081059105A8F381E0C81AD108F4
:1020C000E108F108E8EE8E0EE3E09E1EA11CB11CB3
:1020D000C114D104E104F10429F789E290E00E94DF
:1020E000591AEC01009751F04F96998388838AE042
:1020F0008B8F81E08C8FCE010E94A212D0931A03A5
:10210000C09319038EE290E00E94591AEC010097E7
:1021100051F04F969983888383E08B8F85E08C8F75
:10212000CE010E94A212D0931C03C0931B0310E0A7
:1021300000E024E040E850E063EB72E084E99AE0DC
:102140000E94781A23E040E850E060EC72E08BECEB
:102150009DE00E94781A25E040E850E06AEC72E0C9
:102160008FEF9BE00E94781ADF91CF911F910F9122
:10217000FF90EF90DF90CF90BF90AF909F908F90A7
:102180000C948D1B1F920F920FB60F9211240BB659
:102190000F922F933F934F935F936F937F938F9300
:1021A0009F93AF93BF93EF93FF9384E893E00E94D4
:1021B0005304FF91EF91BF91AF919F918F917F91C8
:1021C0006F915F914F913F912F910F900BBE0F90A8
:1021D0000FBE0F901F9018951F920F920FB60F927F
:1021E00011240BB60F922F938F939F93EF93FF932E
:1021F000E0919403F09195038081E0919A03F0912E
:102200009B0382FD1DC0908180919D038F5F8F7322
:1022100020919E03821741F0E0919D03F0E0EC577E
:10222000FC4F958F80939D03FF91EF919F918F912C
:102230002F910F900BBE0F900FBE0F901F9018950F
:102240008081F2CF1F920F920FB60F9211242F931D
:102250003F938F939F93AF93BF938091220390916D
:102260002303A0912403B091250330911D0323E0A3
:10227000230F2D3758F50196A11DB11D20931D0385
:102280008093220390932303A0932403B093250308
:1022900080911E0390911F03A0912003B091210310
:1022A0000196A11DB11D80931E0390931F03A0935F
:1022B0002003B0932103BF91AF919F918F913F91E4
:1022C0002F910F900FBE0F901F90189526E8230FA7
:1022D0000296A11DB11DD2CF80915A03882331F0FF
:1022E00080911503882321F080E0089581E008950E
:1022F00082E008950FB6F8940F9280915C0390915C
:102300005D030F900FBE0895809115038F5F80933A
:10231000150308950FB6F8940F92FC01928D0F905B
:102320000FBE81E0911180E00895CF93DF939C016F
:10233000FB01DC011196CD91DC91D383C2838C81AA
:102340009D81958384838C819D81DC0113967C9390
:102350006E9312977D836C8331872087F90180818A
:102360008F5F8083DF91CF910895CF93DF93FC013E
:10237000A085B1858281938124813581EC013D83E3
:102380002C83C481D5819B838A8311968D919C91E6
:1023900012978E179F0721F41296DC93CE93119714
:1023A000118610868C9181508C938C91DF91CF9106
:1023B00008950F931F93CF93DF938C01FB018081CE
:1023C0009181D80113968F3F9807F1F4E801AF810E
:1023D000B88512968D919C91139793838283EC011B
:1023E000FD83EC83B583A4831396FC93EE9312973D
:1023F00011870087F80180818F5F8083DF91CF9103
:102400001F910F910895D90112962D913C91139728
:10241000E9014881598184179507A8F7DACFFC01B3
:1024200073836283918780874617570790F0421B1A
:10243000530B8485958548175907C8F4BF016E5F13
:102440007F4F80911103909112030E94D91180E077
:1024500008954217530718F46217730740F4BF0139
:102460006E5F7F4F8091130390911403EECF81E054
:102470000895FF920F931F93CF93DF93EC01F62EF5
:1024800000915C0310915D038091F2029091F30240
:1024900002960E94B511CF3FDC0789F4FF2079F046
:1024A0006091F2027091F3026E5F7F4F8CE293E0D5
:1024B000DF91CF911F910F91FF900C949511C00F58
:1024C000D11FE091F202F091F302D383C2836091B5
:1024D000F2027091F302C017D10768F480912803CB
:1024E000909129036E5F7F4FDF91CF911F910F91E4
:1024F000FF900C94D91180912A0390912B036E5F69
:102500007F4F0E94D91180910D0390910E03C8173F
:10251000D90720F4D0930E03C0930D03DF91CF9120
:102520001F910F91FF900895FC0103969283818380
:102530002FEF3FEF348323839683858390878783B0
:1025400010820895CF93DF93EC01892B11F40E9440
:10255000B1090FB6F8940F92888199812B8D4C8D1B
:10256000BC01249F600D711D11247D836C831A8E24
:102570009B838A832150330B429FB001439F700D90
:102580001124860F971F9F838E838FEF8D8F8E8FE1
:10259000CE0108960E949412CE0141960E94941298
:1025A0000F900FBE81E0DF91CF910895FC01DB0118
:1025B0000FB6F8940F9240915C0350915D032D91FA
:1025C0003C9111972F3F3207E1F081819281609118
:1025D0005E037081761719F048175907C0F4481B3D
:1025E000590B4217530788F4241B350B2D933C934A
:1025F00080915E03808380915C0390915D03928360
:10260000818380E00F900FBE08951D921C9281E09F
:10261000F9CF0F931F93CF93DF93DC011596ED91C4
:10262000FC91C681D781209711F40E94B1098E01D7
:10263000045F1F4FC8010E94B511809115038111DD
:1026400025C00A501109C8010E94B5118E899091C8
:102650008303981710F480938303B9E08B9FC00124
:102660001124B801815A9C4F0E949511E091F20209
:10267000F091F3029E898689891760F481E0809346
:102680000C03DF91CF911F910F910895B8018EE354
:1026900093E0EACF80E0F5CFEF92FF920F931F9384
:1026A000CF93DF93EC010FB6F8940F921E8D7C014F
:1026B00081E1E80EF11C01E01116D4F08FEF8E8F4E
:1026C0000F900FBE0FB6F8940F921D8D7E0188E01B
:1026D000E80EF11C01E01116B4F08FEF8D8F0F9012
:1026E0000FBEDF91CF911F910F91FF90EF90089552
:1026F0008989882319F3C7010E9409138111009366
:102700000C031150D9CF8885882339F3C7010E9463
:102710000913811100930C031150DDCFCF93DF9388
:10272000EB01009711F40E94B1096091F2027091DF
:10273000F302645F7F4F0E94D91161E0CE01DF9107
:10274000CF910C9439120F920FB6F8940F920BB6EA
:102750000F920CB60F921F9211242F923F924F921C
:102760005F926F927F928F929F92AF92BF92CF9221
:10277000DF92EF92FF920F931F932F933F934F930C
:102780005F936F937F938F939F93AF93BF93CF93F9
:10279000DF93EF93FF93A091F202B091F3020DB695
:1027A0000D920EB60D9213BE8091150381112AC1B0
:1027B00080915C0390915D03019690935D038093FB
:1027C0005C03009709F066C0E0912A03F0912B03A7
:1027D0002081222361F1F894279A2F9A2FEF61EE3E
:1027E00074E0215060407040E1F700C000001F9A83
:1027F0008FEF97EAA1E681509040A040E1F700C03A
:1028000000001F9ABFEFC1EED4E0B150C040D040ED
:10281000E1F700C000001F9A2FEF61EE74E0215035
:1028200060407040E1F700C000001F9AD7CF2091B0
:102830002A0330912B034091280350912903509390
:102840002B0340932A0330932903209328032091DC
:102850005E032F5F20935E03E0912A03F0912B0328
:102860002081211107C02FEF3FEF30930E032093FB
:102870000D0310C0E0912A03F0912B030580F6812F
:10288000E02D0680F781E02D2281338130930E0305
:1028900020930D0320910D0330910E0382179307AF
:1028A00010F420E09BC020E019E0E0912A03F091B1
:1028B0002B033081311107C08FEF9FEF90930E03F0
:1028C00080930D038BC0E0912A03F0912B030580C8
:1028D000F681E02D0680F781E02D42815381841737
:1028E000950728F450930E0340930D0377C0AF0172
:1028F0004E5F5F4FA285B38564817581E680F78066
:10290000EB01FD82EC82C681D7817B836A831196BD
:102910006D917C9112974617570721F41296DC931C
:10292000CE931197138612863C9131503C933C9183
:10293000A489B5891097F9F066857785E088F188D4
:10294000EB01FD82EC82C089D1897B836A83119679
:10295000ED90FC901297BF01645F7F4FE616F7067B
:1029600021F41296DC93CE931197158A148A3C9128
:1029700031503C933C91A689309183033A1710F46F
:10298000A09383031A9FD0011124BD01615A7C4F8B
:102990007B01DB011196CD91DC91D583C4836C81E1
:1029A0007D81778366836C817D81DB0113965C93E7
:1029B0004E9312975D834C83F386E286E70138815C
:1029C0003F5F3883A091F202B091F3024689569698
:1029D0003C91431708F469CF21E067CFE091F20200
:1029E000F091F302E689D9E0ED9FF0011124E15A5C
:1029F000FC4F8081823008F021E080910C0381112E
:102A00000EC00AC080910A0390910B030196909327
:102A10000B0380930A0395C0222309F492C080918E
:102A20001503882321F081E080930C038AC0109263
:102A30000C03A091F202B091F302E091F202F09146
:102A4000F3022D913C918789908D82179307A8F00E
:102A50008091F2029091F3028091F2029091F30240
:102A6000279A2F9A2FEF67EA71E621506040704055
:102A7000E1F700C000001F9AF5CF8091830390E03A
:102A800069E02EC0019760F5F894279A2F9ABFEF5E
:102A9000C1EED4E0B150C040D040E1F700C000002A
:102AA0001F9A2FEF67EA71E6215060407040E1F70E
:102AB00000C000001F9A8FEF91EEA4E0815090407B
:102AC000A040E1F700C000001F9ABFEFC1EED4E0C4
:102AD000B150C040D040E1F700C000001F9AD7CFEE
:102AE000482F689F9001699F300D1124F901E15A28
:102AF000FC4F5081552331F2A181B28112960D9085
:102B0000BC91A02DB283A1832E593C4FA217B307CD
:102B100029F412962D913C913283218329E0289F3C
:102B2000F001299FF00D1124E15AFC4F0180F28140
:102B3000E02D868197819093F3028093F202409377
:102B40008303A091F202B091F302CD91CDBFDD914C
:102B5000DEBFFF91EF91DF91CF91BF91AF919F9138
:102B60008F917F916F915F914F913F912F911F9125
:102B70000F91FF90EF90DF90CF90BF90AF909F901C
:102B80008F907F906F905F904F903F902F901F900D
:102B90000F900CBE0F900BBE0F900FBE0F900895BC
:102BA0000F920FB6F8940F920BB60F920CB60F92CD
:102BB0001F9211242F923F924F925F926F927F92B9
:102BC0008F929F92AF92BF92CF92DF92EF92FF923D
:102BD0000F931F932F933F934F935F936F937F9325
:102BE0008F939F93AF93BF93CF93DF93EF93FF9315
:102BF000A091F202B091F3020DB60D920EB60D92B5
:102C000080911503882321F081E080930C038AC012
:102C100010920C03A091F202B091F302E091F20243
:102C2000F091F3022D913C918789908D8217930743
:102C3000A8F08091F2029091F3028091F2029091BB
:102C4000F302279A2F9A2FEF87EA91E621508040CE
:102C50009040E1F700C000001F9AF5CF80918303F8
:102C600090E069E02EC0019760F5F894279A2F9ABA
:102C70008FEF91EE24E0815090402040E1F700C0BA
:102C800000001F9A8FEF97EA21E681509040204084
:102C9000E1F700C000001F9A8FEF91EE24E0815011
:102CA00090402040E1F700C000001F9A8FEF91EEA6
:102CB00024E0815090402040E1F700C000001F9ABE
:102CC000D7CF482F689F9001699F300D1124F901DB
:102CD000E15AFC4F5081552331F2A181B281129605
:102CE0000D90BC91A02DB283A1832E593C4FA21709
:102CF000B30729F412962D913C913283218329E068
:102D0000289FF001299FF00D1124E15AFC4F01800A
:102D1000F281E02D868197819093F3028093F202F5
:102D200040938303A091F202B091F302CD91CDBF05
:102D3000DD91DEBFFF91EF91DF91CF91BF91AF9118
:102D40009F918F917F916F915F914F913F912F91C3
:102D50001F910F91FF90EF90DF90CF90BF90AF90B9
:102D60009F908F907F906F905F904F903F902F90AB
:102D70001F900F900CBE0F900BBE0F900FBE0F90C8
:102D800008957F928F929F92AF92BF92CF92DF92DF
:102D9000EF92FF920F931F93CF93DF9380911503D0
:102DA000811102C00E94B1090FB6F8940F92809170
:102DB000150381508093150380911503882389F0B2
:102DC00080E00F900FBEDF91CF911F910F91FF9088
:102DD000EF90DF90CF90BF90AF909F908F907F90BB
:102DE000089580915B03882359F3D0E0C0E029E087
:102DF000F22EEE24E39429C0E0914303F0914403C2
:102E0000C681D781CE010C960E94B5118E010E5F4E
:102E10001F4FC8010E94B5118E89909183039817A6
:102E200010F4809383038F9DC0011124B801815A4F
:102E30009C4F0E949511E091F202F091F3029E895D
:102E40008689981710F0E0920C0380913E0381115F
:102E5000D3CFCD2B11F00E946307E0900A03F090CE
:102E60000B03E114F10409F4B6C089E0A82E77241D
:102E70007394CC24CA94DC2C80911503811199C0E1
:102E8000C0915C03D0915D032196D0935D03C09304
:102E90005C032097F1F4E0912A03F0912B038081E9
:102EA000811180CF80912A0390912B0320912803D8
:102EB0003091290330932B0320932A039093290305
:102EC0008093280380915E038F5F80935E030E944E
:102ED000630780910D0390910E03B12CC817D90799
:102EE00008F05BC0E091F202F091F302E689AE9E39
:102EF000F0011124E15AFC4F8081823010F0BB2494
:102F0000B39480910C03811103C0BB2009F45AC013
:102F100070920C0357C0E0912A03F0912B030580B7
:102F2000F681E02D06811781D80112968D919C9132
:102F3000C817D90728F490930E0380930D03D2CFBE
:102F40004801B2E08B0E911CC4010E94B511F8013A
:102F500084899589892B21F0C8010C960E94B511AE
:102F6000D80156968C9190918303981710F4809312
:102F700083038A9DC0011124B401815A9C4F0E9491
:102F80009511E091F202F091F302D80156969C91CE
:102F90008689981710F0BB24B394E0912A03F0912E
:102FA0002B0380818111B7CFD0920E03C0920D0305
:102FB00099CF80910A0390910B03019690930B0394
:102FC00080930A03B1E0EB1AF10809F055CF109293
:102FD0000B0310920A0380910C03882309F4F0CEAE
:102FE0000E94D01581E0EDCEAF92BF92DF92EF92BA
:102FF000FF920F931F93CF93DF9300D01F921F92E6
:10300000CDB7DEB78C017B015D834C83892B11F436
:103010000E94B1090E946C11811104C08C819D81B4
:10302000892BB1F780E0580128E0A20EB11CC0C086
:10303000E480F580E114F10419F580E0F8011582CF
:103040001482D394F801D28E9189992321F0C8017A
:1030500041960E94091381110E94D0150F900FBE56
:1030600081E00F900F900F900F900F90DF91CF9114
:103070001F910F91FF90EF90DF90BF90AF90089558
:103080008091F2029091F302E816F90609F0C0CFA0
:10309000F70182A1882309F4BBCF815082A326893E
:1030A00091A1291751F28111C8CF5701F2E0AF0E5B
:1030B000B11CC5010E94B511F70181A1868B24E0E6
:1030C00030E0281B310935872487909183039817B6
:1030D00010F480938303F9E08F9FC0011124B501A0
:1030E000815A9C4F0E94951181E0A8CF50E0B70112
:1030F000828193810E942024F801848D2281338172
:10310000820F932F911D93838283248135818217AF
:10311000930708F45FC080819181938382835AC0B2
:103120002C813D81232B21F40F900FBE80E099CF9D
:10313000811109C080915E03898380915C03909125
:103140005D039B838A830F900FBE0E9484110FB68C
:10315000F8940F92F801858D8F3F09F4158EF801D0
:10316000868D8F3F09F4168E0F900FBEBE016C5FE7
:103170007F4FCE0101960E94D612811133C00FB647
:10318000F8940F92F801928D838D0F900FBE9813D3
:1031900023C06C817D81C5010E948E13C8010E94ED
:1031A0004C130E94C116811102C00E94D01581E00B
:1031B0000FB6F8940F92F801228D938D291708F01D
:1031C000AFCFD28C448D411191CF80819181892BD9
:1031D00009F42ECF80E035CFC8010E944C130E9425
:1031E000C116E5CFC8010E944C130E94C1169ECFA4
:1031F0000F931F93CF93DF9300D01F921F92CDB7F1
:10320000DEB7009711F40E94B109009126031091D6
:10321000270301151105C9F019827B836A839D83F9
:103220008C830E946C1150E040E0BE016F5F7F4FC5
:10323000C8010E94F4170F900F900F900F900F90FD
:10324000DF91CF911F910F91089580E0F4CFEF921D
:10325000FF920F931F93CF93DF93E0911303F091AD
:1032600014038081811113C0809111039091120386
:103270009093140380931303F0931203E0931103CC
:10328000DF91CF911F910F91FF90EF9008950580EE
:10329000F681E02D00811181C681D7817E0182E017
:1032A000E80EF11CC7010E94B511E889F989CE0129
:1032B00019958A8982FFD1CF8C859D85800F911FBA
:1032C0000817190760F49B838A83D987C887B701D9
:1032D00080911303909114030E94D911BECFB801BD
:1032E000CE010E94F8188111B8CF0E94B109CF9386
:1032F000DF93009751F0EC010E948411CE010E94EF
:103300004C1FDF91CF910C94C116DF91CF9108959E
:10331000CF93DF93EC018091150381110E94B109D5
:103320000E94841160E0CE010E9439120E94C116F1
:10333000811102C00E94D015DF91CF910895AF9204
:10334000BF92CF92DF92FF920F931F93CF93DF93A1
:1033500000D01F921F92CDB7DEB78C016B015D8349
:103360004C83892B11F40E94B1090E946C118111C8
:1033700004C08C819D81892BB1F780E0580191E1D7
:10338000A90EB11C44C02C813D81232B21F40F9048
:103390000FBE80E06DC0811109C080915E038983FA
:1033A00080915C0390915D039B838A830F900FBE95
:1033B0000E9484110FB6F8940F92F801858D8F3F0B
:1033C00009F4158EF801868D8F3F09F4168E0F9043
:1033D0000FBEBE016C5F7F4FCE0101960E94D612D8
:1033E00081115BC0C8010E948A11882309F44FC073
:1033F0006C817D81C5010E948E13C8010E944C130F
:103400000E94C116811102C00E94D01581E00FB642
:10341000F8940F92F801F28CFF2009F4B4CF448D98
:103420004423B1F050E086819781840F951F9783E4
:103430008683248135818217930720F080819181D2
:1034400097838683F80166817781C6010E942024D4
:10345000FA94F801F28E8085882339F0C801089625
:103460000E94091381110E94D0150F900FBE81E0B8
:103470000F900F900F900F900F90DF91CF911F91B1
:103480000F91FF90DF90CF90BF90AF900895C8014B
:103490000E944C130E94C116B9CFC8010E944C1360
:1034A0000E94C116C8010E948A11882309F4AECF78
:1034B00070CFCF93DF93EC010E948411CE010E9464
:1034C000B01EEC010E94C116209771F40E943707CC
:1034D0002FEF80E792E0215080409040E1F700C05C
:1034E00000000E943507F4CFCE01DF91CF910895FF
:1034F0007F928F929F92AF92BF92CF92DF92EF9284
:10350000FF920F931F93CF93DF93982EE92E762E81
:10351000872E6A01F22ECA010E94591A5C01892B7A
:1035200009F4DAC088E290E00E94591AEC01892B74
:1035300009F4CFC0B88EAF8AA60165EA70E0C50174
:103540000E94292421E0C21AD108EF89F88DEC0DE0
:10355000FD1D672D782DCE0149969B01285F3F4FB9
:10356000DB014D91BD01DC014D93CD01AB0141501B
:103570005109DA014C91442319F06217730781F75E
:1035800018A22F2D243008F023E02E8B29A31AA295
:103590001B861A861D8A1C8AD987C88784E090E01A
:1035A000821B91099D878C87DB8BCA8B1BA21CA277
:1035B0001DA21EA21FA29082DF011197EC9211970B
:1035C0001C9211971C92119780E88C9311971C9272
:1035D00011971C9211971C9257971C9211971C924D
:1035E000B697F983E8830115110519F0F801D18325
:1035F000C0830FB6F8940F9280915B038F5F809326
:103600005B038091F2029091F302892B09F073C061
:10361000D093F302C093F20280915B03813081F575
:103620008FE593E00E94941288E693E00E94941242
:1036300081E793E00E9494128AE793E00E9494123B
:1036400080E593E00E94941287E493E00E94941234
:103650008EE393E00E94941285E393E00E9494121B
:103660008CE293E00E94941280E593E090932B0308
:1036700080932A0387E493E090932903809328039F
:10368000809159038F5F809359038E8990918303B2
:10369000981710F480938303F9E08F9FC0011124E1
:1036A000BE016E5F7F4F815A9C4F0E9495110F9013
:1036B0000FBE80915A03882351F0E091F202F091FD
:1036C000F30296898E89981710F40E94D01581E034
:1036D00004C0C5010E9477198FEFDF91CF911F9130
:1036E0000F91FF90EF90DF90CF90BF90AF909F90A1
:1036F0008F907F90089580915A038111C1CFE091FE
:10370000F202F091F30296898E89891708F4B8CFF6
:10371000D093F302C093F202B3CF0F931F93CF93D2
:10372000DF9308E013E020E040EC50E066E872E050
:1037300084E991E00E94781A813009F098C00FB6B0
:10374000F8940F928091260390912703892B49F5D5
:103750008DEF92E00E94941284EF92E00E94941206
:103760008DEF92E0909314038093130384EF92E023
:10377000909312038093110381E590E00E94591AFF
:10378000EC01009751F04F96998388838AE08B8FE4
:1037900085E08C8FCE010E94A212D0932703C093A4
:1037A00026030F900FBE8091260390912703892B4B
:1037B00069F006E013E023E045E550E06BE872E0D5
:1037C00082EC91E00E94781A811102C00E94B10936
:1037D000813009F04CC0F8942FEF3FEF30930E0387
:1037E00020930D0380935A0310925D0310925C03A3
:1037F000A89588E190EC0FB6F894A89580936000A6
:103800000FBE90936000A091F202B091F302CD91AF
:10381000CDBFDD91DEBFFF91EF91DF91CF91BF91E1
:10382000AF919F918F917F916F915F914F913F9158
:103830002F911F910F91FF90EF90DF90CF90BF904D
:10384000AF909F908F907F906F905F904F903F9040
:103850002F901F900F900CBE0F900BBE0F900FBEBD
:103860000F900895DF91CF911F910F9108958F3F91
:10387000C9F7ACCF0E94A3131895DF92EF92FF9285
:103880000F931F93CF93DF931092870310928603B9
:1038900088EE93E0A0E0B0E08093880390938903E2
:1038A000A0938A03B0938B0382E292E09093850306
:1038B0008093840385EC90E0909391038093900330
:1038C00084EC90E0909393038093920380EC90E0DB
:1038D000909395038093940381EC90E090939703E9
:1038E0008093960382EC90E09093990380939803E1
:1038F00086EC90E090939B0380939A0310929D0333
:1039000010929E0310929F031092A00310922A041B
:1039100084E180932B0485E180932C04109227048A
:1039200082E18093280483E1809329041092240487
:1039300080E18093250481E1809326041092210484
:103940008EE0809322048FE0809323041092E7049A
:103950001092EB041092EA041092EC0480E492E0DE
:103960009093E6048093E504E1E0F5E08DE395E0D3
:10397000108214821382158236968E179F07C1F724
:1039800084E092E0909348058093470580E092E0C0
:1039900090934A058093490584E0E82EE0924B0518
:1039A000E0924C0588E092E09093460580934505AF
:1039B0008AE090E090934E0580934D0584EF91E06E
:1039C0009093500580934F05109253051092520525
:1039D0001092410510924205109243051092440541
:1039E000109251051092D0041092CF0484E392E01B
:1039F0009093CE048093CD048DE08093D1048FEF1B
:103A00008093D2041CE01093D3048BE08093D40401
:103A10009AE0F92EF092D50409E00093D604D8E09C
:103A2000D093D7041092D8041092D9041092DA04DB
:103A30001092DB041092DC0481E00E941A081092BC
:103A40005004C1E0C09351046CE972E082E594E057
:103A50000E946809D0935804C09359046CE972E03D
:103A60008AE594E00E946809109260041092610453
:103A70001092620425E0D22ED09263041092640466
:103A800010926504F0926604109267041092680424
:103A900010926904C0936A0462ED72E08BE694E0D0
:103AA0000E946809D0937104C093720469ED72E0BA
:103AB00083E794E00E94680900937904C0937A0434
:103AC00010927B0410937C04C0937D0410927E04BA
:103AD0003FE0F32EF0927F04C093800410928104A3
:103AE00010928204C09383046BED72E084E894E04A
:103AF0000E946809D0938A04C0938B0462EE72E03E
:103B00008CE894E00E94680900939204C0939304A7
:103B10001092940410939504C09396041092970405
:103B2000F0929804C093990410929A0410929B0406
:103B3000C0939C0464EE72E08DE994E00E946809F1
:103B4000D093A304C093A40469ED72E085EA94E0E5
:103B50000E9468090093AB04C093AC041092AD04BA
:103B60001093AE04C093AF041092B004F092B1046D
:103B7000C093B2041092B3041092B404C093B5047D
:103B80006BEE72E086EB94E00E946809D093BC046F
:103B9000C093BD0469ED72E08EEB94E00E94680969
:103BA0000093C404C093C5041092C6041093C704C4
:103BB000C093C8041092C904F092CA04C093CB0405
:103BC0001092CC04E0924D04D0924E0482E0809397
:103BD0004F048DE494E090934C0480934B0485E46F
:103BE00094E00E94BB038DE294E00E94BB0383E358
:103BF00094E00E94BB0389E394E00E94BB038FE33F
:103C000094E0DF91CF911F910F91FF90EF90DF90A3
:103C10000C94BB03789484B5826084BD84B58160C4
:103C200084BD85B5826085BD85B5816085BD809187
:103C30006E00816080936E001092810080918100FF
:103C400082608093810080918100816080938100F7
:103C5000809180008160809380008091B1008460B9
:103C60008093B1008091B00081608093B00080911A
:103C70009100826080939100809191008160809397
:103C80009100809190008160809390008091A100CC
:103C900082608093A1008091A10081608093A10047
:103CA0008091A00081608093A000809121018260BA
:103CB0008093210180912101816080932101809175
:103CC000200181608093200180917A00846080933C
:103CD0007A0080917A00826080937A0080917A00E5
:103CE000816080937A0080917A00806880937A0066
:103CF0001092C10020911C0230911D028FEF91E2C1
:103D0000821B930B90931902809318020E94A90FB3
:103D10000E948D1B0E94A90F0E94E204FDCF0F9309
:103D20001F93CF93DF93CDECD4E06997F1F38E012D
:103D3000005F1F4FC017D10751F008501109F8015B
:103D4000828193810097B1F30E944C1FF3CFF4E07E
:103D5000C035DF0751F7DF91CF911F910F91089583
:103D60000F931F93CF93DF938230910510F482E07D
:103D700090E0E0915605F091570530E020E0B0E08A
:103D8000A0E0309799F42115310509F44AC0281BA9
:103D9000390B24303105D8F58A819B816115710575
:103DA00089F1FB0193838283FE0111C0408151811F
:103DB0000281138148175907E0F04817590799F411
:103DC000109761F012960C93129713961C933296EB
:103DD000CF01DF91CF911F910F9108950093560568
:103DE00010935705F4CF2115310551F042175307B1
:103DF00038F0A901DB019A01BD01DF01F801C1CF53
:103E0000EF01F9CF9093570580935605CDCFFE0172
:103E1000E20FF31F81939193225031093983288354
:103E2000D7CF2091540530915505232B41F4209193
:103E30001A0230911B0230935505209354052091AE
:103E40001802309119022115310541F42DB73EB702
:103E500040911C0250911D02241B350BE09154052A
:103E6000F0915505E217F307A0F42E1B3F0B28171E
:103E7000390778F0AC014E5F5F4F2417350748F0E3
:103E80004E0F5F1F509355054093540581939193B6
:103E90009FCFF0E0E0E09CCFCF93DF930097E9F075
:103EA000FC01329713821282A0915605B0915705FA
:103EB000ED0130E020E01097A1F420813181820FE4
:103EC000931F20915405309155052817390709F0A3
:103ED00061C0F0935505E0935405DF91CF910895AB
:103EE000EA01CE17DF07E8F54A815B819E014115A3
:103EF0005105B1F7E901FB83EA8349915991C40F58
:103F0000D51FEC17FD0761F4808191810296840F23
:103F1000951FE90199838883828193819B838A839A
:103F2000F0E0E0E012968D919C9113970097B9F51F
:103F30002D913C911197CD010296820F931F2091F4
:103F40005405309155052817390739F6309751F542
:103F50001092570510925605B0935505A09354053D
:103F6000BCCFD383C28340815181840F951FC81772
:103F7000D90761F44E5F5F4F88819981480F591FBF
:103F8000518340838A819B819383828321153105EC
:103F900009F0B0CFF0935705E09356059ECFFD0191
:103FA000DC01C0CF13821282D7CF0F931F93CF9320
:103FB000DF93CDB7DEB72E970FB6F894DEBF0FBEF6
:103FC000CDBF0E891F89888D998D2EE02C831A8391
:103FD000098397FF02C080E090E801979E838D835C
:103FE000AE01445E5F4F6A8D7B8DCE0101960E94CB
:103FF00012204D815E8157FD0AC02F8138854217FE
:1040000053070CF49A01020F131FF80110822E9629
:104010000FB6F894DEBF0FBECDBFDF91CF911F91D9
:104020000F9108952F923F924F925F926F927F92DD
:104030008F929F92AF92BF92CF92DF92EF92FF92B8
:104040000F931F93CF93DF9300D000D000D01F9227
:104050001F92CDB7DEB77C013B018A01FC011782BC
:104060001682838181FFDDC1CE0101965C01F701DB
:104070009381F30193FD859193FF81913F01882303
:1040800009F453C1853239F493FD859193FF8191F1
:104090003F01853229F4B70190E00E942A22E7CF40
:1040A000912C212C312CFFE1F31538F08B3211F1DA
:1040B00090F4803209F1833229F137FC3CC020EDC5
:1040C000280F2A3050F536FE20C08AE0989E200D39
:1040D0001124922E06C08D3291F0803371F76894CE
:1040E00030F8F30193FD859193FF81913F01811198
:1040F000DACF21C0689431F8689432F8F2CF68942E
:1041000033F8EFCF689434F8ECCFEAE02E9E200D20
:104110001124222E689435F8E4CF8E3229F436FC2F
:1041200004C1689436F8DDCF8C3619F4689437F8FA
:10413000D8CF8836B1F2982F9F7D95549330E0F018
:104140008336A1F18337C1F1833509F063C02801BB
:10415000F2E04F0E511CF801C080D180692D70E053
:1041600036FC02C06FEF7FEFC6010E9414224C01A3
:10417000689437F882010AC00C5F1F4FFFE3F98390
:1041800088248394912C6501E89437F833FE2DC080
:10419000522C8114910471F5552009F468CFB701B0
:1041A00080E290E00E942A225A94F6CFF8018081A2
:1041B00089830E5F1F4FE4CF2801F2E04F0E511CA0
:1041C000F801C080D180692D70E036FC02C06FEF2D
:1041D0007FEFC6010E941F224C018201D5CFB7019B
:1041E00080E290E00E942A222A942814190409F0FF
:1041F000B0F7CECFF60137FC859137FE81916F0184
:10420000B70190E00E942A2251105A94F1E08F1ACF
:104210009108BFCF843619F0893609F077C0F801CC
:1042200037FE6BC060817181828193810C5F1F4F6B
:10423000F32DFF763F2E97FF09C0909580957095DE
:1042400061957F4F8F4F9F4F689437F82AE030E099
:10425000A5010E945A22C82ECA188C2C432C36FE67
:104260000CC0E89440F8C91440F434FE05C032FC98
:1042700003C0F32DFE7E4F2E892C44FEAAC0FE0102
:10428000EC0DF11D8081803309F09CC0242D297E26
:10429000422E842D8870582E43FCAAC040FEA4C034
:1042A0009C2C821418F42C0C922C981844FEA6C056
:1042B000B70180E390E00E942A2242FE09C088E70D
:1042C00090E041FE02C088E590E0B7010E942A22FA
:1042D000C91408F49FC0CA94D12C9FEFC91AD90AF7
:1042E000CA0CDB1CF60182916F01B70190E00E94BD
:1042F0002A22AC14BD04B1F74FCF60817181072E23
:10430000000C880B990B0E5F1F4F92CFD32CE894B3
:10431000D4F82AE030E08537E1F1232D297FD22E31
:104320008F36A9F1F0F4883551F1F7018681978134
:104330002B960FB6F894DEBF0FBECDBFDF91CF91A5
:104340001F910F91FF90EF90DF90CF90BF90AF90B3
:104350009F908F907F906F905F904F903F902F90A5
:104360000895803749F0883701F7D4FE02C0689479
:10437000D2F820E130E00DC06894D4F8F6CF34FED6
:1043800003C0822F8660D82E20E132E002C028E0F0
:1043900030E0F801D7FE0FC0608171818281938186
:1043A0000C5F1F4FA5010E945A22C82ECA183D2C2F
:1043B000E89437F852CF6081718190E080E00E5F21
:1043C0001F4FF0CF42FC02C0839463CF8394839449
:1043D00060CF842D867809F45CCFF6CFB70180E2F8
:1043E00090E00E942A2283948214C0F3512C5ECF65
:1043F000522C5818821408F459CFF8CF842D86789F
:1044000009F466CF8BE241FE80E247FC8DE2B70102
:1044100090E05CCFB70180E390E00E942A229A945A
:1044200057CF8FEF9FEF84CFFC0105906150704014
:104430000110D8F7809590958E0F9F1F0895FC016D
:104440006150704001900110D8F7809590958E0FC3
:104450009F1F08950F931F93CF93DF93182F092F5A
:10446000EB018B8181FD09C01FEF0FEF812F902F92
:10447000DF91CF911F910F91089582FF14C02E817B
:104480003F818C819D81281739073CF4E881F981AF
:10449000CF0101969983888310838E819F81019635
:1044A0009F838E83E3CFE885F985812F1995892B2A
:1044B000A1F3DACFFA01AA27283051F1203181F196
:1044C000E8946F936E7F6E5F7F4F8F4F9F4FAF4F1C
:1044D000B1E03ED0B4E03CD0670F781F891F9A1F2F
:1044E000A11D680F791F8A1F911DA11D6A0F711DE3
:1044F000811D911DA11D20D009F468943F912AE0EF
:10450000269F11243019305D3193DEF6CF010895D6
:10451000462F4770405D4193B3E00FD0C9F7F6CF07
:10452000462F4F70405D4A3318F0495D31FD4052CF
:10453000419302D0A9F7EACFB4E0A6959795879565
:1045400077956795BA95C9F7009761057105089544
:104550009B01AC010A2E06945795479537952795F0
:10456000BA95C9F7620F731F841F951FA01D089588
:10457000F999FECF92BD81BDF89A992780B508952B
:10458000262FF999FECF1FBA92BD81BD20BD0FB66F
:10459000F894FA9AF99A0FBE0196089597FB072EA0
:1045A00016F4009407D077FD09D00E942B2307FC56
:1045B00005D03EF4909581959F4F08957095619533
:1045C0007F4F0895A1E21A2EAA1BBB1BFD010DC04F
:1045D000AA1FBB1FEE1FFF1FA217B307E407F507B3
:1045E00020F0A21BB30BE40BF50B661F771F881F8F
:1045F000991F1A9469F760957095809590959B0125
:10460000AC01BD01CF010895052E97FB1EF4009467
:104610000E941B2357FD07D00E94E22207FC03D013
:104620004EF40C941B2350954095309521953F4FA7
:104630004F4F5F4F089590958095709561957F4F8E
:104640008F4F9F4F0895EE0FFF1F881F8BBF07905E
:10465000F691E02D1994AA1BBB1B51E107C0AA1FBC
:10466000BB1FA617B70710F0A61BB70B881F991F13
:104670005A95A9F780959095BC01CD0108954F9268
:104680005F926F927F928F929F92AF92BF92CF92E2
:10469000DF92EF92FF920F931F93CF93DF938C01E2
:1046A000009799F4CB01DF91CF911F910F91FF906B
:1046B000EF90DF90CF90BF90AF909F908F907F90C2
:1046C0006F905F904F900C94B01EFC01E60FF71FA7
:1046D0009C0122503109E217F30708F4AEC0D9015A
:1046E000CD91DC911197C617D70720F1C530D105C0
:1046F00078F0CE0104978617970750F0C61BD70BAA
:104700002297C193D1936D937C93CF010E944C1F4C
:10471000C801DF91CF911F910F91FF90EF90DF9033
:10472000CF90BF90AF909F908F907F906F905F9051
:104730004F9008955B01AC1ABD0A4C018C0E9D1E72
:10474000A0915605B0915705512C412CF12CE12C2C
:10475000109731F58091540590915505881599056C
:1047600009F05CC04616570608F058C08091180240
:1047700090911902009741F48DB79EB740911C02A9
:1047800050911D02841B950BE817F90708F055C0DE
:10479000F0935505E0935405F90171836083B8CF18
:1047A0008D919C91119712966C90129713967C9014
:1047B0001397A815B90559F56C0142E0C40ED11C38
:1047C000CA14DB0420F1AC014A195B09DA01129624
:1047D000159780F06282738251834083D9016D9373
:1047E0007C93E114F10471F0D7011396FC93EE93DE
:1047F00012978ECF22968C0F9D1FF9019183808393
:10480000F301EFCFF0935705E093560581CF48169B
:10481000590608F42C017D01D3019ACFCB010E94E7
:10482000B01E7C01009749F0AE01B8010E9420241F
:10483000C8010E944C1F87016BCF10E000E068CFD9
:10484000FB01DC0102C001900D9241505040D8F7AD
:104850000895DC0101C06D9341505040E0F7089588
:10486000FB01DC0101900D920020E1F7089512E0B8
:10487000C4EFD2E000E006C0802FFE010E94232397
:104880002196011DC53FD10780E00807A9F7F894DC
:02489000FFCF58
:10489200393837363D3C3B3A3031323334353637AE
:1048A2003839414243444546000058058000000023
:1048B20000007504DF030C04C2043D041B042F0432
:1048C20000000000D208DF032707260700000000CF
:1048D20031072D072A070D0A004552524F52210077
:1048E2004552524F5220434F44453A203030330014
:1048F2002020465F6B65795F6E756D3A0070616767
:10490200653A002020696E6465783A005461736BE1
:10491200416C61726D0049444C4500546D722053E4
:10492200766300636F6D70696C65643A200053654D
:104932007020313920323032300032303A34393A54
:104942003332004B6579626F617264526561640053
:104952004D61696E4C6F67696300446973706C6185
:104962007900416C61726D31004200416C61726D7F
:1049720032004400416C61726D3300416C61726DB2
:024982003400FF
:00000001FF
