:100000000C94E1020C9412030C9412030C9412034E
:100010000C9412030C9412030C9412030C9412030C
:100020000C9412030C9412030C9412030C941203FC
:100030000C946E1B0C9412030C9412030C94120378
:100040000C9412030C9412030C9412030C941203DC
:100050000C9412030C9412030C9412030C94ED0FE5
:100060000C9412030C94B70F0C948D0F0C94120384
:100070000C9412030C9412030C9412030C941203AC
:100080000C9412030C9412030C9412030C9412039C
:100090000C9412030C9412030C9412030C9412038C
:1000A0000C9412030C9412030C9412030C9412037C
:1000B0000C9412030C9412030C9412030C9412036C
:1000C0000C9412030C9412030C9412030C9412035C
:1000D0000C9412030C9412030C9412030C9412034C
:1000E0000C9412030C942F050C9423050C941D05FD
:1000F0000C94550E0C941E060C9461040C94460549
:100100000C944A050C9458050C9462050C94E80A6A
:100110000C94C1020C94C31D0C94AE040C942906DB
:100120000C94B70C0C94230E0C94D2070C941F065D
:100130000C943C050C9438050C94D20D0C94711B56
:100140000C94F8080C9407040C947D090C94540545
:100150000C94CB030C940B0D0C9450050C942705B8
:100160000C949B020C945D050C941B040C943205BA
:100170000C9442050C942B050C9480010C942206DF
:100180000C94AE010C94DA020C9425060C94F8033E
:100190000C944F0D0C9429040C943C0E0C94D40236
:1001A0000C945E050C94FC0D0C949A0D2530327560
:1001B0003A25303275202530327500253032752FC2
:1001C0002530327520253032753A253032753A2582
:1001D0003032750000002100240027002A002D0085
:1001E0003000330001010000040107010A01000092
:1001F0002200250028002B002E00310034000201CF
:100200000000050108010B0100002000230026006A
:1002100029002C002F00320000010000030106011C
:10022000090105050505070508080808020202027C
:100230000A0A080804040404010101010101010182
:100240000303030303030303040707070C0C0C0C4D
:100250000C0C0C0C02020202060606060606060636
:100260000B0B0B0B0B0B0B0B0102102020080810C3
:100270002040102040800201020108040201010216
:1002800004081020408080402010080402018004EF
:10029000020180402010080402010804020101024A
:1002A0000408102040800102040810204080000053
:1002B0000A0B02090C0D0E080703040100000000E0
:1002C000000000000000000000000000000000002E
:1002D00000000000000000000000121110000000EB
:1002E000000000000000000000000000000000000E
:1002F000000000001F1C1F1E1F1E1F1F1E1F1E1F91
:1003000080915003811109C08091AF03823010F0B9
:100310000E949B140E94CE04F3CF0FB6F8940F9264
:10032000E0915603F0915703C681D781CE01029622
:100330000E94801080917303815080937303809199
:1003400050038150809350030F900FBE8F89988D7A
:100350000E944218CE010E944218D2CFCF93DF9361
:1003600000D01F921F92CDB7DEB7E0919303F091BA
:100370009403F08010E000E0FF2029F00580F68172
:10038000E02D008111810E944F100E9445106C01E8
:1003900080918F0390919003C816D90608F04DC044
:1003A0000E94F217D0929003C0928F030E948C1586
:1003B00050E040E0BE016F5F7F4F8091AA039091B3
:1003C000AB030E94C518882381F2898187FDF0CF95
:1003D0000C811D81D8011A968D919C91892B21F059
:1003E000C80102960E9480100E9445107C018091F5
:1003F0008F0390919003E816F90610F40E94F2170B
:10040000F0929003E0928F03E981EA3088F60E2E95
:10041000000CFF0BD80152969C918827ED5EFD4F92
:100420008F4F0C9424229B029B029B02DA02C10292
:10043000D4029B029B02DA02C102D0929003C092C6
:100440008F03FF20B1F1C016D106D8F10E948C15A0
:10045000E0919303F09194030580F681E02DE6800E
:10046000F780C70102960E948010D70152968C91A6
:10047000529782FF14C01C966D917C91600F711F82
:100480009801A601C7010E94DA10882359F0B8012B
:10049000C7010E94C317811105C00E94C8088E7F42
:1004A000F701828BD7015096ED91FC91C701199508
:1004B0007FCFE0919103F09192038081BB24B394AC
:1004C0008111B12CE090AA03F090AB030FB6F89421
:1004D0000F92F701858D8F3F09F4158ED7015E9637
:1004E0008C915E978F3F11F45E961C920F900FBE19
:1004F000F701828D811115C0C701419671F260919B
:100500003C0370913D03645F7F4F0E946010C801FF
:100510008C199D09BB2011F08FEF9FEF6B2D0E946E
:100520000411C7010E9417120E948C15811140CF3F
:100530000E949B143DCF9160F801928B2A813B81F0
:1005400064857585620F731FA701C8010E94DA10C8
:10055000882309F42DCFD8015096ED91FC91C80164
:100560001995F801828982FF23CF6A817B81848576
:100570009585680F791FC8010E94C317811118CF94
:100580008CCF9160F801928B6A817B81758764873B
:100590006115710509F481CF6E0D7F1D9701A701CB
:1005A000C8010E94DA1004CF91FD04C0C8010E9466
:1005B0004218FECE9E7FD80152969C93F9CE711BB5
:1005C000C31D11241FBECFEFD1E2DEBFCDBF00E0BF
:1005D0000CBF13E0A0E0B2E0ECE6F6E400E00BBFF5
:1005E00002C007900D92AC33B107D9F725E0ACE318
:1005F000B3E001C01D92A83AB207E1F712E0C0EEE5
:10060000D2E000E006C021970109802FFE010E9480
:100610002422CF3DD10780E00807A9F70E943E1DA4
:100620000C9424230C94000096E0899FD00111249F
:10063000AB5CBA4F90967C936E935F9791E09196E6
:100640009C939197E091A205F091A3059091A1054B
:10065000992339F0309751F0811108C080915105EC
:100660001994309719F05C968C91FACF0895CF9237
:10067000DF92EF92FF920F931F9396E0899FF00114
:100680001124EB5CFA4F11A2278D30A121303105E6
:1006900051F178F02230310509F451C02330310591
:1006A00009F452C01F910F91FF90EF90DF90CF900F
:1006B00008956623B9F361E070E00E9414032FB738
:1006C000F8948091A6039091A703A091A803B091FC
:1006D000A9032FBF80938D0590938E05A0938F055E
:1006E000B0939005DFCF9FB7F894C090A603D09049
:1006F000A703E090A803F090A9039FBF00918D0588
:1007000010918E0520918F0530919005C01AD10A65
:10071000E20AF30A00919F051091A00530E020E065
:100720000C151D052E053F0550F462E070E01F9189
:100730000F91FF90EF90DF90CF900C941403611114
:10074000B1CF63E070E0F3CF70E060E0F0CFDC01A8
:1007500015961C92159714961C92149713961C923A
:1007600013971C9281E011968C93119711968C919E
:100770001197282F2150330BF901EC50FD4FE491D4
:10078000823009F4EF5FE11102C08F5FECCF81E0AE
:1007900012968C930895AF92BF92CF92DF92EF9210
:1007A000FF920F931F93CF93DF936C017B018B011B
:1007B000040F151FEB015E01AE18BF08C017D1076B
:1007C00059F06991D601ED91FC910190F081E02DF5
:1007D000C6011995892B79F7C501DF91CF911F913A
:1007E0000F91FF90EF90DF90CF90BF90AF90089562
:1007F000FC01538D448D252F30E0842F90E0821B27
:10080000930B541710F0CF96089501970895FC01AB
:10081000918D828D981761F0A28DAE0FBF2FB11D03
:100820005D968C91928D9F5F9F73928F90E008955B
:100830008FEF9FEF0895FC01918D828D981731F015
:10084000828DE80FF11D858D90E008958FEF9FEF69
:100850000895FC01918D228D892F90E0805C9F4F3F
:10086000821B91098F739927089584ED93E00E946C
:10087000290421E0892B09F420E0822F0895FC014E
:10088000A48DA80FB92FB11DA35ABF4F2C91848DF1
:1008900090E001968F739927848FA689B7892C934E
:1008A000A089B1898C91837080648C93938D848DA1
:1008B000981306C00288F389E02D80818F7D8083A4
:1008C0000895EF92FF920F931F93CF93DF93EC0164
:1008D00081E0888F9B8D8C8D98131AC0E889F989E7
:1008E000808185FF15C09FB7F894EE89FF896083EA
:1008F000E889F98980818370806480839FBF81E06B
:1009000090E0DF91CF911F910F91FF90EF900895AC
:10091000F62E0B8D10E00F5F1F4F0F731127E02E87
:100920008C8D8E110CC00FB607FCFACFE889F989BF
:10093000808185FFF5CFCE010E943F04F1CFEB8D82
:10094000EC0FFD2FF11DE35AFF4FF0829FB7F89493
:100950000B8FEA89FB8980818062CFCFCF93DF93B1
:10096000EC01888D8823B9F0AA89BB89E889F989C7
:100970008C9185FD03C0808186FD0DC00FB607FCFC
:10098000F7CF8C9185FFF2CF808185FFEDCFCE012F
:100990000E943F04E9CFDF91CF91089580E090E07D
:1009A000892B29F00E94350481110E94000080E00B
:1009B00090E0892B49F080E090E0892B29F00E949B
:1009C000000081110E94000080E090E0892B49F036
:1009D00080E090E0892B29F00E94000081110E94A4
:1009E000000080E090E0892B49F080E090E0892BC6
:1009F00029F00E94000081110C940000089581509C
:100A0000823108F05AC0E82FF0E08827E55FFA4FFE
:100A10008F4F0C9424222B052F051D052305270538
:100A20005D05320538053C05420546054A05500579
:100A300054055D0558055E056205809180008F773D
:100A4000809380000895809180008F7DF9CF809100
:100A50008000877FF5CF84B58F7784BD089584B5F6
:100A60008F7DFBCF8091B0008F778093B000089589
:100A70008091B0008F7DF9CF809190008F77809327
:100A800090000895809190008F7DF9CF8091900023
:100A9000877FF5CF8091A0008F778093A000089585
:100AA0008091A0008F7DF9CF8091A000877FF5CF46
:100AB000809120018F7780932001089580912001FB
:100AC0008F7DF9CF80912001877FF5CFCF93DF9382
:100AD000282F30E0F901E255FD4F8491F901E859E2
:100AE000FD4FD491F901EE5DFD4FC491CC23A1F0EF
:100AF00081110E94FF04EC2FF0E0EE0FFF1FE85F72
:100B0000FD4FA591B491EC91ED2381E090E009F4C3
:100B100080E0DF91CF91089580E090E0FACF1F93BD
:100B2000CF93DF93282F30E0F901E255FD4F8491F8
:100B3000F901E859FD4FD491F901EE5DFD4FC491E3
:100B4000CC23A9F0162F81110E94FF04EC2FF0E0B6
:100B5000EE0FFF1FE251FE4FA591B4918FB7F894AD
:100B6000EC91111108C0D095DE23DC938FBFDF918B
:100B7000CF911F910895DE2BF8CFCF93DF9390E0B4
:100B8000FC01E859FD4F24918E5D9D4FFC0184913D
:100B90008823C9F090E0880F991FFC01EC52FE4FAA
:100BA000A591B491FC01E251FE4FC591D491611120
:100BB0000DC09FB7F8948C91209582238C938881E7
:100BC000282328839FBFDF91CF910895623051F48D
:100BD0009FB7F8943C91822F809583238C93E88172
:100BE0002E2BEFCF8FB7F894EC912E2B2C938FBF39
:100BF000EACF3FB7F8948091A2039091A303A0910C
:100C0000A403B091A50326B5A89B05C02F3F19F0FA
:100C10000196A11DB11D3FBFBA2FA92F982F88277C
:100C2000BC01CD01620F711D811D911D42E0660F57
:100C3000771F881F991F4A95D1F70895089590E06E
:100C400080E00895862F0C946605862F642F0C94FF
:100C50008F05862F642F0C94BD051F9A0895279A3F
:100C60002F9A0895CF93DF93EC018A81988199237D
:100C700039F061E00E948F051882DF91CF910895CD
:100C800060E00E948F0581E08883F7CFCF93DF93E8
:100C9000EC0161E089810E94BD0561E089810E94CB
:100CA0008F0561E08A810E94BD0561E08A81DF9144
:100CB000CF910C948F0561E08AE10C948F0560E080
:100CC0008AE10C948F05E0918B03F0918C03808175
:100CD000811107C08FEF9FEF90938A038093890360
:100CE0000895E0918B03F0918C030580F681E02D4F
:100CF0000680F781E02D82819381EECFCF93DF9341
:100D0000EC0160E08E810E948F0561E08E810E947F
:100D10008F0560E08E810E948F058BE891E001973E
:100D2000F1F7DF91CF910895CF92DF92EF92FF928A
:100D30000F931F93CF93DF936C017C0187E0E80E44
:100D4000F11CD0E0C0E0062F10E0B8010C2E02C06C
:100D5000759567950A94E2F76170F70181917F01BB
:100D60000E948F052196C430D10579F7C601DF9125
:100D7000CF911F910F91FF90EF90DF90CF900C9447
:100D80007E06CF92DF92EF92FF920F931F93CF9345
:100D9000DF93EC01F62E642F8C810E948F058D81EC
:100DA0008F3F19F060E00E948F050F2D10E08F85B6
:100DB00084FF25C06E0187E0C80ED11CF12CE12C08
:100DC000B8010E2C02C0759567950A94E2F7617020
:100DD000F60181916F010E948F05FFEFEF1AFF0A64
:100DE00088E0E816F10461F7CE01DF91CF911F9101
:100DF0000F91FF90EF90DF90CF900C947E06B8019A
:100E000084E0759567958A95E1F7CE010E94940676
:100E10006F2DCE01DF91CF911F910F91FF90EF9039
:100E2000DF90CF900C94940640E0682F8DE195E020
:100E30000C94C106CF93DF93823029F490912C0556
:100E4000986090932C05809330051092310580E4D2
:100E50008093320580E18093330580E580933405EB
:100E600061E0809121050E94BD05809122058F3FA0
:100E700019F061E00E94BD0561E0809123050E94A8
:100E8000BD05CDE1D5E09E012D51354080912C0569
:100E900084FD0BC084E090E021962817390744F4C4
:100EA00061E08E810E94BD05EECF88E090E0F4CF36
:100EB0008BE39DE00197F1F760E0809121050E94AE
:100EC0008F0560E0809123050E948F0580912205A7
:100ED0008F3F19F060E00E948F0580912C0584FD02
:100EE00039C063E08DE195E00E949406CBE4D6E43E
:100EF000CE010197F1F763E08DE195E00E94940641
:100F00002197F1F763E08DE195E00E94940683E577
:100F100092E00197F1F762E08DE195E00E9494067E
:100F200080912C0580620E94140784E080932D0537
:100F30008CE00E94140781E00E9414078BE39FE17C
:100F40000197F1F782E080932E0586E0DF91CF9143
:100F50000C94140780620E9414078BE496E40197B6
:100F6000F1F780912C0580620E94140783E592E0DE
:100F70000197F1F780912C0580620E941407D0CF71
:100F8000643008F063E090913005691710F06FEF5E
:100F9000690FE62FF0E0E35EFA4F9489890F8068CD
:100FA0000C94140741E00E94C10681E090E008958E
:100FB000EF92FF921F93CF93DF937C01D0E0C0E0CC
:100FC00010E0F70180810E9466050C2E01C0880F99
:100FD0000A94EAF7182B61E0F70181810E948F05DE
:100FE00060E0F70181810E948F052196C830D1050C
:100FF00041F7812FDF91CF911F91FF90EF900895DE
:10100000FB0101900020E9F73197AF01461B570B18
:10101000DC01ED91FC910280F381E02D19948F9217
:101020009F92AF92BF920F931F93CF93DF93CDB751
:10103000DEB7A1970FB6F894DEBF0FBECDBF19A2E1
:10104000423008F44AE08E010F5D1F4F842E912C30
:10105000B12CA12CA50194010E940222E62FB90116
:10106000CA01EA3004F5E05DD801EE938D01232B2F
:10107000242B252B79F790E080E0109729F0BD0113
:1010800084ED93E00E940008A1960FB6F894DEBFAD
:101090000FBECDBFDF91CF911F910F91BF90AF9049
:1010A0009F908F900895E95CDFCFCF93DF93682FF7
:1010B00070E090E080E04AE00E940F08EC016AE5F1
:1010C00072E084ED93E00E9400088C0F9D1FDF9179
:1010D000CF910895CF93DF93BC0184ED93E00E94FC
:1010E0000008EC016AE572E084ED93E00E940008DC
:1010F0008C0F9D1FDF91CF9108950C940008EF9203
:10110000FF920F931F93CF93DF93EC017B01198222
:1011100018821B821A821D821C82FB010190002012
:10112000E9F731978F01061B170BB8016F5F7F4FEF
:1011300090E080E00E942C220097B9F09983888388
:101140001B830A832C813D81232B11F4FC01108227
:101150001D830C83B70188819981DF91CF911F9105
:101160000F91FF90EF900C941D2388819981009737
:1011700011F00E94801E198218821D821C821B821F
:101180001A82DF91CF911F910F91FF90EF900895F8
:10119000F8940E942F062FEF81EE94E021508040BA
:1011A0009040E1F700C000000E942D062FEF87EA73
:1011B00091E6215080409040E1F700C000000E947D
:1011C0002D062FEF81EE94E0215080409040E1F712
:1011D00000C000000E942D062FEF81EE94E0215008
:1011E00080409040E1F700C000000E942D06D3CF60
:1011F000CF93DF931F921F92CDB7DEB79A83898377
:10120000CE0101967C01FF24F701EE0FFF1FEE0FC8
:10121000FF1FE25EFD4F0381D280C180108161E03B
:10122000812F0E94BD0561E08C2D0E94BD0561E00B
:101230008D2D0E94BD0561E0802F0E94BD0589E1D2
:101240008E9DF0018F9DF00D1124E056FB4FF58827
:10125000E2886DE572E084ED93E00E947D08612FE5
:1012600070E090E080E04AE00E940F0866E672E0DD
:1012700084ED93E00E947D086E2D70E090E080E0A8
:101280004AE00E940F0868E772E084ED93E00E9454
:101290007D088F2D0E94550880919804E81228C07F
:1012A00080919904F81224C00E945F0685E090E0C6
:1012B0000E9453180E945B0685E090E00E9453183C
:1012C0000E945F0685E090E00E9453180E945B0632
:1012D00085E090E00E9453180E945F0685E090E050
:1012E0000E9453180E945B0685E090E00E9453180C
:1012F0008CE790E00E945318CFCFCF93DF931F92DB
:10130000CDB7DEB7412C512C32014394AA24AA94C4
:10131000BA2C51E05093A1058FB7F8944091A603E1
:101320005091A7036091A8037091A9038FBF80918A
:10133000910590919205A0919305B0919405481B59
:10134000590B6A0B7B0B80919D0590919E05B0E037
:10135000A0E084179507A607B70708F015C110E0AD
:1013600080919B05181760F4E0919705F09198051E
:10137000E10FF11D62E080810E94BD051F5FF0CF8B
:10138000312C80919C05381608F061C0E32CF12CBB
:10139000E0919905F0919A05EE0DFF1D61E08081C5
:1013A0000E94BD05E0919905F0919A05EE0DFF1D93
:1013B00060E080810E948F05D301C201032C04C02C
:1013C000880F991FAA1FBB1F0A94D2F74C016C010A
:1013D000C094D094212C80919B05281608F5022DED
:1013E00010E0E0919705F0919805E00FF11F8081E2
:1013F0000E9466050C5F1F4F000F111FF801EB5C88
:10140000FA4F892B41F48081918188299929918310
:1014100080832394E0CF808191818C219D21F7CF1F
:10142000E0919905F0919A05EE0DFF1D61E0808134
:101430000E948F058091990590919A05E80EF91EFA
:1014400060E0F70180810E94BD0533949ACF05E3E7
:1014500015E0F801878D90A1892B21F4148EB68EAA
:10146000A58E11A2369655E0E137F50799F7D12CF4
:1014700080919B05D81608F053C0C12CED2CF12C9F
:10148000EE0CFF1CC701835C9A4F7C0120919C05E8
:10149000C21608F043C0F701608171810C2C02C0B4
:1014A000769567950A94E2F7D29E900111242C0D4F
:1014B000311DE5E3F5E080E0458D568D24173507B5
:1014C00009F484C08F5F36968A30B1F760FF24C07C
:1014D000E5E3F5E090E080E0448D411118C0E09133
:1014E0009505F0919605E20FF31F408156E0589F55
:1014F000F001599FF00D1124EB5CFA4F448F368FA9
:10150000258F10A2178E61E00E94370305C0019657
:1015100036968A30910501F7C394B8CFD394A8CFFB
:1015200080E0F80191A19111892F0A5F1F4FF5E02A
:1015300001371F07B1F79FB7F8944091A603509168
:10154000A7036091A8037091A9039FBF40939105E1
:101550005093920560939305709394058823A1F0AE
:1015600080915605882381F080915405909155050E
:10157000019751F4809151058983811109C081E05F
:1015800090E00E945318C5CE1092A1051982F7CFA2
:1015900041E050E0BE016F5F7F4F80919D039091CD
:1015A0009E030E94BF16182F698184ED93E00E946C
:1015B00061046AE572E084ED93E00E940008113056
:1015C000F1F28CE892E00E946A08D9CF61709CCF5A
:1015D000CF93DF93CDB7DEB7AE970FB6F894DEBFEB
:1015E0000FBECDBF8FE08AA7CE0101967C011BE024
:1015F000A12EB12C0BE3602E0FE1702E89E1582E45
:101600006E019FE1C90ED11C9CEA892E91E0992EB2
:1016100041E050E0BE01675D7F4F80919F03909154
:10162000A0030E94C518813021F083E992E00E9456
:101630006A080FB6F8940F92F7012EE111922A95DD
:10164000E9F700919B0410919C0460E0F80182810D
:101650000E948F0561E0F80182810E94BD0560E073
:10166000F80181810E948F0561E0F80181810E946B
:10167000BD0561E0F80180810E94BD0561E0F801CF
:1016800082810E948F05C5010197F1F7BFEB3B2EC8
:10169000412C632D6170F80180810E948F0561E00B
:1016A000F80181810E948F05F7E04F1205C060E0CC
:1016B000F80180810E94BD0560E0F80181810E94EF
:1016C0008F0536944394F8E04F12E3CF80919B044A
:1016D00090919C040E94D8078F77282F30E0F4E087
:1016E00035952795FA95E1F7922F990F990F422E8C
:1016F000491A440C480E80919B0490919C040E94CE
:10170000D807282F30E0A4E035952795AA95E1F772
:10171000922F990F990F022F091B000F080F80912C
:101720009B0490919C040E94D80786FF08C1982FC3
:101730009F71292F30E0E4E035952795EA95E1F790
:10174000322F330F330F122F131B110F190F85FD7B
:10175000145F80919B0490919C040E94D807282FCD
:1017600030E044E0359527954A95E1F7922F990F9F
:10177000990F322E391A330C380E80919B049091B8
:101780009C040E94D807282F30E054E03595279517
:101790005A95E1F7922F990F990F222E291A220CB0
:1017A000280E80919B0490919C040E94D807809100
:1017B0009B0490919C040E94D807282F30E064E09D
:1017C000359527956A95E1F7922F990F990F291B67
:1017D000220F280F2EA780919B0490919C040E94B9
:1017E000D807E0919B04F0919C0460E082810E9404
:1017F0008F05C5010197F1F72EA52093950420923E
:1018000096043092970410939804009399044092A0
:101810009A041F924F921F920F931F921F931F9231
:101820003F921F922F928BEB91E09F938F931F9289
:10183000FEE1FF93FF92EF920E94091FC7010E94F1
:101840006A0881E00E941407C3010197F1F760E084
:1018500080E00E94C007B7018DE195E00E947D08FD
:10186000EBA55E9EF0011124E056FB4F6181808163
:101870000E94C007EBA5E59DF0011124EE55FB4F3A
:1018800044815581608171818DE195E00E94CB0397
:101890000FB6F894DEBF0FBECDBF8BA5882309F429
:1018A0005DC061E088E00E94C007F6012AE0119265
:1018B0002A95E9F7EBA55E9EF0011124E056FB4F57
:1018C000808D1F928F9385891F928F9382891F929B
:1018D0008F939F928F921F928AE08F93DF92CF9285
:1018E0000E94091FB6018DE195E00E947D082BA59D
:1018F000ECA58E2F90E0FC01EE0FFF1FE80FF91F03
:10190000529EE00DF11D1124E056FB4F6189808944
:101910000E94C00780912D05982F926090932D050D
:101920008A600E9414070FB6F894DEBF0FBECDBFC9
:101930000F900FBE82E190E00E94531869CE282FCD
:1019400030E074E0359527957A95E1F7922F990F5D
:10195000990F122F191B110F180FFBCE80912D0517
:101960008D7F80932D0588600E941407E1CFCF936F
:10197000DF9300D000D000D01F921F92CDB7DEB70A
:101980005E0186E0A80EB11C85E0F50111928A95F2
:10199000E9F78FE08F8319E17BEA372E55245394C2
:1019A000E3E04E2EFFE02F2E41E050E0BE01655FE8
:1019B0007F4F80919D0390919E030E94C5188130B6
:1019C00009F06DC06B8584ED93E00E9461046AE5C7
:1019D00072E084ED93E00E9400080E945F0681E0BF
:1019E00090E00E9453180E945B06EB85E053E830BC
:1019F00008F055C00E2E000CFF0B8827ED5FF24F4C
:101A00008F4F0C9424220B0D9A0DD20D4F0DFC0D0F
:101A1000230E3C0E550E9E818F81981708F061C0F1
:101A20008885811101C04E825A869E81939D812DA9
:101A3000112486958887282F220F220F821B890F59
:101A400089879F5F9E8363EA72E084ED93E00E9442
:101A50007D088E810E94550860EB72E084ED93E072
:101A60000E947D08688570E090E080E04AE00E9476
:101A70000F0866EB72E084ED93E00E947D086985B3
:101A800070E090E080E04AE00E940F0863EA72E0B4
:101A900084ED93E00E947D088E810E94550841E00C
:101AA00050E0B50180919F039091A0030E94BF1662
:101AB000813009F479CF2A8241E050E0BE016F5FA6
:101AC0007F4F80919F039091A0030E94C51841E031
:101AD00050E0B50180919F039091A0030E94BF1632
:101AE00063CF1E821A861986188660EA862E64E005
:101AF000962EF12CE12C3401D12CC12CF3016289FA
:101B0000C6018E0D9F1D0E94F421FFEFCF1ADF0A40
:101B100083E0680E711CE3E0CE16D10479F7F9E199
:101B20008F0E911C83E0E80EF11CEFE0EE16F1043D
:101B300011F792CF2885222309F4B1CF6985E62FCA
:101B4000F0E0CF01880F991FDC01AE0FBF1F422FBD
:101B500050E0129FA00DB11D1124A056BB4F52960C
:101B60003C9121E0230F2D3024F061110FC025EFAF
:101B7000230FE80FF91F149FC001159F900D11242A
:101B8000E80FF91FE056FB4F228B89CF2D338CF3E2
:101B9000613011F425ECECCF24365CF3623049F768
:101BA0002EE9E6CF2885222339F16985E62FF0E07A
:101BB000CF01880F991FDC01AE0FBF1F422F50E0ED
:101BC000129FA00DB11D1124A056BB4F52963C91FF
:101BD0002FEF230F121624F0611126C02BE0230FE4
:101BE000E80FF91F149FC001159F900D1124E80FF5
:101BF000F91FE056FB4F228B8AE794E00E943206E1
:101C000080917A048823C1F03BE9E32E33E0F32E80
:101C100002E021E232E048EE53E06FEB72E088EF41
:101C200098E00E949E193BCF613011F42BE3D7CF8F
:101C30006230B1F622E6D3CF80919B0390919C0352
:101C40000E946A182CCF87E794E00E9432068091A8
:101C50007704882361F029E9E22E23E0F22E02E0E6
:101C600020E232E048EE53E06AEC72E0D8CF809197
:101C7000990390919A03E4CF84E794E00E9432069E
:101C800080917404882361F097E9E92E93E0F92E9E
:101C900002E02FE132E048EE53E065ED72E0BFCFA5
:101CA0008091970390919803CBCF81E794E00E94B5
:101CB000320680917104882361F085E9E82E83E083
:101CC000F82E02E02EE132E048EE53E060EE72E0E2
:101CD000A6CF8091950390919603B2CF8F929F9259
:101CE000AF92BF92CF92DF92EF92FF920F931F932A
:101CF000CF93DF93E091E403F091E50382E08083EA
:101D0000E091E003F091E1031082E091E203F091B1
:101D1000E30380E180831092EC03E091E803F0910B
:101D2000E90386E08083E091E603F091E703808198
:101D300080618083E091E603F091E7038081886011
:101D40008083E091E603F091E703808180688083DF
:101D5000E091E603F091E70380818F7D808390EA34
:101D6000E92E94E0F92ED0E0C0E0670110E000E039
:101D7000C8018C0F9D1F0E94EC21F601828B0F5F22
:101D80001F4FF3E0CF0ED11C0330110589F729E175
:101D9000E20EF11C2396CF30D10539F782E00E9484
:101DA0001A078AE794E00E94460687E794E00E94BB
:101DB000460684E794E00E94460681E794E00E948C
:101DC0004606C0919B04D0919C0460E089810E94EA
:101DD000BD0560E088810E94BD0560E08A810E94A7
:101DE000BD0562E086E10E94BD0561E08AE10E94D6
:101DF000BD0561E08AE10E948F0568EF72E084ED25
:101E000093E00E947D0863E073E084ED93E00E941C
:101E10007D088FE093E00E946A080E94F9054B015B
:101E20005C0184EFC82EDD24D394E12CF12C0E94B8
:101E3000F905681979098A099B09683E734081058B
:101E40009105A8F381E0C81AD108E108F108E8EE8D
:101E50008E0EE3E09E1EA11CB11CC114D104E1044E
:101E6000F10429F789E290E00E947F19EC010097C4
:101E700051F04F96998388838AE08B8F81E08C8F15
:101E8000CE010E946D11D0939E03C0939D038EE2FC
:101E900090E00E947F19EC01009751F04F969983D2
:101EA000888383E08B8F85E08C8FCE010E946D113B
:101EB000D093A003C0939F03F12CE12C04E030E009
:101EC00020E040E850E068E173E08DE799E00E948F
:101ED0009E1903E030E020E040E850E065E273E066
:101EE00087EB9CE00E949E1905E030E020E040E88E
:101EF00050E06FE273E088EE9AE00E949E19DF9155
:101F0000CF911F910F91FF90EF90DF90CF90BF90F6
:101F1000AF909F908F900C94B71A1F920F920FB6AC
:101F20000F9211240BB60F922F933F934F935F9311
:101F30006F937F938F939F93AF93BF93EF93FF9391
:101F400084ED93E00E943F04FF91EF91BF91AF9128
:101F50009F918F917F916F915F914F913F912F91C1
:101F60000F900BBE0F900FBE0F901F9018951F92F1
:101F70000F920FB60F9211240BB60F922F938F93DF
:101F80009F93EF93FF93E091E403F091E503808149
:101F9000E091EA03F091EB0382FD1DC090818091F6
:101FA000ED038F5F8F732091EE03821741F0E09174
:101FB000ED03F0E0EC52FC4F958F8093ED03FF9121
:101FC000EF919F918F912F910F900BBE0F900FBEAD
:101FD0000F901F9018958081F2CF1F920F920FB62D
:101FE0000F9211242F933F938F939F93AF93BF939F
:101FF0008091A6039091A703A091A803B091A90393
:102000003091A10323E0230F2D3758F50196A11D30
:10201000B11D2093A1038093A6039093A703A093DF
:10202000A803B093A9038091A2039091A303A09168
:10203000A403B091A5030196A11DB11D8093A20335
:102040009093A303A093A403B093A503BF91AF9172
:102050009F918F913F912F910F900FBE0F901F90E6
:10206000189526E8230F0296A11DB11DD2CF8091AD
:102070007F03882331F080917E03882321F080E064
:10208000089581E0089582E008950FB6F8940F92C4
:102090008091AC039091AD030F900FBE0895809195
:1020A0007E038F5F80937E0308950FB6F8940F929E
:1020B000FC01928D0F900FBE81E0911180E0089598
:1020C000CF93DF939C01FB01DC011196CD91DC9154
:1020D000D383C2838C819D81958384838C819D81F0
:1020E000DC0113967C936E9312977D836C8331870A
:1020F0002087F90180818F5F8083DF91CF910895E0
:10210000CF93DF93FC01A085B185828193812481E7
:102110003581EC013D832C83C481D5819B838A83E7
:1021200011968D919C9112978E179F0721F412960C
:10213000DC93CE931197118610868C9181508C93ED
:102140008C91DF91CF9108950F931F93CF93DF93DD
:102150008C01FB0180819181D80113968F3F9807F4
:10216000F1F4E801AF81B88512968D919C91139797
:1021700093838283EC01FD83EC83B583A483139660
:10218000FC93EE93129711870087F80180818F5F8F
:102190008083DF91CF911F910F910895D9011296FD
:1021A0002D913C911397E901488159818417950736
:1021B000A8F7DACFFC017383628391878087461783
:1021C000570790F0421B530B848595854817590794
:1021D000C8F4BF016E5F7F4F80919103909192038D
:1021E0000E94A41080E008954217530718F4621764
:1021F000730740F4BF016E5F7F4F8091930390910E
:102200009403EECF81E00895FF920F931F93CF9335
:10221000DF93EC01F62E0091AC031091AD03809199
:102220003C0390913D0302960E948010CF3FDC0753
:1022300089F4FF2079F060913C0370913D036E5F5B
:102240007F4F80E893E0DF91CF911F910F91FF9036
:102250000C946010C00FD11FE0913C03F0913D033E
:10226000D383C28360913C0370913D03C017D107B3
:1022700068F480918D0390918E036E5F7F4FDF91A4
:10228000CF911F910F91FF900C94A41080918B031C
:1022900090918C036E5F7F4F0E94A4108091890300
:1022A00090918A03C817D90720F4D0938A03C0936A
:1022B0008903DF91CF911F910F91FF900895FC0149
:1022C0000396928381832FEF3FEF3483238396839A
:1022D00085839087878310820895CF93DF93EC01E5
:1022E000892B11F40E94C8080FB6F8940F928881C8
:1022F00099812B8D4C8DBC01249F600D711D112483
:102300007D836C831A8E9B838A832150330B429F7B
:10231000B001439F700D1124860F971F9F838E83FA
:102320008FEF8D8F8E8FCE0108960E945F11CE01A8
:1023300041960E945F110F900FBE81E0DF91CF9117
:102340000895FC01DB010FB6F8940F924091AC03A5
:102350005091AD032D913C9111972F3F3207E1F041
:10236000818192816091AE037081761719F04817D0
:102370005907C0F4481B590B4217530788F4241B14
:10238000350B2D933C938091AE0380838091AC03F9
:102390009091AD039283818380E00F900FBE0895EA
:1023A0001D921C9281E0F9CF0F931F93CF93DF937F
:1023B000DC011596ED91FC91C681D781209711F42F
:1023C0000E94C8088E01045F1F4FC8010E94801040
:1023D00080917E03811125C00A501109C8010E9415
:1023E00080108E899091D303981710F48093D303B3
:1023F000B9E08B9FC0011124B80181559C4F0E9408
:102400006010E0913C03F0913D039E898689891715
:1024100060F481E080937403DF91CF911F910F915D
:102420000895B80185E793E0EACF80E0F5CFEF9219
:10243000FF920F931F93CF93DF93EC010FB6F894A5
:102440000F921E8D7C0181E1E80EF11C01E0111656
:10245000D4F08FEF8E8F0F900FBE0FB6F8940F92BF
:102460001D8D7E0188E0E80EF11C01E01116B4F02C
:102470008FEF8D8F0F900FBEDF91CF911F910F9136
:10248000FF90EF9008958989882319F3C7010E946E
:10249000D4118111009374031150D9CF88858823FA
:1024A00039F3C7010E94D4118111009374031150B4
:1024B000DDCFCF93DF93EB01009711F40E94C808A2
:1024C00060913C0370913D03645F7F4F0E94A410B4
:1024D00061E0CE01DF91CF910C9404110F920FB601
:1024E000F8940F920BB60F920CB60F921F92112414
:1024F0002F923F924F925F926F927F928F929F9214
:10250000AF92BF92CF92DF92EF92FF920F931F9301
:102510002F933F934F935F936F937F938F939F93EB
:10252000AF93BF93CF93DF93EF93FF93A0913C03BF
:10253000B0913D030DB60D920EB60D9213BE809173
:102540007E0381112AC18091AC039091AD03019665
:102550009093AD038093AC03009709F066C0E091BF
:102560008B03F0918C032081222361F1F894279A48
:102570002F9A2FEF61EE74E0215060407040E1F738
:1025800000C000001F9A8FEF97EAA1E681509040AB
:10259000A040E1F700C000001F9ABFEFC1EED4E0F9
:1025A000B150C040D040E1F700C000001F9A2FEFAB
:1025B00061EE74E0215060407040E1F700C000001F
:1025C0001F9AD7CF20918B0330918C0340918D03BC
:1025D00050918E0350938C0340938B0330938E0362
:1025E00020938D032091AE032F5F2093AE03E091E3
:1025F0008B03F0918C032081211107C02FEF3FEF57
:1026000030938A032093890310C0E0918B03F091EB
:102610008C030580F681E02D0680F781E02D228174
:10262000338130938A032093890320918903309169
:102630008A038217930710F420E09BC020E019E082
:10264000E0918B03F0918C033081311107C08FEF43
:102650009FEF90938A03809389038BC0E0918B0353
:10266000F0918C030580F681E02D0680F781E02D46
:10267000428153818417950728F450938A0340932D
:10268000890377C0AF014E5F5F4FA285B385648138
:102690007581E680F780EB01FD82EC82C681D781EF
:1026A0007B836A8311966D917C9112974617570729
:1026B00021F41296DC93CE931197138612863C91E7
:1026C00031503C933C91A489B5891097F9F0668507
:1026D0007785E088F188EB01FD82EC82C089D189A1
:1026E0007B836A831196ED90FC901297BF01645F23
:1026F0007F4FE616F70621F41296DC93CE931197DE
:10270000158A148A3C9131503C933C91A6893091B2
:10271000D3033A1710F4A093D3031A9FD0011124C6
:10272000BD0161557C4F7B01DB011196CD91DC91A0
:10273000D583C4836C817D81778366836C817D8141
:10274000DB0113965C934E9312975D834C83F38663
:10275000E286E70138813F5F3883A0913C03B09166
:102760003D03468956963C91431708F469CF21E012
:1027700067CFE0913C03F0913D03E689D9E0ED9FFE
:10278000F0011124E155FC4F8081823008F021E0F6
:102790008091740381110EC00AC0809171039091E1
:1027A00072030196909372038093710395C0222364
:1027B00009F492C080917E03882321F081E0809308
:1027C00074038AC010927403A0913C03B0913D033E
:1027D000E0913C03F0913D032D913C918789908DD0
:1027E00082179307A8F080913C0390913D0380915C
:1027F0003C0390913D03279A2F9A2FEF67EA71E6E9
:10280000215060407040E1F700C000001F9AF5CFF2
:102810008091D30390E069E02EC0019760F5F894B1
:10282000279A2F9ABFEFC1EED4E0B150C040D040FC
:10283000E1F700C000001F9A2FEF67EA71E6215010
:1028400060407040E1F700C000001F9A8FEF91EEEA
:10285000A4E081509040A040E1F700C000001F9A22
:10286000BFEFC1EED4E0B150C040D040E1F700C0AE
:1028700000001F9AD7CF482F689F9001699F300DA5
:102880001124F901E155FC4F5081552331F2A1810A
:10289000B28112960D90BC91A02DB283A1832E54CB
:1028A0003C4FA217B30729F412962D913C91328325
:1028B000218329E0289FF001299FF00D1124E15583
:1028C000FC4F0180F281E02D8681978190933D033A
:1028D00080933C034093D303A0913C03B0913D030C
:1028E000CD91CDBFDD91DEBFFF91EF91DF91CF9113
:1028F000BF91AF919F918F917F916F915F914F9118
:102900003F912F911F910F91FF90EF90DF90CF900B
:10291000BF90AF909F908F907F906F905F904F90FF
:102920003F902F901F900F900CBE0F900BBE0F90FA
:102930000FBE0F9008950F920FB6F8940F920BB63A
:102940000F920CB60F921F9211242F923F924F922A
:102950005F926F927F928F929F92AF92BF92CF922F
:10296000DF92EF92FF920F931F932F933F934F931A
:102970005F936F937F938F939F93AF93BF93CF9307
:10298000DF93EF93FF93A0913C03B0913D030DB60D
:102990000D920EB60D9280917E03882321F081E086
:1029A000809374038AC010927403A0913C03B09189
:1029B0003D03E0913C03F0913D032D913C918789CB
:1029C000908D82179307A8F080913C0390913D036E
:1029D00080913C0390913D03279A2F9A2FEF87EA2D
:1029E00091E6215080409040E1F700C000001F9A1E
:1029F000F5CF8091D30390E069E02EC0019760F598
:102A0000F894279A2F9A8FEF91EE24E0815090400E
:102A10002040E1F700C000001F9A8FEF97EA21E6FF
:102A2000815090402040E1F700C000001F9A8FEFD6
:102A300091EE24E0815090402040E1F700C000007A
:102A40001F9A8FEF91EE24E0815090402040E1F7F3
:102A500000C000001F9AD7CF482F689F9001699F40
:102A6000300D1124F901E155FC4F5081552331F20D
:102A7000A181B28112960D90BC91A02DB283A18349
:102A80002E543C4FA217B30729F412962D913C9176
:102A90003283218329E0289FF001299FF00D112422
:102AA000E155FC4F0180F281E02D86819781909362
:102AB0003D0380933C034093D303A0913C03B0912A
:102AC0003D03CD91CDBFDD91DEBFFF91EF91DF9151
:102AD000CF91BF91AF919F918F917F916F915F91B6
:102AE0004F913F912F911F910F91FF90EF90DF90A9
:102AF000CF90BF90AF909F908F907F906F905F909E
:102B00004F903F902F901F900F900CBE0F900BBED8
:102B10000F900FBE0F9008957F928F929F92AF9269
:102B2000BF92CF92DF92EF92FF920F931F93CF93BA
:102B3000DF9380917E03811102C00E94C8080FB606
:102B4000F8940F9280917E03815080937E03809150
:102B50007E03882389F080E00F900FBEDF91CF9134
:102B60001F910F91FF90EF90DF90CF90BF90AF90AB
:102B70009F908F907F90089580917303882359F3DD
:102B8000D0E0C0E029E0F22EEE24E39429C0E091E9
:102B90007A03F0917B03C681D781CE010C960E9407
:102BA00080108E010E5F1F4FC8010E9480108E8919
:102BB0009091D303981710F48093D3038F9DC00195
:102BC0001124B80181559C4F0E946010E0913C0394
:102BD000F0913D039E898689981710F0E092740366
:102BE000809175038111D3CFCD2B11F00E94630624
:102BF000E0907103F0907203E114F10409F4B6C09F
:102C000089E0A82E77247394CC24CA94DC2C80917C
:102C10007E03811199C0C091AC03D091AD03219680
:102C2000D093AD03C093AC032097F1F4E0918B03F4
:102C3000F0918C038081811180CF80918B039091E2
:102C40008C0320918D0330918E0330938C0320935D
:102C50008B0390938E0380938D038091AE038F5FDF
:102C60008093AE030E9463068091890390918A034A
:102C7000B12CC817D90708F05BC0E0913C03F09174
:102C80003D03E689AE9EF0011124E155FC4F8081A1
:102C9000823010F0BB24B39480917403811103C07F
:102CA000BB2009F45AC07092740357C0E0918B03A3
:102CB000F0918C030580F681E02D06811781D80103
:102CC00012968D919C91C817D90728F490938A0386
:102CD00080938903D2CF4801B2E08B0E911CC401CE
:102CE0000E948010F80184899589892B21F0C80100
:102CF0000C960E948010D80156968C919091D30327
:102D0000981710F48093D3038A9DC0011124B40155
:102D100081559C4F0E946010E0913C03F0913D036F
:102D2000D80156969C918689981710F0BB24B394CD
:102D3000E0918B03F0918C0380818111B7CFD09209
:102D40008A03C092890399CF809171039091720395
:102D500001969093720380937103B1E0EB1AF1082E
:102D600009F055CF10927203109271038091740391
:102D7000882309F4F0CE0E949B1481E0EDCEAF923F
:102D8000BF92DF92EF92FF920F931F93CF93DF9347
:102D900000D01F921F92CDB7DEB78C017B015D83FF
:102DA0004C83892B11F40E94C8080E9437108111AE
:102DB00004C08C819D81892BB1F780E0580128E007
:102DC000A20EB11CC0C0E480F580E114F10419F535
:102DD00080E0F80115821482D394F801D28E918993
:102DE000992321F0C80141960E94D41181110E94BB
:102DF0009B140F900FBE81E00F900F900F900F90DB
:102E00000F90DF91CF911F910F91FF90EF90DF9086
:102E1000BF90AF90089580913C0390913D03E816D8
:102E2000F90609F0C0CFF70182A1882309F4BBCFCE
:102E3000815082A3268991A1291751F28111C8CF0F
:102E40005701F2E0AF0EB11CC5010E948010F701DE
:102E500081A1868B24E030E0281B31093587248747
:102E60009091D303981710F48093D303F9E08F9FC8
:102E7000C0011124B50181559C4F0E94601081E072
:102E8000A8CF50E0B701828193810E940D23F80101
:102E9000848D22813381820F932F911D93838283AE
:102EA000248135818217930708F45FC08081918166
:102EB000938382835AC02C813D81232B21F40F9070
:102EC0000FBE80E099CF811109C08091AE03898344
:102ED0008091AC039091AD039B838A830F900FBECA
:102EE0000E944F100FB6F8940F92F801858D8F3F16
:102EF00009F4158EF801868D8F3F09F4168E0F9018
:102F00000FBEBE016C5F7F4FCE0101960E94A111E2
:102F1000811133C00FB6F8940F92F801928D838D12
:102F20000F900FBE981323C06C817D81C5010E9454
:102F30005912C8010E9417120E948C15811102C0FB
:102F40000E949B1481E00FB6F8940F92F801228D35
:102F5000938D291708F0AFCFD28C448D411191CFBA
:102F600080819181892B09F42ECF80E035CFC80173
:102F70000E9417120E948C15E5CFC8010E941712FB
:102F80000E948C159ECF0F931F93CF93DF9300D099
:102F90001F921F92CDB7DEB7009711F40E94C808A8
:102FA0000091AA031091AB0301151105C9F0198214
:102FB0007B836A839D838C830E94371050E040E0BE
:102FC000BE016F5F7F4FC8010E94BF160F900F9028
:102FD0000F900F900F90DF91CF911F910F91089557
:102FE00080E0F4CFEF92FF920F931F93CF93DF9384
:102FF000E0919303F09194038081811113C080913B
:103000009103909192039093940380939303F09390
:103010009203E0939103DF91CF911F910F91FF9065
:10302000EF9008950580F681E02D00811181C68121
:10303000D7817E0182E0E80EF11CC7010E9480105A
:10304000E889F989CE0119958A8982FFD1CF8C85CB
:103050009D85800F911F0817190760F49B838A8351
:10306000D987C887B70180919303909194030E94F8
:10307000A410BECFB801CE010E94C3178111B8CFF2
:103080000E94C808CF93DF93009751F0EC010E9493
:103090004F10CE010E94801EDF91CF910C948C15B1
:1030A000DF91CF910895CF93DF93EC0180917E0360
:1030B00081110E94C8080E944F1060E0CE010E945A
:1030C00004110E948C15811102C00E949B14DF9193
:1030D000CF9108950F931F93CF93DF93EC010FB619
:1030E000F8940F92892B21F4C0913C03D0913D03B9
:1030F0008E010E5F1F4FC8010E9480108C899D8930
:10310000892B21F0CE010C960E94801080915A03E9
:103110008F5F80935A0380913C0390913D038C17FD
:103120009D07E9F4B80181E593E00E946010809169
:1031300050038F5F809350030F900FBE80917F03E9
:103140008823F1F080913C0390913D038C179D07FB
:10315000B9F480917E03882389F00E94C808809189
:1031600073038150809373038F89988D0E94421856
:10317000CE010E9442180E946306DECF0E949B147B
:10318000DF91CF911F910F910895AF92BF92CF928F
:10319000DF92FF920F931F93CF93DF9300D01F9284
:1031A0001F92CDB7DEB78C016B015D834C83892BF9
:1031B00011F40E94C8080E943710811104C08C814C
:1031C0009D81892BB1F780E0580191E1A90EB11CD6
:1031D00044C02C813D81232B21F40F900FBE80E051
:1031E0006DC0811109C08091AE0389838091AC03C9
:1031F0009091AD039B838A830F900FBE0E944F1066
:103200000FB6F8940F92F801858D8F3F09F4158E53
:10321000F801868D8F3F09F4168E0F900FBEBE0108
:103220006C5F7F4FCE0101960E94A11181115BC09E
:10323000C8010E945510882309F44FC06C817D811C
:10324000C5010E945912C8010E9417120E948C15D4
:10325000811102C00E949B1481E00FB6F8940F9276
:10326000F801F28CFF2009F4B4CF448D4423B1F06F
:1032700050E086819781840F951F978386832481F0
:1032800035818217930720F080819181978386830F
:10329000F80166817781C6010E940D23FA94F80136
:1032A000F28E8085882339F0C80108960E94D411D7
:1032B00081110E949B140F900FBE81E00F900F9020
:1032C0000F900F900F90DF91CF911F910F91FF9072
:1032D000DF90CF90BF90AF900895C8010E94171261
:1032E0000E948C15B9CFC8010E9417120E948C153C
:1032F000C8010E945510882309F4AECF70CFCF9338
:10330000DF93EC010E944F10CE010E94E41DEC01FE
:103310000E948C15209771F40E942F062FEF80E7F2
:1033200092E0215080409040E1F700C000000E94F0
:103330002D06F4CFCE01DF91CF9108955F926F9269
:103340007F928F929F92AF92BF92CF92DF92EF9235
:10335000FF920F931F93CF93DF93782E892E562ED3
:10336000672E6A01922E132FCA010E947F195C01F9
:10337000892B09F4D9C088E290E00E947F19EC0102
:10338000892B09F4CEC0B88EAF8AA60165EA70E039
:10339000C5010E94162321E0C21AD108EF89F88DD9
:1033A000EC0DFD1D652D762DCE0149969B01285F04
:1033B0003F4FDB014D91BD01DC014D93CD01AB01D0
:1033C00041505109DA014C91442319F062177307F7
:1033D00081F718A2043008F003E00E8B09A31AA2AB
:1033E0001B861A861D8A1C8AD987C88784E090E0CC
:1033F000801B91099D878C87DB8BCA8B1BA21CA22B
:103400001DA21EA21FA27082DF0111978C9211973C
:103410001C9211971C92119780E88C9311971C9223
:1034200011971C9211971C9257979C9211971C937D
:10343000B697F983E883E114F10419F0F701D18319
:10344000C0830FB6F8940F92809173038F5F8093BF
:10345000730380913C0390913D03892B09F075C063
:10346000D0933D03C0933C0380917303813081F579
:103470008FEA93E00E945F1188EB93E00E945F1156
:1034800081EC93E00E945F118AEC93E00E945F114F
:1034900087E493E00E945F118EE393E00E945F1146
:1034A00085E793E00E945F1181E593E00E945F1140
:1034B00080E893E00E945F1187E493E090938C038F
:1034C00080938B038EE393E090938E0380938D0320
:1034D00080915A038F5F80935A038E899091D30312
:1034E000981710F48093D303F9E08F9FC001112443
:1034F000BE016E5F7F4F81559C4F0E9460100F9000
:103500000FBE80917F03882351F0E0913C03F0913E
:103510003D0396898E89981710F40E949B1481E0D0
:1035200004C0C5010E9442188FEFDF91CF911F9117
:103530000F91FF90EF90DF90CF90BF90AF909F9052
:103540008F907F906F905F90089580917F0381119D
:10355000BFCFE0913C03F0913D0396898E89891796
:1035600008F4B6CFD0933D03C0933C03B1CFEF92A4
:10357000FF920F93CF93DF939FE6E92E93E0F92E0E
:1035800000E030E020E040EC50E06BEE72E080E8DC
:1035900091E00E949E19813009F09DC00FB6F89409
:1035A0000F928091AA039091AB03892B49F584E691
:1035B00093E00E945F118BE593E00E945F1184E627
:1035C00093E090939403809393038BE593E090931F
:1035D00092038093910381E590E00E947F19EC01B2
:1035E000009751F04F96998388838AE08B8F85E00E
:1035F0008C8FCE010E946D11D093AB03C093AA03B0
:103600000F900FBE8091AA039091AB03892B89F094
:103610008DE6E82E83E0F82E03E030E020E045E57B
:1036200050E060EF72E08EEA91E00E949E198111F5
:1036300002C00E94C808813009F04DC0F8942FEFF5
:103640003FEF30938A032093890380937F03109286
:10365000AD031092AC03A89588E190EC0FB6F894F6
:10366000A895809360000FBE90936000A0913C03EA
:10367000B0913D03CD91CDBFDD91DEBFFF91EF91C4
:10368000DF91CF91BF91AF919F918F917F916F917A
:103690005F914F913F912F911F910F91FF90EF906C
:1036A000DF90CF90BF90AF909F908F907F906F9062
:1036B0005F904F903F902F901F900F900CBE0F90F7
:1036C0000BBE0F900FBE0F900895DF91CF910F9119
:1036D000FF90EF9008958F3FC1F7ABCF0E946E121D
:1036E0001895DF92EF92FF920F931F93CF93DF9382
:1036F0001092D7031092D60388EE93E0A0E0B0E0DA
:103700008093D8039093D903A093DA03B093DB039B
:1037100086E392E09093D5038093D40385EC90E008
:103720009093E1038093E00384EC90E09093E303B3
:103730008093E20380EC90E09093E5038093E403B0
:1037400081EC90E09093E7038093E60382EC90E0B5
:103750009093E9038093E80386EC90E09093EB0369
:103760008093EA031092ED031092EE031092EF03A0
:103770001092F00310927A0484E180937B0485E137
:1037800080937C041092770482E18093780483E133
:10379000809379041092740480E18093750481E130
:1037A00080937604109271048EE0809372048FE00F
:1037B000809373041092370510923B0510923A05DE
:1037C00010923C0584E592E0909336058093350590
:1037D000E1E5F5E08DE895E0108214821382158210
:1037E00036968E179F07C1F784E092E09093980574
:1037F0008093970580E092E090939A0580939905D5
:1038000084E0E82EE0929B05E0929C0588E092E03F
:1038100090939605809395058AE090E090939E059D
:1038200080939D0584EF91E09093A00580939F0580
:103830001092A3051092A205109291051092920584
:1038400010929305109294051092A10510922005F4
:1038500010921F0588E492E090931E0580931D0549
:103860008DE0809321058FEF809322051CE010935B
:1038700023058BE0809324059AE0F92EF09225052C
:1038800009E000932605D8E0D0932705109228057B
:103890001092290510922A0510922B0510922C05E2
:1038A00081E00E941A071092A004C1E0C093A10415
:1038B00064E672E082EA94E00E947F08D093A80454
:1038C000C093A90464E672E08AEA94E00E947F084B
:1038D0001092B0041092B1041092B20425E0D22EDE
:1038E000D092B3041092B4041092B504F092B604CE
:1038F0001092B7041092B8041092B904C093BA049D
:1039000063EC72E08BEB94E00E947F08D093C104DB
:10391000C093C20467E373E083EC94E00E947F08E5
:103920000093C904C093CA041092CB041093CC0432
:10393000C093CD041092CE043FE0F32EF092CF045A
:10394000C093D0041092D1041092D204C093D30437
:103950006EEC72E084ED94E00E947F08D093DA046C
:10396000C093DB0469E373E08CED94E00E947F0870
:103970000093E204C093E3041092E4041093E5047E
:10398000C093E6041092E704F092E804C093E904BF
:103990001092EA041092EB04C093EC0469ED72E01B
:1039A0008DEE94E00E947F08D093F304C093F4045A
:1039B00067E373E085EF94E00E947F080093FB04C7
:1039C000C093FC041092FD041093FE04C093FF0406
:1039D00010920005F0920105C093020510920305B4
:1039E00010920405C093050564EE72E086E095E050
:1039F0000E947F08D0930C05C0930D0567E373E028
:103A00008EE095E00E947F0800931405C093150591
:103A10001092160510931705C093180510921905FA
:103A2000F0921A05C0931B0510921C05E0929D04AC
:103A3000D0929E0482E080939F048DE994E090935D
:103A40009C0480939B0485E994E00E94A7038DE782
:103A500094E00E94A70383E894E00E94A70389E80A
:103A600094E00E94A7038FE894E0DF91CF911F912B
:103A70000F91FF90EF90DF900C94A703789484B59A
:103A8000826084BD84B5816084BD85B5826085BD5A
:103A900085B5816085BD80916E00816080936E00E8
:103AA00010928100809181008260809381008091DA
:103AB000810081608093810080918000816080938B
:103AC00080008091B10084608093B1008091B0004B
:103AD00081608093B000809191008260809391001A
:103AE000809191008160809391008091900081602D
:103AF000809390008091A10082608093A1008091CA
:103B0000A10081608093A1008091A00081608093DA
:103B1000A000809121018260809321018091210188
:103B20008160809321018091200181608093200138
:103B300080917A00846080937A0080917A0082601C
:103B400080937A0080917A00816080937A008091DE
:103B50007A00806880937A001092C10020911C0244
:103B600030911D028FEF91E2821B930B909319020B
:103B7000809318020E946E0E0E94B71A0E946E0E69
:103B80000E94CE04FDCF0F931F93CF93DF93CDE11F
:103B9000D5E06997F1F38E01005F1F4FC017D10781
:103BA00051F008501109F801828193810097B1F317
:103BB0000E94801EF3CFF4E0C03ADF0751F7DF9197
:103BC000CF911F910F9108950F931F93CF93DF9380
:103BD0008230910510F482E090E0E091A605F0912A
:103BE000A70530E020E0B0E0A0E0309799F421157F
:103BF000310509F44AC0281B390B24303105D8F5AA
:103C00008A819B816115710589F1FB019383828310
:103C1000FE0111C04081518102811381481759076B
:103C2000E0F04817590799F4109761F012960C9339
:103C3000129713961C933296CF01DF91CF911F916B
:103C40000F9108950093A6051093A705F4CF2115B1
:103C5000310551F04217530738F0A901DB019A01F1
:103C6000BD01DF01F801C1CFEF01F9CF9093A705A6
:103C70008093A605CDCFFE01E20FF31F81939193B0
:103C80002250310939832883D7CF2091A405309160
:103C9000A505232B41F420911A0230911B02309389
:103CA000A5052093A4052091180230911902211531
:103CB000310541F42DB73EB740911C0250911D02D1
:103CC000241B350BE091A405F091A505E217F3073D
:103CD000A0F42E1B3F0B2817390778F0AC014E5F7C
:103CE0005F4F2417350748F04E0F5F1F5093A5050F
:103CF0004093A405819391939FCFF0E0E0E09CCFA7
:103D0000CF93DF930097E9F0FC0132971382128280
:103D1000A091A605B091A705ED0130E020E0109735
:103D2000A1F420813181820F931F2091A40530914D
:103D3000A5052817390709F061C0F093A505E093A0
:103D4000A405DF91CF910895EA01CE17DF07E8F5CA
:103D50004A815B819E0141155105B1F7E901FB8361
:103D6000EA8349915991C40FD51FEC17FD0761F4FF
:103D7000808191810296840F951FE9019983888340
:103D8000828193819B838A83F0E0E0E012968D919B
:103D90009C9113970097B9F52D913C911197CD0106
:103DA0000296820F931F2091A4053091A505281734
:103DB000390739F6309751F51092A7051092A605EC
:103DC000B093A505A093A405BCCFD383C283408143
:103DD0005181840F951FC817D90761F44E5F5F4F5B
:103DE00088819981480F591F518340838A819B8123
:103DF000938382832115310509F0B0CFF093A70595
:103E0000E093A6059ECFFD01DC01C0CF1382128294
:103E1000D7CF0F931F93CF93DF93CDB7DEB72E97F6
:103E20000FB6F894DEBF0FBECDBF0E891F89888DF7
:103E3000998D2EE02C831A83098397FF02C080E0BE
:103E400090E801979E838D83AE01445E5F4F6A8D3B
:103E50007B8DCE0101960E94461F4D815E8157FDEC
:103E60000AC02F813885421753070CF49A01020FBC
:103E7000131FF80110822E960FB6F894DEBF0FBE06
:103E8000CDBFDF91CF911F910F9108952F923F9257
:103E90004F925F926F927F928F929F92AF92BF925A
:103EA000CF92DF92EF92FF920F931F93CF93DF9306
:103EB00000D000D000D01F921F92CDB7DEB77C019A
:103EC0003B018A01FC0117821682838181FFDDC1DB
:103ED000CE0101965C01F7019381F30193FD859179
:103EE00093FF81913F01882309F453C1853239F44E
:103EF00093FD859193FF81913F01853229F4B701AC
:103F000090E00E945E21E7CF912C212C312CFFE123
:103F1000F31538F08B3211F190F4803209F18332CD
:103F200029F137FC3CC020ED280F2A3050F536FE31
:103F300020C08AE0989E200D1124922E06C08D325A
:103F400091F0803371F7689430F8F30193FD859117
:103F500093FF81913F018111DACF21C0689431F83C
:103F6000689432F8F2CF689433F8EFCF689434F85D
:103F7000ECCFEAE02E9E200D1124222E689435F815
:103F8000E4CF8E3229F436FC04C1689436F8DDCFD4
:103F90008C3619F4689437F8D8CF8836B1F2982F58
:103FA0009F7D95549330E0F08336A1F18337C1F1C2
:103FB000833509F063C02801F2E04F0E511CF8016F
:103FC000C080D180692D70E036FC02C06FEF7FEFBA
:103FD000C6010E9448214C01689437F882010AC04A
:103FE0000C5F1F4FFFE3F98388248394912C6501B4
:103FF000E89437F833FE2DC0522C8114910471F5EA
:10400000552009F468CFB70180E290E00E945E215C
:104010005A94F6CFF801808189830E5F1F4FE4CF59
:104020002801F2E04F0E511CF801C080D180692DAB
:1040300070E036FC02C06FEF7FEFC6010E94532193
:104040004C018201D5CFB70180E290E00E945E2151
:104050002A942814190409F0B0F7CECFF60137FCE2
:10406000859137FE81916F01B70190E00E945E213A
:1040700051105A94F1E08F1A9108BFCF843619F08D
:10408000893609F077C0F80137FE6BC06081718115
:10409000828193810C5F1F4FF32DFF763F2E97FF98
:1040A00009C090958095709561957F4F8F4F9F4F78
:1040B000689437F82AE030E0A5010E948E21C82ECE
:1040C000CA188C2C432C36FE0CC0E89440F8C91456
:1040D00040F434FE05C032FC03C0F32DFE7E4F2EAB
:1040E000892C44FEAAC0FE01EC0DF11D80818033B5
:1040F00009F09CC0242D297E422E842D8870582ED4
:1041000043FCAAC040FEA4C09C2C821418F42C0CC2
:10411000922C981844FEA6C0B70180E390E00E945C
:104120005E2142FE09C088E790E041FE02C088E5BA
:1041300090E0B7010E945E21C91408F49FC0CA94A0
:10414000D12C9FEFC91AD90ACA0CDB1CF601829147
:104150006F01B70190E00E945E21AC14BD04B1F77D
:104160004FCF60817181072E000C880B990B0E5F79
:104170001F4F92CFD32CE894D4F82AE030E0853753
:10418000E1F1232D297FD22E8F36A9F1F0F4883565
:1041900051F1F701868197812B960FB6F894DEBF17
:1041A0000FBECDBFDF91CF911F910F91FF90EF9088
:1041B000DF90CF90BF90AF909F908F907F906F9047
:1041C0005F904F903F902F900895803749F0883747
:1041D00001F7D4FE02C06894D2F820E130E00DC0AF
:1041E0006894D4F8F6CF34FE03C0822F8660D82EB0
:1041F00020E132E002C028E030E0F801D7FE0FC035
:1042000060817181828193810C5F1F4FA5010E94A3
:104210008E21C82ECA183D2CE89437F852CF608101
:10422000718190E080E00E5F1F4FF0CF42FC02C032
:10423000839463CF8394839460CF842D867809F42C
:104240005CCFF6CFB70180E290E00E945E218394BC
:104250008214C0F3512C5ECF522C5818821408F4EB
:1042600059CFF8CF842D867809F466CF8BE241FED2
:1042700080E247FC8DE2B70190E05CCFB70180E3BC
:1042800090E00E945E219A9457CF8FEF9FEF84CFEA
:10429000FC010590615070400110D8F78095909511
:1042A0008E0F9F1F0895FC01615070400190011016
:1042B000D8F7809590958E0F9F1F08950F931F93A9
:1042C000CF93DF93182F092FEB018B8181FD09C05C
:1042D0001FEF0FEF812F902FDF91CF911F910F9143
:1042E000089582FF14C02E813F818C819D81281703
:1042F00039073CF4E881F981CF01019699838883DD
:1043000010838E819F8101969F838E83E3CFE88502
:10431000F985812F1995892BA1F3DACFFA01AA2704
:10432000283051F1203181F1E8946F936E7F6E5FF8
:104330007F4F8F4F9F4FAF4FB1E03ED0B4E03CD0A6
:10434000670F781F891F9A1FA11D680F791F8A1F89
:10435000911DA11D6A0F711D811D911DA11D20D0F0
:1043600009F468943F912AE0269F11243019305DAA
:104370003193DEF6CF010895462F4770405D41939B
:10438000B3E00FD0C9F7F6CF462F4F70405D4A33E8
:1043900018F0495D31FD4052419302D0A9F7EACFB0
:1043A000B4E0A6959795879577956795BA95C9F7DF
:1043B00000976105710508959B01AC010A2E0694D2
:1043C0005795479537952795BA95C9F7620F731F8B
:1043D000841F951FA01D0895F999FECF92BD81BD40
:1043E000F89A992780B50895262FF999FECF1FBA1C
:1043F00092BD81BD20BD0FB6F894FA9AF99A0FBE0E
:1044000001960895A1E21A2EAA1BBB1BFD010DC047
:10441000AA1FBB1FEE1FFF1FA217B307E407F50774
:1044200020F0A21BB30BE40BF50B661F771F881F50
:10443000991F1A9469F760957095809590959B01E6
:10444000AC01BD01CF010895EE0FFF1F881F8BBF88
:104450000790F691E02D19944F925F926F927F92A0
:104460008F929F92AF92BF92CF92DF92EF92FF9284
:104470000F931F93CF93DF938C01009799F4CB0197
:10448000DF91CF911F910F91FF90EF90DF90CF9030
:10449000BF90AF909F908F907F906F905F904F9064
:1044A0000C94E41DFC01E60FF71F9C01225031091A
:1044B000E217F30708F4AEC0D901CD91DC91119752
:1044C000C617D70720F1C530D10578F0CE01049783
:1044D0008617970750F0C61BD70B2297C193D1932D
:1044E0006D937C93CF010E94801EC801DF91CF9114
:1044F0001F910F91FF90EF90DF90CF90BF90AF9002
:104500009F908F907F906F905F904F9008955B0188
:10451000AC1ABD0A4C018C0E9D1EA091A605B0914F
:10452000A705512C412CF12CE12C109731F58091ED
:10453000A4059091A5058815990509F05CC046165B
:10454000570608F058C08091180290911902009700
:1045500041F48DB79EB740911C0250911D02841BFF
:10456000950BE817F90708F055C0F093A505E093FF
:10457000A405F90171836083B8CF8D919C91119747
:1045800012966C90129713967C901397A815B90504
:1045900059F56C0142E0C40ED11CCA14DB0420F1B1
:1045A000AC014A195B09DA011296159780F0628214
:1045B000738251834083D9016D937C93E114F1049C
:1045C00071F0D7011396FC93EE9312978ECF22963B
:1045D0008C0F9D1FF90191838083F301EFCFF0933E
:1045E000A705E093A60581CF4816590608F42C01CB
:1045F0007D01D3019ACFCB010E94E41D7C0100977D
:1046000049F0AE01B8010E940D23C8010E94801E2E
:1046100087016BCF10E000E068CFFB01DC0102C036
:1046200001900D9241505040D8F70895DC0101C02F
:104630006D9341505040E0F70895FB01DC0101907B
:104640000D920020E1F7089512E0C0EED2E000E004
:1046500006C0802FFE010E9424222196011DC13E2A
:0C466000D10780E00807A9F7F894FFCF0D
:10466C00393837363D3C3B3A3031323334353637D6
:10467C0038394142434445460000A80580000403F4
:10468C000201323334352E2F30312A2B2C2D262794
:10469C002829000000006104CB03F803AE042904B0
:1046AC0007041B0400000000D207CB031F061E06E4
:1046BC00000000002906250622060D0A0050494E6E
:1046CC003A20202020002020416C61726D20486F20
:1046DC0075723A20202020002020416C61726D20E0
:1046EC004D696E7574653A20202020004552524F5A
:1046FC005221004552524F5220434F44453A2030EC
:10470C003033002020465F6B65795F6E756D3A0023
:10471C00706167653A002020696E6465783A0054D0
:10472C0061736B416C61726D31005461736B416CE0
:10473C0061726D32005461736B416C61726D330048
:10474C005461736B416C61726D340049444C45008B
:10475C00546D722053766300636F6D70696C656481
:10476C003A20005365702032302032303230003124
:10477C00323A35373A3533004B6579626F61726482
:10478C0052656164004D61696E4C6F6769630044EA
:0C479C006973706C6179004200440000F9
:00000001FF
