:100000000C94FF020C94C4140C9499140C946E1468
:100010000C9443140C9418140C94ED130C94C21308
:100020000C9497130C9430030C9430030C9430030D
:100030000C9426200C9430030C9430030C94300361
:100040000C9430030C9430030C9430030C94300364
:100050000C9430030C9430030C9430030C944D1327
:100060000C9430030C9417130C94ED120C94300381
:100070000C9430030C9430030C9430030C94300334
:100080000C9430030C9430030C9430030C94300324
:100090000C9430030C9430030C9430030C94300314
:1000A0000C9430030C9430030C9430030C94300304
:1000B0000C9430030C9430030C9430030C943003F4
:1000C0000C9430030C9430030C9430030C943003E4
:1000D0000C9430030C9430030C9430030C943003D4
:1000E0000C9430030C94E8060C9426070C940B0532
:1000F0000C942D070C9441070C94D7030C94E60440
:100100000C940C050C94C9030C94A6030C940807DA
:100110000C94F8040C9458100C94B9020C940F042D
:100120000C94D9040C9406050C9400070C94FE045E
:100130000C942E070C94EA040C94E70A0C94120712
:100140000C9402100C94A3110C94F2020C94D60699
:100150000C9429200C943C0E0C949D100C941005CA
:100160000C94A0090C9434060C9471110C94D504D1
:100170000C9420070C94F0040C94E0040C947B2263
:100180000C94A3070C948A110C94B5030C943107BA
:100190000C94F4040C94E8100C9402070C94CB0417
:1001A0000C94DD040C9438070C9434070C9402056D
:1001B0000C94CC010C949E010C94D1040C94E10C91
:1001C0000C945C040C9479030C9420110C94DF02C1
:1001D0000C94BE060C94D4070C944A110C9472072C
:1001E0000C94C8060C94F802253032753A2530324A
:1001F00075202530327500253032752F2530327547
:1002000020253032753A253032753A253032750066
:1002100000002100240027002A002D0030003300B8
:1002200001010000040107010A010000220025006D
:1002300028002B002E0031003400020100000501CF
:1002400008010B01000020002300260029002C00DB
:100250002F0032000001000003010601090105051D
:100260000505070508080808020202020A0A08082C
:10027000040404040101010101010101030303035A
:1002800003030303040707070C0C0C0C0C0C0C0CE9
:100290000202020206060606060606060B0B0B0BFA
:1002A0000B0B0B0B0102102020080810204010201F
:1002B000408002010201080402010102040810202A
:1002C0004080804020100804020180040201804028
:1002D0002010080402010804020101020408102091
:1002E0004080010204081020408000000A0B02092F
:1002F0000C0D0E08070304010000000000000000C0
:1003000000000000000000000000000000000000ED
:1003100000000000000012111000000000000000AA
:1003200000000000000000000000000000000000CD
:100330001F1C1F1E1F1E1F1F1E1F1E1F80918A03B2
:10034000811109C08091F503823010F00E94531989
:100350000E947C04F3CF0FB6F8940F92E0919003C3
:10036000F0919103C681D781CE0102960E94381583
:100370008091AD0381508093AD0380918A038150B9
:1003800080938A030F900FBE8F89988D0E94FA1C6C
:10039000CE010E94FA1CD2CFCF93DF9300D01F92E0
:1003A0001F92CDB7DEB7E091CD03F091CE03F08080
:1003B00010E000E0FF2029F00580F681E02D0081AB
:1003C00011810E9407150E94FD146C018091C903E0
:1003D0009091CA03C816D90608F04DC00E94AA1C05
:1003E000D092CA03C092C9030E94441A50E040E070
:1003F000BE016F5F7F4F8091F0039091F1030E94E7
:100400007D1D882381F2898187FDF0CF0C811D81BC
:10041000D8011A968D919C91892B21F0C8010296E2
:100420000E9438150E94FD147C018091C9039091AF
:10043000CA03E816F90610F40E94AA1CF092CA0337
:10044000E092C903E981EA3088F60E2E000CFF0B1A
:10045000D80152969C918827EF5CFD4F8F4F0C94EA
:100460000F27B902B902B902F802DF02F202B9029B
:10047000B902F802DF02D092CA03C092C903FF207A
:10048000B1F1C016D106D8F10E94441AE091CD0313
:10049000F091CE030580F681E02DE680F780C7015C
:1004A00002960E943815D70152968C91529782FF7E
:1004B00014C01C966D917C91600F711F9801A6016C
:1004C000C7010E949215882359F0B801C7010E9404
:1004D0007B1C811105C00E94B70A8E7FF701828BB9
:1004E000D7015096ED91FC91C70119957FCFE0910E
:1004F000CB03F091CC038081BB24B3948111B12C48
:10050000E090F003F090F1030FB6F8940F92F7012A
:10051000858D8F3F09F4158ED7015E968C915E977D
:100520008F3F11F45E961C920F900FBEF701828DE3
:10053000811115C0C701419671F2609176037091E7
:100540007703645F7F4F0E941815C8018C199D09BD
:10055000BB2011F08FEF9FEF6B2D0E94BC15C701E0
:100560000E94CF160E94441A811140CF0E94531955
:100570003DCF9160F801928B2A813B81648575851E
:10058000620F731FA701C8010E949215882309F406
:100590002DCFD8015096ED91FC91C8011995F80125
:1005A000828982FF23CF6A817B8184859585680F4C
:1005B000791FC8010E947B1C811118CF8CCF9160DC
:1005C000F801928B6A817B8175876487611571055B
:1005D00009F481CF6E0D7F1D9701A701C8010E940C
:1005E000921504CF91FD04C0C8010E94FA1CFECEF2
:1005F0009E7FD80152969C93F9CE29207B2211240C
:100600001FBECFEFD1E2DEBFCDBF00E00CBF13E0D5
:10061000A0E0B2E0EAE6F0E500E00BBF02C0079020
:100620000D92A637B107D9F725E0A6E7B3E001C0E0
:100630001D92A63FB207E1F712E0CEEFD2E000E054
:1006400006C021970109802FFE010E940F27CD3F90
:10065000D10780E00807A9F70E94F6210C9423280F
:100660000C94000096E0899FD0011124A558BA4F40
:1006700090967C936E935F9791E091969C9391975F
:10068000E091E805F091E9059091E705992339F0AB
:10069000309751F0811108C08091970519943097D7
:1006A00019F05C968C91FACF0895DC0115961C9296
:1006B000159714961C92149713961C9213971C92DC
:1006C00081E011968C93119711968C911197282F98
:1006D0002150330BF901E05DFC4FE491823009F4C5
:1006E000EF5FE11102C08F5FECCF81E012968C9337
:1006F0000895AF92BF92CF92DF92EF92FF920F9345
:100700001F93CF93DF936C017B018B01040F151FA7
:10071000EB015E01AE18BF08C017D10759F069910F
:10072000D601ED91FC910190F081E02DC601199563
:10073000892B79F7C501DF91CF911F910F91FF9020
:10074000EF90DF90CF90BF90AF900895FC01538D54
:10075000448D252F30E0842F90E0821B930B54179B
:1007600010F0CF96089501970895FC01918D828D28
:10077000981761F0A28DAE0FBF2FB11D5D968C91C1
:10078000928D9F5F9F73928F90E008958FEF9FEF00
:100790000895FC01918D828D981731F0828DE80FBC
:1007A000F11D858D90E008958FEF9FEF0895FC0176
:1007B000918D228D892F90E0805C9F4F821B910943
:1007C0008F73992708958AE194E00E94D70321E06E
:1007D000892B09F420E0822F0895FC01A48DA80F35
:1007E000B92FB11DA35ABF4F2C91848D90E0019673
:1007F0008F739927848FA689B7892C93A089B18993
:100800008C91837080648C93938D848D981306C033
:100810000288F389E02D80818F7D80830895EF9297
:10082000FF920F931F93CF93DF93EC0181E0888FAA
:100830009B8D8C8D98131AC0E889F989808185FF7A
:1008400015C09FB7F894EE89FF896083E889F9891C
:1008500080818370806480839FBF81E090E0DF911E
:10086000CF911F910F91FF90EF900895F62E0B8D71
:1008700010E00F5F1F4F0F731127E02E8C8D8E112C
:100880000CC00FB607FCFACFE889F989808185FF93
:10089000F5CFCE010E94ED03F1CFEB8DEC0FFD2FD4
:1008A000F11DE35AFF4FF0829FB7F8940B8FEA894E
:1008B000FB8980818062CFCFCF93DF93EC01888D5D
:1008C0008823B9F0AA89BB89E889F9898C9185FDCB
:1008D00003C0808186FD0DC00FB607FCF7CF8C9159
:1008E00085FFF2CF808185FFEDCFCE010E94ED0321
:1008F000E9CFDF91CF91089580E090E0892B29F036
:100900000E94E30381110E94000080E090E0892BA7
:1009100049F080E090E0892B29F00E9400008111CD
:100920000E94000080E090E0892B49F080E090E098
:10093000892B29F00E94000081110E94000080E0B4
:1009400090E0892B49F080E090E0892B29F00E940B
:10095000000081110C94000008958150823108F04C
:100960005AC0E82FF0E08827E754FB4F8F4F0C94D4
:100970000F27D904DD04CB04D104D5040B05E00412
:10098000E604EA04F004F404F804FE0402050B058E
:1009900006050C051005809180008F7780938000FC
:1009A0000895809180008F7DF9CF80918000877FAE
:1009B000F5CF84B58F7784BD089584B58F7DFBCF47
:1009C0008091B0008F778093B00008958091B0003F
:1009D0008F7DF9CF809190008F778093900008955C
:1009E000809190008F7DF9CF80919000877FF5CF27
:1009F0008091A0008F778093A00008958091A0003F
:100A00008F7DF9CF8091A000877FF5CF8091200165
:100A10008F77809320010895809120018F7DF9CFF9
:100A200080912001877FF5CFCF93DF93282F30E08F
:100A3000F901E651FD4F8491F901EC55FD4FD49138
:100A4000F901E25AFD4FC491CC23A1F081110E941B
:100A5000AD04EC2FF0E0EE0FFF1FEC5BFD4FA59116
:100A6000B491EC91ED2381E090E009F480E0DF9116
:100A7000CF91089580E090E0FACF1F93CF93DF935A
:100A8000282F30E0F901E651FD4F8491F901EC5532
:100A9000FD4FD491F901E25AFD4FC491CC23A9F046
:100AA000162F81110E94AD04EC2FF0E0EE0FFF1F16
:100AB000E65DFD4FA591B4918FB7F894EC911111BB
:100AC00008C0D095DE23DC938FBFDF91CF911F91BB
:100AD0000895DE2BF8CFCF93DF9390E0FC01EC5527
:100AE000FD4F2491825A9D4FFC0184918823C9F0C7
:100AF00090E0880F991FFC01E05FFD4FA591B49134
:100B0000FC01E65DFD4FC591D49161110DC09FB709
:100B1000F8948C91209582238C93888128232883B4
:100B20009FBFDF91CF910895623051F49FB7F89441
:100B30003C91822F809583238C93E8812E2BEFCFDD
:100B40008FB7F894EC912E2B2C938FBFEACF3FB741
:100B5000F8948091EC039091ED03A091EE03B09195
:100B6000EF0326B5A89B05C02F3F19F00196A11DE4
:100B7000B11D3FBFBA2FA92F982F8827BC01CD01E7
:100B8000620F711D811D911D42E0660F771F881F46
:100B9000991F4A95D1F708952FB7F8946091E8030B
:100BA0007091E9038091EA039091EB032FBF0895C0
:100BB0000F931F93CF93DF93C82FD62F86E0C89F44
:100BC000F0011124E558FA4F11A2878D90A18130D0
:100BD0009105F1F058F082309105F1F1039709F495
:100BE00040C0DF91CF911F910F9108956623C9F303
:100BF00061E070E08C2F0E9432030E94CC0560936C
:100C0000D3057093D4058093D5059093D605E9CF8D
:100C10000E94CC050091D3051091D4052091D505F3
:100C20003091D605AB01BC01401B510B620B730B1D
:100C30008091E5059091E605B0E0A0E08417950766
:100C4000A607B70748F462E070E08C2FDF91CF91E0
:100C50001F910F910C94320363E070E0D111C1CF6A
:100C6000F4CF70E060E0F1CF08950F931F93CF931E
:100C7000DF93EC018B0188859985029751F46130EF
:100C8000710509F43AC06CF560E00115110509F42D
:100C900035C088859985049751F40130110509F410
:100CA0005DC00CF035C00115110509F446C08885FA
:100CB0009985059709F0CCC00A30110508F0C8C025
:100CC000F8018827E959F94F8F4F0C940F27BE067A
:100CD000C806D606E806000702070807120720071D
:100CE00026076230710591F060E00330110589F646
:100CF0008C850E943D0560E005C061E08C850E9406
:100D00003D0561E08E850E943D05C3CF61E0F0CFD7
:100D10000230110549F10330110509F0C8CF60E038
:100D20008C850E943D0560E08E850E943D0560E057
:100D300088890E943D0561E00DC061E08C850E94BC
:100D40003D0560E08E850E943D0560E088890E9437
:100D50003D0560E08A890E943D05A9CF60E08C8551
:100D60000E943D0561E0EECF60E08C850E943D056C
:100D700060E08E850E943D0561E0E8CF60E08C85F3
:100D80000E943D0561E08E850E943D0561E009C03D
:100D900060E08C850E943D0561E08E850E943D05E6
:100DA00060E088890E943D0560E00DC060E08C85B0
:100DB0000E943D0561E08E850E943D0560E08889C6
:100DC0000E943D0561E08A890E943D0561E011C0F5
:100DD00060E08C850E943D0561E08E850E943D05A6
:100DE00060E088890E943D0561E08A890E943D0596
:100DF00060E08C89DF91CF911F910F910C943D059C
:100E000061E0E7CF61E08C850E943D0560E0E5CFC1
:100E100061E08C850E943D0560E08E850E943D0565
:100E200061E0DFCF61E08C850E943D0560E08E854A
:100E30000E943D0561E088890E943D0560E0D5CFB4
:100E400061E08C850E943D0560E09DCF60E0F9CFB8
:100E5000DF91CF911F910F910895089590E080E068
:100E60000895862F0C941405862F642F0C943D054D
:100E7000862F642F0C946B051F9A0895279A2F9A3A
:100E800008950F931F930E94CC050091E3031091E6
:100E9000E4032091E5033091E603601B710B820BA4
:100EA000930B6536710581059105B0F085E10E94CF
:100EB0001405019789F40E94CC056093E3037093B5
:100EC000E4038093E5039093E6038091D60387FDC6
:100ED00006C081508093D6031F910F910895109200
:100EE000D603FACF0F931F930E94CC050091DF0326
:100EF0001091E0032091E1033091E203601B710B3C
:100F0000820B930B6536710581059105B0F084E184
:100F10000E941405019789F40E94CC056093DF03B9
:100F20007093E0038093E1039093E2038091D503F3
:100F300087FD06C081508093D5031F910F910895BE
:100F40001092D503FACF0F931F930E94CC05009106
:100F5000DB031091DC032091DD033091DE03601B85
:100F6000710B820B930B6536710581059105B0F00D
:100F700083E10E941405019789F40E94CC056093D7
:100F8000DB037093DC038093DD039093DE03809199
:100F9000D40387FD06C081508093D4031F910F9125
:100FA00008951092D403FACF0F931F930E94CC059B
:100FB0000091D7031091D8032091D9033091DA031F
:100FC000601B710B820B930B6536710581059105D2
:100FD000B0F082E10E941405019789F40E94CC05CB
:100FE0006093D7037093D8038093D9039093DA0367
:100FF0008091D30387FD06C081508093D3031F9156
:101000000F9108951092D303FACFCF93DF93EC01A1
:101010008A819881992339F061E00E943D05188208
:10102000DF91CF91089560E00E943D0581E08883C3
:10103000F7CFCF93DF93EC0161E089810E946B05CC
:1010400061E089810E943D0561E08A810E946B0513
:1010500061E08A81DF91CF910C943D05E091C50359
:10106000F091C6038081811107C08FEF9FEF9093AD
:10107000C4038093C3030895E091C503F091C603B0
:101080000580F681E02D0680F781E02D8281938135
:10109000EECFCF93DF93EC0160E08E810E943D059F
:1010A00061E08E810E943D0560E08E810E943D05D9
:1010B0008BE891E00197F1F7DF91CF910895CF92FE
:1010C000DF92EF92FF920F931F93CF93DF936C0108
:1010D0007C0187E0E80EF11CD0E0C0E0062F10E0B4
:1010E000B8010C2E02C0759567950A94E2F76170FD
:1010F000F70181917F010E943D052196C430D10501
:1011000079F7C601DF91CF911F910F91FF90EF907A
:10111000DF90CF900C944908CF92DF92EF92FF922C
:101120000F931F93CF93DF93EC01F62E642F8C81E6
:101130000E943D058D818F3F19F060E00E943D05C2
:101140000F2D10E08F8584FF25C06E0187E0C80E4B
:10115000D11CF12CE12CB8010E2C02C075956795BD
:101160000A94E2F76170F60181916F010E943D05DA
:10117000FFEFEF1AFF0A88E0E816F10461F7CE01ED
:10118000DF91CF911F910F91FF90EF90DF90CF9063
:101190000C944908B80184E0759567958A95E1F744
:1011A000CE010E945F086F2DCE01DF91CF911F917C
:1011B0000F91FF90EF90DF90CF900C945F0840E08C
:1011C000682F83E695E00C948C0881E00E94DF088C
:1011D0008BE39FE10197F1F70895CF93DF9382307E
:1011E00029F490917205986090937205809376052A
:1011F0001092770580E48093780580E180937905EB
:1012000080E580937A0561E0809167050E946B0517
:10121000809168058F3F19F061E00E946B0561E0E5
:10122000809169050E946B05C3E6D5E09E012356B7
:1012300035408091720584FD0BC084E090E02196DA
:101240002817390744F461E08E810E946B05EECFC8
:1012500088E090E0F4CF8BE39DE00197F1F760E048
:10126000809167050E943D0560E0809169050E94BC
:101270003D05809168058F3F19F060E00E943D05B3
:101280008091720584FD34C063E083E695E00E949E
:101290005F08CBE4D6E4CE010197F1F763E083E683
:1012A00095E00E945F082197F1F763E083E695E0FF
:1012B0000E945F0883E592E00197F1F762E083E620
:1012C00095E00E945F088091720580620E94DF08AD
:1012D00084E0809373058CE00E94DF080E94E5089B
:1012E00082E08093740586E0DF91CF910C94DF0853
:1012F00080620E94DF088BE496E40197F1F7809109
:10130000720580620E94DF0883E592E00197F1F7A1
:101310008091720580620E94DF08D5CF643008F0AA
:1013200063E090917605691710F06FEF690FE62F73
:10133000F0E0ED59FA4F9489890F80680C94DF082A
:1013400041E00E948C0881E090E00895EF92FF92C6
:101350001F93CF93DF937C01D0E0C0E010E0F70152
:1013600080810E9414050C2E01C0880F0A94EAF7B0
:10137000182B61E0F70181810E943D0560E0F701D3
:1013800081810E943D052196C830D10541F7812F0A
:10139000DF91CF911F91FF90EF900895FB01019095
:1013A0000020E9F73197AF01461B570BDC01ED91A7
:1013B000FC910280F381E02D19948F929F92AF925D
:1013C000BF920F931F93CF93DF93CDB7DEB7A19753
:1013D0000FB6F894DEBF0FBECDBF19A2423008F49D
:1013E0004AE08E010F5D1F4F842E912CB12CA12C51
:1013F000A50194010E94CE26E62FB901CA01EA3068
:1014000004F5E05DD801EE938D01232B242B252BD1
:1014100079F790E080E0109729F0BD018AE194E02F
:101420000E94CE09A1960FB6F894DEBF0FBECDBFC5
:10143000DF91CF911F910F91BF90AF909F908F90B0
:101440000895E95CDFCFCF92DF92EF92FF92CF93C6
:10145000DF936B017C016DE28AE194E00E940F044E
:10146000EC0166277727CB016C197D098E099F094E
:101470004AE00E94DD098C0F9D1FDF91CF91FF9004
:10148000EF90DF90CF900895CF93DF93BC018AE176
:1014900094E00E94CE09EC0162E772E08AE194E0F8
:1014A0000E94CE098C0F9D1FDF91CF910895CF939D
:1014B000DF93682F70E090E080E04AE00E94DD0951
:1014C000EC0162E772E08AE194E00E94CE098C0FA1
:1014D0009D1FDF91CF9108950C94CE09EF92FF925A
:1014E0000F931F93CF93DF93EC017B011982188236
:1014F0001B821A821D821C82FB0101900020E9F7E9
:1015000031978F01061B170BB8016F5F7F4F90E07B
:1015100080E00E942B270097B9F0998388831B8372
:101520000A832C813D81232B11F4FC0110821D8341
:101530000C83B70188819981DF91CF911F910F9121
:10154000FF90EF900C941C2888819981009711F0EE
:101550000E943823198218821D821C821B821A82E3
:10156000DF91CF911F910F91FF90EF900895F89424
:101570000E943E072FEF81EE94E021508040904082
:10158000E1F700C000000E943C072FEF87EA91E6D8
:10159000215080409040E1F700C000000E943C07CD
:1015A0002FEF81EE94E0215080409040E1F700C0A1
:1015B00000000E943C072FEF81EE94E02150804014
:1015C0009040E1F700C000000E943C07D3CFCF93CA
:1015D000DF93CDB7DEB76E970FB6F894DEBF0FBEC0
:1015E000CDBF7C011C0121E0221A3108F101EE0F70
:1015F000FF1FEE0FFF1FEA5CFD4F838190E0228109
:1016000030E0418150E0D0801C861B861A8219820E
:101610001F8A188E198E1A8E64E670E078876F83A1
:101620006D2D70E07E876D87588B4F873A8B298BA5
:101630009C8B8B8B61E08D2D0E946B0561E08F850B
:101640000E946B0561E089890E946B0561E08B89CE
:101650000E946B051E8A1D8A84E090E09A87898724
:101660002F813885032E000C440B550B60E077E882
:1016700083E993E00E94F026CA01B90128EC30E02A
:1016800040E050E00E94F0262B833C834D835E8334
:1016900089E18E9DF0018F9DF00D1124EA51FB4FE1
:1016A0007588628881010D521C4F808DF8018083FE
:1016B00065E772E08AE194E00E946C0AB7010F2CA2
:1016C000000C880B990B97FFC8C00E94230A66E89C
:1016D00072E08AE194E00E946C0A6D2D70E090E067
:1016E00080E04AE00E94DD0961E972E08AE194E06D
:1016F0000E946C0A662D70E090E080E04AE00E9453
:10170000DD0963EA72E08AE194E00E946C0A872DA9
:101710000E94570AB12CC101880F991F9C01225DBC
:101720003D4F3C8F2B8FA1014A5B5D4F1A0174E046
:10173000C72ED12C29E12E9DC0012F9D900D112483
:10174000FC01E250FB4FFE8FED8F8091DE046812AA
:101750001FC18091DF0478121BC15090DD04B514C5
:1017600009F416C1EB8DFC8D20813181F10190814E
:10177000923009F076C030930102209300028091EC
:101780006A00836080936A00EC9AF80180811816E1
:101790000CF0B5C067EB72E08AE194E00E946C0A3D
:1017A000F8016081062E000C770B880B990B97FFD0
:1017B00096C00E94230A62E772E08AE194E00E94E8
:1017C000CE0921E030E03A83298344E6E42EF12C6F
:1017D000E114F104D1F20E94A7058F88988CA98C9E
:1017E000BA8C9B01AC01281939094A095B094901E6
:1017F0005A012B813C814D815E8182169306A4069D
:10180000B50630F36F8B788F898F9A8F8B859C8587
:1018100029813A812130310509F065C001969C8704
:101820008B872F8138858217930711F41C861B86BE
:1018300031E0E31AF1088B859C8529853A856AE0B9
:1018400070E02530310509F0B6010E94BA26BC01CE
:10185000CE0101960E943506BBCF4AE00E94DD0909
:1018600036CF933059F430930302209302028091D3
:101870006A008C6080936A00ED9A87CF8EEE890FA4
:10188000843008F082CF87E1891BE82FF0E0EE0F6B
:10189000FF1FE050FE4F31832083843091F085306C
:1018A000B9F0833039F080916900836080936900DA
:1018B000E89A6BCF809169008C6080936900E99A07
:1018C00064CF80916900806380936900EA9A5DCF5C
:1018D00080916900806C80936900EB9A56CF4AE052
:1018E0000E94DD0968CF892B21F48F8198859C8720
:1018F0008B878B859C8501979C878B8799CF3AE056
:10190000F32E60E08AE10E943D0585E090E00E94B0
:101910000B1D61E08AE10E943D0585E090E00E9498
:101920000B1D60E08AE10E943D0585E090E00E9489
:101930000B1D61E08AE10E943D0585E290E00E9476
:101940000B1DFA94F110DDCFF1019081923089F1F5
:10195000933099F18EEE890F8430A0F487E1891BD2
:101960008430F9F0853009F18330B9F0E89882E0ED
:1019700090E0880F991FFC01E050FE4F84E396E051
:1019800091838083ED8DFE8D8081F8018083B52C5D
:101990008CE790E00E940B1DD8CEE99883E090E0A0
:1019A000E8CFEA9884E090E0E4CFEB9885E090E01F
:1019B000E0CFEC9890E080E0DCCFED9881E090E023
:1019C000D8CFCF93DF931F92CDB7DEB7412C512CE8
:1019D00032014394AA24AA94BA2C51E05093E7050B
:1019E0000E94CC050091D7051091D8052091D9050A
:1019F0003091DA05AB01BC01401B510B620B730B3C
:101A00008091E3059091E405B0E0A0E0841795078C
:101A1000A607B70708F00CC110E08091E105181780
:101A200060F4E091DD05F091DE05E10FF11D62E06B
:101A300080810E946B051F5FF0CF312C8091E20501
:101A4000381608F061C0E32CF12CE091DF05F0912D
:101A5000E005EE0DFF1D61E080810E946B05E091C5
:101A6000DF05F091E005EE0DFF1D60E080810E9432
:101A70003D05D301C201032C04C0880F991FAA1F82
:101A8000BB1F0A94D2F74C016C01C094D094212C56
:101A90008091E105281608F5022D10E0E091DD05A2
:101AA000F091DE05E00FF11F80810E9414050C5FAC
:101AB0001F4F000F111FF801E558FA4F892B41F411
:101AC0008081918188299929918380832394E0CF13
:101AD000808191818C219D21F7CFE091DF05F091EC
:101AE000E005EE0DFF1D61E080810E943D058091C3
:101AF000DF059091E005E80EF91E60E0F7018081B6
:101B00000E946B0533949ACF0BE715E0F801878D9F
:101B100090A1892B21F4148EB68EA58E11A2369633
:101B200055E0E73BF50799F7D12C8091E105D816F0
:101B300008F053C0C12CED2CF12CEE0CFF1CC7019A
:101B40008D579A4F7C012091E205C21608F043C0E0
:101B5000F701608171810C2C02C0769567950A941B
:101B6000E2F7D29E900111242C0D311DEBE7F5E038
:101B700080E0458D568D2417350709F47BC08F5FB3
:101B800036968A30B1F760FF24C0EBE7F5E090E0CD
:101B900080E0448D411118C0E091DB05F091DC0537
:101BA000E20FF31F408156E0589FF001599FF00D5E
:101BB0001124E558FA4F448F368F258F10A2178EC7
:101BC00061E00E94D80505C0019636968A309105DD
:101BD00001F7C394B8CFD394A8CFF12CF80181A119
:101BE0008111F82E0A5F1F4FF5E0073B1F07B1F781
:101BF0000E94CC056093D7057093D8058093D905D2
:101C00009093DA05FF20A1F080919C05882381F054
:101C100080919A0590919B05019751F480919705C9
:101C20008983811109C081E090E00E940B1DD5CE0F
:101C30001092E7051982F7CF41E050E0BE016F5FD7
:101C40007F4F8091CF039091D0030E94771B182F74
:101C500069818AE194E00E940F0462E772E08AE100
:101C600094E00E94CE091130F1F286EC92E00E94DD
:101C7000440AD9CF6170A5CFCF93DF93CDB7DEB73C
:101C8000AE970FB6F894DEBF0FBECDBF8FE08AA728
:101C9000CE0101966C011BE0A12EB12C07EF602E46
:101CA00001E0702E89E1482E7E019FE1E90EF11CD2
:101CB00098EE892E91E0992E41E050E0BE01675DDB
:101CC0007F4F8091D1039091D2030E947D1D81307E
:101CD00021F08DEC92E00E94440A0FB6F8940F9226
:101CE000F6018EE111928A95E9F70091E1041091D5
:101CF000E20460E0F80182810E943D0561E0F801A4
:101D000082810E946B0560E0F80181810E943D059F
:101D100061E0F80181810E946B0561E0F80180813A
:101D20000E946B0561E0F80182810E943D05C501BA
:101D30000197F1F7BFEB3B2E512C632D6170F80139
:101D400080810E943D0561E0F80181810E943D058E
:101D5000F7E05F1205C060E0F80180810E946B052A
:101D600060E0F80181810E943D0536945394F8E0CB
:101D70005F12E3CF8091E1049091E2040E94A609F2
:101D80008F77282F30E0F4E035952795FA95E1F725
:101D9000922F990F990F222E291A220C280E80912A
:101DA000E1049091E2040E94A609282F30E0A4E00B
:101DB00035952795AA95E1F7922F990F990F322E15
:101DC000391A330C380E8091E1049091E2040E949C
:101DD000A60986FFFFC0982F9F71292F30E0E4E00D
:101DE00035952795EA95E1F7322F330F330F122FF0
:101DF000131B110F190F85FD145F8091E104909161
:101E0000E2040E94A609282F30E044E0359527958A
:101E10004A95E1F7922F990F990F522E591A550CA6
:101E2000580E8091E1049091E2040E94A609282FA7
:101E300030E054E0359527955A95E1F7922F990FA8
:101E4000990F022F091B000F080F8091E104909158
:101E5000E2040E94A6098091E1049091E2040E94AC
:101E6000A609282F30E064E0359527956A95E1F7BB
:101E7000922F990F990F291B220F280F2EA78091BF
:101E8000E1049091E2040E94A609E091E104F0913E
:101E9000E20460E082810E943D05C5010197F1F7EF
:101EA0008EA58093DB040093DC045092DD04109334
:101EB000DE043092DF042092E0041F922F921F92E2
:101EC0003F921F921F931F925F921F920F937F92D8
:101ED0006F921F929EE19F93DF92CF920E94C12347
:101EE0000E94E50860E080E00E948E09B60183E66A
:101EF00095E00E946C0AEBA54E9EF0011124EA5178
:101F0000FB4F618180810E948E09EBA5E49DF00169
:101F10001124E851FB4F448155816081718183E632
:101F200095E00E9479030FB6F894DEBF0FBECDBFD7
:101F30008BA5882309F45DC061E088E00E948E09CA
:101F4000F7018AE011928A95E9F7EBA54E9EF00120
:101F50001124EA51FB4F808D1F928F9385891F9228
:101F60008F9382891F928F939F928F921F929AE0F4
:101F70009F93FF92EF920E94C123B70183E695E001
:101F80000E946C0A2BA5ECA58E2F90E0FC01EE0FB1
:101F9000FF1FE80FF91F429EE00DF11D1124EA51C9
:101FA000FB4F618980890E948E0980917305982F6B
:101FB0009260909373058A600E94DF080FB6F894D0
:101FC000DEBF0FBECDBF0F900FBE82E190E00E943A
:101FD0000B1D72CE282F30E074E0359527957A9549
:101FE000E1F7922F990F990F122F191B110F180F4C
:101FF00004CF809173058D7F8093730588600E9464
:10200000DF08E1CFCF93DF9300D000D000D01F9244
:102010001F92CDB7DEB75E0186E0A80EB11C85E049
:10202000F50111928A95E9F78FE08F8319E17BEA38
:10203000572EE3E04E2EFFE03F2E41E050E0BE0180
:10204000655F7F4F8091CF039091D0030E947D1DEB
:10205000813009F072C06B858AE194E00E940F0420
:1020600062E772E08AE194E00E94CE0960E08AE1D2
:102070000E943D0581E090E00E940B1D61E08AE135
:102080000E943D05EB85E053E83008F056C00E2E67
:10209000000CFF0B8827E05BFF4E8F4F0C940F273F
:1020A0005810E81020119D104A1171118A11A311C6
:1020B0009E818F81981708F062C08885811101C0C8
:1020C0004E8281E08A879E81959D812D112486957F
:1020D0008887282F220F220F821B890F89879F5FF5
:1020E0009E836DED72E08AE194E00E946C0A8E811D
:1020F0000E94570A6AEE72E08AE194E00E946C0A3C
:10210000688570E090E080E04AE00E94DD0960EFC1
:1021100072E08AE194E00E946C0A698570E090E0C8
:1021200080E04AE00E94DD096DED72E08AE194E012
:102130000E946C0A8E810E94570A41E050E0B5016E
:102140008091D1039091D2030E94771B813009F4D2
:1021500074CF3A8241E050E0BE016F5F7F4F8091C3
:10216000D1039091D2030E947D1D41E050E0B50162
:102170008091D1039091D2030E94771B5ECF1E8283
:102180001A861986188666EE862E64E0962EF12C45
:10219000E12C3401D12CC12CF3016289C6018E0DD2
:1021A0009F1D0E94AC26FFEFCF1ADF0A83E0680E66
:1021B000711CE3E0CE16D10479F7F9E18F0E911C82
:1021C00083E0E80EF11CEFE0EE16F10411F792CF78
:1021D0002885222309F4B1CF6985E62FF0E0CF01ED
:1021E000880F991FDC01AE0FBF1F422F50E0129FD6
:1021F000A00DB11D1124AA51BB4F52963C9121E074
:10220000230F293124F061110FC029EE230FE80FAD
:10221000F91F149FC001159F900D1124E80FF91F9D
:10222000EA51FB4F228B89CF2D338CF3613011F4AF
:1022300025ECECCF24365CF3623049F72EE9E6CF8B
:102240002885222339F16985E62FF0E0CF01880F38
:10225000991FDC01AE0FBF1F422F50E0129FA00D4F
:10226000B11D1124AA51BB4F52963C912FEF230F61
:10227000121624F0611126C027E1230FE80FF91F81
:10228000149FC001159F900D1124E80FF91FEA510A
:10229000FB4F228B80EC94E00E9405088091C004E3
:1022A0008823C1F030EFE32E35E0F32E02E021E089
:1022B00030E048EE53E069EF72E087EE9AE00E946A
:1022C000561E3BCF613011F42BE3D7CF6230B1F60D
:1022D00022E6D3CF8091F0059091F1050E94221D56
:1022E0002CCF8DEB94E00E9405088091BD048823DB
:1022F00061F02EEEE22E25E0F22E02E022E030E048
:1023000048EE53E064E073E0D8CF8091EE05909101
:10231000EF05E4CF8AEB94E00E9405088091BA04AF
:10232000882361F09CEEE92E95E0F92E02E023E08F
:1023300030E048EE53E06FE073E0BFCF8091EC05F2
:102340009091ED05CBCF87EB94E00E94050880913A
:10235000B704882361F08AEEE82E85E0F82E02E0CB
:1023600024E030E048EE53E06AE173E0A6CF8091CC
:10237000EA059091EB05B2CF8F929F92AF92BF92F8
:10238000CF92DF92EF92FF920F931F93CF93DF9341
:10239000E0912A04F0912B0482E08083E0912604EE
:1023A000F09127041082E0912804F091290480E143
:1023B000808310923204E0912E04F0912F0486E085
:1023C0008083E0912C04F0912D04808180618083D2
:1023D000E0912C04F0912D04808188608083E0914D
:1023E0002C04F0912D04808180688083E0912C047E
:1023F000F0912D0480818F7D808396EEE92E94E00C
:10240000F92ED0E0C0E0670110E000E0C8018C0FB9
:102410009D1F0E94A426F601828B0F5F1F4FF3E0E1
:10242000CF0ED11C0330110589F729E1E20EF11C12
:102430002396CF30D10539F782E00E94ED080E9443
:10244000E50880EC94E00E9419088DEB94E00E946E
:1024500019088AEB94E00E94190887EB94E00E9427
:102460001908C091E104D091E20460E089810E94E2
:102470006B0560E088810E946B0560E08A810E94A4
:102480006B0562E086E10E946B0561E08AE10E94D3
:102490006B0561E08AE10E943D0562E082E10E94F5
:1024A0006B0562E083E10E946B0562E084E10E94BB
:1024B0006B0562E085E10E946B0562E373E08AE1EF
:1024C00094E00E946C0A6DE373E08AE194E00E945C
:1024D0006C0A89E493E00E94440A0E94A7054B011C
:1024E0005C0184EFC82EDD24D394E12CF12C0E94F2
:1024F000A705681979098A099B09683E7340810517
:102500009105A8F381E0C81AD108E108F108E8EEC6
:102510008E0EE3E09E1EA11CB11CC114D104E10487
:10252000F10429F789E290E00E94371EEC01009740
:1025300051F04F96998388838AE08B8F81E08C8F4E
:10254000CE010E942516D093D003C093CF038EE214
:1025500090E00E94371EEC01009751F04F9699834E
:10256000888383E08B8F85E08C8FCE010E942516B7
:10257000D093D203C093D103F12CE12C04E030E0DE
:1025800020E040E850E062E573E081EE9CE00E94CC
:10259000561E03E030E020E040E850E06FE573E0D5
:1025A00082E090E10E94561E05E030E020E040E825
:1025B00050E069E673E08CE39EE00E94561EDF91D6
:1025C000CF911F910F91FF90EF90DF90CF90BF9030
:1025D000AF909F908F900C946F1F1F920F920FB629
:1025E0000F9211240BB60F922F933F934F935F934B
:1025F0006F937F938F939F93AF93BF93EF93FF93CB
:102600008AE194E00E94ED03FF91EF91BF91AF91B9
:102610009F918F917F916F915F914F913F912F91FA
:102620000F900BBE0F900FBE0F901F9018951F922A
:102630000F920FB60F9211240BB60F922F938F9318
:102640009F93EF93FF93E0912A04F0912B048081F4
:10265000E0913004F091310482FD1DC090818091A1
:1026600033048F5F8F7320913404821741F0E0911F
:102670003304F0E0E65EFB4F958F80933304FF91C7
:10268000EF919F918F912F910F900BBE0F900FBEE6
:102690000F901F9018958081F2CF1F920F920FB666
:1026A0000F9211242F933F938F939F93AF93BF93D8
:1026B0008091E8039091E903A091EA03B091EB03C4
:1026C0003091E70323E0230F2D3758F50196A11D24
:1026D000B11D2093E7038093E8039093E903A0934F
:1026E000EA03B093EB038091EC039091ED03A0918A
:1026F000EE03B091EF030196A11DB11D8093EC0391
:102700009093ED03A093EE03B093EF03BF91AF91CD
:102710009F918F913F912F910F900FBE0F901F901F
:10272000189526E8230F0296A11DB11DD2CF1F9246
:102730000F920FB60F9211240BB60F922F933F9367
:102740004F935F936F937F938F939F93AF93BF93B9
:10275000EF93FF93E0910E02F0910F021995FF9114
:10276000EF91BF91AF919F918F917F916F915F9109
:102770004F913F912F910F900BBE0F900FBE0F9076
:102780001F9018951F920F920FB60F9211240BB63F
:102790000F922F933F934F935F936F937F938F93FA
:1027A0009F93AF93BF93EF93FF93E0910C02F0914F
:1027B0000D021995FF91EF91BF91AF919F918F916C
:1027C0007F916F915F914F913F912F910F900BBE31
:1027D0000F900FBE0F901F9018951F920F920FB67B
:1027E0000F9211240BB60F922F933F934F935F9349
:1027F0006F937F938F939F93AF93BF93EF93FF93C9
:10280000E0910202F09103021995FF91EF91BF91BF
:10281000AF919F918F917F916F915F914F913F9178
:102820002F910F900BBE0F900FBE0F901F90189519
:102830001F920F920FB60F9211240BB60F922F9387
:102840003F934F935F936F937F938F939F93AF9338
:10285000BF93EF93FF93E0910002F091010219956D
:10286000FF91EF91BF91AF919F918F917F916F9168
:102870005F914F913F912F910F900BBE0F900FBE24
:102880000F901F9018951F920F920FB60F92112460
:102890000BB60F922F933F934F935F936F937F935A
:1028A0008F939F93AF93BF93EF93FF93E0910A02AF
:1028B000F0910B021995FF91EF91BF91AF919F910C
:1028C0008F917F916F915F914F913F912F910F90D9
:1028D0000BBE0F900FBE0F901F9018951F920F9276
:1028E0000FB60F9211240BB60F922F933F934F9375
:1028F0005F936F937F938F939F93AF93BF93EF9368
:10290000FF93E0910802F09109021995FF91EF9170
:10291000BF91AF919F918F917F916F915F914F91F7
:102920003F912F910F900BBE0F900FBE0F901F90F5
:1029300018951F920F920FB60F9211240BB60F929B
:102940002F933F934F935F936F937F938F939F93B7
:10295000AF93BF93EF93FF93E0910602F0910702CC
:102960001995FF91EF91BF91AF919F918F917F91B9
:102970006F915F914F913F912F910F900BBE0F90F0
:102980000FBE0F901F9018951F920F920FB60F92C7
:1029900011240BB60F922F933F934F935F936F9336
:1029A0007F938F939F93AF93BF93EF93FF93E091A8
:1029B0000402F09105021995FF91EF91BF91AF913B
:1029C0009F918F917F916F915F914F913F912F9147
:1029D0000F900BBE0F900FBE0F901F901895809117
:1029E000B903882331F08091B803882321F080E077
:1029F000089581E0089582E008950FB6F8940F924B
:102A00008091F2039091F3030F900FBE089580918F
:102A1000B8038F5F8093B80308950FB6F8940F92B0
:102A2000FC01928D0F900FBE81E0911180E008951E
:102A3000CF93DF939C01FB01DC011196CD91DC91DA
:102A4000D383C2838C819D81958384838C819D8176
:102A5000DC0113967C936E9312977D836C83318790
:102A60002087F90180818F5F8083DF91CF91089566
:102A7000CF93DF93FC01A085B1858281938124816E
:102A80003581EC013D832C83C481D5819B838A836E
:102A900011968D919C9112978E179F0721F4129693
:102AA000DC93CE931197118610868C9181508C9374
:102AB0008C91DF91CF9108950F931F93CF93DF9364
:102AC0008C01FB0180819181D80113968F3F98077B
:102AD000F1F4E801AF81B88512968D919C9113971E
:102AE00093838283EC01FD83EC83B583A4831396E7
:102AF000FC93EE93129711870087F80180818F5F16
:102B00008083DF91CF911F910F910895D901129683
:102B10002D913C911397E9014881598184179507BC
:102B2000A8F7DACFFC017383628391878087461709
:102B3000570790F0421B530B84859585481759071A
:102B4000C8F4BF016E5F7F4F8091CB039091CC039F
:102B50000E945C1580E008954217530718F462172D
:102B6000730740F4BF016E5F7F4F8091CD0390915A
:102B7000CE03EECF81E00895FF920F931F93CF9382
:102B8000DF93EC01F62E0091F2031091F303809194
:102B900076039091770302960E943815CF3FDC07A9
:102BA00089F4FF2079F060917603709177036E5F6E
:102BB0007F4F8AEB93E0DF91CF911F910F91FF90B0
:102BC0000C941815C00FD11FE0917603F091770394
:102BD000D383C2836091760370917703C017D107C6
:102BE00068F48091C7039091C8036E5F7F4FDF91B7
:102BF000CF911F910F91FF900C945C158091C503AC
:102C00009091C6036E5F7F4F0E945C158091C30355
:102C10009091C403C817D90720F4D093C403C0937C
:102C2000C303DF91CF911F910F91FF900895FC0195
:102C30000396928381832FEF3FEF34832383968320
:102C400085839087878310820895CF93DF93EC016B
:102C5000892B11F40E94B70A0FB6F8940F9288815D
:102C600099812B8D4C8DBC01249F600D711D112409
:102C70007D836C831A8E9B838A832150330B429F02
:102C8000B001439F700D1124860F971F9F838E8381
:102C90008FEF8D8F8E8FCE0108960E941716CE0172
:102CA00041960E9417160F900FBE81E0DF91CF91E1
:102CB0000895FC01DB010FB6F8940F924091F203E6
:102CC0005091F3032D913C9111972F3F3207E1F082
:102CD000818192816091F4037081761719F0481711
:102CE0005907C0F4481B590B4217530788F4241B9B
:102CF000350B2D933C938091F40380838091F203F4
:102D00009091F3039283818380E00F900FBE08952A
:102D10001D921C9281E0F9CF0F931F93CF93DF9305
:102D2000DC011596ED91FC91C681D781209711F4B5
:102D30000E94B70A8E01045F1F4FC8010E94381518
:102D40008091B803811125C00A501109C8010E9461
:102D500038158E8990911904981710F480931904EE
:102D6000B9E08B9FC0011124B8018B509C4F0E9489
:102D70001815E0917603F09177039E89868989176B
:102D800060F481E08093AE03DF91CF911F910F91AA
:102D90000895B8018FEA93E0EACF80E0F5CFEF9293
:102DA000FF920F931F93CF93DF93EC010FB6F8942C
:102DB0000F921E8D7C0181E1E80EF11C01E01116DD
:102DC000D4F08FEF8E8F0F900FBE0FB6F8940F9246
:102DD0001D8D7E0188E0E80EF11C01E01116B4F0B3
:102DE0008FEF8D8F0F900FBEDF91CF911F910F91BD
:102DF000FF90EF9008958989882319F3C7010E94F5
:102E00008C1681110093AE031150D9CF8885882389
:102E100039F3C7010E948C1681110093AE03115043
:102E2000DDCFCF93DF93EB01009711F40E94B70A37
:102E30006091760370917703645F7F4F0E945C1509
:102E400061E0CE01DF91CF910C94BC150F920FB6CB
:102E5000F8940F920BB60F920CB60F921F9211249A
:102E60002F923F924F925F926F927F928F929F929A
:102E7000AF92BF92CF92DF92EF92FF920F931F9388
:102E80002F933F934F935F936F937F938F939F9372
:102E9000AF93BF93CF93DF93EF93FF93A09176030C
:102EA000B09177030DB60D920EB60D9213BE8091C0
:102EB000B80381112AC18091F2039091F303019626
:102EC0009093F3038093F203009709F066C0E091BA
:102ED000C503F091C6032081222361F1F894279A5B
:102EE0002F9A2FEF61EE74E0215060407040E1F7BF
:102EF00000C000001F9A8FEF97EAA1E68150904032
:102F0000A040E1F700C000001F9ABFEFC1EED4E07F
:102F1000B150C040D040E1F700C000001F9A2FEF31
:102F200061EE74E0215060407040E1F700C00000A5
:102F30001F9AD7CF2091C5033091C6034091C70394
:102F40005091C8035093C6034093C5033093C80300
:102F50002093C7032091F4032F5F2093F403E091A3
:102F6000C503F091C6032081211107C02FEF3FEF69
:102F70003093C4032093C30310C0E091C503F091C4
:102F8000C6030580F681E02D0680F781E02D2281C1
:102F900033813093C4032093C3032091C303309142
:102FA000C4038217930710F420E09BC020E019E0CF
:102FB000E091C503F091C6033081311107C08FEF56
:102FC0009FEF9093C4038093C3038BC0E091C5032C
:102FD000F091C6030580F681E02D0680F781E02D93
:102FE000428153818417950728F45093C40340937A
:102FF000C30377C0AF014E5F5F4FA285B385648185
:103000007581E680F780EB01FD82EC82C681D78175
:103010007B836A8311966D917C91129746175707AF
:1030200021F41296DC93CE931197138612863C916D
:1030300031503C933C91A489B5891097F9F066858D
:103040007785E088F188EB01FD82EC82C089D18927
:103050007B836A831196ED90FC901297BF01645FA9
:103060007F4FE616F70621F41296DC93CE93119764
:10307000158A148A3C9131503C933C91A689309139
:1030800019043A1710F4A09319041A9FD0011124BF
:10309000BD016B507C4F7B01DB011196CD91DC9122
:1030A000D583C4836C817D81778366836C817D81C8
:1030B000DB0113965C934E9312975D834C83F386EA
:1030C000E286E70138813F5F3883A0917603B091B3
:1030D0007703468956963C91431708F469CF21E05F
:1030E00067CFE0917603F0917703E689D9E0ED9F11
:1030F000F0011124EB50FC4F8081823008F021E078
:103100008091AE0381110EC00AC08091AB039091F3
:10311000AC0301969093AC038093AB0395C022233C
:1031200009F492C08091B803882321F081E0809354
:10313000AE038AC01092AE03A0917603B0917703DC
:10314000E0917603F09177032D913C918789908DE2
:1031500082179307A8F0809176039091770380916E
:10316000760390917703279A2F9A2FEF67EA71E6FB
:10317000215060407040E1F700C000001F9AF5CF79
:103180008091190490E069E02EC0019760F5F894F1
:10319000279A2F9ABFEFC1EED4E0B150C040D04083
:1031A000E1F700C000001F9A2FEF67EA71E6215097
:1031B00060407040E1F700C000001F9A8FEF91EE71
:1031C000A4E081509040A040E1F700C000001F9AA9
:1031D000BFEFC1EED4E0B150C040D040E1F700C035
:1031E00000001F9AD7CF482F689F9001699F300D2C
:1031F0001124F901EB50FC4F5081552331F2A1818C
:10320000B28112960D90BC91A02DB283A18328505B
:103210003C4FA217B30729F412962D913C913283AB
:10322000218329E0289FF001299FF00D1124EB5004
:10323000FC4F0180F281E02D868197819093770386
:103240008093760340931904A0917603B09177039D
:10325000CD91CDBFDD91DEBFFF91EF91DF91CF9199
:10326000BF91AF919F918F917F916F915F914F919E
:103270003F912F911F910F91FF90EF90DF90CF9092
:10328000BF90AF909F908F907F906F905F904F9086
:103290003F902F901F900F900CBE0F900BBE0F9081
:1032A0000FBE0F9008950F920FB6F8940F920BB6C1
:1032B0000F920CB60F921F9211242F923F924F92B1
:1032C0005F926F927F928F929F92AF92BF92CF92B6
:1032D000DF92EF92FF920F931F932F933F934F93A1
:1032E0005F936F937F938F939F93AF93BF93CF938E
:1032F000DF93EF93FF93A0917603B09177030DB620
:103300000D920EB60D928091B803882321F081E0D2
:103310008093AE038AC01092AE03A0917603B09161
:103320007703E0917603F09177032D913C918789A3
:10333000908D82179307A8F0809176039091770380
:103340008091760390917703279A2F9A2FEF87EA3F
:1033500091E6215080409040E1F700C000001F9AA4
:10336000F5CF8091190490E069E02EC0019760F5D7
:10337000F894279A2F9A8FEF91EE24E08150904095
:103380002040E1F700C000001F9A8FEF97EA21E686
:10339000815090402040E1F700C000001F9A8FEF5D
:1033A00091EE24E0815090402040E1F700C0000001
:1033B0001F9A8FEF91EE24E0815090402040E1F77A
:1033C00000C000001F9AD7CF482F689F9001699FC7
:1033D000300D1124F901EB50FC4F5081552331F28F
:1033E000A181B28112960D90BC91A02DB283A183D0
:1033F00028503C4FA217B30729F412962D913C9107
:103400003283218329E0289FF001299FF00D1124A8
:10341000EB50FC4F0180F281E02D868197819093E3
:1034200077038093760340931904A0917603B091BB
:103430007703CD91CDBFDD91DEBFFF91EF91DF919D
:10344000CF91BF91AF919F918F917F916F915F913C
:103450004F913F912F911F910F91FF90EF90DF902F
:10346000CF90BF90AF909F908F907F906F905F9024
:103470004F903F902F901F900F900CBE0F900BBE5F
:103480000F900FBE0F9008957F928F929F92AF92F0
:10349000BF92CF92DF92EF92FF920F931F93CF9341
:1034A000DF938091B803811102C00E94B70A0FB662
:1034B000F8940F928091B80381508093B803809163
:1034C000B803882389F080E00F900FBEDF91CF9181
:1034D0001F910F91FF90EF90DF90CF90BF90AF9032
:1034E0009F908F907F9008958091AD03882359F32A
:1034F000D0E0C0E029E0F22EEE24E39429C0E09170
:10350000B403F091B503C681D781CE010C960E9419
:1035100038158E010E5F1F4FC8010E9438158E8925
:1035200090911904981710F4809319048F9DC0018D
:103530001124B8018B509C4F0E941815E09176031E
:10354000F09177039E898689981710F0E092AE0378
:103550008091AF038111D3CFCD2B11F00E942E08A3
:10356000E090AB03F090AC03E114F10409F4B6C0B1
:1035700089E0A82E77247394CC24CA94DC2C809103
:10358000B803811199C0C091F203D091F303219641
:10359000D093F303C093F2032097F1F4E091C503B5
:1035A000F091C6038081811180CF8091C5039091F5
:1035B000C6032091C7033091C8033093C6032093FC
:1035C000C5039093C8038093C7038091F4038F5F72
:1035D0008093F4030E942E088091C3039091C4034A
:1035E000B12CC817D90708F05BC0E0917603F091C1
:1035F0007703E689AE9EF0011124EB50FC4F8081E9
:10360000823010F0BB24B3948091AE03811103C0CB
:10361000BB2009F45AC07092AE0357C0E091C503B5
:10362000F091C6030580F681E02D06811781D8014F
:1036300012968D919C91C817D90728F49093C403D2
:103640008093C303D2CF4801B2E08B0E911CC4011A
:103650000E943815F80184899589892B21F0C801C9
:103660000C960E943815D80156968C9190911904A9
:10367000981710F4809319048A9DC0011124B40195
:103680008B509C4F0E941815E0917603F0917703C0
:10369000D80156969C918689981710F0BB24B39454
:1036A000E091C503F091C60380818111B7CFD0921C
:1036B000C403C092C30399CF8091AB039091AC0334
:1036C00001969093AC038093AB03B1E0EB1AF10841
:1036D00009F055CF1092AC031092AB038091AE036A
:1036E000882309F4F0CE0E94531981E0EDCEAF9209
:1036F000BF92DF92EF92FF920F931F93CF93DF93CE
:1037000000D01F921F92CDB7DEB78C017B015D8385
:103710004C83892B11F40E94B70A0E94EF14811187
:1037200004C08C819D81892BB1F780E0580128E08D
:10373000A20EB11CC0C0E480F580E114F10419F5BB
:1037400080E0F80115821482D394F801D28E918919
:10375000992321F0C80141960E948C1681110E9484
:1037600053190F900FBE81E00F900F900F900F90A4
:103770000F90DF91CF911F910F91FF90EF90DF900D
:10378000BF90AF9008958091760390917703E816EB
:10379000F90609F0C0CFF70182A1882309F4BBCF55
:1037A000815082A3268991A1291751F28111C8CF96
:1037B0005701F2E0AF0EB11CC5010E943815F701A8
:1037C00081A1868B24E030E0281B310935872487CE
:1037D00090911904981710F480931904F9E08F9FC1
:1037E000C0011124B5018B509C4F0E94181581E037
:1037F000A8CF50E0B701828193810E940C28F80184
:10380000848D22813381820F932F911D9383828334
:10381000248135818217930708F45FC080819181EC
:10382000938382835AC02C813D81232B21F40F90F6
:103830000FBE80E099CF811109C08091F403898384
:103840008091F2039091F3039B838A830F900FBEC4
:103850000E9407150FB6F8940F92F801858D8F3FDF
:1038600009F4158EF801868D8F3F09F4168E0F909E
:103870000FBEBE016C5F7F4FCE0101960E945916AC
:10388000811133C00FB6F8940F92F801928D838D99
:103890000F900FBE981323C06C817D81C5010E94DB
:1038A0001117C8010E94CF160E94441A811102C04C
:1038B0000E94531981E00FB6F8940F92F801228DFF
:1038C000938D291708F0AFCFD28C448D411191CF41
:1038D00080819181892B09F42ECF80E035CFC801FA
:1038E0000E94CF160E94441AE5CFC8010E94CF164D
:1038F0000E94441A9ECF0F931F93CF93DF9300D063
:103900001F921F92CDB7DEB7009711F40E94B70A3D
:103910000091F0031091F10301151105C9F019820E
:103920007B836A839D838C830E94EF1450E040E088
:10393000BE016F5F7F4FC8010E94771B0F900F90F1
:103940000F900F900F90DF91CF911F910F910895DD
:1039500080E0F4CFEF92FF920F931F93CF93DF930A
:10396000E091CD03F091CE038081811113C080914D
:10397000CB039091CC039093CE038093CD03F0932F
:10398000CC03E093CB03DF91CF911F910F91FF9078
:10399000EF9008950580F681E02D00811181C681A8
:1039A000D7817E0182E0E80EF11CC7010E94381524
:1039B000E889F989CE0119958A8982FFD1CF8C8552
:1039C0009D85800F911F0817190760F49B838A83D8
:1039D000D987C887B7018091CD039091CE030E940B
:1039E0005C15BECFB801CE010E947B1C8111B8CFFF
:1039F0000E94B70ACF93DF93009751F0EC010E9429
:103A00000715CE010E943823DF91CF910C94441A00
:103A1000DF91CF910895CF93DF93EC018091B803AC
:103A200081110E94B70A0E94071560E0CE010E9432
:103A3000BC150E94441A811102C00E945319DF91E3
:103A4000CF9108950F931F93CF93DF93EC010FB69F
:103A5000F8940F92892B21F4C0917603D0917703CB
:103A60008E010E5F1F4FC8010E9438158C899D89F9
:103A7000892B21F0CE010C960E9438158091940379
:103A80008F5F8093940380917603909177038C17D6
:103A90009D07E9F4B8018BE893E00E941815809126
:103AA0008A038F5F80938A030F900FBE8091B903C2
:103AB0008823F1F080917603909177038C179D070E
:103AC000B9F48091B803882389F00E94B70A8091E5
:103AD000AD0381508093AD038F89988D0E94FA1CAD
:103AE000CE010E94FA1C0E942E08DECF0E945319BC
:103AF000DF91CF911F910F910895AF92BF92CF9216
:103B0000DF92FF920F931F93CF93DF9300D01F920A
:103B10001F92CDB7DEB78C016B015D834C83892B7F
:103B200011F40E94B70A0E94EF14811104C08C8125
:103B30009D81892BB1F780E0580191E1A90EB11C5C
:103B400044C02C813D81232B21F40F900FBE80E0D7
:103B50006DC0811109C08091F40389838091F203C3
:103B60009091F3039B838A830F900FBE0E940715E9
:103B70000FB6F8940F92F801858D8F3F09F4158EDA
:103B8000F801868D8F3F09F4168E0F900FBEBE018F
:103B90006C5F7F4FCE0101960E94591681115BC068
:103BA000C8010E940D15882309F44FC06C817D81E6
:103BB000C5010E941117C8010E94CF160E94441A25
:103BC000811102C00E94531981E00FB6F8940F9240
:103BD000F801F28CFF2009F4B4CF448D4423B1F0F6
:103BE00050E086819781840F951F97838683248177
:103BF00035818217930720F0808191819783868396
:103C0000F80166817781C6010E940C28FA94F801B8
:103C1000F28E8085882339F0C80108960E948C16A0
:103C200081110E9453190F900FBE81E00F900F90E9
:103C30000F900F900F90DF91CF911F910F91FF90F8
:103C4000DF90CF90BF90AF900895C8010E94CF162B
:103C50000E94441AB9CFC8010E94CF160E94441A8C
:103C6000C8010E940D15882309F4AECF70CFCF9301
:103C7000DF93EC010E940715CE010E949C22EC010B
:103C80000E94441A209771F40E943E072FEF80E7AC
:103C900092E0215080409040E1F700C000000E9477
:103CA0003C07F4CFCE01DF91CF9108955F926F92E0
:103CB0007F928F929F92AF92BF92CF92DF92EF92BC
:103CC000FF920F931F93CF93DF93782E892E562E5A
:103CD000672E6A01922E132FCA010E94371E5C01C3
:103CE000892B09F4D9C088E290E00E94371EEC01CC
:103CF000892B09F4CEC0B88EAF8AA60165EA70E0C0
:103D0000C5010E94152821E0C21AD108EF89F88D5B
:103D1000EC0DFD1D652D762DCE0149969B01285F8A
:103D20003F4FDB014D91BD01DC014D93CD01AB0156
:103D300041505109DA014C91442319F0621773077D
:103D400081F718A2043008F003E00E8B09A31AA231
:103D50001B861A861D8A1C8AD987C88784E090E052
:103D6000801B91099D878C87DB8BCA8B1BA21CA2B1
:103D70001DA21EA21FA27082DF0111978C921197C3
:103D80001C9211971C92119780E88C9311971C92AA
:103D900011971C9211971C9257979C9211971C9304
:103DA000B697F983E883E114F10419F0F701D183A0
:103DB000C0830FB6F8940F928091AD038F5F80930C
:103DC000AD038091760390917703892B09F075C03C
:103DD000D0937703C09376038091AD03813081F552
:103DE00085EF93E00E9417168EEF93E00E9417165E
:103DF00087E094E00E94171680E194E00E94171675
:103E000081E893E00E94171688E793E00E94171656
:103E10008FEA93E00E9417168BE893E00E94171632
:103E20008AEB93E00E94171681E893E09093C60313
:103E30008093C50388E793E09093C8038093C703FA
:103E4000809194038F5F809394038E8990911904DD
:103E5000981710F480931904F9E08F9FC001112482
:103E6000BE016E5F7F4F8B509C4F0E9418150F90C4
:103E70000FBE8091B903882351F0E0917603F09151
:103E8000770396898E89981710F40E94531981E060
:103E900004C0C5010E94FA1C8FEFDF91CF911F91E2
:103EA0000F91FF90EF90DF90CF90BF90AF909F90D9
:103EB0008F907F906F905F9008958091B9038111EA
:103EC000BFCFE0917603F091770396898E898917A9
:103ED00008F4B6CFD0937703C0937603B1CFEF92B7
:103EE000FF920F93CF93DF9399EAE92E93E0F92E97
:103EF00000E030E020E040EC50E065E273E08EE965
:103F000091E00E94561E813009F09DC00FB6F894D2
:103F10000F928091F0039091F103892B49F58EE97E
:103F200093E00E94171685E993E00E9417168EE928
:103F300093E09093CE038093CD0385E993E0909333
:103F4000CC038093CB0381E590E00E94371EEC0107
:103F5000009751F04F96998388838AE08B8F85E094
:103F60008C8FCE010E942516D093F103C093F003ED
:103F70000F900FBE8091F0039091F103892B89F08F
:103F800087EAE82E83E0F82E03E030E020E045E504
:103F900050E06AE273E08CEC91E00E94561E8111C1
:103FA00002C00E94B70A813009F04DC0F8942FEF8B
:103FB0003FEF3093C4032093C3038093B90310925F
:103FC000F3031092F203A89588E190EC0FB6F894F1
:103FD000A895809360000FBE90936000A091760337
:103FE000B0917703CD91CDBFDD91DEBFFF91EF9111
:103FF000DF91CF91BF91AF919F918F917F916F9101
:104000005F914F913F912F911F910F91FF90EF90F2
:10401000DF90CF90BF90AF909F908F907F906F90E8
:104020005F904F903F902F901F900F900CBE0F907D
:104030000BBE0F900FBE0F900895DF91CF910F919F
:10404000FF90EF9008958F3FC1F7ABCF0E942617E6
:104050001895DF92EF92FF920F931F93CF93DF9308
:1040600010921D0410921C0488EE93E0A0E0B0E0D2
:1040700080931E0490931F04A0932004B093210406
:104080008EE492E090931B0480931A0485EC90E0F8
:10409000909327048093260484EC90E09093290465
:1040A0008093280480EC90E090932B0480932A0462
:1040B00081EC90E090932D0480932C0482EC90E0AE
:1040C00090932F0480932E0486EC90E0909331041B
:1040D000809330041092330410923404109235040B
:1040E000109236041092C00484E48093C10485E4E5
:1040F0008093C2041092BD0482E48093BE0483E4E2
:104100008093BF041092BA0480E48093BB0481E4DE
:104110008093BC041092B7048EE38093B8048FE3BD
:104120008093B90410927D0510928105109280054C
:10413000109282058CE692E090937C0580937B053B
:10414000E7E9F5E083ED95E0108214821382158291
:1041500036968E179F07C1F784E192E09093DE05B3
:104160008093DD0580E192E09093E0058093DF0588
:1041700084E0E82EE092E105E092E20588E192E039
:104180009093DC058093DB058AE090E09093E40552
:104190008093E30584EF91E09093E6058093E50535
:1041A0001092E9051092E8051092D7051092D805F3
:1041B0001092D9051092DA051092E7051092660563
:1041C0001092650580E692E0909364058093630504
:1041D0008DE0809367058FEF809368051CE0109356
:1041E00069058BE080936A059AE0F92EF0926B05E1
:1041F00009E000936C05D8E0D0936D0510926E0530
:1042000010926F0510927005109271051092720550
:1042100081E00E94ED081092E604C1E0C093E7043B
:104220006FE872E088EE94E00E946E0AD093EE048C
:10423000C093EF046FE872E080EF94E00E946E0A92
:104240001092F6041092F7041092F80425E0D22E92
:10425000D092F9041092FA041092FB04F092FC043C
:104260001092FD041092FE041092FF04C09300050A
:104270006DEF72E081E095E00E946E0AD093070531
:10428000C093080561E773E089E095E00E946E0A3B
:1042900000930F05C093100510921105109312059D
:1042A000C0931305109214053FE0F32EF09215050C
:1042B000C09316051092170510921805C0931905A2
:1042C00068E073E08AE195E00E946E0AD0932005D1
:1042D000C093210563E773E082E295E00E946E0AD5
:1042E00000932805C093290510922A0510932B05E9
:1042F000C0932C0510922D05F0922E05C0932F052A
:104300001092300510923105C093320563E173E0DD
:1043100083E395E00E946E0AD0933905C0933A0575
:1043200061E773E08BE395E00E946E0A009341051C
:10433000C09342051092430510934405C093450570
:1043400010924605F0924705C09348051092490522
:1043500010924A05C0934B056EE173E08CE495E042
:104360000E946E0AD0935205C093530561E773E033
:1043700084E595E00E946E0A00935A05C0935B05A0
:1043800010925C0510935D05C0935E0510925F0569
:10439000F0926005C093610510926205E092E3041B
:1043A000D092E40482E08093E50483EE94E090935D
:1043B000E2048093E1048BED94E00E94550383ECCA
:1043C00094E00E94550389EC94E00E9455038FEC21
:1043D00094E00E94550385ED94E0DF91CF911F9109
:1043E0000F91FF90EF90DF900C945503789484B573
:1043F000826084BD84B5816084BD85B5826085BDE1
:1044000085B5816085BD80916E00816080936E006E
:104410001092810080918100826080938100809160
:104420008100816080938100809180008160809311
:1044300080008091B10084608093B1008091B000D1
:1044400081608093B00080919100826080939100A0
:1044500080919100816080939100809190008160B3
:10446000809390008091A10082608093A100809150
:10447000A10081608093A1008091A0008160809361
:10448000A00080912101826080932101809121010F
:1044900081608093210180912001816080932001BF
:1044A00080917A00846080937A0080917A008260A3
:1044B00080937A0080917A00816080937A00809165
:1044C0007A00806880937A001092C10020912C02BB
:1044D00030912D028FEF91E2821B930B9093290272
:1044E000809328020E94BC110E946F1F0E94BC1181
:1044F0000E947C04FDCF0F931F93CF93DF93C3E6FD
:10450000D5E06997F1F38E01005F1F4FC017D10707
:1045100051F008501109F801828193810097B1F39D
:104520000E943823F3CFF4E0C63EDF0751F7DF9156
:10453000CF911F910F9108950F931F93CF93DF9306
:104540008230910510F482E090E0E091F405F09162
:10455000F50530E020E0B0E0A0E0309799F42115B7
:10456000310509F44AC0281B390B24303105D8F530
:104570008A819B816115710589F1FB019383828397
:10458000FE0111C0408151810281138148175907F2
:10459000E0F04817590799F4109761F012960C93C0
:1045A000129713961C933296CF01DF91CF911F91F2
:1045B0000F9108950093F4051093F505F4CF21159C
:1045C000310551F04217530738F0A901DB019A0178
:1045D000BD01DF01F801C1CFEF01F9CF9093F505DF
:1045E0008093F405CDCFFE01E20FF31F81939193E9
:1045F0002250310939832883D7CF2091F205309199
:10460000F305232B41F420912A0230912B023093A1
:10461000F3052093F20520912802309129022115FB
:10462000310541F42DB73EB740912C0250912D0237
:10463000241B350BE091F205F091F305E217F30727
:10464000A0F42E1B3F0B2817390778F0AC014E5F02
:104650005F4F2417350748F04E0F5F1F5093F30547
:104660004093F205819391939FCFF0E0E0E09CCFDF
:10467000CF93DF930097E9F0FC0132971382128207
:10468000A091F405B091F505ED0130E020E0109720
:10469000A1F420813181820F931F2091F205309186
:1046A000F3052817390709F061C0F093F305E0938B
:1046B000F205DF91CF910895EA01CE17DF07E8F503
:1046C0004A815B819E0141155105B1F7E901FB83E8
:1046D000EA8349915991C40FD51FEC17FD0761F486
:1046E000808191810296840F951FE90199838883C7
:1046F000828193819B838A83F0E0E0E012968D9122
:104700009C9113970097B9F52D913C911197CD018C
:104710000296820F931F2091F2053091F30528171E
:10472000390739F6309751F51092F5051092F405D6
:10473000B093F305A093F205BCCFD383C28340812D
:104740005181840F951FC817D90761F44E5F5F4FE1
:1047500088819981480F591F518340838A819B81A9
:10476000938382832115310509F0B0CFF093F505CD
:10477000E093F4059ECFFD01DC01C0CF13821282CD
:10478000D7CF0F931F93CF93DF93CDB7DEB72E977D
:104790000FB6F894DEBF0FBECDBF0E891F89888D7E
:1047A000998D2EE02C831A83098397FF02C080E045
:1047B00090E801979E838D83AE01445E5F4F6A8DC2
:1047C0007B8DCE0101960E94FE234D815E8157FDB7
:1047D0000AC02F813885421753070CF49A01020F43
:1047E000131FF80110822E960FB6F894DEBF0FBE8D
:1047F000CDBFDF91CF911F910F9108952F923F92DE
:104800004F925F926F927F928F929F92AF92BF92E0
:10481000CF92DF92EF92FF920F931F93CF93DF938C
:1048200000D000D000D01F921F92CDB7DEB77C0120
:104830003B018A01FC0117821682838181FFDDC161
:10484000CE0101965C01F7019381F30193FD8591FF
:1048500093FF81913F01882309F453C1853239F4D4
:1048600093FD859193FF81913F01853229F4B70132
:1048700090E00E941626E7CF912C212C312CFFE1ED
:10488000F31538F08B3211F190F4803209F1833254
:1048900029F137FC3CC020ED280F2A3050F536FEB8
:1048A00020C08AE0989E200D1124922E06C08D32E1
:1048B00091F0803371F7689430F8F30193FD85919E
:1048C00093FF81913F018111DACF21C0689431F8C3
:1048D000689432F8F2CF689433F8EFCF689434F8E4
:1048E000ECCFEAE02E9E200D1124222E689435F89C
:1048F000E4CF8E3229F436FC04C1689436F8DDCF5B
:104900008C3619F4689437F8D8CF8836B1F2982FDE
:104910009F7D95549330E0F08336A1F18337C1F148
:10492000833509F063C02801F2E04F0E511CF801F5
:10493000C080D180692D70E036FC02C06FEF7FEF40
:10494000C6010E9400264C01689437F882010AC013
:104950000C5F1F4FFFE3F98388248394912C65013A
:10496000E89437F833FE2DC0522C8114910471F570
:10497000552009F468CFB70180E290E00E94162626
:104980005A94F6CFF801808189830E5F1F4FE4CFE0
:104990002801F2E04F0E511CF801C080D180692D32
:1049A00070E036FC02C06FEF7FEFC6010E940B265D
:1049B0004C018201D5CFB70180E290E00E9416261B
:1049C0002A942814190409F0B0F7CECFF60137FC69
:1049D000859137FE81916F01B70190E00E94162604
:1049E00051105A94F1E08F1A9108BFCF843619F014
:1049F000893609F077C0F80137FE6BC0608171819C
:104A0000828193810C5F1F4FF32DFF763F2E97FF1E
:104A100009C090958095709561957F4F8F4F9F4FFE
:104A2000689437F82AE030E0A5010E944626C82E97
:104A3000CA188C2C432C36FE0CC0E89440F8C914DC
:104A400040F434FE05C032FC03C0F32DFE7E4F2E31
:104A5000892C44FEAAC0FE01EC0DF11D808180333B
:104A600009F09CC0242D297E422E842D8870582E5A
:104A700043FCAAC040FEA4C09C2C821418F42C0C49
:104A8000922C981844FEA6C0B70180E390E00E94E3
:104A9000162642FE09C088E790E041FE02C088E584
:104AA00090E0B7010E941626C91408F49FC0CA946A
:104AB000D12C9FEFC91AD90ACA0CDB1CF6018291CE
:104AC0006F01B70190E00E941626AC14BD04B1F747
:104AD0004FCF60817181072E000C880B990B0E5F00
:104AE0001F4F92CFD32CE894D4F82AE030E08537DA
:104AF000E1F1232D297FD22E8F36A9F1F0F48835EC
:104B000051F1F701868197812B960FB6F894DEBF9D
:104B10000FBECDBFDF91CF911F910F91FF90EF900E
:104B2000DF90CF90BF90AF909F908F907F906F90CD
:104B30005F904F903F902F900895803749F08837CD
:104B400001F7D4FE02C06894D2F820E130E00DC035
:104B50006894D4F8F6CF34FE03C0822F8660D82E36
:104B600020E132E002C028E030E0F801D7FE0FC0BB
:104B700060817181828193810C5F1F4FA5010E942A
:104B80004626C82ECA183D2CE89437F852CF6081CB
:104B9000718190E080E00E5F1F4FF0CF42FC02C0B9
:104BA000839463CF8394839460CF842D867809F4B3
:104BB0005CCFF6CFB70180E290E00E941626839486
:104BC0008214C0F3512C5ECF522C5818821408F472
:104BD00059CFF8CF842D867809F466CF8BE241FE59
:104BE00080E247FC8DE2B70190E05CCFB70180E343
:104BF00090E00E9416269A9457CF8FEF9FEF84CFB4
:104C0000FC010590615070400110D8F78095909597
:104C10008E0F9F1F0895FC0161507040019001109C
:104C2000D8F7809590958E0F9F1F08950F931F932F
:104C3000CF93DF93182F092FEB018B8181FD09C0E2
:104C40001FEF0FEF812F902FDF91CF911F910F91C9
:104C5000089582FF14C02E813F818C819D81281789
:104C600039073CF4E881F981CF0101969983888363
:104C700010838E819F8101969F838E83E3CFE88589
:104C8000F985812F1995892BA1F3DACFFA01AA278B
:104C9000283051F1203181F1E8946F936E7F6E5F7F
:104CA0007F4F8F4F9F4FAF4FB1E03ED0B4E03CD02D
:104CB000670F781F891F9A1FA11D680F791F8A1F10
:104CC000911DA11D6A0F711D811D911DA11D20D077
:104CD00009F468943F912AE0269F11243019305D31
:104CE0003193DEF6CF010895462F4770405D419322
:104CF000B3E00FD0C9F7F6CF462F4F70405D4A336F
:104D000018F0495D31FD4052419302D0A9F7EACF36
:104D1000B4E0A6959795879577956795BA95C9F765
:104D200000976105710508959B01AC010A2E069458
:104D30005795479537952795BA95C9F7620F731F11
:104D4000841F951FA01D0895F999FECF92BD81BDC6
:104D5000F89A992780B50895262FF999FECF1FBAA2
:104D600092BD81BD20BD0FB6F894FA9AF99A0FBE94
:104D70000196089597FB072E16F4009407D077FD4F
:104D800009D00E94172707FC05D03EF49095819525
:104D90009F4F0895709561957F4F0895A1E21A2E57
:104DA000AA1BBB1BFD010DC0AA1FBB1FEE1FFF1FCF
:104DB000A217B307E407F50720F0A21BB30BE40B1F
:104DC000F50B661F771F881F991F1A9469F7609566
:104DD0007095809590959B01AC01BD01CF01089520
:104DE000052E97FB1EF400940E94072757FD07D05D
:104DF0000E94CE2607FC03D04EF40C940727509552
:104E00004095309521953F4F4F4F5F4F08959095B6
:104E10008095709561957F4F8F4F9F4F0895EE0F4E
:104E2000FF1F881F8BBF0790F691E02D1994AA1BD6
:104E3000BB1B51E107C0AA1FBB1FA617B70710F085
:104E4000A61BB70B881F991F5A95A9F780959095B7
:104E5000BC01CD0108954F925F926F927F928F9225
:104E60009F92AF92BF92CF92DF92EF92FF920F93F9
:104E70001F93CF93DF938C01009799F4CB01DF91BF
:104E8000CF911F910F91FF90EF90DF90CF90BF9047
:104E9000AF909F908F907F906F905F904F900C9409
:104EA0009C22FC01E60FF71F9C0122503109E217FA
:104EB000F30708F4AEC0D901CD91DC911197C61764
:104EC000D70720F1C530D10578F0CE0104978617B9
:104ED000970750F0C61BD70B2297C193D1936D93C0
:104EE0007C93CF010E943823C801DF91CF911F919D
:104EF0000F91FF90EF90DF90CF90BF90AF909F9079
:104F00008F907F906F905F904F9008955B01AC1AE7
:104F1000BD0A4C018C0E9D1EA091F405B091F505C3
:104F2000512C412CF12CE12C109731F58091F20598
:104F30009091F3058815990509F05CC0461657064F
:104F400008F058C08091280290912902009741F4FE
:104F50008DB79EB740912C0250912D02841B950B6A
:104F6000E817F90708F055C0F093F305E093F20550
:104F7000F90171836083B8CF8D919C91119712963E
:104F80006C90129713967C901397A815B90559F554
:104F90006C0142E0C40ED11CCA14DB0420F1AC0148
:104FA0004A195B09DA011296159780F062827382C2
:104FB00051834083D9016D937C93E114F10471F026
:104FC000D7011396FC93EE9312978ECF22968C0FF7
:104FD0009D1FF90191838083F301EFCFF093F505D5
:104FE000E093F40581CF4816590608F42C017D01A1
:104FF000D3019ACFCB010E949C227C01009749F0FB
:10500000AE01B8010E940C28C8010E943823870114
:105010006BCF10E000E068CFFB01DC0102C0019023
:105020000D9241505040D8F70895DC0101C06D93B6
:1050300041505040E0F70895FB01DC0101900D92D2
:105040000020E1F7089512E0CEEFD2E000E006C0C4
:10505000802FFE010E940F272196011DCF3FD1070F
:0A50600080E00807A9F7F894FFCFDD
:10506A003406340634063406340634063406340666
:10507A00393837363D3C3B3A3031323334353637BE
:10508A0038394142434445460000F6058000D407BA
:10509A00A30772074107323334352E2F30312A2BBA
:1050AA002C2D2627282912131415000000000F049E
:1050BA007903A6035C04D703B503C9030000000003
:1050CA00A00979032E072D070000000038073407CE
:1050DA0031070D0A00416C61726D5F696E64657813
:1050EA003A2020202000202050494E3A202020201B
:1050FA00002020416C61726D20486F75723A202041
:10510A002020002020416C61726D204D696E7574FB
:10511A00653A202020200050696C6C5F6C656674CB
:10512A003A20202020004552524F52210045525227
:10513A004F5220434F44453A203030330020204616
:10514A005F6B65795F6E756D3A00706167653A00ED
:10515A002020696E6465783A005461736B416C6112
:10516A00726D31005461736B416C61726D3200541F
:10517A0061736B416C61726D33005461736B416C86
:10518A0061726D340049444C4500546D7220537667
:10519A006300636F6D70696C65643A2000536570D3
:1051AA0020323020323032300031383A34373A3215
:1051BA0038004B6579626F61726452656164004DB3
:1051CA0061696E4C6F67696300446973706C6179D9
:0651DA0000420044000049
:00000001FF
