:020000040000FA
:100000000C94FF020C9480180C9455180C942A1828
:100010000C94FF170C94D4170C94A9170C947E170A
:100020000C9453170C9430030C9430030C9430034D
:100030000C94EB230C9430030C9430030C94300399
:100040000C9430030C9430030C9430030C94300364
:100050000C9430030C9430030C9430030C94091767
:100060000C9430030C94D3160C94A9160C94300302
:100070000C9430030C9430030C9430030C94300334
:100080000C9430030C9430030C9430030C94300324
:100090000C9430030C9430030C9430030C94300314
:1000A0000C9430030C9430030C9430030C94300304
:1000B0000C9430030C9430030C9430030C943003F4
:1000C0000C9430030C9430030C9430030C943003E4
:1000D0000C9430030C9430030C9430030C943003D4
:1000E0000C9430030C9438070C94D7030C94C90378
:1000F0000C941C100C940B050C94DF020C9420073C
:100100000C9408070C94A6030C94BB070C940C05E4
:100110000C94F2020C94F6130C94F4040C947711E2
:100120000C94B9020C94EE230C94890C0C941207D5
:100130000C94D9040C945F130C9431070C941005A3
:100140000C94FE040C940F040C9434070C94F802E5
:100150000C9497130C9479030C9479120C94D60692
:100160000C94B5030C9414130C94220A0C94CC0137
:100170000C94E8060C9434060C9406050C94E004E8
:100180000C94EC070C9440260C9402050C94CB04C0
:100190000C94DD040C94BE130C944E080C94CF12F6
:1001A0000C942D070C945C040C94BE060C949E01D8
:1001B0000C94C8060C9402070C94F0040C940F14D1
:1001C0000C941D080C942E070C94DD130C94D5048C
:1001D0000C9400070C94EA040C94D1040C942607A8
:1001E0000C94E6040C94F804253032753A2530322C
:1001F00075202530327500253032752F2530327547
:1002000020253032753A253032753A253032750066
:1002100000002100240027002A002D0030003300B8
:1002200001010000040107010A010000220025006D
:1002300028002B002E0031003400020100000501CF
:1002400008010B01000020002300260029002C00DB
:100250002F0032000001000003010601090105051D
:100260000505070508080808020202020A0A08082C
:10027000040404040101010101010101030303035A
:1002800003030303040707070C0C0C0C0C0C0C0CE9
:100290000202020206060606060606060B0B0B0BFA
:1002A0000B0B0B0B0102102020080810204010201F
:1002B000408002010201080402010102040810202A
:1002C0004080804020100804020180040201804028
:1002D0002010080402010804020101020408102091
:1002E0004080010204081020408000000A0B02092F
:1002F0000C0D0E08070304010000000000000000C0
:1003000000000000000000000000000000000000ED
:1003100000000000000012111000000000000000AA
:1003200000000000000000000000000000000000CD
:100330001F1C1F1E1F1E1F1F1E1F1E1F80916004DB
:10034000811109C08091CF04823010F00E94DB1C23
:100350000E947C04F3CF0FB6F8940F92E0916604EC
:10036000F0916704C681D781CE0102960E94F418ED
:100370008091830481508093830480916004815034
:10038000809360040F900FBE8F89988D0E94882003
:10039000CE010E948820D2CFCF93DF9300D01F924E
:1003A0001F92CDB7DEB7E091A304F091A404F080D2
:1003B00010E000E0FF2029F00580F681E02D0081AB
:1003C00011810E94C3180E94B9186C0180919F048A
:1003D0009091A004C816D90608F04DC00E9438209C
:1003E000D092A004C0929F040E94CC1D50E040E037
:1003F000BE016F5F7F4F8091CA049091CB040E9431
:100400000B21882381F2898187FDF0CF0C811D812A
:10041000D8011A968D919C91892B21F0C8010296E2
:100420000E94F4180E94B9187C0180919F04909159
:10043000A004E816F90610F40E943820F092A004F7
:10044000E0929F04E981EA3088F60E2E000CFF0B43
:10045000D80152969C918827EF5CFD4F8F4F0C94EA
:100460000E2BB902B902B902F802DF02F202B90298
:10047000B902F802DF02D092A004C0929F04FF20CC
:10048000B1F1C016D106D8F10E94CC1DE091A304B1
:10049000F091A4040580F681E02DE680F780C70185
:1004A00002960E94F418D70152968C91529782FFBF
:1004B00014C01C966D917C91600F711F9801A6016C
:1004C000C7010E944E19882359F0B801C7010E9444
:1004D0000920811105C00E94590C8E7FF701828B83
:1004E000D7015096ED91FC91C70119957FCFE0910E
:1004F000A104F091A2048081BB24B3948111B12C9A
:10050000E090CA04F090CB040FB6F8940F92F70174
:10051000858D8F3F09F4158ED7015E968C915E977D
:100520008F3F11F45E961C920F900FBEF701828DE3
:10053000811115C0C701419671F260914C04709110
:100540004D04645F7F4F0E94D418C8018C199D0927
:10055000BB2011F08FEF9FEF6B2D0E947819C70120
:100560000E94571A0E94CC1D811140CF0E94DB1CB3
:100570003DCF9160F801928B2A813B81648575851E
:10058000620F731FA701C8010E944E19882309F446
:100590002DCFD8015096ED91FC91C8011995F80125
:1005A000828982FF23CF6A817B8184859585680F4C
:1005B000791FC8010E940920811118CF8CCF91604A
:1005C000F801928B6A817B8175876487611571055B
:1005D00009F481CF6E0D7F1D9701A701C8010E940C
:1005E0004E1904CF91FD04C0C8010E948820FECEA0
:1005F0009E7FD80152969C93F9CEEE23402611247B
:100600001FBECFEFD1E2DEBFCDBF00E00CBF14E0D4
:10061000A0E0B2E0E0E4F8E500E00BBF02C0079024
:100620000D92AC34B107D9F726E0ACE4B4E001C0D8
:100630001D92A03DB207E1F712E0CEEFD2E000E05C
:1006400006C021970109802FFE010E940E2BCD3F8D
:10065000D10780E00807A9F70E94BB250C940E2C57
:100660000C94000096E0899FD0011124AB5AB94F39
:1006700090967C936E935F9791E091969C9391975F
:10068000E091C206F091C3069091C106992339F01A
:10069000309751F0811108C08091710619943097FC
:1006A00019F05C968C91FACF0895DC0115961C9296
:1006B000159714961C92149713961C9213971C92DC
:1006C00081E011968C93119711968C911197282F98
:1006D0002150330BF901E05DFC4FE491823009F4C5
:1006E000EF5FE11102C08F5FECCF81E012968C9337
:1006F0000895AF92BF92CF92DF92EF92FF920F9345
:100700001F93CF93DF936C017B018B01040F151FA7
:10071000EB015E01AE18BF08C017D10759F069910F
:10072000D601ED91FC910190F081E02DC601199563
:10073000892B79F7C501DF91CF911F910F91FF9020
:10074000EF90DF90CF90BF90AF900895FC01538D54
:10075000448D252F30E0842F90E0821B930B54179B
:1007600010F0CF96089501970895FC01918D828D28
:10077000981761F0A28DAE0FBF2FB11D5D968C91C1
:10078000928D9F5F9F73928F90E008958FEF9FEF00
:100790000895FC01918D828D981731F0828DE80FBC
:1007A000F11D858D90E008958FEF9FEF0895FC0176
:1007B000918D228D892F90E0805C9F4F821B910943
:1007C0008F739927089584EF94E00E94D70321E066
:1007D000892B09F420E0822F0895FC01A48DA80F35
:1007E000B92FB11DA35ABF4F2C91848D90E0019673
:1007F0008F739927848FA689B7892C93A089B18993
:100800008C91837080648C93938D848D981306C033
:100810000288F389E02D80818F7D80830895EF9297
:10082000FF920F931F93CF93DF93EC0181E0888FAA
:100830009B8D8C8D98131AC0E889F989808185FF7A
:1008400015C09FB7F894EE89FF896083E889F9891C
:1008500080818370806480839FBF81E090E0DF911E
:10086000CF911F910F91FF90EF900895F62E0B8D71
:1008700010E00F5F1F4F0F731127E02E8C8D8E112C
:100880000CC00FB607FCFACFE889F989808185FF93
:10089000F5CFCE010E94ED03F1CFEB8DEC0FFD2FD4
:1008A000F11DE35AFF4FF0829FB7F8940B8FEA894E
:1008B000FB8980818062CFCFCF93DF93EC01888D5D
:1008C0008823B9F0AA89BB89E889F9898C9185FDCB
:1008D00003C0808186FD0DC00FB607FCF7CF8C9159
:1008E00085FFF2CF808185FFEDCFCE010E94ED0321
:1008F000E9CFDF91CF91089580E090E0892B29F036
:100900000E94E30381110E94000080E090E0892BA7
:1009100049F080E090E0892B29F00E9400008111CD
:100920000E94000080E090E0892B49F080E090E098
:10093000892B29F00E94000081110E94000080E0B4
:1009400090E0892B49F080E090E0892B29F00E940B
:10095000000081110C94000008958150823108F04C
:100960005AC0E82FF0E08827E754FB4F8F4F0C94D4
:100970000E2BD904DD04CB04D104D5040B05E0040F
:10098000E604EA04F004F404F804FE0402050B058E
:1009900006050C051005809180008F7780938000FC
:1009A0000895809180008F7DF9CF80918000877FAE
:1009B000F5CF84B58F7784BD089584B58F7DFBCF47
:1009C0008091B0008F778093B00008958091B0003F
:1009D0008F7DF9CF809190008F778093900008955C
:1009E000809190008F7DF9CF80919000877FF5CF27
:1009F0008091A0008F778093A00008958091A0003F
:100A00008F7DF9CF8091A000877FF5CF8091200165
:100A10008F77809320010895809120018F7DF9CFF9
:100A200080912001877FF5CFCF93DF93282F30E08F
:100A3000F901E651FD4F8491F901EC55FD4FD49138
:100A4000F901E25AFD4FC491CC23A1F081110E941B
:100A5000AD04EC2FF0E0EE0FFF1FEC5BFD4FA59116
:100A6000B491EC91ED2381E090E009F480E0DF9116
:100A7000CF91089580E090E0FACF1F93CF93DF935A
:100A8000282F30E0F901E651FD4F8491F901EC5532
:100A9000FD4FD491F901E25AFD4FC491CC23A9F046
:100AA000162F81110E94AD04EC2FF0E0EE0FFF1F16
:100AB000E65DFD4FA591B4918FB7F894EC911111BB
:100AC00008C0D095DE23DC938FBFDF91CF911F91BB
:100AD0000895DE2BF8CFCF93DF9390E0FC01EC5527
:100AE000FD4F2491825A9D4FFC0184918823C9F0C7
:100AF00090E0880F991FFC01E05FFD4FA591B49134
:100B0000FC01E65DFD4FC591D49161110DC09FB709
:100B1000F8948C91209582238C93888128232883B4
:100B20009FBFDF91CF910895623051F49FB7F89441
:100B30003C91822F809583238C93E8812E2BEFCFDD
:100B40008FB7F894EC912E2B2C938FBFEACF3FB741
:100B5000F8948091C6049091C704A091C804B09104
:100B6000C90426B5A89B05C02F3F19F00196A11D09
:100B7000B11D3FBFBA2FA92F982F8827BC01CD01E7
:100B8000620F711D811D911D42E0660F771F881F46
:100B9000991F4A95D1F708952FB7F8946091C20430
:100BA0007091C3048091C4049091C5042FBF08952F
:100BB0000F931F93CF93DF93C82FD62F86E0C89F44
:100BC000F0011124EB5AF94F11A2878D90A18130C9
:100BD0009105F1F058F082309105F1F1039709F495
:100BE00040C0DF91CF911F910F9108956623C9F303
:100BF00061E070E08C2F0E9432030E94CC0560936C
:100C0000AD067093AE068093AF069093B006E9CF21
:100C10000E94CC050091AD061091AE062091AF0662
:100C20003091B006AB01BC01401B510B620B730B42
:100C30008091BF069091C006B0E0A0E084179507B0
:100C4000A607B70748F462E070E08C2FDF91CF91E0
:100C50001F910F910C94320363E070E0D111C1CF6A
:100C6000F4CF70E060E0F1CF08950F931F93CF931E
:100C7000DF93EC018B0188859985029751F46130EF
:100C8000710509F43AC06CF560E00115110509F42D
:100C900035C088859985049751F40130110509F410
:100CA0005DC00CF035C00115110509F446C08885FA
:100CB0009985059709F0CCC00A30110508F0C8C025
:100CC000F8018827E959F94F8F4F0C940E2BBE0677
:100CD000C806D606E806000702070807120720071D
:100CE00026076230710591F060E00330110589F646
:100CF0008C850E943D0560E005C061E08C850E9406
:100D00003D0561E08E850E943D05C3CF61E0F0CFD7
:100D10000230110549F10330110509F0C8CF60E038
:100D20008C850E943D0560E08E850E943D0560E057
:100D300088890E943D0561E00DC061E08C850E94BC
:100D40003D0560E08E850E943D0560E088890E9437
:100D50003D0560E08A890E943D05A9CF60E08C8551
:100D60000E943D0561E0EECF60E08C850E943D056C
:100D700060E08E850E943D0561E0E8CF60E08C85F3
:100D80000E943D0561E08E850E943D0561E009C03D
:100D900060E08C850E943D0561E08E850E943D05E6
:100DA00060E088890E943D0560E00DC060E08C85B0
:100DB0000E943D0561E08E850E943D0560E08889C6
:100DC0000E943D0561E08A890E943D0561E011C0F5
:100DD00060E08C850E943D0561E08E850E943D05A6
:100DE00060E088890E943D0561E08A890E943D0596
:100DF00060E08C89DF91CF911F910F910C943D059C
:100E000061E0E7CF61E08C850E943D0560E0E5CFC1
:100E100061E08C850E943D0560E08E850E943D0565
:100E200061E0DFCF61E08C850E943D0560E08E854A
:100E30000E943D0561E088890E943D0560E0D5CFB4
:100E400061E08C850E943D0560E09DCF60E0F9CFB8
:100E5000DF91CF911F910F910895089590E080E068
:100E60000895862F0C941405862F642F0C943D054D
:100E7000862F642F0C946B051F9A0895279A2F9A3A
:100E80000895DC0150E0E0E3F3E081E0861730F400
:100E90009491490F511D8F5F3196F8CF633038F030
:100EA000CD0183709927892B11F44F5F5F4F9D010E
:100EB0002D5F3F4F36952795369527956DE671E066
:100EC000A69FC001A79F900DB69F900D112401977A
:100ED000820F931F840F951F0895EF92FF920F9337
:100EE0001F93CF93DF93EC0188814A81698190E061
:100EF0000E9441079C01A8E1B0E00E948A2A2B8150
:100F00007B018C01E20EF11C011D111DA80197014E
:100F1000ACE3B0E00E947F2A2C817B018C01E20EC1
:100F2000F11C011D111DA80197010E947F2A2D812E
:100F3000620F711D811D911DDF91CF911F910F9146
:100F4000FF90EF900895FC019F012F5F3F4F80813C
:100F50008F7E803269F080E02AE0919130ED390F88
:100F60003A3040F4829F900D112480ED890FF5CF27
:100F7000F901EACF08950F931F930E94CC050091C9
:100F8000BD041091BE042091BF043091C004601BC9
:100F9000710B820B930B6536710581059105B0F0DD
:100FA00085E10E941405019789F40E94CC056093A5
:100FB000BD047093BE048093BF049093C0048091DD
:100FC000B00487FD06C081508093B0041F910F913B
:100FD00008951092B004FACF0F931F930E94CC058E
:100FE0000091B9041091BA042091BB043091BC0463
:100FF000601B710B820B930B6536710581059105A2
:10100000B0F084E10E941405019789F40E94CC0598
:101010006093B9047093BA048093BB049093BC04AA
:101020008091AF0487FD06C081508093AF041F916B
:101030000F9108951092AF04FACF0F931F930E945F
:10104000CC050091B5041091B6042091B7043091FD
:10105000B804601B710B820B930B6536710581051B
:101060009105B0F083E10E941405019789F40E9474
:10107000CC056093B5047093B6048093B704909345
:10108000B8048091AE0487FD06C081508093AE0401
:101090001F910F9108951092AE04FACF0F931F93F2
:1010A0000E94CC050091B1041091B2042091B304C8
:1010B0003091B404601B710B820B930B6536710584
:1010C00081059105B0F082E10E941405019789F431
:1010D0000E94CC056093B1047093B2048093B30472
:1010E0009093B4048091AD0487FD06C08150809335
:1010F000AD041F910F9108951092AD04FACFCF93D4
:10110000DF93EC018A819881992339F061E00E9494
:101110003D051882DF91CF91089560E00E943D0562
:1011200081E08883F7CFCF93DF93EC0161E0898181
:101130000E946B0561E089810E943D0561E08A8122
:101140000E946B0561E08A81DF91CF910C943D058F
:1011500060E00E943D058BE090E00197F1F7089573
:10116000E0919B04F0919C048081811107C08FEF76
:101170009FEF90939A04809399040895E0919B04C3
:10118000F0919C040580F681E02D0680F781E02D2A
:1011900082819381EECFCF93DF93EC0160E08E816B
:1011A0000E943D0561E08E810E943D0560E08E81D8
:1011B0000E943D058BE891E00197F1F7DF91CF9117
:1011C0000895CF92DF92EF92FF920F931F93CF93E8
:1011D000DF936C017C0187E0E80EF11CD0E0C0E0F9
:1011E000062F10E0B8010C2E02C0759567950A9481
:1011F000E2F76170F70181917F010E943D05219620
:10120000C430D10579F7C601DF91CF911F910F91BD
:10121000FF90EF90DF90CF900C94CB08CF92DF92AD
:10122000EF92FF920F931F93CF93DF93EC01F62E73
:10123000642F8C810E943D058D818F3F19F060E005
:101240000E943D050F2D10E08F8584FF25C06E01A3
:1012500087E0C80ED11CF12CE12CB8010E2C02C085
:10126000759567950A94E2F76170F60181916F01B7
:101270000E943D05FFEFEF1AFF0A88E0E816F1042F
:1012800061F7CE01DF91CF911F910F91FF90EF9009
:10129000DF90CF900C94CB08B80184E075956795EA
:1012A0008A95E1F7CE010E94E1086F2DCE01DF9112
:1012B000CF911F910F91FF90EF90DF90CF900C9402
:1012C000E10840E0682F8DE396E00C940E0964304D
:1012D00008F063E090915006691710F06FEF690F06
:1012E000E62FF0E0E35CF94F9489890F80680C9455
:1012F000610981E00E9461098BE39FE10197F1F7A9
:101300000895CF93DF93823029F490914C06986032
:1013100090934C06809350061092510680E480937F
:10132000520680E18093530680E58093540661E085
:10133000809141060E946B05809142068F3F19F013
:1013400061E00E946B0561E0809143060E946B059D
:10135000CDE3D6E09E012D53364080914C0684FDAE
:101360000BC084E090E021962817390744F461E02F
:101370008E810E946B05EECF88E090E0F4CF8BE386
:101380009DE00197F1F760E0809141060E943D05E4
:1013900060E0809143060E943D05809142068F3FA8
:1013A00019F060E00E943D0580914C0684FD34C038
:1013B00063E08DE396E00E94E108CBE4D6E4CE0141
:1013C0000197F1F763E08DE396E00E94E108219731
:1013D000F1F763E08DE396E00E94E10883E592E097
:1013E0000197F1F762E08DE396E00E94E1088091B9
:1013F0004C0680620E94610984E080934D068CE077
:101400000E9461090E94790982E080934E0686E07D
:10141000DF91CF910C94610980620E9461098BE495
:1014200096E40197F1F780914C0680620E94610971
:1014300083E592E00197F1F780914C0680620E946B
:101440006109D5CF41E00E940E0981E090E0089546
:10145000EF92FF921F93CF93DF937C01D0E0C0E027
:1014600010E0F70180810E9414050C2E01C0880F46
:101470000A94EAF7182B61E0F70181810E943D058B
:1014800060E0F70181810E943D052196C830D105B9
:1014900041F7812FDF91CF911F91FF90EF90089539
:1014A000FF920F931F93CF93DF938C01D62FF42ECF
:1014B000C0E06D2F6170F80180810E943D0561E000
:1014C000F80181810E943D05C73039F4FF2029F0E1
:1014D00060E0F80180810E946B0560E0F801818185
:1014E0000E943D05D695CF5FC83019F7DF91CF91A7
:1014F0001F910F91FF9008951F93CF93DF93EC01FD
:10150000162F60E08A810E943D0561E08A810E9479
:101510006B0560E089810E943D0561E089810E9440
:101520006B0561E088810E946B0561E08A810E9401
:101530003D058BE090E00197F1F7412F4170612F5D
:10154000CE01DF91CF911F910C94500ACF92DF9280
:10155000EF92FF920F931F93CF93DF9300D000D0B1
:10156000CDB7DEB76FEB8091BB059091BC050E94B3
:101570007C0A8091BB059091BC050E94280A8F7758
:10158000282F30E0F4E035952795FA95E1F7922F72
:10159000990F990F022F091B000F080F8091BB05AF
:1015A0009091BC050E94280A282F30E0A4E03595D0
:1015B0002795AA95E1F7922F990F990FF22EF91A14
:1015C000FF0CF80E8091BB059091BC050E94280A83
:1015D00086FF77C0982F9F71292F30E0E4E0359582
:1015E0002795EA95E1F7322F330F330F122F131B94
:1015F000110F190F85FD145F8091BB059091BC05FB
:101600000E94280A282F30E094E0359527959A9576
:10161000E1F7922F990F990FE22EE91AEE0CE80EDE
:101620008091BB059091BC050E94280A282F30E0CC
:1016300044E0359527954A95E1F7922F990F990F38
:10164000D22ED91ADD0CD80E8091BB059091BC0525
:101650000E94280A8091BB059091BC050E94280A2F
:10166000482F50E064E0559547956A95E1F7942F2F
:10167000990F990FC42EC91ACC0CC80E8091BB05C6
:101680009091BC050E94280AE091BB05F091BC0531
:1016900082810E94A80896014E2D512F6F2D702F28
:1016A00080E090E026960FB6F894DEBF0FBECDBF67
:1016B000DF91CF911F910F91FF90EF90DF90CF902E
:1016C0000895282F30E074E0359527957A95E1F755
:1016D000922F990F990F122F191B110F180F8CCFE2
:1016E000FB0101900020E9F73197AF01461B570B32
:1016F000DC01ED91FC910280F381E02D19948F9231
:101700009F92AF92BF920F931F93CF93DF93CDB76A
:10171000DEB7A1970FB6F894DEBF0FBECDBF19A2FA
:10172000423008F44AE08E010F5D1F4F842E912C49
:10173000B12CA12CA50194010E94CD2AE62FB9015C
:10174000CA01EA3004F5E05DD801EE938D01232B48
:10175000242B252B79F790E080E0109729F0BD012C
:1017600084EF94E00E94700BA1960FB6F894DEBF50
:101770000FBECDBFDF91CF911F910F91BF90AF9062
:101780009F908F900895E95CDFCFCF92DF92EF9228
:10179000FF92CF93DF936B017C016DE284EF94E0C5
:1017A0000E940F04EC0166277727CB016C197D0995
:1017B0008E099F094AE00E947F0B8C0F9D1FDF91CD
:1017C000CF91FF90EF90DF90CF900895CF93DF936C
:1017D000BC0184EF94E00E94700BEC0162E772E0C0
:1017E00084EF94E00E94700B8C0F9D1FDF91CF91CE
:1017F0000895CF93DF93682F70E090E080E04AE097
:101800000E947F0BEC0162E772E084EF94E00E949B
:10181000700B8C0F9D1FDF91CF9108950C94700B6E
:10182000EF92FF920F931F93CF93DF93EC017B0115
:10183000198218821B821A821D821C82FB01019070
:101840000020E9F731978F01061B170BB8016F5F76
:101850007F4F90E080E00E94162B0097B9F09983AB
:1018600088831B830A832C813D81232B11F4FC0187
:1018700010821D830C83B70188819981DF91CF91FC
:101880001F910F91FF90EF900C94072C8881998104
:10189000009711F00E94FD26198218821D821C8279
:1018A0001B821A82DF91CF911F910F91FF90EF90D1
:1018B0000895F8940E943E072FEF81EE94E02150A6
:1018C00080409040E1F700C000000E943C072FEFED
:1018D00087EA91E6215080409040E1F700C0000087
:1018E0000E943C072FEF81EE94E021508040904011
:1018F000E1F700C000000E943C072FEF81EE94E06A
:10190000215080409040E1F700C000000E943C0759
:10191000D3CFCF93DF93CDB7DEB7A5970FB6F894AB
:10192000DEBF0FBECDBF8C017C0121E0E21AF108C1
:10193000F701EE0FFF1FEE0FFF1FEA5CFD4F8381E3
:1019400090E0228130E0418150E0D0801C861B86EF
:101950001A8219821F8A188E198E1A8E64E670E018
:1019600078876F836D2D70E07E876D87588B4F87EA
:101970003A8B298B9C8B8B8B61E08D2D0E946B05A4
:1019800061E08F850E946B0561E089890E946B058B
:1019900061E08B890E946B051E8A1D8A84E090E0BD
:1019A0009A8789872F813885032E000C440B550BAD
:1019B00060E077E883E993E00E94EF2ACA01B90169
:1019C00028EC30E040E050E00E94EF2A2B833C837B
:1019D0004D835E8389E1809FF001819FF00D11248A
:1019E000E054FA4F55884288A70143555B4F3A01AE
:1019F000808DDA018C9365E772E084EF94E00E94B9
:101A00000E0CB801012E000C880B990B97FF58C0E3
:101A10000E94C50B66E872E084EF94E00E940E0C11
:101A20006D2D70E090E080E04AE00E947F0B61E95C
:101A300072E084EF94E00E940E0C642D70E090E060
:101A400080E04AE00E947F0B63EA72E084EF94E05A
:101A50000E940E0C852D0E94F90BD12CC701880F16
:101A6000991FFC01E25DFD4FFBA3EAA397012A5BEE
:101A70003D4F39A328A329E1209FC001219F900D4C
:101A80001124AC0148525A4F5DA34CA38091B80574
:101A90004812B9C28091B9055812B5C23090B70545
:101AA000D31409F4B0C20091AB041091AC048CE6DD
:101AB00092E09F8F8E8F0115110531F40E94590C11
:101AC0004AE00E947F0BA6CFD8015C968C918111D1
:101AD000F5CF0E94AB18811104C08E8D9F8D892B8C
:101AE00069F7D12C90E05801B1E1AB0EB11C69E06F
:101AF000262E74E0872E912CA2C02E8D3F8D232B95
:101B000021F4DD2009F4CAC0D9CF911109C0809118
:101B1000CE048B8F8091CC049091CD049D8F8C8FBF
:101B20000F900FBE0E94C3180FB6F8940F92D80101
:101B30005D968C915D978F3F11F45D961C92F80134
:101B4000868D8F3F09F4168E0F900FBEBE01625E28
:101B50007F4FCE014B960E94E11981113BC1C80114
:101B60000E94C918882309F42FC1D8018D919C9136
:101B7000892B09F055C00FB6F8940F92F801E48054
:101B8000F580E114F10409F41DC1D70156968C913A
:101B90005697E0914C04F0914D049689891708F00E
:101BA00005C11C962D913C911D9737FD0CC0E0910D
:101BB0004C04F0914D0496899401291B31091D961E
:101BC0003C932E931C97829DC001112481539B4FFF
:101BD000F701228533852817390709F0DFC067012F
:101BE000F2E0CF0ED11CC6010E94F418E0914C0423
:101BF000F0914D048689D70156968C939091F30409
:101C0000981710F48093F304829DC0011124B6014B
:101C100081539B4F0E94D418DD24D3940F900FBEA4
:101C20006E8D7F8DC5010E94991AC8010E94571AB6
:101C30000E94CC1D811102C00E94DB1C91E00FB6F6
:101C4000F8940F92F801828D882309F456CF8150C1
:101C5000828F80819181892BB1F480914C04909185
:101C60004D04892B39F0E0914C04F0914D0482A190
:101C70008F5F82A380914C0490914D04D8011596FA
:101C80009C938E931497F8018085882339F0C801BE
:101C900008960E94141A81110E94DB1C0F900FBE3F
:101CA000EAA1FBA120813181A8A1B9A19C91923028
:101CB00009F009C1309301022093000280916A006B
:101CC000836080936A00EC9ACC24C394D12C4AE0C0
:101CD000E42EF12CF301808118160CF042C167EB61
:101CE00072E084EF94E00E940E0CD3016C91062EFA
:101CF000000C770B880B990B97FF23C10E94C50B33
:101D000062E772E084EF94E00E94700BDA82C9828D
:101D100004E610E001151105E9F20E94A7058F887D
:101D2000988CA98CBA8C9B01AC01281939094A09F5
:101D30005B0949015A012B813C814D815E818216EC
:101D40009306A406B50630F36F8B788F898F9A8F30
:101D50008B859C8529813A812130310509F0F5C0B8
:101D600001969C878B872F8138858217930711F402
:101D70001C861B86015011098B859C8529853A8517
:101D8000B7012530310511F064E070E00E94B92AF6
:101D9000BC01CE0101960E943506BCCFE0914C04F7
:101DA000F0914D048689F701868B36CFE0914C0483
:101DB000F0914D04DD24D39491969C9186899817D7
:101DC00008F42CCFD12C2ACFC8010E94571A0E94A8
:101DD000CC1D34CFC8010E94571A0E94CC1DC801E7
:101DE0000E94C918882309F429CFDD2009F458CFAF
:101DF0000FB6F8940F92F8018189882309F461C025
:101E00000688F789E02D908184E0891BD80114961B
:101E10000D911C910115110509F440CFF80122A183
:101E2000222309F44BCE91A1981708F4982FD801DA
:101E300056968C915697891709F430CF213009F0C6
:101E40002DCF20914C0430914D040217130709F453
:101E500035CE56969C9356971C962D913C911D9786
:101E600037FD08C024E030E0291B31091D963C9362
:101E70002E931C97B9E08B9FC001112481539B4F77
:101E8000F801228533852817390709F007CF780133
:101E9000F2E0EF0EF11CC7010E94F418D80156962B
:101EA0008C919091F304981710F48093F304B9E0A7
:101EB0008B9FC0011124B70181539B4F0E94D418FE
:101EC000EDCE80E0A3CF933059F4309303022093FA
:101ED000020280916A008C6080936A00ED9AF4CED1
:101EE0008EEE890F843008F0EFCE87E1891BE82F52
:101EF000F0E0EE0FFF1FE050FE4F3183208384306F
:101F000091F08530B9F0833039F0809169008360B9
:101F100080936900E89AD8CE809169008C608093A4
:101F20006900E99AD1CE809169008063809369004D
:101F3000EA9ACACE80916900806C80936900EB9A1E
:101F4000C3CE4AE00E947F0BDBCE892B21F48F8128
:101F500098859C878B878B859C8501979C878B8731
:101F600009CF1AE060E08AE10E943D0585E090E03B
:101F70000E94992061E08AE10E943D0585E090E0A1
:101F80000E94992060E08AE10E943D0585E090E092
:101F90000E94992061E08AE10E943D0585E290E07F
:101FA0000E9499201150F1F650E040E070E060E0AE
:101FB0008091AB049091AC040E94FF1EA8A1B9A12E
:101FC0009C91923089F1933099F18EEE890F843093
:101FD000A0F487E1891B8430F9F0853009F1833062
:101FE000B9F0E89882E090E0880F991FFC01E0507A
:101FF000FE4F84E396E091838083ECA1FDA1808174
:10200000D3018C93D32C8CE790E00E9499203ECD95
:10201000E99883E090E0E8CFEA9884E090E0E4CFAC
:10202000EB9885E090E0E0CFEC9890E080E0DCCFAA
:10203000ED9881E090E0D8CFCF93DF931F92CDB79A
:10204000DEB7412C512C32014394AA24AA94BA2C15
:1020500051E05093C1060E94CC050091B106109149
:10206000B2062091B3063091B406AB01BC01401B0F
:10207000510B620B730B8091BD069091BE06B0E0D0
:10208000A0E084179507A607B70708F00CC110E079
:102090008091BB06181760F4E091B706F091B8067E
:1020A000E10FF11D62E080810E946B051F5FF0CFA0
:1020B000312C8091BC06381608F061C0E32CF12C5D
:1020C000E091B906F091BA06EE0DFF1D61E0808146
:1020D0000E946B05E091B906F091BA06EE0DFF1D66
:1020E00060E080810E943D05D301C201032C04C041
:1020F000880F991FAA1FBB1F0A94D2F74C016C01CD
:10210000C094D094212C8091BB06281608F5022D8E
:1021100010E0E091B706F091B806E00FF11F808162
:102120000E9414050C5F1F4F000F111FF801EB5A9E
:10213000F94F892B41F480819181882999299183D4
:1021400080832394E0CF808191818C219D21F7CFE2
:10215000E091B906F091BA06EE0DFF1D61E08081B5
:102160000E943D058091B9069091BA06E80EF91ECD
:1021700060E0F70180810E946B0533949ACF05E5FA
:1021800016E0F801878D90A1892B21F4148EB68E6C
:10219000A58E11A2369656E0E139F50799F7D12CB4
:1021A0008091BB06D81608F053C0C12CED2CF12C41
:1021B000EE0CFF1CC701835A994F7C012091BC068D
:1021C000C21608F043C0F701608171810C2C02C077
:1021D000769567950A94E2F7D29E900111242C0D12
:1021E000311DE5E5F6E080E0458D568D2417350775
:1021F00009F47BC08F5F36968A30B1F760FF24C048
:10220000E5E5F6E090E080E0448D411118C0E091F2
:10221000B506F091B606E20FF31F408156E0589FD5
:10222000F001599FF00D1124EB5AF94F448F368F6E
:10223000258F10A2178E61E00E94D80505C0019677
:1022400036968A30910501F7C394B8CFD394A8CFBE
:10225000F12CF80181A18111F82E0A5F1F4FF6E0E1
:1022600001391F07B1F70E94CC056093B106709346
:10227000B2068093B3069093B406FF20A1F080913C
:102280007606882381F080917406909175060197F7
:1022900051F4809171068983811109C081E090E039
:1022A0000E949920D5CE1092C1061982F7CF41E045
:1022B00050E0BE016F5F7F4F8091A5049091A6040E
:1022C0000E94FF1E182F698184EF94E00E940F0482
:1022D00062E772E084EF94E00E94700B1130F1F23B
:1022E00086EC92E00E94E60BD9CF6170A5CFCF9328
:1022F000DF93CDB7DEB7E3970FB6F894DEBF0FBE1E
:10230000CDBF8FE088AB4EE1342E9E012F5F3F4F53
:10231000690157EFA52E51E0B52E0AE06CE0262E9C
:1023200019E17E013FE1E30EF11C78EE872E71E0AA
:10233000972E41E050E0BE01615D7F4F8091A9047E
:102340009091AA040E940B21813021F08DEC92E043
:102350000E94E60B0FB6F8940F92F601232D11920E
:102360002A95E9F70E94A60A2093B5053093B60591
:102370004093B7055093B8056093B9057093BA05BB
:102380001F927F938091B9051F928F938091B8051A
:102390001F928F938091B7051F928F938091B605FE
:1023A0001F928F93BF92AF921F923F92DF92CF9274
:1023B0000E94862734EE39A70AA784E08BA72CA6B3
:1023C0001DA61EA685EB95E00E946D072B013C0122
:1023D000CE0189960E946D070FB6F894DEBF0FBE3E
:1023E000CDBF641575058605970530F48091A70467
:1023F0009091A8040E94B0200E94790960E080E0DA
:102400000E946709B6018DE396E00E940E0CE9A9CF
:102410001E9FF0011124E054FA4F618180810E94D7
:102420006709E9A9E19FF0011124EE53FA4F4481B5
:102430005581608171818DE396E00E94790389A9BD
:10244000882309F44DC061E088E00E946709F70124
:10245000202F11922A95E9F7E9A91E9FF001112476
:10246000E054FA4F808D1F928F9385891F928F932E
:1024700082891F928F939F928F921F920F93FF9248
:10248000EF920E948627B7018DE396E00E940E0C22
:1024900029A9EAA98E2F90E0FC01EE0FFF1FE80F9B
:1024A000F91F129FE00DF11D1124E054FA4F6189CC
:1024B00080890E94670980914D06982F92609093C1
:1024C0004D068A600E9461090FB6F894DEBF0FBE08
:1024D000CDBF0F900FBE82E190E00E94992029CFDE
:1024E00080914D068D7F80934D0688600E94610922
:1024F000F0CFCF93DF9300D000D000D01F921F9277
:10250000CDB7DEB75E0186E0A80EB11C85E0F5010F
:1025100011928A95E9F78FE08F8319E17BEA572EB4
:10252000E3E04E2EFFE03F2E41E050E0BE01655F4C
:102530007F4F8091A5049091A6040E940B218130C9
:1025400009F072C06B8584EF94E00E940F0462E78B
:1025500072E084EF94E00E94700B60E08AE10E94D8
:102560003D0581E090E00E94992061E08AE10E94AF
:102570003D05EB85E053E83008F056C00E2E000C08
:10258000FF0B8827E953FD4E8F4F0C940E2BCF1273
:102590005F1397131413BE13DD13F6130F149E81EC
:1025A0008F81981708F062C08885811101C04E8222
:1025B00081E08A879E81959D812D1124869588874B
:1025C000282F220F220F821B890F89879F5F9E83EE
:1025D0006DED72E084EF94E00E940E0C8E810E94FB
:1025E000F90B6AEE72E084EF94E00E940E0C6885AD
:1025F00070E090E080E04AE00E947F0B60EF72E0C4
:1026000084EF94E00E940E0C698570E090E080E019
:102610004AE00E947F0B6DED72E084EF94E00E942F
:102620000E0C8E810E94F90B41E050E0B5018091C3
:10263000A9049091AA040E94FF1E813009F474CF6E
:102640003A8241E050E0BE016F5F7F4F8091A90464
:102650009091AA040E940B2141E050E0B5018091C5
:10266000A9049091AA040E94FF1E5ECF1E821A86C2
:102670001986188660EC862E65E0962EF12CE12CEA
:102680003401D12CC12CF3016289C6018E0D9F1D2E
:102690000E94712AFFEFCF1ADF0A83E0680E711CD7
:1026A000E3E0CE16D10479F7F9E18F0E911C83E0B7
:1026B000E80EF11CEFE0EE16F10411F792CF288539
:1026C000222309F4B1CF6985E62FF0E0CF01880F0E
:1026D000991FDC01AE0FBF1F422F50E0129FA00DCB
:1026E000B11D1124A054BA4F52963C9121E0230F02
:1026F000283124F061110FC029EE230FE80FF91FD4
:10270000149FC001159F900D1124E80FF91FE0548C
:10271000FA4F228B89CF2C338CF3613011F425ECE6
:10272000ECCF24365CF3623049F72EE9E6CF2885FA
:10273000222309F479CF6985E62FF0E0CF01880FD5
:10274000991FDC01AE0FBF1F422F50E0129FA00D5A
:10275000B11D1124A054BA4F52963C912FEF230F74
:10276000121664F2611102C026E1C7CF613011F484
:102770002AE3C3CF623011F622E6BFCF8AE995E0A3
:102780000E947F0880919A05882381F03AECE32E1D
:1027900036E0F32E02E021E030E048EE53E069EF4E
:1027A00072E089E89CE00E942C223ECF8091CA060C
:1027B0009091CB060E94B02037CF87E995E00E9428
:1027C0007F0880919705882361F028ECE22E26E0AF
:1027D000F22E02E022E030E048EE53E064E073E0E5
:1027E000E0CF8091C8069091C906E4CF84E995E0D6
:1027F0000E947F0880919405882361F096ECE92E71
:1028000096E0F92E02E023E030E048EE53E06FE07E
:1028100073E0C7CF8091C6069091C706CBCF81E900
:1028200095E00E947F0880919105882361F084ECF7
:10283000E82E86E0F82E02E024E030E048EE53E097
:102840006AE173E0AECF8091C4069091C506B2CF25
:102850008F929F92AF92BF92CF92DF92EF92FF92B0
:102860000F931F93CF93DF93CDB7DEB72C970FB69F
:10287000F894DEBF0FBECDBFE0910405F0910505D1
:1028800082E08083E0910005F09101051082E091E3
:102890000205F091030580E1808310920C05E09120
:1028A0000805F091090586E08083E0910605F09126
:1028B0000705808180618083E0910605F09107051E
:1028C000808188608083E0910605F0910705808112
:1028D00080688083E0910605F091070580818F7DF7
:1028E000808320ECC22E25E0D22E10E000E05601BD
:1028F000F12CE12CC701800F911F0E94692AF5017C
:10290000828BFFEFEF1AFF0A23E0A20EB11C83E0D7
:10291000E816F10479F7E9E1CE0ED11C0D5F1F4FE7
:102920000F30110521F782E00E9481090E94790988
:102930008AE995E00E94930887E995E00E94930850
:1029400084E995E00E94930881E995E00E9493084C
:102950000091BB051091BC0560E0F80181810E94E7
:102960006B0560E0F80180810E946B0560E0F80172
:1029700082810E946B0562E086E10E946B0561E046
:102980008AE10E946B0561E08AE10E943D0562E0F8
:1029900082E10E946B0562E083E10E946B0562E0C8
:1029A00084E10E946B0562E085E10E946B0562E3B1
:1029B00073E084EF94E00E940E0C6DE373E084EF0B
:1029C00094E00E940E0C89E493E00E94E60B0E94C2
:1029D000A7054B015C0194EFC92EDD24D394E12CB3
:1029E000F12C0E94A705681979098A099B09683E9C
:1029F000734081059105A8F3F1E0CF1AD108E108F1
:102A0000F10828EE820E23E0921EA11CB11CC11415
:102A1000D104E104F10429F76FE88091BB0590919E
:102A2000BC050E947C0A8091BB059091BC050E9468
:102A3000280A182FE091BB05F091BC0582810E9405
:102A4000A80817FF30C082E593E00E94E60B6FE80C
:102A50008091BB059091BC050E947C0A8091BB05CA
:102A60009091BC050E94280A182FE091BB05F091B7
:102A7000BC0582810E94A8086EE88091BB059091F8
:102A8000BC050E947C0A612F6F7740E08091BB05F6
:102A90009091BC050E94500AE091BB05F091BC05E5
:102AA00082810E94A80886E493E00E94A30789839C
:102AB00089E08A8381E493E00E94A3078B8389E401
:102AC00093E00E94A3078C838CE493E00E94A30709
:102AD0008D838FE493E00E94A3078E830E94A60A51
:102AE0002F83388749875A876B877C87CE01079663
:102AF0000E946D076B017C01CE0101960E946D075B
:102B0000C616D706E806F90608F0FCC080E893E090
:102B10000E94E60B6EEB8091BB059091BC050E9474
:102B20007C0A2E811AE0822F612F0E94992A682F39
:102B3000660F680F660F620F40E08091BB059091B1
:102B4000BC050E94500A2D81822F612F0E94992A74
:102B5000682F660F680F660F620F40E08091BB051B
:102B60009091BC050E94500A2C81822F612F0E94F7
:102B7000992A682F660F680F660F620F40E08091F8
:102B8000BB059091BC050E94500A2B81822F612FBA
:102B90000E94992A682F660F680F660F620F40E047
:102BA0008091BB059091BC050E94500A2A81822F1A
:102BB000612F0E94992A682F660F680F660F620FB7
:102BC00040E08091BB059091BC050E94500A89812C
:102BD0004B816A8190E00E944107069667E070E0B1
:102BE0000E94A52A682F811101C067E040E0809112
:102BF000BB059091BC050E94500A2981822F6AE092
:102C00000E94992A682F660F680F660F620F40E0D6
:102C10008091BB059091BC050E94500A40E060E0A5
:102C20008091BB059091BC050E94500AE091BB05C4
:102C3000F091BC0582810E94A80861E08AE00E94B0
:102C4000E4219093A6048093A50465E083E00E94AC
:102C5000E4219093AA048093A90460E081E00E949B
:102C6000E4218C01009761F0FC011582148211822D
:102C70001082168250E040E070E060E00E94FF1E8B
:102C80001093AC040093AB04F12CE12C04E030E091
:102C900020E040E850E068E274E08CE190E10E94BE
:102CA0002C2287EAE82E84E0F82E03E030E020E0D2
:102CB00040E850E065E374E089E792E10E942C224D
:102CC000F12CE12C05E030E020E040E850E06FE33B
:102CD00074E087E791E10E942C220E9445232C9604
:102CE0000FB6F894DEBF0FBECDBFDF91CF911F911D
:102CF0000F91FF90EF90DF90CF90BF90AF909F909B
:102D00008F900895CE0107960E946D076B017C019C
:102D1000CE0101960E946D076C157D058E059F05FD
:102D200028F485EB93E00E94E60B87CFCE0107964F
:102D30000E946D076B017C01CE0101960E946D0718
:102D40006C157D058E059F0509F077CF88EE93E021
:102D5000EACF1F920F920FB60F9211240BB60F926B
:102D60002F933F934F935F936F937F938F939F9393
:102D7000AF93BF93EF93FF9384EF94E00E94ED0332
:102D8000FF91EF91BF91AF919F918F917F916F9143
:102D90005F914F913F912F910F900BBE0F900FBEFF
:102DA0000F901F9018951F920F920FB60F9211243B
:102DB0000BB60F922F938F939F93EF93FF93E09116
:102DC0000405F09105058081E0910A05F0910B055D
:102DD00082FD1DC0908180910D058F5F8F732091C2
:102DE0000E05821741F0E0910D05F0E0EC50FB4F2D
:102DF000958F80930D05FF91EF919F918F912F916A
:102E00000F900BBE0F900FBE0F901F9018958081F2
:102E1000F2CF1F920F920FB60F9211242F933F9370
:102E20008F939F93AF93BF938091C2049091C304FB
:102E3000A091C404B091C5043091C10423E0230FD4
:102E40002D3758F50196A11DB11D2093C104809323
:102E5000C2049093C304A093C404B093C5048091AA
:102E6000C6049091C704A091C804B091C90401960A
:102E7000A11DB11D8093C6049093C704A093C804FC
:102E8000B093C904BF91AF919F918F913F912F91C2
:102E90000F900FBE0F901F90189526E8230F0296F3
:102EA000A11DB11DD2CF1F920F920FB60F92112408
:102EB0000BB60F922F933F934F935F936F937F9334
:102EC0008F939F93AF93BF93EF93FF93E0910E0285
:102ED000F0910F021995FF91EF91BF91AF919F91E2
:102EE0008F917F916F915F914F913F912F910F90B3
:102EF0000BBE0F900FBE0F901F9018951F920F9250
:102F00000FB60F9211240BB60F922F933F934F934E
:102F10005F936F937F938F939F93AF93BF93EF9341
:102F2000FF93E0910C02F0910D021995FF91EF9142
:102F3000BF91AF919F918F917F916F915F914F91D1
:102F40003F912F910F900BBE0F900FBE0F901F90CF
:102F500018951F920F920FB60F9211240BB60F9275
:102F60002F933F934F935F936F937F938F939F9391
:102F7000AF93BF93EF93FF93E0910202F0910302AE
:102F80001995FF91EF91BF91AF919F918F917F9193
:102F90006F915F914F913F912F910F900BBE0F90CA
:102FA0000FBE0F901F9018951F920F920FB60F92A1
:102FB00011240BB60F922F933F934F935F936F9310
:102FC0007F938F939F93AF93BF93EF93FF93E09182
:102FD0000002F09101021995FF91EF91BF91AF911D
:102FE0009F918F917F916F915F914F913F912F9121
:102FF0000F900BBE0F900FBE0F901F9018951F9251
:103000000F920FB60F9211240BB60F922F933F938E
:103010004F935F936F937F938F939F93AF93BF93E0
:10302000EF93FF93E0910A02F0910B021995FF9143
:10303000EF91BF91AF919F918F917F916F915F9130
:103040004F913F912F910F900BBE0F900FBE0F909D
:103050001F9018951F920F920FB60F9211240BB666
:103060000F922F933F934F935F936F937F938F9321
:103070009F93AF93BF93EF93FF93E0910802F0917A
:1030800009021995FF91EF91BF91AF919F918F9197
:103090007F916F915F914F913F912F910F900BBE58
:1030A0000F900FBE0F901F9018951F920F920FB6A2
:1030B0000F9211240BB60F922F933F934F935F9370
:1030C0006F937F938F939F93AF93BF93EF93FF93F0
:1030D000E0910602F09107021995FF91EF91BF91DF
:1030E000AF919F918F917F916F915F914F913F91A0
:1030F0002F910F900BBE0F900FBE0F901F90189541
:103100001F920F920FB60F9211240BB60F922F93AE
:103110003F934F935F936F937F938F939F93AF935F
:10312000BF93EF93FF93E0910402F091050219958C
:10313000FF91EF91BF91AF919F918F917F916F918F
:103140005F914F913F912F910F900BBE0F900FBE4B
:103150000F901F90189580918F04882331F08091F3
:103160008E04882321F080E0089581E0089582E0B4
:1031700008950FB6F8940F928091CC049091CD04ED
:103180000F900FBE089580918E048F5F80938E0400
:1031900008950FB6F8940F92FC01928D0F900FBE18
:1031A00081E0911180E00895CF93DF939C01FB01B2
:1031B000DC011196CD91DC91D383C2838C819D81FA
:1031C000958384838C819D81DC0113967C936E931F
:1031D00012977D836C8331872087F90180818F5F0F
:1031E0008083DF91CF910895CF93DF93FC01A08579
:1031F000B1858281938124813581EC013D832C83CB
:10320000C481D5819B838A8311968D919C9112975D
:103210008E179F0721F41296DC93CE931197118697
:1032200010868C9181508C938C91DF91CF91089571
:103230000F931F93CF93DF938C01FB0180819181CA
:10324000D80113968F3F9807F1F4E801AF81B88554
:1032500012968D919C91139793838283EC01FD8349
:10326000EC83B583A4831396FC93EE931297118796
:103270000087F80180818F5F8083DF91CF911F915C
:103280000F910895D90112962D913C911397E90160
:103290004881598184179507A8F7DACFFC01738319
:1032A0006283918780874617570790F0421B530B24
:1032B0008485958548175907C8F4BF016E5F7F4F15
:1032C0008091A1049091A2040E94181980E00895B1
:1032D0004217530718F46217730740F4BF016E5F7B
:1032E0007F4F8091A3049091A404EECF81E00895D4
:1032F000FF920F931F93CF93DF93EC01F62E009173
:10330000CC041091CD0480914C0490914D04029610
:103310000E94F418CF3FDC0789F4FF2079F0609118
:103320004C0470914D046E5F7F4F80E994E0DF9113
:10333000CF911F910F91FF900C94D418C00FD11F03
:10334000E0914C04F0914D04D383C28360914C040E
:1033500070914D04C017D10768F480919D0490913D
:103360009E046E5F7F4FDF91CF911F910F91FF9071
:103370000C94181980919B0490919C046E5F7F4F70
:103380000E9418198091990490919A04C817D9073E
:1033900020F4D0939A04C0939904DF91CF911F91A8
:1033A0000F91FF900895FC010396928381832FEF84
:1033B0003FEF3483238396838583908787831082AE
:1033C0000895FC01DB010FB6F8940F924091CC04F4
:1033D0005091CD042D913C9111972F3F3207E1F090
:1033E000818192816091CE047081761719F048171F
:1033F0005907C0F4481B590B4217530788F4241B84
:10340000350B2D933C938091CE0480838091CC0426
:103410009091CD049283818380E00F900FBE089538
:103420001D921C9281E0F9CF0F931F93CF93DF93EE
:10343000DC011596ED91FC91C681D781209711F49E
:103440000E94590C8E01045F1F4FC8010E94F4189E
:1034500080918E04811125C00A501109C8010E9473
:10346000F4188E899091F304981710F48093F30464
:10347000B9E08B9FC0011124B80181539B4F0E947A
:10348000D418E0914C04F0914D049E8986898917E7
:1034900060F481E080938404DF91CF911F910F91BC
:1034A0000895B80185E894E0EACF80E0F5CFEF9287
:1034B000FF920F931F93CF93DF93EC010FB6F89415
:1034C0000F921E8D7C0181E1E80EF11C01E01116C6
:1034D000D4F08FEF8E8F0F900FBE0FB6F8940F922F
:1034E0001D8D7E0188E0E80EF11C01E01116B4F09C
:1034F0008FEF8D8F0F900FBEDF91CF911F910F91A6
:10350000FF90EF9008958989882319F3C7010E94DD
:10351000141A8111009384041150D9CF888588230F
:1035200039F3C7010E94141A8111009384041150C9
:10353000DDCFCF93DF93EB01009711F40E94590C7C
:1035400060914C0470914D04645F7F4F0E94181984
:1035500061E0CE01DF91CF910C9478190F920FB6F4
:10356000F8940F920BB60F920CB60F921F92112483
:103570002F923F924F925F926F927F928F929F9283
:10358000AF92BF92CF92DF92EF92FF920F931F9371
:103590002F933F934F935F936F937F938F939F935B
:1035A000AF93BF93CF93DF93EF93FF93A0914C041E
:1035B000B0914D040DB60D920EB60D9213BE8091D2
:1035C0008E0481112AC18091CC049091CD04019682
:1035D0009093CD048093CC04009709F066C0E091ED
:1035E0009B04F0919C042081222361F1F894279A96
:1035F0002F9A2FEF61EE74E0215060407040E1F7A8
:1036000000C000001F9A8FEF97EAA1E6815090401A
:10361000A040E1F700C000001F9ABFEFC1EED4E068
:10362000B150C040D040E1F700C000001F9A2FEF1A
:1036300061EE74E0215060407040E1F700C000008E
:103640001F9AD7CF20919B0430919C0440919D04F8
:1036500050919E0450939C0440939B0430939E048D
:1036600020939D042091CE042F5F2093CE04E091FF
:103670009B04F0919C042081211107C02FEF3FEFA4
:1036800030939A042093990410C0E0919B04F09128
:103690009C040580F681E02D0680F781E02D2281D3
:1036A000338130939A0420939904209199043091A6
:1036B0009A048217930710F420E09BC020E019E0E1
:1036C000E0919B04F0919C043081311107C08FEF91
:1036D0009FEF90939A04809399048BC0E0919B0490
:1036E000F0919C040580F681E02D0680F781E02DA5
:1036F000428153818417950728F450939A0440938C
:10370000990477C0AF014E5F5F4FA285B385648196
:103710007581E680F780EB01FD82EC82C681D7815E
:103720007B836A8311966D917C9112974617570798
:1037300021F41296DC93CE931197138612863C9156
:1037400031503C933C91A489B5891097F9F0668576
:103750007785E088F188EB01FD82EC82C089D18910
:103760007B836A831196ED90FC901297BF01645F92
:103770007F4FE616F70621F41296DC93CE9311974D
:10378000158A148A3C9131503C933C91A689309122
:10379000F3043A1710F4A093F3041A9FD0011124F4
:1037A000BD0161537B4F7B01DB011196CD91DC9113
:1037B000D583C4836C817D81778366836C817D81B1
:1037C000DB0113965C934E9312975D834C83F386D3
:1037D000E286E70138813F5F3883A0914C04B091C5
:1037E0004D04468956963C91431708F469CF21E071
:1037F00067CFE0914C04F0914D04E689D9E0ED9F4C
:10380000F0011124E153FB4F8081823008F021E068
:103810008091840481110EC00AC08091810490912E
:1038200082040196909382048093810495C02223A0
:1038300009F492C080918E04882321F081E0809366
:1038400084048AC010928404A0914C04B0914D0469
:10385000E0914C04F0914D042D913C918789908D1D
:1038600082179307A8F080914C0490914D048091A9
:103870004C0490914D04279A2F9A2FEF67EA71E636
:10388000215060407040E1F700C000001F9AF5CF62
:103890008091F30490E069E02EC0019760F5F89400
:1038A000279A2F9ABFEFC1EED4E0B150C040D0406C
:1038B000E1F700C000001F9A2FEF67EA71E6215080
:1038C00060407040E1F700C000001F9A8FEF91EE5A
:1038D000A4E081509040A040E1F700C000001F9A92
:1038E000BFEFC1EED4E0B150C040D040E1F700C01E
:1038F00000001F9AD7CF482F689F9001699F300D15
:103900001124F901E153FB4F5081552331F2A1817C
:10391000B28112960D90BC91A02DB283A1832E523C
:103920003B4FA217B30729F412962D913C91328395
:10393000218329E0289FF001299FF00D1124E153F4
:10394000FB4F0180F281E02D8681978190934D0499
:1039500080934C044093F304A0914C04B0914D0427
:10396000CD91CDBFDD91DEBFFF91EF91DF91CF9182
:10397000BF91AF919F918F917F916F915F914F9187
:103980003F912F911F910F91FF90EF90DF90CF907B
:10399000BF90AF909F908F907F906F905F904F906F
:1039A0003F902F901F900F900CBE0F900BBE0F906A
:1039B0000FBE0F9008950F920FB6F8940F920BB6AA
:1039C0000F920CB60F921F9211242F923F924F929A
:1039D0005F926F927F928F929F92AF92BF92CF929F
:1039E000DF92EF92FF920F931F932F933F934F938A
:1039F0005F936F937F938F939F93AF93BF93CF9377
:103A0000DF93EF93FF93A0914C04B0914D040DB65A
:103A10000D920EB60D9280918E04882321F081E0E4
:103A2000809384048AC010928404A0914C04B091C5
:103A30004D04E0914C04F0914D042D913C91878907
:103A4000908D82179307A8F080914C0490914D04BB
:103A500080914C0490914D04279A2F9A2FEF87EA7A
:103A600091E6215080409040E1F700C000001F9A8D
:103A7000F5CF8091F30490E069E02EC0019760F5E6
:103A8000F894279A2F9A8FEF91EE24E0815090407E
:103A90002040E1F700C000001F9A8FEF97EA21E66F
:103AA000815090402040E1F700C000001F9A8FEF46
:103AB00091EE24E0815090402040E1F700C00000EA
:103AC0001F9A8FEF91EE24E0815090402040E1F763
:103AD00000C000001F9AD7CF482F689F9001699FB0
:103AE000300D1124F901E153FB4F5081552331F280
:103AF000A181B28112960D90BC91A02DB283A183B9
:103B00002E523B4FA217B30729F412962D913C91E8
:103B10003283218329E0289FF001299FF00D112491
:103B2000E153FB4F0180F281E02D868197819093D4
:103B30004D0480934C044093F304A0914C04B09145
:103B40004D04CD91CDBFDD91DEBFFF91EF91DF91AF
:103B5000CF91BF91AF919F918F917F916F915F9125
:103B60004F913F912F911F910F91FF90EF90DF9018
:103B7000CF90BF90AF909F908F907F906F905F900D
:103B80004F903F902F901F900F900CBE0F900BBE48
:103B90000F900FBE0F9008957F928F929F92AF92D9
:103BA000BF92CF92DF92EF92FF920F931F93CF932A
:103BB000DF9380918E04811102C00E94590C0FB6D0
:103BC000F8940F9280918E04815080938E0480919E
:103BD0008E04882389F080E00F900FBEDF91CF9193
:103BE0001F910F91FF90EF90DF90CF90BF90AF901B
:103BF0009F908F907F90089580918304882359F33C
:103C0000D0E0C0E029E0F22EEE24E39429C0E09158
:103C10008A04F0918B04C681D781CE010C960E9454
:103C2000F4188E010E5F1F4FC8010E94F4188E8990
:103C30009091F304981710F48093F3048F9DC001C2
:103C40001124B80181539B4F0E94D418E0914C0479
:103C5000F0914D049E898689981710F0E0928404B3
:103C6000809185048111D3CFCD2B11F00E94B00833
:103C7000E0908104F0908204E114F10409F4B6C0EC
:103C800089E0A82E77247394CC24CA94DC2C8091EC
:103C90008E04811199C0C091CC04D091CD0421969D
:103CA000D093CD04C093CC042097F1F4E0919B0411
:103CB000F0919C048081811180CF80919B04909130
:103CC0009C0420919D0430919E0430939C04209389
:103CD0009B0490939E0480939D048091CE048F5FFB
:103CE0008093CE040E94B0088091990490919A0428
:103CF000B12CC817D90708F05BC0E0914C04F091D3
:103D00004D04E689AE9EF0011124E153FB4F808102
:103D1000823010F0BB24B39480918404811103C0DD
:103D2000BB2009F45AC07092840457C0E0919B04F0
:103D3000F0919C040580F681E02D06811781D80161
:103D400012968D919C91C817D90728F490939A04E4
:103D500080939904D2CF4801B2E08B0E911CC4012C
:103D60000E94F418F80184899589892B21F0C801F3
:103D70000C960E94F418D80156968C919091F304F9
:103D8000981710F48093F3048A9DC0011124B401A4
:103D900081539B4F0E94D418E0914C04F0914D0444
:103DA000D80156969C918689981710F0BB24B3943D
:103DB000E0919B04F0919C0480818111B7CFD09257
:103DC0009A04C092990499CF8091810490918204C1
:103DD00001969093820480938104B1E0EB1AF1087C
:103DE00009F055CF109282041092810480918404CE
:103DF000882309F4F0CE0E94DB1C81E0EDCEAF9267
:103E0000BF92DF92EF92FF920F931F93CF93DF93B6
:103E100000D01F921F92CDB7DEB78C017B015D836E
:103E20004C83009711F40E94590C672B21F4FC017C
:103E3000848D8111F8CF0E94AB18811104C08C8150
:103E40009D81892B81F780E05801F8E0AF0EB11C0D
:103E5000C0C0E480F580E114F10419F580E0F801B8
:103E600015821482D394F801D28E9189992321F07E
:103E7000C80141960E94141A81110E94DB1C0F9008
:103E80000FBE81E00F900F900F900F900F90DF9179
:103E9000CF911F910F91FF90EF90DF90BF90AF9067
:103EA000089580914C0490914D04E816F90609F0AC
:103EB000BACFF70182A1882309F4B5CF815082A33C
:103EC000268991A1291751F28111C8CF5701F2E03B
:103ED000AF0EB11CC5010E94F418F70181A1868BB9
:103EE00024E030E0281B3109358724879091F304C2
:103EF000981710F48093F304F9E08F9FC001112408
:103F0000B50181539B4F0E94D41881E0A8CF50E0A7
:103F1000B701828193810E94F72BF801848D228161
:103F20003381820F932F911D938382832481358166
:103F30008217930708F45FC0808191819383828305
:103F40005AC02C813D81232B21F40F900FBE80E0BD
:103F500099CF811109C08091CE0489838091CC04CE
:103F60009091CD049B838A830F900FBE0E94C3184B
:103F70000FB6F8940F92F801858D8F3F09F4158ED6
:103F8000F801868D8F3F09F4168E0F900FBEBE018B
:103F90006C5F7F4FCE0101960E94E119811133C001
:103FA0000FB6F8940F92F801928D838D0F900FBE8B
:103FB000981323C06C817D81C5010E94991AC801A4
:103FC0000E94571A0E94CC1D811102C00E94DB1C66
:103FD00081E00FB6F8940F92F801228D938D291786
:103FE00008F0AFCFD28C448D411191CF8081918167
:103FF000892B09F42ECF80E035CFC8010E94571AD3
:104000000E94CC1DE5CFC8010E94571A0E94CC1D0A
:104010009ECF0F931F93CF93DF9300D01F921F92D9
:10402000CDB7DEB7009711F40E94590C0091CA0475
:104030001091CB0401151105C9F019827B836A83A5
:104040009D838C830E94AB1850E040E0BE016F5FFF
:104050007F4FC8010E94FF1E0F900F900F900F908E
:104060000F90DF91CF911F910F91089580E0F4CFD1
:10407000EF92FF920F931F93CF93DF93E091A304EE
:10408000F091A4048081811113C08091A1049091CA
:10409000A2049093A4048093A304F093A204E09359
:1040A000A104DF91CF911F910F91FF90EF900895A0
:1040B0000580F681E02D00811181C681D7817E01C6
:1040C00082E0E80EF11CC7010E94F418E889F98922
:1040D000CE0119958A8982FFD1CF8C859D85800F6D
:1040E000911F0817190760F49B838A83D987C887B3
:1040F000B7018091A3049091A4040E941819BECF27
:10410000B801CE010E9409208111B8CF0E94590C3C
:10411000CF93DF93009751F0EC010E94C318CE01BA
:104120000E94FD26DF91CF910C94CC1DDF91CF91A1
:104130000895CF93DF93EC0180918E0481110E944A
:10414000590C0E94C31860E0CE010E9478190E94A9
:10415000CC1D811102C00E94DB1CDF91CF9108951C
:104160000F931F93CF93DF93EC010FB6F8940F9248
:10417000892B21F4C0914C04D0914D048E010E5F27
:104180001F4FC8010E94F4188C899D89892B21F04A
:10419000CE010C960E94F41880916A048F5F809380
:1041A0006A0480914C0490914D048C179D07E9F4AA
:1041B000B80181E694E00E94D418809160048F5F7A
:1041C000809360040F900FBE80918F048823F1F0DC
:1041D00080914C0490914D048C179D07B9F4809107
:1041E0008E04882389F00E94590C809183048150A9
:1041F000809383048F89988D0E948820CE010E942D
:1042000088200E94B008DECF0E94DB1CDF91CF9196
:104210001F910F910895AF92BF92CF92DF92FF92BC
:104220000F931F93CF93DF9300D01F921F92CDB7B0
:10423000DEB78C016B015D834C83892B11F40E94E6
:10424000590C0E94AB18811104C08C819D81892B6F
:10425000B1F780E0580191E1A90EB11C44C02C8156
:104260003D81232B21F40F900FBE80E06DC08111A2
:1042700009C08091CE0489838091CC049091CD04B3
:104280009B838A830F900FBE0E94C3180FB6F894C9
:104290000F92F801858D8F3F09F4158EF801868DF8
:1042A0008F3F09F4168E0F900FBEBE016C5F7F4FDB
:1042B000CE0101960E94E11981115BC0C8010E94E4
:1042C000C918882309F44FC06C817D81C5010E9403
:1042D000991AC8010E94571A0E94CC1D811102C070
:1042E0000E94DB1C81E00FB6F8940F92F801F28C6B
:1042F000FF2009F4B4CF448D4423B1F050E086810F
:104300009781840F951F9783868324813581821737
:10431000930720F08081918197838683F8016681DD
:104320007781C6010E94F72BFA94F801F28E8085FE
:10433000882339F0C80108960E94141A81110E943E
:10434000DB1C0F900FBE81E00F900F900F900F902D
:104350000F90DF91CF911F910F91FF90DF90CF9041
:10436000BF90AF900895C8010E94571A0E94CC1DBB
:10437000B9CFC8010E94571A0E94CC1DC8010E94E3
:10438000C918882309F4AECF70CFCF93DF93EC0127
:104390000E94C318CE010E946126EC010E94CC1D30
:1043A000209771F40E943E072FEF80E792E02150A2
:1043B00080409040E1F700C000000E943C07F4CF2D
:1043C000CE01DF91CF9108950F931F93CF93DF9389
:1043D000082F162F869FC00111244F960E94C521D9
:1043E000EC01009779F1111133C0998388830B8F09
:1043F0001C8F0FB6F8940F92888199812B8D4C8D6C
:10440000BC01249F600D711D11247D836C831A8E65
:104410009B838A832150330B429FB001439F700DD1
:104420001124860F971F9F838E838FEF8D8F8E8F22
:10443000CE0108960E94D319CE0141960E94D3194D
:104440000F900FBECE01DF91CF911F910F91089574
:104450004F9699838883CBCF5F926F927F928F9292
:104460009F92AF92BF92CF92DF92EF92FF920F9303
:104470001F93CF93DF93782E892E562E672E6A01D5
:10448000922E132FCA010E94C5215C01892B09F4C9
:10449000D9C088E290E00E94C521EC01892B09F483
:1044A000CEC0B88EAF8AA60165EA70E0C5010E9451
:1044B000002C21E0C21AD108EF89F88DEC0DFD1D0A
:1044C000652D762DCE0149969B01285F3F4FDB017C
:1044D0004D91BD01DC014D93CD01AB01415051091E
:1044E000DA014C91442319F06217730781F718A27F
:1044F000043008F003E00E8B09A31AA21B861A866B
:104500001D8A1C8AD987C88784E090E0801B9109A6
:104510009D878C87DB8BCA8B1BA21CA21DA21EA2AF
:104520001FA27082DF0111978C9211971C92119734
:104530001C92119780E88C9311971C9211971C92F2
:1045400011971C9257979C9211971C93B697F983D9
:10455000E883E114F10419F0F701D183C0830FB6A9
:10456000F8940F92809183048F5F809383048091ED
:104570004C0490914D04892B09F075C0D0934D04E3
:10458000C0934C0480918304813081F58FEC94E0DA
:104590000E94D31988ED94E00E94D31981EE94E033
:1045A0000E94D3198AEE94E00E94D31987E594E023
:1045B0000E94D3198EE494E00E94D31985E894E018
:1045C0000E94D31981E694E00E94D31980E994E017
:1045D0000E94D31987E594E090939C0480939B04F8
:1045E0008EE494E090939E0480939D0480916A04ED
:1045F0008F5F80936A048E899091F304981710F46A
:104600008093F304F9E08F9FC0011124BE016E5F17
:104610007F4F81539B4F0E94D4180F900FBE809103
:104620008F04882351F0E0914C04F0914D04968959
:104630008E89981710F40E94DB1C81E004C0C5012C
:104640000E9488208FEFDF91CF911F910F91FF90F3
:10465000EF90DF90CF90BF90AF909F908F907F9022
:104660006F905F90089580918F048111BFCFE0918A
:104670004C04F0914D0496898E89891708F4B6CFC1
:10468000D0934D04C0934C04B1CFEF92FF920F939F
:104690009FE7E92E94E0F92E00E030E020E040ECC6
:1046A00050E065E273E08EE991E00E942C228130B7
:1046B00009F08EC00FB6F8940F928091CA049091C1
:1046C000CB04892BE1F484E794E00E94D3198BE6B4
:1046D00094E00E94D31984E794E09093A40480931B
:1046E000A3048BE694E09093A2048093A10465E078
:1046F0008AE00E94E4219093CB048093CA040F9037
:104700000FBE8091CA049091CB04892B89F08DE76C
:10471000E82E84E0F82E03E030E020E045E550E0AC
:104720006AE273E08CEC91E00E942C22811102C0BD
:104730000E94590C813009F04BC0F8942FEF3FEFE5
:1047400030939A042093990480938F041092CD049F
:104750001092CC04A89588E190EC0FB6F894A89537
:10476000809360000FBE90936000A0914C04B091C4
:104770004D04CD91CDBFDD91DEBFFF91EF91DF9173
:10478000CF91BF91AF919F918F917F916F915F91E9
:104790004F913F912F911F910F91FF90EF90DF90DC
:1047A000CF90BF90AF909F908F907F906F905F90D1
:1047B0004F903F902F901F900F900CBE0F900BBE0C
:1047C0000F900FBE0F9008950F91FF90EF900895F6
:1047D0008F3FD1F7ADCF0E94AE1A1895DF92EF92BE
:1047E000FF920F931F93CF93DF931092F7041092D1
:1047F000F60488EE93E0A0E0B0E08093F804909394
:10480000F904A093FA04B093FB048EE492E0909331
:10481000F5048093F40485EC90E090930105809377
:10482000000584EC90E0909303058093020580ECF2
:1048300090E0909305058093040581EC90E09093BF
:1048400007058093060582EC90E09093090580931C
:10485000080586EC90E090930B0580930A05109272
:104860000D0510920E0510920F0510921005109272
:104870009A0584E480939B0585E480939C051092BF
:10488000970582E48093980583E4809399051092BC
:10489000940580E48093950581E4809396051092B9
:1048A00091058EE3809392058FE380939305109298
:1048B000570610925B0610925A0610925C068CE620
:1048C00092E09093560680935506E1E7F6E08DEA74
:1048D00096E0108214821382158236968E179F07F7
:1048E000C1F784E192E09093B8068093B70680E127
:1048F00092E09093BA068093B90684E0E82EE092A5
:10490000BB06E092BC0688E192E09093B6068093E5
:10491000B5068AE090E09093BE068093BD0684EFD2
:1049200091E09093C0068093BF061092C306109248
:10493000C2061092B1061092B2061092B3061092FF
:10494000B4061092C1061092400610923F0680E60F
:1049500092E090933E0680933D068DE08093410661
:104960008FEF809342061CE0109343068BE0809308
:1049700044069AE0F92EF092450609E000934606B7
:10498000D8E0D0934706109248061092490610923C
:104990004A0610924B0610924C0681E00E94810953
:1049A0001092C005C1E0C093C1056FE872E082ECCF
:1049B00095E00E94100CD093C805C093C9056FE81C
:1049C00072E08AEC95E00E94100C1092D0051092D3
:1049D000D1051092D20525E0D22ED092D3051092A7
:1049E000D4051092D505F092D6051092D7051092F5
:1049F000D8051092D905C093DA056DEF72E08BED02
:104A000095E00E94100CD093E105C093E20567E4A5
:104A100074E083EE95E00E94100C0093E905C093CA
:104A2000EA051092EB051093EC05C093ED0510928A
:104A3000EE053FE0F32EF092EF05C093F0051092E3
:104A4000F1051092F205C093F30568E073E084EF7E
:104A500095E00E94100CD093FA05C093FB0569E421
:104A600074E08CEF95E00E94100C00930206C09356
:104A700003061092040610930506C09306061092D2
:104A80000706F0920806C093090610920A061092D3
:104A90000B06C0930C0663E173E08DE096E00E9484
:104AA000100CD0931306C093140667E474E085E1FC
:104AB00096E00E94100C00931B06C0931C061092F7
:104AC0001D0610931E06C0931F0610922006F0923A
:104AD0002106C09322061092230610922406C0934A
:104AE00025066EE173E086E296E00E94100CD093FA
:104AF0002C06C0932D0667E474E08EE296E00E94D7
:104B0000100C00933406C0933506109236061093AD
:104B10003706C093380610923906F0923A06C093D1
:104B20003B0610923C06E092BD05D092BE0582E0A5
:104B30008093BF058DEB95E09093BC058093BB05FA
:104B400085EB95E00E9455038DE995E00E945503A1
:104B500083EA95E00E94550389EA95E00E94550397
:104B60008FEA95E0DF91CF911F910F91FF90EF9029
:104B7000DF900C945503789484B5826084BD84B52D
:104B8000816084BD85B5826085BD85B5816085BD48
:104B900080916E00816080936E0010928100809100
:104BA0008100826080938100809181008160809388
:104BB0008100809180008160809380008091B100AD
:104BC00084608093B1008091B00081608093B000D8
:104BD000809191008260809391008091910081602A
:104BE00080939100809190008160809390008091EB
:104BF000A10082608093A1008091A10081608093D8
:104C0000A1008091A00081608093A000809121018B
:104C10008260809321018091210181608093210134
:104C20008091200181608093200180917A008460CE
:104C300080937A0080917A00826080937A008091DC
:104C40007A00816080937A0080917A0080688093F6
:104C50007A001092C10020912C0230912D028FEF2A
:104C600091E2821B930B90932902809328020E9469
:104C700028140E9445230E9428140E947C04FDCF22
:104C80000F931F93CF93DF93CDE3D6E06997F1F3B2
:104C90008E01005F1F4FC017D10751F00850110956
:104CA000F801828193810097B1F30E94FD26F3CF32
:104CB000F5E0C03CDF0751F7DF91CF911F910F91D5
:104CC00008950F931F93CF93DF938230910510F4D3
:104CD00082E090E0E091CE06F091CF0630E020E057
:104CE000B0E0A0E0309799F42115310509F44AC0ED
:104CF000281B390B24303105D8F58A819B81611539
:104D0000710589F1FB0193838283FE0111C040810B
:104D100051810281138148175907E0F0481759075C
:104D200099F4109761F012960C93129713961C93B6
:104D30003296CF01DF91CF911F910F91089500938B
:104D4000CE061093CF06F4CF2115310551F042174E
:104D5000530738F0A901DB019A01BD01DF01F80119
:104D6000C1CFEF01F9CF9093CF068093CE06CDCF80
:104D7000FE01E20FF31F8193919322503109398391
:104D80002883D7CF2091CC063091CD06232B41F438
:104D900020912A0230912B023093CD062093CC062D
:104DA00020912802309129022115310541F42DB7B7
:104DB0003EB740912C0250912D02241B350BE091FF
:104DC000CC06F091CD06E217F307A0F42E1B3F0BA3
:104DD0002817390778F0AC014E5F5F4F241735076D
:104DE00048F04E0F5F1F5093CD064093CC06819341
:104DF00091939FCFF0E0E0E09CCFCF93DF930097BB
:104E0000E9F0FC01329713821282A091CE06B09194
:104E1000CF06ED0130E020E01097A1F42081318130
:104E2000820F931F2091CC063091CD0628173907A9
:104E300009F061C0F093CD06E093CC06DF91CF91ED
:104E40000895EA01CE17DF07E8F54A815B819E01EC
:104E500041155105B1F7E901FB83EA834991599165
:104E6000C40FD51FEC17FD0761F480819181029674
:104E7000840F951FE90199838883828193819B83A5
:104E80008A83F0E0E0E012968D919C911397009751
:104E9000B9F52D913C911197CD010296820F931F88
:104EA0002091CC063091CD062817390739F6309776
:104EB00051F51092CF061092CE06B093CD06A09376
:104EC000CC06BCCFD383C28340815181840F951F10
:104ED000C817D90761F44E5F5F4F88819981480FE9
:104EE000591F518340838A819B819383828321153B
:104EF000310509F0B0CFF093CF06E093CE069ECFF8
:104F0000FD01DC01C0CF13821282D7CF0F931F9314
:104F1000CF93DF93CDB7DEB72E970FB6F894DEBFF1
:104F20000FBECDBF0E891F89888D998D2EE02C83F1
:104F30001A83098397FF02C080E090E801979E835F
:104F40008D83AE01445E5F4F6A8D7B8DCE010196ED
:104F50000E94C3274D815E8157FD0AC02F8138858D
:104F6000421753070CF49A01020F131FF801108225
:104F70002E960FB6F894DEBF0FBECDBFDF91CF9156
:104F80001F910F9108952F923F924F925F926F92CF
:104F90007F928F929F92AF92BF92CF92DF92EF92C9
:104FA000FF920F931F93CF93DF9300D000D000D0D8
:104FB0001F921F92CDB7DEB77C013B018A01FC0135
:104FC00017821682838181FFDDC1CE0101965C01CB
:104FD000F7019381F30193FD859193FF81913F0147
:104FE000882309F453C1853239F493FD859193FFE9
:104FF00081913F01853229F4B70190E00E94DB29BD
:10500000E7CF912C212C312CFFE1F31538F08B32B6
:1050100011F190F4803209F1833229F137FC3CC060
:1050200020ED280F2A3050F536FE20C08AE0989EE9
:10503000200D1124922E06C08D3291F0803371F72D
:10504000689430F8F30193FD859193FF81913F01BE
:105050008111DACF21C0689431F8689432F8F2CF28
:10506000689433F8EFCF689434F8ECCFEAE02E9EE2
:10507000200D1124222E689435F8E4CF8E3229F4C5
:1050800036FC04C1689436F8DDCF8C3619F4689488
:1050900037F8D8CF8836B1F2982F9F7D955493304A
:1050A000E0F08336A1F18337C1F1833509F063C0A5
:1050B0002801F2E04F0E511CF801C080D180692D0B
:1050C00070E036FC02C06FEF7FEFC6010E94C52979
:1050D0004C01689437F882010AC00C5F1F4FFFE350
:1050E000F98388248394912C6501E89437F833FE82
:1050F0002DC0522C8114910471F5552009F468CF0C
:10510000B70180E290E00E94DB295A94F6CFF801C3
:10511000808189830E5F1F4FE4CF2801F2E04F0E9C
:10512000511CF801C080D180692D70E036FC02C0AE
:105130006FEF7FEFC6010E94D0294C018201D5CFCD
:10514000B70180E290E00E94DB292A942814190418
:1051500009F0B0F7CECFF60137FC859137FE81918B
:105160006F01B70190E00E94DB2951105A94F1E0E1
:105170008F1A9108BFCF843619F0893609F077C0AD
:10518000F80137FE6BC060817181828193810C5F71
:105190001F4FF32DFF763F2E97FF09C09095809506
:1051A000709561957F4F8F4F9F4F689437F82AE035
:1051B00030E0A5010E940B2AC82ECA188C2C432C63
:1051C00036FE0CC0E89440F8C91440F434FE05C023
:1051D00032FC03C0F32DFE7E4F2E892C44FEAAC064
:1051E000FE01EC0DF11D8081803309F09CC0242D5F
:1051F000297E422E842D8870582E43FCAAC040FE82
:10520000A4C09C2C821418F42C0C922C981844FEE8
:10521000A6C0B70180E390E00E94DB2942FE09C0EE
:1052200088E790E041FE02C088E590E0B7010E9467
:10523000DB29C91408F49FC0CA94D12C9FEFC91A66
:10524000D90ACA0CDB1CF60182916F01B70190E00C
:105250000E94DB29AC14BD04B1F74FCF608171818E
:10526000072E000C880B990B0E5F1F4F92CFD32C8B
:10527000E894D4F82AE030E08537E1F1232D297F46
:10528000D22E8F36A9F1F0F4883551F1F7018681DD
:1052900097812B960FB6F894DEBF0FBECDBFDF917E
:1052A000CF911F910F91FF90EF90DF90CF90BF9023
:1052B000AF909F908F907F906F905F904F903F90B6
:1052C0002F900895803749F0883701F7D4FE02C047
:1052D0006894D2F820E130E00DC06894D4F8F6CF9D
:1052E00034FE03C0822F8660D82E20E132E002C057
:1052F00028E030E0F801D7FE0FC060817181828123
:1053000093810C5F1F4FA5010E940B2AC82ECA185B
:105310003D2CE89437F852CF6081718190E080E0B5
:105320000E5F1F4FF0CF42FC02C0839463CF839483
:10533000839460CF842D867809F45CCFF6CFB701D3
:1053400080E290E00E94DB2983948214C0F3512C08
:105350005ECF522C5818821408F459CFF8CF842D00
:10536000867809F466CF8BE241FE80E247FC8DE24D
:10537000B70190E05CCFB70180E390E00E94DB29A9
:105380009A9457CF8FEF9FEF84CFFC010590615027
:1053900070400110D8F7809590958E0F9F1F08954B
:1053A000FC016150704001900110D8F780959095F4
:1053B0008E0F9F1F08950F931F93CF93DF93182F86
:1053C000092FEB018B8181FD09C01FEF0FEF812FAA
:1053D000902FDF91CF911F910F91089582FF14C0FC
:1053E0002E813F818C819D81281739073CF4E8810B
:1053F000F981CF0101969983888310838E819F81E3
:1054000001969F838E83E3CFE885F985812F1995D7
:10541000892BA1F3DACFFA01AA27283051F12031E4
:1054200081F1E8946F936E7F6E5F7F4F8F4F9F4F38
:10543000AF4FB1E03ED0B4E03CD0670F781F891F7A
:105440009A1FA11D680F791F8A1F911DA11D6A0F48
:10545000711D811D911DA11D20D009F468943F91FB
:105460002AE0269F11243019305D3193DEF6CF01FA
:105470000895462F4770405D4193B3E00FD0C9F7C0
:10548000F6CF462F4F70405D4A3318F0495D31FD2D
:105490004052419302D0A9F7EACFB4E0A695979580
:1054A000879577956795BA95C9F700976105710556
:1054B00008959B01AC010A2E0694579547953795A0
:1054C0002795BA95C9F7620F731F841F951FA01DFA
:1054D0000895F999FECF92BD81BDF89A992780B5BC
:1054E0000895262FF999FECF1FBA92BD81BD20BD28
:1054F0000FB6F894FA9AF99A0FBE019608950E9491
:105500008A2AA59F900DB49F900DA49F800D911D98
:1055100011240895A29FB001B39FC001A39F700DF5
:10552000811D1124911DB29F700D811D1124911DAB
:105530000895991B79E004C0991F961708F0961BEF
:10554000881F7A95C9F780950895AA1BBB1B51E166
:1055500007C0AA1FBB1FA617B70710F0A61BB70BE3
:10556000881F991F5A95A9F780959095BC01CD0188
:10557000089597FB072E16F4009407D077FD09D005
:105580000E94A52A07FC05D03EF4909581959F4F77
:105590000895709561957F4F0895A1E21A2EAA1B78
:1055A000BB1BFD010DC0AA1FBB1FEE1FFF1FA217D3
:1055B000B307E407F50720F0A21BB30BE40BF50BD0
:1055C000661F771F881F991F1A9469F76095709559
:1055D000809590959B01AC01BD01CF010895052EEA
:1055E00097FB1EF400940E94062B57FD07D00E94E3
:1055F000CD2A07FC03D04EF40C94062B5095409511
:10560000309521953F4F4F4F5F4F0895909580956E
:10561000709561957F4F8F4F9F4F0895EE0FFF1F3D
:10562000881F8BBF0790F691E02D19944F925F92DF
:105630006F927F928F929F92AF92BF92CF92DF92A2
:10564000EF92FF920F931F93CF93DF938C010097FC
:1056500099F4CB01DF91CF911F910F91FF90EF90C3
:10566000DF90CF90BF90AF909F908F907F906F9082
:105670005F904F900C946126FC01E60FF71F9C0190
:1056800022503109E217F30708F4AEC0D901CD91D9
:10569000DC911197C617D70720F1C530D10578F0F6
:1056A000CE0104978617970750F0C61BD70B229799
:1056B000C193D1936D937C93CF010E94FD26C801C5
:1056C000DF91CF911F910F91FF90EF90DF90CF90DE
:1056D000BF90AF909F908F907F906F905F904F9012
:1056E00008955B01AC1ABD0A4C018C0E9D1EA09161
:1056F000CE06B091CF06512C412CF12CE12C109705
:1057000031F58091CC069091CD068815990509F068
:105710005CC04616570608F058C080912802909148
:105720002902009741F48DB79EB740912C02509109
:105730002D02841B950BE817F90708F055C0F0936C
:10574000CD06E093CC06F90171836083B8CF8D91CB
:105750009C91119712966C90129713967C901397C8
:10576000A815B90559F56C0142E0C40ED11CCA1444
:10577000DB0420F1AC014A195B09DA011296159796
:1057800080F06282738251834083D9016D937C9350
:10579000E114F10471F0D7011396FC93EE93129784
:1057A0008ECF22968C0F9D1FF90191838083F30188
:1057B000EFCFF093CF06E093CE0681CF481659067F
:1057C00008F42C017D01D3019ACFCB010E94612600
:1057D0007C01009749F0AE01B8010E94F72BC80187
:1057E0000E94FD2687016BCF10E000E068CFFB012F
:1057F000DC0102C001900D9241505040D8F708954D
:10580000DC0101C06D9341505040E0F70895FB0169
:10581000DC0101900D920020E1F7089512E0CEEF37
:10582000D2E000E006C0802FFE010E940E2B2196E0
:10583000011DCF3FD10780E00807A9F7F894FFCFFB
:105840003406340634063406340634063406340688
:10585000393837363D3C3B3A3031323334353637E0
:1058600038394142434445460000D00680004E0886
:105870001D08EC07BB07323334352E2F30312A2B6D
:105880002C2D2627282912131415000000000F04C0
:105890007903A6035C04D703B503C9030000000025
:1058A000220A79032E072D0700000000380734076D
:1058B00031070D0A00416C61726D5F696E64657835
:1058C0003A2020202000202050494E3A202020203D
:1058D000002020416C61726D20486F75723A202063
:1058E0002020002020416C61726D204D696E75741E
:1058F000653A202020200050696C6C5F6C656674EE
:105900003A20202020004552524F52210045525249
:105910004F5220434F44453A203030330020204638
:105920005F6B65795F6E756D3A00706167653A000F
:105930002020696E6465783A005461736B416C6134
:10594000726D31005461736B416C61726D32005441
:1059500061736B416C61726D33005461736B416CA8
:1059600061726D340049444C4500546D7220537689
:105970006300636F6D70696C65643A2000536570F5
:1059800020323120323032300031343A30333A3044
:105990003200525443207761732077726974652016
:1059A00070726F7465637465642C20656E61626CDF
:1059B000696E672077726974696E67206E6F770011
:1059C000525443206973206F6C646572207468615F
:1059D0006E20636F6D70696C652074696D65212040
:1059E00020285570646174696E6720446174655441
:1059F000696D652900525443206973206E6577658F
:105A000072207468616E20636F6D70696C652074BC
:105A1000696D652E20287468697320697320657824
:105A2000706563746564290052544320697320745F
:105A300068652073616D6520617320636F6D7069A7
:105A40006C652074696D652120286E6F74206578FF
:105A50007065637465642062757420616C6C206984
:105A6000732066696E6529004B6579626F617264A7
:105A700052656164004D61696E4C6F6769630044F3
:0C5A80006973706C617900420044000002
:10E000000D9489F10D94B2F10D94B2F10D94B2F129
:10E010000D94B2F10D94B2F10D94B2F10D94B2F1F0
:10E020000D94B2F10D94B2F10D94B2F10D94B2F1E0
:10E030000D94B2F10D94B2F10D94B2F10D94B2F1D0
:10E040000D94B2F10D94B2F10D94B2F10D94B2F1C0
