:100000000C94FF020C94D4160C94A9160C947E1632
:100010000C9453160C9428160C94FD150C94D215C0
:100020000C94A7150C9430030C9430030C943003FB
:100030000C943F220C9430030C9430030C94300346
:100040000C9430030C9430030C9430030C94300364
:100050000C9430030C9430030C9430030C945D1515
:100060000C9430030C9427150C94FD140C9430035D
:100070000C9430030C9430030C9430030C94300334
:100080000C9430030C9430030C9430030C94300324
:100090000C9430030C9430030C9430030C94300314
:1000A0000C9430030C9430030C9430030C94300304
:1000B0000C9430030C9430030C9430030C943003F4
:1000C0000C9430030C9430030C9430030C943003E4
:1000D0000C9430030C9430030C9430030C943003D4
:1000E0000C9430030C94E8060C9426070C940B0532
:1000F0000C942D070C94D7030C94E6040C940C0577
:100100000C94C9030C94CC090C946D070C94A603B1
:100110000C94A60E0C9401130C9408070C94F8048C
:100120000C94B1130C94B9020C940F040C94D904E0
:100130000C9406050C9400070C9471120C941B127D
:100140000C94FE040C942E070C94EA040C94CF0734
:100150000C9412070C94F2020C94130B0C94D60618
:100160000C9442220C9410050C9434060C94000854
:100170000C94D5040C9420070C94F0040C94E00427
:100180000C9494240C94B6120C9498130C94B5030C
:100190000C9431070C94F4040C9402070C94CB04D7
:1001A0000C9439130C94DD040C9438070C94340728
:1001B0000C9402050C9401100C94CC010C949E013B
:1001C0000C94D1040C945C040C947F130C9479036C
:1001D0000C94DF020C94BE060C9460130C949E07E2
:1001E0000C94C8060C94F802253032753A2530324A
:1001F00075202530327500253032752F2530327547
:1002000020253032753A253032753A253032750066
:1002100000002100240027002A002D0030003300B8
:1002200001010000040107010A010000220025006D
:1002300028002B002E0031003400020100000501CF
:1002400008010B01000020002300260029002C00DB
:100250002F0032000001000003010601090105051D
:100260000505070508080808020202020A0A08082C
:10027000040404040101010101010101030303035A
:1002800003030303040707070C0C0C0C0C0C0C0CE9
:100290000202020206060606060606060B0B0B0BFA
:1002A0000B0B0B0B0102102020080810204010201F
:1002B000408002010201080402010102040810202A
:1002C0004080804020100804020180040201804028
:1002D0002010080402010804020101020408102091
:1002E0004080010204081020408000000A0B02092F
:1002F0000C0D0E08070304010000000000000000C0
:1003000000000000000000000000000000000000ED
:1003100000000000000012111000000000000000AA
:1003200000000000000000000000000000000000CD
:100330001F1C1F1E1F1E1F1F1E1F1E1F80918A03B2
:10034000811109C08091F903823010F00E942F1BA7
:100350000E947C04F3CF0FB6F8940F92E0919003C3
:10036000F0919103C681D781CE0102960E94481771
:100370008091AD0381508093AD0380918A038150B9
:1003800080938A030F900FBE8F89988D0E94DC1E88
:10039000CE010E94DC1ED2CFCF93DF9300D01F92FC
:1003A0001F92CDB7DEB7E091CD03F091CE03F08080
:1003B00010E000E0FF2029F00580F681E02D0081AB
:1003C00011810E9417170E940D176C018091C903BB
:1003D0009091CA03C816D90608F04DC00E948C1E21
:1003E000D092CA03C092C9030E94201C50E040E092
:1003F000BE016F5F7F4F8091F4039091F5030E94DF
:100400005F1F882381F2898187FDF0CF0C811D81D8
:10041000D8011A968D919C91892B21F0C8010296E2
:100420000E9448170E940D177C018091C90390918A
:10043000CA03E816F90610F40E948C1EF092CA0353
:10044000E092C903E981EA3088F60E2E000CFF0B1A
:10045000D80152969C918827EF5CFD4F8F4F0C94EA
:100460004229B902B902B902F802DF02F202B90266
:10047000B902F802DF02D092CA03C092C903FF207A
:10048000B1F1C016D106D8F10E94201CE091CD0335
:10049000F091CE030580F681E02DE680F780C7015C
:1004A00002960E944817D70152968C91529782FF6C
:1004B00014C01C966D917C91600F711F9801A6016C
:1004C000C7010E94A217882359F0B801C7010E94F2
:1004D0005D1E811105C00E94E30A8E7FF701828BA9
:1004E000D7015096ED91FC91C70119957FCFE0910E
:1004F000CB03F091CC038081BB24B3948111B12C48
:10050000E090F403F090F5030FB6F8940F92F70122
:10051000858D8F3F09F4158ED7015E968C915E977D
:100520008F3F11F45E961C920F900FBEF701828DE3
:10053000811115C0C701419671F2609176037091E7
:100540007703645F7F4F0E942817C8018C199D09AB
:10055000BB2011F08FEF9FEF6B2D0E94CC17C701CE
:100560000E94AB180E94201C811140CF0E942F1BBB
:100570003DCF9160F801928B2A813B81648575851E
:10058000620F731FA701C8010E94A217882309F4F4
:100590002DCFD8015096ED91FC91C8011995F80125
:1005A000828982FF23CF6A817B8184859585680F4C
:1005B000791FC8010E945D1E811118CF8CCF9160F8
:1005C000F801928B6A817B8175876487611571055B
:1005D00009F481CF6E0D7F1D9701A701C8010E940C
:1005E000A21704CF91FD04C0C8010E94DC1EFECEFC
:1005F0009E7FD80152969C93F9CE422294241124D6
:100600001FBECFEFD1E2DEBFCDBF00E00CBF13E0D5
:10061000A0E0B2E0E0EDF4E500E00BBF02C007901F
:100620000D92A637B107D9F725E0A6E7B3E001C0E0
:100630001D92AA3FB207E1F712E0CEEFD2E000E050
:1006400006C021970109802FFE010E944229CD3F5B
:10065000D10780E00807A9F70E940F240C94562ABE
:100660000C94000096E0899FD0011124A158BA4F44
:1006700090967C936E935F9791E091969C9391975F
:10068000E091EC05F091ED059091EB05992339F09F
:10069000309751F0811108C080919B0519943097D3
:1006A00019F05C968C91FACF0895DC0115961C9296
:1006B000159714961C92149713961C9213971C92DC
:1006C00081E011968C93119711968C911197282F98
:1006D0002150330BF901E05DFC4FE491823009F4C5
:1006E000EF5FE11102C08F5FECCF81E012968C9337
:1006F0000895AF92BF92CF92DF92EF92FF920F9345
:100700001F93CF93DF936C017B018B01040F151FA7
:10071000EB015E01AE18BF08C017D10759F069910F
:10072000D601ED91FC910190F081E02DC601199563
:10073000892B79F7C501DF91CF911F910F91FF9020
:10074000EF90DF90CF90BF90AF900895FC01538D54
:10075000448D252F30E0842F90E0821B930B54179B
:1007600010F0CF96089501970895FC01918D828D28
:10077000981761F0A28DAE0FBF2FB11D5D968C91C1
:10078000928D9F5F9F73928F90E008958FEF9FEF00
:100790000895FC01918D828D981731F0828DE80FBC
:1007A000F11D858D90E008958FEF9FEF0895FC0176
:1007B000918D228D892F90E0805C9F4F821B910943
:1007C0008F73992708958EE194E00E94D70321E06A
:1007D000892B09F420E0822F0895FC01A48DA80F35
:1007E000B92FB11DA35ABF4F2C91848D90E0019673
:1007F0008F739927848FA689B7892C93A089B18993
:100800008C91837080648C93938D848D981306C033
:100810000288F389E02D80818F7D80830895EF9297
:10082000FF920F931F93CF93DF93EC0181E0888FAA
:100830009B8D8C8D98131AC0E889F989808185FF7A
:1008400015C09FB7F894EE89FF896083E889F9891C
:1008500080818370806480839FBF81E090E0DF911E
:10086000CF911F910F91FF90EF900895F62E0B8D71
:1008700010E00F5F1F4F0F731127E02E8C8D8E112C
:100880000CC00FB607FCFACFE889F989808185FF93
:10089000F5CFCE010E94ED03F1CFEB8DEC0FFD2FD4
:1008A000F11DE35AFF4FF0829FB7F8940B8FEA894E
:1008B000FB8980818062CFCFCF93DF93EC01888D5D
:1008C0008823B9F0AA89BB89E889F9898C9185FDCB
:1008D00003C0808186FD0DC00FB607FCF7CF8C9159
:1008E00085FFF2CF808185FFEDCFCE010E94ED0321
:1008F000E9CFDF91CF91089580E090E0892B29F036
:100900000E94E30381110E94000080E090E0892BA7
:1009100049F080E090E0892B29F00E9400008111CD
:100920000E94000080E090E0892B49F080E090E098
:10093000892B29F00E94000081110E94000080E0B4
:1009400090E0892B49F080E090E0892B29F00E940B
:10095000000081110C94000008958150823108F04C
:100960005AC0E82FF0E08827E754FB4F8F4F0C94D4
:100970004229D904DD04CB04D104D5040B05E004DD
:10098000E604EA04F004F404F804FE0402050B058E
:1009900006050C051005809180008F7780938000FC
:1009A0000895809180008F7DF9CF80918000877FAE
:1009B000F5CF84B58F7784BD089584B58F7DFBCF47
:1009C0008091B0008F778093B00008958091B0003F
:1009D0008F7DF9CF809190008F778093900008955C
:1009E000809190008F7DF9CF80919000877FF5CF27
:1009F0008091A0008F778093A00008958091A0003F
:100A00008F7DF9CF8091A000877FF5CF8091200165
:100A10008F77809320010895809120018F7DF9CFF9
:100A200080912001877FF5CFCF93DF93282F30E08F
:100A3000F901E651FD4F8491F901EC55FD4FD49138
:100A4000F901E25AFD4FC491CC23A1F081110E941B
:100A5000AD04EC2FF0E0EE0FFF1FEC5BFD4FA59116
:100A6000B491EC91ED2381E090E009F480E0DF9116
:100A7000CF91089580E090E0FACF1F93CF93DF935A
:100A8000282F30E0F901E651FD4F8491F901EC5532
:100A9000FD4FD491F901E25AFD4FC491CC23A9F046
:100AA000162F81110E94AD04EC2FF0E0EE0FFF1F16
:100AB000E65DFD4FA591B4918FB7F894EC911111BB
:100AC00008C0D095DE23DC938FBFDF91CF911F91BB
:100AD0000895DE2BF8CFCF93DF9390E0FC01EC5527
:100AE000FD4F2491825A9D4FFC0184918823C9F0C7
:100AF00090E0880F991FFC01E05FFD4FA591B49134
:100B0000FC01E65DFD4FC591D49161110DC09FB709
:100B1000F8948C91209582238C93888128232883B4
:100B20009FBFDF91CF910895623051F49FB7F89441
:100B30003C91822F809583238C93E8812E2BEFCFDD
:100B40008FB7F894EC912E2B2C938FBFEACF3FB741
:100B5000F8948091F0039091F103A091F203B09189
:100B6000F30326B5A89B05C02F3F19F00196A11DE0
:100B7000B11D3FBFBA2FA92F982F8827BC01CD01E7
:100B8000620F711D811D911D42E0660F771F881F46
:100B9000991F4A95D1F708952FB7F8946091EC0307
:100BA0007091ED038091EE039091EF032FBF0895B4
:100BB0000F931F93CF93DF93C82FD62F86E0C89F44
:100BC000F0011124E158FA4F11A2878D90A18130D4
:100BD0009105F1F058F082309105F1F1039709F495
:100BE00040C0DF91CF911F910F9108956623C9F303
:100BF00061E070E08C2F0E9432030E94CC0560936C
:100C0000D7057093D8058093D9059093DA05E9CF7D
:100C10000E94CC050091D7051091D8052091D905E7
:100C20003091DA05AB01BC01401B510B620B730B19
:100C30008091E9059091EA05B0E0A0E0841795075E
:100C4000A607B70748F462E070E08C2FDF91CF91E0
:100C50001F910F910C94320363E070E0D111C1CF6A
:100C6000F4CF70E060E0F1CF08950F931F93CF931E
:100C7000DF93EC018B0188859985029751F46130EF
:100C8000710509F43AC06CF560E00115110509F42D
:100C900035C088859985049751F40130110509F410
:100CA0005DC00CF035C00115110509F446C08885FA
:100CB0009985059709F0CCC00A30110508F0C8C025
:100CC000F8018827E959F94F8F4F0C944229BE0645
:100CD000C806D606E806000702070807120720071D
:100CE00026076230710591F060E00330110589F646
:100CF0008C850E943D0560E005C061E08C850E9406
:100D00003D0561E08E850E943D05C3CF61E0F0CFD7
:100D10000230110549F10330110509F0C8CF60E038
:100D20008C850E943D0560E08E850E943D0560E057
:100D300088890E943D0561E00DC061E08C850E94BC
:100D40003D0560E08E850E943D0560E088890E9437
:100D50003D0560E08A890E943D05A9CF60E08C8551
:100D60000E943D0561E0EECF60E08C850E943D056C
:100D700060E08E850E943D0561E0E8CF60E08C85F3
:100D80000E943D0561E08E850E943D0561E009C03D
:100D900060E08C850E943D0561E08E850E943D05E6
:100DA00060E088890E943D0560E00DC060E08C85B0
:100DB0000E943D0561E08E850E943D0560E08889C6
:100DC0000E943D0561E08A890E943D0561E011C0F5
:100DD00060E08C850E943D0561E08E850E943D05A6
:100DE00060E088890E943D0561E08A890E943D0596
:100DF00060E08C89DF91CF911F910F910C943D059C
:100E000061E0E7CF61E08C850E943D0560E0E5CFC1
:100E100061E08C850E943D0560E08E850E943D0565
:100E200061E0DFCF61E08C850E943D0560E08E854A
:100E30000E943D0561E088890E943D0560E0D5CFB4
:100E400061E08C850E943D0560E09DCF60E0F9CFB8
:100E5000DF91CF911F910F910895089590E080E068
:100E60000895862F0C941405862F642F0C943D054D
:100E7000862F642F0C946B051F9A0895279A2F9A3A
:100E80000895DC0150E0E0E3F3E081E0861730F400
:100E90009491490F511D8F5F3196F8CF633038F030
:100EA000CD0183709927892B11F44F5F5F4F9D010E
:100EB0002D5F3F4F36952795369527956DE671E066
:100EC000A69FC001A79F900DB69F900D112401977A
:100ED000820F931F840F951F08950F931F930E94F5
:100EE000CC050091E7031091E8032091E9033091CC
:100EF000EA03601B710B820B930B6536710581054C
:100F00009105B0F085E10E941405019789F40E94D3
:100F1000CC056093E7037093E8038093E903909313
:100F2000EA038091DA0387FD06C081508093DA03DB
:100F30001F910F9108951092DA03FACF0F931F9328
:100F40000E94CC050091E3031091E4032091E50396
:100F50003091E603601B710B820B930B65367105B4
:100F600081059105B0F084E10E941405019789F490
:100F70000E94CC056093E3037093E4038093E50340
:100F80009093E6038091D90387FD06C0815080933A
:100F9000D9031F910F9108951092D903FACF0F939F
:100FA0001F930E94CC050091DF031091E003209174
:100FB000E1033091E203601B710B820B930B6536EA
:100FC000710581059105B0F083E10E941405019738
:100FD00089F40E94CC056093DF037093E003809353
:100FE000E1039093E2038091D80387FD06C081500E
:100FF0008093D8031F910F9108951092D803FACFD0
:101000000F931F930E94CC050091DB031091DC032A
:101010002091DD033091DE03601B710B820B930B7B
:101020006536710581059105B0F082E10E941405D5
:10103000019789F40E94CC056093DB037093DC0375
:101040008093DD039093DE038091D70387FD06C074
:1010500081508093D7031F910F9108951092D70369
:10106000FACFCF93DF93EC018A819881992339F0ED
:1010700061E00E943D051882DF91CF91089560E004
:101080000E943D0581E08883F7CFCF93DF93EC0189
:1010900061E089810E946B0561E089810E943D05C4
:1010A00061E08A810E946B0561E08A81DF91CF91C6
:1010B0000C943D05E091C503F091C6038081811138
:1010C00007C08FEF9FEF9093C4038093C3030895ED
:1010D000E091C503F091C6030580F681E02D0680FE
:1010E000F781E02D82819381EECFCF93DF93EC01E6
:1010F00060E08E810E943D0561E08E810E943D0589
:1011000060E08E810E943D058BE891E00197F1F748
:10111000DF91CF910895CF92DF92EF92FF920F93DC
:101120001F93CF93DF936C017C0187E0E80EF11CE5
:10113000D0E0C0E0062F10E0B8010C2E02C075957B
:1011400067950A94E2F76170F70181917F010E942F
:101150003D052196C430D10579F7C601DF91CF91C5
:101160001F910F91FF90EF90DF90CF900C94750836
:10117000CF92DF92EF92FF920F931F93CF93DF9363
:10118000EC01F62E642F8C810E943D058D818F3FEE
:1011900019F060E00E943D050F2D10E08F8584FF5F
:1011A00025C06E0187E0C80ED11CF12CE12CB801DE
:1011B0000E2C02C0759567950A94E2F76170F601EE
:1011C00081916F010E943D05FFEFEF1AFF0A88E051
:1011D000E816F10461F7CE01DF91CF911F910F91D5
:1011E000FF90EF90DF90CF900C947508B80184E0E9
:1011F000759567958A95E1F7CE010E948B086F2D52
:10120000CE01DF91CF911F910F91FF90EF90DF9072
:10121000CF900C948B0840E0682F87E695E00C9403
:10122000B80881E00E940B098BE39FE10197F1F779
:101230000895CF93DF93823029F4909176059860DA
:101240009093760580937A0510927B0580E48093D5
:101250007C0580E180937D0580E580937E0561E0DB
:1012600080916B050E946B0580916C058F3F19F092
:1012700061E00E946B0561E080916D050E946B0545
:10128000C7E6D5E09E01275635408091760584FD5E
:101290000BC084E090E021962817390744F461E000
:1012A0008E810E946B05EECF88E090E0F4CF8BE357
:1012B0009DE00197F1F760E080916B050E943D058C
:1012C00060E080916D050E943D0580916C058F3F27
:1012D00019F060E00E943D058091760584FD34C0E0
:1012E00063E087E695E00E948B08CBE4D6E4CE016C
:1012F0000197F1F763E087E695E00E948B0821975C
:10130000F1F763E087E695E00E948B0883E592E0C1
:101310000197F1F762E087E695E00E948B088091E3
:10132000760580620E940B0984E0809377058CE04B
:101330000E940B090E94110982E08093780586E0E3
:10134000DF91CF910C940B0980620E940B098BE412
:1013500096E40197F1F78091760580620E940B096F
:1013600083E592E00197F1F78091760580620E9413
:101370000B09D5CF643008F063E090917A056917C6
:1013800010F06FEF690FE62FF0E0E959FA4F9489FA
:10139000890F80680C940B0941E00E94B80881E035
:1013A00090E00895EF92FF921F93CF93DF937C011B
:1013B000D0E0C0E010E0F70180810E9414050C2EFF
:1013C00001C0880F0A94EAF7182B61E0F7018181C8
:1013D0000E943D0560E0F70181810E943D05219654
:1013E000C830D10541F7812FDF91CF911F91FF9038
:1013F000EF900895FB0101900020E9F73197AF01CC
:10140000461B570BDC01ED91FC910280F381E02D2E
:1014100019948F929F92AF92BF920F931F93CF9385
:10142000DF93CDB7DEB7A1970FB6F894DEBF0FBE3E
:10143000CDBF19A2423008F44AE08E010F5D1F4F64
:10144000842E912CB12CA12CA50194010E9401297C
:10145000E62FB901CA01EA3004F5E05DD801EE9348
:101460008D01232B242B252B79F790E080E010971A
:1014700029F0BD018EE194E00E94FA09A1960FB611
:10148000F894DEBF0FBECDBFDF91CF911F910F91BA
:10149000BF90AF909F908F900895E95CDFCFCF927F
:1014A000DF92EF92FF92CF93DF936B017C016DE2AD
:1014B0008EE194E00E940F04EC0166277727CB01B0
:1014C0006C197D098E099F094AE00E94090A8C0F58
:1014D0009D1FDF91CF91FF90EF90DF90CF90089507
:1014E000CF93DF93682F70E090E080E04AE00E94A5
:1014F000090AEC0162E772E08EE194E00E94FA09C9
:101500008C0F9D1FDF91CF910895CF93DF93BC0186
:101510008EE194E00E94FA09EC0162E772E08EE14C
:1015200094E00E94FA098C0F9D1FDF91CF910895DE
:101530000C94FA09EF92FF920F931F93CF93DF93CE
:10154000EC017B01198218821B821A821D821C8287
:10155000FB0101900020E9F731978F01061B170B63
:10156000B8016F5F7F4F90E080E00E945E29009796
:10157000B9F0998388831B830A832C813D81232BB7
:1015800011F4FC0110821D830C83B70188819981BD
:10159000DF91CF911F910F91FF90EF900C944F2A04
:1015A00088819981009711F00E9451251982188233
:1015B0001D821C821B821A82DF91CF911F910F9195
:1015C000FF90EF900895F8940E943E072FEF81EE70
:1015D00094E0215080409040E1F700C000000E945C
:1015E0003C072FEF87EA91E6215080409040E1F7D9
:1015F00000C000000E943C072FEF81EE94E02150D4
:1016000080409040E1F700C000000E943C072FEFAF
:1016100081EE94E0215080409040E1F700C000004E
:101620000E943C07D3CFCF93DF93CDB7DEB7A5970A
:101630000FB6F894DEBF0FBECDBF8C017C0121E058
:10164000E21AF108F701EE0FFF1FEE0FFF1FEA5C31
:10165000FD4F838190E0228130E0418150E0D080D5
:101660001C861B861A8219821F8A188E198E1A8E62
:1016700064E670E078876F836D2D70E07E876D87FC
:10168000588B4F873A8B298B9C8B8B8B61E08D2DF0
:101690000E946B0561E08F850E946B0561E089897E
:1016A0000E946B0561E08B890E946B051E8A1D8A72
:1016B00084E090E09A8789872F813885032E000C7B
:1016C000440B550B60E077E883E993E00E942329FF
:1016D000CA01B90128EC30E040E050E00E94232923
:1016E0002B833C834D835E8389E1809FF001819F42
:1016F000F00D1124E651FB4F55884288A70149524D
:101700005C4F3A01808DDA018C9365E772E08EE1DF
:1017100094E00E94980AB801012E000C880B990BE6
:1017200097FF58C00E944F0A66E872E08EE194E08D
:101730000E94980A6D2D70E090E080E04AE00E94DF
:10174000090A61E972E08EE194E00E94980A642D32
:1017500070E090E080E04AE00E94090A63EA72E0EB
:101760008EE194E00E94980A852D0E94700AD12C87
:10177000C701880F991FFC01E25DFD4FFBA3EAA39F
:1017800097012A5B3D4F39A328A329E1209FC0017F
:10179000219F900D1124AC014E5F5A4F5DA34CA3C5
:1017A0008091E2044812B9C28091E3045812B5C294
:1017B0003090E104D31409F4B0C20091D503109124
:1017C000D6038CE692E09F8F8E8F0115110531F4C0
:1017D0000E94E30A4AE00E94090AA6CFD8015C965B
:1017E0008C918111F5CF0E94FF16811104C08E8D5E
:1017F0009F8D892B69F7D12C90E05801B1E1AB0E98
:10180000B11C69E0262E74E0872E912CA2C02E8D8B
:101810003F8D232B21F4DD2009F4CAC0D9CF9111CB
:1018200009C08091F8038B8F8091F6039091F703A4
:101830009D8F8C8F0F900FBE0E9417170FB6F894D4
:101840000F92D8015D968C915D978F3F11F45D9654
:101850001C92F801868D8F3F09F4168E0F900FBEF3
:10186000BE01625E7F4FCE014B960E9435188111FA
:101870003BC1C8010E941D17882309F42FC1D8015C
:101880008D919C91892B09F055C00FB6F8940F9259
:10189000F801E480F580E114F10409F41DC1D701D9
:1018A00056968C915697E0917603F091770396893E
:1018B000891708F005C11C962D913C911D9737FDA5
:1018C0000CC0E0917603F091770396899401291B6F
:1018D00031091D963C932E931C97829DC0011124C3
:1018E00087509C4FF701228533852817390709F067
:1018F000DFC06701F2E0CF0ED11CC6010E9448177D
:10190000E0917603F09177038689D70156968C9300
:1019100090911D04981710F480931D04829DC001BE
:101920001124B60187509C4F0E942817DD24D394C0
:101930000F900FBE6E8D7F8DC5010E94ED18C801FE
:101940000E94AB180E94201C811102C00E942F1B14
:1019500091E00FB6F8940F92F801828D882309F474
:1019600056CF8150828F80819181892BB1F48091F3
:10197000760390917703892B39F0E0917603F0910B
:10198000770382A18F5F82A3809176039091770382
:10199000D80115969C938E931497F801808588231F
:1019A00039F0C80108960E94681881110E942F1B07
:1019B0000F900FBEEAA1FBA120813181A8A1B9A19E
:1019C0009C91923009F009C13093010220930002EA
:1019D00080916A00836080936A00EC9ACC24C3945F
:1019E000D12C4AE0E42EF12CF301808118160CF082
:1019F00042C167EB72E08EE194E00E94980AD30145
:101A00006C91062E000C770B880B990B97FF23C166
:101A10000E944F0A62E772E08EE194E00E94FA09A8
:101A2000DA82C98204E610E001151105E9F20E948C
:101A3000A7058F88988CA98CBA8C9B01AC012819BA
:101A400039094A095B0949015A012B813C814D81C1
:101A50005E8182169306A406B50630F36F8B788FED
:101A6000898F9A8F8B859C8529813A812130310518
:101A700009F0F5C001969C878B872F8138858217E6
:101A8000930711F41C861B86015011098B859C85D8
:101A900029853A85B7012530310511F064E070E001
:101AA0000E94ED28BC01CE0101960E943506BCCFF4
:101AB000E0917603F09177038689F701868B36CF24
:101AC000E0917603F0917703DD24D39491969C9175
:101AD0008689981708F42CCFD12C2ACFC8010E94F0
:101AE000AB180E94201C34CFC8010E94AB180E9482
:101AF000201CC8010E941D17882309F429CFDD206E
:101B000009F458CF0FB6F8940F92F8018189882311
:101B100009F461C00688F789E02D908184E0891B73
:101B2000D80114960D911C910115110509F440CFAF
:101B3000F80122A1222309F44BCE91A1981708F4B1
:101B4000982FD80156968C915697891709F430CF63
:101B5000213009F02DCF20917603309177030217C1
:101B6000130709F435CE56969C9356971C962D91E3
:101B70003C911D9737FD08C024E030E0291B310956
:101B80001D963C932E931C97B9E08B9FC0011124A6
:101B900087509C4FF801228533852817390709F0B3
:101BA00007CF7801F2E0EF0EF11CC7010E94481741
:101BB000D80156968C9190911D04981710F480933B
:101BC0001D04B9E08B9FC0011124B70187509C4FC1
:101BD0000E942817EDCE80E0A3CF933059F43093C4
:101BE00003022093020280916A008C6080936A0055
:101BF000ED9AF4CE8EEE890F843008F0EFCE87E1B7
:101C0000891BE82FF0E0EE0FFF1FE050FE4F3183FD
:101C10002083843091F08530B9F0833039F08091A1
:101C20006900836080936900E89AD8CE809169004A
:101C30008C6080936900E99AD1CE809169008063BD
:101C400080936900EA9ACACE80916900806C809383
:101C50006900EB9AC3CE4AE00E94090ADBCE892BC9
:101C600021F48F8198859C878B878B859C85019734
:101C70009C878B8709CF1AE060E08AE10E943D05CE
:101C800085E090E00E94ED1E61E08AE10E943D0542
:101C900085E090E00E94ED1E60E08AE10E943D0533
:101CA00085E090E00E94ED1E61E08AE10E943D0522
:101CB00085E290E00E94ED1E1150F1F650E040E008
:101CC00070E060E08091D5039091D6030E94531D8F
:101CD000A8A1B9A19C91923089F1933099F18EEE2F
:101CE000890F8430A0F487E1891B8430F9F08530B6
:101CF00009F18330B9F0E89882E090E0880F991FED
:101D0000FC01E050FE4F84E396E091838083ECA1D8
:101D1000FDA18081D3018C93D32C8CE790E00E94AD
:101D2000ED1E3ECDE99883E090E0E8CFEA9884E0AC
:101D300090E0E4CFEB9885E090E0E0CFEC9890E085
:101D400080E0DCCFED9881E090E0D8CFCF93DF93B7
:101D50001F92CDB7DEB7412C512C32014394AA24F7
:101D6000AA94BA2C51E05093EB050E94CC05009147
:101D7000DB051091DC052091DD053091DE05AB011E
:101D8000BC01401B510B620B730B8091E7059091D6
:101D9000E805B0E0A0E084179507A607B70708F0AC
:101DA0000CC110E08091E505181760F4E091E105A1
:101DB000F091E205E10FF11D62E080810E946B0568
:101DC0001F5FF0CF312C8091E605381608F061C016
:101DD000E32CF12CE091E305F091E405EE0DFF1DFD
:101DE00061E080810E946B05E091E305F091E405DC
:101DF000EE0DFF1D60E080810E943D05D301C20110
:101E0000032C04C0880F991FAA1FBB1F0A94D2F786
:101E10004C016C01C094D094212C8091E5052816CA
:101E200008F5022D10E0E091E105F091E205E00FE8
:101E3000F11F80810E9414050C5F1F4F000F111FBE
:101E4000F801E158FA4F892B41F48081918188296A
:101E50009929918380832394E0CF808191818C2183
:101E60009D21F7CFE091E305F091E405EE0DFF1D14
:101E700061E080810E943D058091E3059091E40539
:101E8000E80EF91E60E0F70180810E946B05339433
:101E90009ACF0FE715E0F801878D90A1892B21F4E7
:101EA000148EB68EA58E11A2369655E0EB3BF50743
:101EB00099F7D12C8091E505D81608F053C0C12CB4
:101EC000ED2CF12CEE0CFF1CC70189579A4F7C01B9
:101ED0002091E605C21608F043C0F70160817181C8
:101EE0000C2C02C0769567950A94E2F7D29E900179
:101EF00011242C0D311DEFE7F5E080E0458D568D66
:101F00002417350709F47BC08F5F36968A30B1F706
:101F100060FF24C0EFE7F5E090E080E0448D4111E0
:101F200018C0E091DF05F091E005E20FF31F40815A
:101F300056E0589FF001599FF00D1124E158FA4FD7
:101F4000448F368F258F10A2178E61E00E94D8052E
:101F500005C0019636968A30910501F7C394B8CF33
:101F6000D394A8CFF12CF80181A18111F82E0A5F3A
:101F70001F4FF5E00B3B1F07B1F70E94CC056093A4
:101F8000DB057093DC058093DD059093DE05FF2073
:101F9000A1F08091A005882381F080919E05909109
:101FA0009F05019751F480919B058983811109C098
:101FB00081E090E00E94ED1ED5CE1092EB051982D3
:101FC000F7CF41E050E0BE016F5F7F4F8091CF03BC
:101FD0009091D0030E94531D182F69818EE194E0E7
:101FE0000E940F0462E772E08EE194E00E94FA0919
:101FF0001130F1F286EC92E00E94850AD9CF61702F
:10200000A5CFCF93DF93CDB7DEB7AD970FB6F894DA
:10201000DEBF0FBECDBF8FE08AA79E012F5F3F4F6F
:1020200069019BE0A92EB12C27EF622E21E0722ED0
:102030007E013FE1E30EF11C38EE832E31E0932E5A
:1020400041E050E0BE01675D7F4F8091D3039091E6
:10205000D4030E945F1F813021F08DEC92E00E943A
:10206000850A0FB6F8940F92F6011EE1212E119207
:102070002A94E9F70091E5041091E60460E0F80184
:1020800082810E943D0561E0F80182810E946B051A
:1020900060E0F80181810E943D0561E0F8018181E5
:1020A0000E946B0561E0F80180810E946B0561E090
:1020B000F80182810E943D05C5010197F1F78FEB80
:1020C000382E512C632D6170F80180810E943D05EE
:1020D00061E0F80181810E943D05F7E05F1205C0D3
:1020E00060E0F80180810E946B0560E0F801818169
:1020F0000E943D0536945394F8E05F12E3CF80913F
:10210000E5049091E6040E94D2098F77282F30E0F1
:10211000A4E035952795AA95E1F7922F990F990F8D
:10212000222E291A220C280E8091E5049091E604B3
:102130000E94D209282F30E0B4E035952795BA9552
:10214000E1F7922F990F990F322E391A330C380E6E
:102150008091E5049091E6040E94D20986FF53C164
:10216000982F9F71292F30E0F4E035952795FA9547
:10217000E1F7322F330F330F122F131B110F190FEB
:1021800085FD145F8091E5049091E6040E94D209D8
:10219000282F30E044E0359527954A95E1F7922FB6
:1021A000990F990F522E591A550C580E8091E5042B
:1021B0009091E6040E94D209282F30E054E0359532
:1021C00027955A95E1F7922F990F990F022F091B26
:1021D000000F080F8091E5049091E6040E94D20957
:1021E0008091E5049091E6040E94D209282F30E006
:1021F00064E0359527956A95E1F7922F990F990F2D
:10220000291B220F422E480E8091E5049091E6048E
:102210000E94D209E091E504F091E60460E0828139
:102220000E943D05C5010197F1F74092DF0400933C
:10223000E0045092E1041093E2043092E30420920F
:10224000E4041F922F921F923F921F921F931F929E
:102250005F921F920F937F926F921F927EE1272EC3
:102260002F92DF92CF920E94DA258091DF04409175
:10227000E1046091E00490E00E9441079C01A8E124
:10228000B0E00E94DE282091E2041B012C01220E06
:10229000311C411C511CA2019101ACE3B0E00E9431
:1022A000D3282091E3041B012C01220E311C411C78
:1022B000511CA20191010E94D3282091E4041B012A
:1022C0002C01220E311C411C511C44E06AE084EEBA
:1022D00090E00E9441079C01A8E1B0E00E94DE2846
:1022E0009B01AC01245F3F4F4F4F5F4FA0E1BEE029
:1022F0000E94D3280FB6F894DEBF0FBECDBF621583
:1023000073058405950530F48091D1039091D20333
:102310000E94041F0E94110960E080E00E94BA0937
:10232000B60187E695E00E94980AEBA539E13E9F49
:10233000F0011124E651FB4F618180810E94BA09AE
:10234000EBA589E1E89FF0011124E451FB4F4481A2
:1023500055816081718187E695E00E9479038BA5A4
:10236000882309F45FC061E088E00E94BA098AE02E
:10237000F701282E11922A94E9F7EBA599E1392E5D
:102380003E9EF0011124E651FB4F908D1F929F93CA
:1023900095891F929F9392891F929F939F928F92EC
:1023A0001F928F93FF92EF920E94DA25B70187E682
:1023B00095E00E94980A2BA5ECA58E2F90E0FC01D9
:1023C000EE0FFF1FE80FF91F329EE00DF11D1124E3
:1023D000E651FB4F618980890E94BA098091770597
:1023E000982F9260909377058A600E940B090FB630
:1023F000F894DEBF0FBECDBF0F900FBE82E190E01C
:102400000E94ED1E1DCE282F30E0E4E03595279583
:10241000EA95E1F7922F990F990F122F191B110FBF
:10242000180FB0CE809177058D7F809377058860F7
:102430000E940B09E1CFCF93DF9300D000D000D0F2
:102440001F921F92CDB7DEB75E0186E0A80EB11CC9
:1024500085E0F50111928A95E9F78FE08F8319E104
:102460007BEA572EE3E04E2EFFE03F2E41E050E0A6
:10247000BE01655F7F4F8091CF039091D0030E9492
:102480005F1F813009F072C06B858EE194E00E947D
:102490000F0462E772E08EE194E00E94FA0960E0C6
:1024A0008AE10E943D0581E090E00E94ED1E61E01E
:1024B0008AE10E943D05EB85E053E83008F056C004
:1024C0000E2E000CFF0B8827E759FD4E8F4F0C9402
:1024D0004229711201133913B61260137F13981336
:1024E000B1139E818F81981708F062C08885811191
:1024F00001C04E8281E08A879E81959D812D1124A5
:1025000086958887282F220F220F821B890F8987A3
:102510009F5F9E836DED72E08EE194E00E94980AC9
:102520008E810E94700A6AEE72E08EE194E00E9451
:10253000980A688570E090E080E04AE00E94090A0D
:1025400060EF72E08EE194E00E94980A698570E085
:1025500090E080E04AE00E94090A6DED72E08EE1B1
:1025600094E00E94980A8E810E94700A41E050E037
:10257000B5018091D3039091D4030E94531D813003
:1025800009F474CF3A8241E050E0BE016F5F7F4FA3
:102590008091D3039091D4030E945F1F41E050E0EB
:1025A000B5018091D3039091D4030E94531D5ECF57
:1025B0001E821A86198618866AEE862E64E0962E8A
:1025C000F12CE12C3401D12CC12CF3016289C6011C
:1025D0008E0D9F1D0E94C528FFEFCF1ADF0A83E0F2
:1025E000680E711CE3E0CE16D10479F7F9E18F0E85
:1025F000911C83E0E80EF11CEFE0EE16F10411F7F8
:1026000092CF2885222309F4B1CF6985E62FF0E027
:10261000CF01880F991FDC01AE0FBF1F422F50E082
:10262000129FA00DB11D1124A651BB4F52963C9193
:1026300021E0230F283124F061110FC029EE230F70
:10264000E80FF91F149FC001159F900D1124E80F8A
:10265000F91FE651FB4F228B89CF2C338CF361306D
:1026600011F425ECECCF24365CF3623049F72EE907
:10267000E6CF2885222309F479CF6985E62FF0E09B
:10268000CF01880F991FDC01AE0FBF1F422F50E012
:10269000129FA00DB11D1124A651BB4F52963C9123
:1026A0002FEF230F121664F2611102C026E1C7CF8B
:1026B000613011F42AE3C3CF623011F622E6BFCFB6
:1026C00084EC94E00E9431088091C404882381F056
:1026D00034EFE32E35E0F32E02E021E030E048EE67
:1026E00053E069EF72E083E19BE00E9480203ECFDF
:1026F0008091F4059091F5050E94041F37CF81EC7D
:1027000094E00E9431088091C104882361F022EF97
:10271000E22E25E0F22E02E022E030E048EE53E027
:1027200064E073E0E0CF8091F2059091F305E4CF8F
:102730008EEB94E00E9431088091BE04882361F002
:1027400090EFE92E95E0F92E02E023E030E048EE2C
:1027500053E06FE073E0C7CF8091F0059091F105F1
:10276000CBCF8BEB94E00E9431088091BB0488238F
:1027700061F08EEEE82E85E0F82E02E024E030E0F5
:1027800048EE53E06AE173E0AECF8091EE059091A0
:10279000EF05B2CF8F929F92AF92BF92CF92DF920E
:1027A000EF92FF920F931F93CF93DF93E0912E044C
:1027B000F0912F0482E08083E0912A04F0912B04B1
:1027C0001082E0912C04F0912D0480E1808310921E
:1027D0003604E0913204F091330486E08083E09186
:1027E0003004F0913104808180618083E091300475
:1027F000F0913104808188608083E0913004F09111
:102800003104808180688083E0913004F09131044C
:1028100080818F7D80832AEEE22E24E0F22ED0E0AC
:10282000C0E0670110E000E0C8018C0F9D1F0E940E
:10283000BD28F601828B0F5F1F4FF3E0CF0ED11C36
:102840000330110589F729E1E20EF11C2396CF3000
:10285000D10539F782E00E9419090E94110984EC20
:1028600094E00E94450881EC94E00E9445088EEBBC
:1028700094E00E9445088BEB94E00E944508C091CB
:10288000E504D091E60460E089810E946B0560E078
:1028900088810E946B0560E08A810E946B0562E07E
:1028A00086E10E946B0561E08AE10E946B0561E0B0
:1028B0008AE10E943D0562E082E10E946B0562E0D0
:1028C00083E10E946B0562E084E10E946B0562E097
:1028D00085E10E946B0562E373E08EE194E00E9463
:1028E000980A6DE373E08EE194E00E94980A89E40F
:1028F00093E00E94850A0E94A7054B015C0194EFBA
:10290000C92EDD24D394E12CF12C0E94A70568196F
:1029100079098A099B09683E734081059105A8F3EE
:1029200081E0C81AD108E108F108E8EE8E0EE3E074
:102930009E1EA11CB11CC114D104E104F10429F7AD
:1029400061E08AE00E9438209093D0038093CF0307
:1029500065E083E00E9438209093D4038093D303F2
:1029600060E081E00E943820EC01009759F01D8260
:102970001C82198218821E8250E040E070E060E004
:102980000E94531DD093D603C093D503F12CE12CA4
:1029900004E030E020E040E850E062E573E086EAE1
:1029A0009EE00E94802081EDE82E83E0F82E03E077
:1029B00030E020E040E850E06FE573E08BE192E129
:1029C0000E948020F12CE12C05E030E020E040E87E
:1029D00050E069E673E081E090E10E948020DF91A1
:1029E000CF911F910F91FF90EF90DF90CF90BF900C
:1029F000AF909F908F900C9499211F920F920FB6D9
:102A00000F9211240BB60F922F933F934F935F9326
:102A10006F937F938F939F93AF93BF93EF93FF93A6
:102A20008EE194E00E94ED03FF91EF91BF91AF9191
:102A30009F918F917F916F915F914F913F912F91D6
:102A40000F900BBE0F900FBE0F901F9018951F9206
:102A50000F920FB60F9211240BB60F922F938F93F4
:102A60009F93EF93FF93E0912E04F0912F048081C8
:102A7000E0913404F091350482FD1DC09081809175
:102A800037048F5F8F7320913804821741F0E091F3
:102A90003704F0E0E25EFB4F958F80933704FF919F
:102AA000EF919F918F912F910F900BBE0F900FBEC2
:102AB0000F901F9018958081F2CF1F920F920FB642
:102AC0000F9211242F933F938F939F93AF93BF93B4
:102AD0008091EC039091ED03A091EE03B091EF0390
:102AE0003091EB0323E0230F2D3758F50196A11DFC
:102AF000B11D2093EB038093EC039093ED03A0931F
:102B0000EE03B093EF038091F0039091F103A09155
:102B1000F203B091F3030196A11DB11D8093F00360
:102B20009093F103A093F203B093F303BF91AF919D
:102B30009F918F913F912F910F900FBE0F901F90FB
:102B4000189526E8230F0296A11DB11DD2CF1F9222
:102B50000F920FB60F9211240BB60F922F933F9343
:102B60004F935F936F937F938F939F93AF93BF9395
:102B7000EF93FF93E0910E02F0910F021995FF91F0
:102B8000EF91BF91AF919F918F917F916F915F91E5
:102B90004F913F912F910F900BBE0F900FBE0F9052
:102BA0001F9018951F920F920FB60F9211240BB61B
:102BB0000F922F933F934F935F936F937F938F93D6
:102BC0009F93AF93BF93EF93FF93E0910C02F0912B
:102BD0000D021995FF91EF91BF91AF919F918F9148
:102BE0007F916F915F914F913F912F910F900BBE0D
:102BF0000F900FBE0F901F9018951F920F920FB657
:102C00000F9211240BB60F922F933F934F935F9324
:102C10006F937F938F939F93AF93BF93EF93FF93A4
:102C2000E0910202F09103021995FF91EF91BF919B
:102C3000AF919F918F917F916F915F914F913F9154
:102C40002F910F900BBE0F900FBE0F901F901895F5
:102C50001F920F920FB60F9211240BB60F922F9363
:102C60003F934F935F936F937F938F939F93AF9314
:102C7000BF93EF93FF93E0910002F0910102199549
:102C8000FF91EF91BF91AF919F918F917F916F9144
:102C90005F914F913F912F910F900BBE0F900FBE00
:102CA0000F901F9018951F920F920FB60F9211243C
:102CB0000BB60F922F933F934F935F936F937F9336
:102CC0008F939F93AF93BF93EF93FF93E0910A028B
:102CD000F0910B021995FF91EF91BF91AF919F91E8
:102CE0008F917F916F915F914F913F912F910F90B5
:102CF0000BBE0F900FBE0F901F9018951F920F9252
:102D00000FB60F9211240BB60F922F933F934F9350
:102D10005F936F937F938F939F93AF93BF93EF9343
:102D2000FF93E0910802F09109021995FF91EF914C
:102D3000BF91AF919F918F917F916F915F914F91D3
:102D40003F912F910F900BBE0F900FBE0F901F90D1
:102D500018951F920F920FB60F9211240BB60F9277
:102D60002F933F934F935F936F937F938F939F9393
:102D7000AF93BF93EF93FF93E0910602F0910702A8
:102D80001995FF91EF91BF91AF919F918F917F9195
:102D90006F915F914F913F912F910F900BBE0F90CC
:102DA0000FBE0F901F9018951F920F920FB60F92A3
:102DB00011240BB60F922F933F934F935F936F9312
:102DC0007F938F939F93AF93BF93EF93FF93E09184
:102DD0000402F09105021995FF91EF91BF91AF9117
:102DE0009F918F917F916F915F914F913F912F9123
:102DF0000F900BBE0F900FBE0F901F9018958091F3
:102E0000B903882331F08091B803882321F080E052
:102E1000089581E0089582E008950FB6F8940F9226
:102E20008091F6039091F7030F900FBE0895809163
:102E3000B8038F5F8093B80308950FB6F8940F928C
:102E4000FC01928D0F900FBE81E0911180E00895FA
:102E5000CF93DF939C01FB01DC011196CD91DC91B6
:102E6000D383C2838C819D81958384838C819D8152
:102E7000DC0113967C936E9312977D836C8331876C
:102E80002087F90180818F5F8083DF91CF91089542
:102E9000CF93DF93FC01A085B1858281938124814A
:102EA0003581EC013D832C83C481D5819B838A834A
:102EB00011968D919C9112978E179F0721F412966F
:102EC000DC93CE931197118610868C9181508C9350
:102ED0008C91DF91CF9108950F931F93CF93DF9340
:102EE0008C01FB0180819181D80113968F3F980757
:102EF000F1F4E801AF81B88512968D919C911397FA
:102F000093838283EC01FD83EC83B583A4831396C2
:102F1000FC93EE93129711870087F80180818F5FF1
:102F20008083DF91CF911F910F910895D90112965F
:102F30002D913C911397E901488159818417950798
:102F4000A8F7DACFFC0173836283918780874617E5
:102F5000570790F0421B530B8485958548175907F6
:102F6000C8F4BF016E5F7F4F8091CB039091CC037B
:102F70000E946C1780E008954217530718F46217F7
:102F8000730740F4BF016E5F7F4F8091CD03909136
:102F9000CE03EECF81E00895FF920F931F93CF935E
:102FA000DF93EC01F62E0091F6031091F703809168
:102FB00076039091770302960E944817CF3FDC0773
:102FC00089F4FF2079F060917603709177036E5F4A
:102FD0007F4F8AEB93E0DF91CF911F910F91FF908C
:102FE0000C942817C00FD11FE0917603F09177035E
:102FF000D383C2836091760370917703C017D107A2
:1030000068F48091C7039091C8036E5F7F4FDF9192
:10301000CF911F910F91FF900C946C178091C50375
:103020009091C6036E5F7F4F0E946C178091C3031F
:103030009091C403C817D90720F4D093C403C09358
:10304000C303DF91CF911F910F91FF900895FC0171
:103050000396928381832FEF3FEF348323839683FC
:1030600085839087878310820895FC01DB010FB66A
:10307000F8940F924091F6035091F7032D913C91F3
:1030800011972F3F3207E1F0818192816091F8031F
:103090007081761719F048175907C0F4481B590B6F
:1030A0004217530788F4241B350B2D933C938091D2
:1030B000F80380838091F6039091F70392838183D4
:1030C00080E00F900FBE08951D921C9281E0F9CF11
:1030D0000F931F93CF93DF93DC011596ED91FC9135
:1030E000C681D781209711F40E94E30A8E01045F04
:1030F0001F4FC8010E9448178091B803811125C055
:103100000A501109C8010E9448178E8990911D0428
:10311000981710F480931D04B9E08B9FC00111240F
:10312000B80187509C4F0E942817E0917603F091D8
:1031300077039E898689891760F481E08093AE03C6
:10314000DF91CF911F910F910895B8018FEA93E01D
:10315000EACF80E0F5CFEF92FF920F931F93CF93CA
:10316000DF93EC010FB6F8940F921E8D7C0181E184
:10317000E80EF11C01E01116D4F08FEF8E8F0F9046
:103180000FBE0FB6F8940F921D8D7E0188E0E80EF9
:10319000F11C01E01116B4F08FEF8D8F0F900FBE70
:1031A000DF91CF911F910F91FF90EF900895898942
:1031B000882319F3C7010E94681881110093AE0398
:1031C0001150D9CF8885882339F3C7010E94681828
:1031D00081110093AE031150DDCFCF93DF93EB014C
:1031E000009711F40E94E30A6091760370917703CF
:1031F000645F7F4F0E946C1761E0CE01DF91CF9139
:103200000C94CC170F920FB6F8940F920BB60F9246
:103210000CB60F921F9211242F923F924F925F9201
:103220006F927F928F929F92AF92BF92CF92DF92D6
:10323000EF92FF920F931F932F933F934F935F93C0
:103240006F937F938F939F93AF93BF93CF93DF93AE
:10325000EF93FF93A0917603B09177030DB60D9293
:103260000EB60D9213BE8091B80381112AC18091D0
:10327000F6039091F70301969093F7038093F6037A
:10328000009709F066C0E091C503F091C603208164
:10329000222361F1F894279A2F9A2FEF61EE74E0C0
:1032A000215060407040E1F700C000001F9A8FEF8E
:1032B00097EAA1E681509040A040E1F700C00000ED
:1032C0001F9ABFEFC1EED4E0B150C040D040E1F74B
:1032D00000C000001F9A2FEF61EE74E021506040A3
:1032E0007040E1F700C000001F9AD7CF2091C503BE
:1032F0003091C6034091C7035091C8035093C60351
:103300004093C5033093C8032093C7032091F8036B
:103310002F5F2093F803E091C503F091C60320814D
:10332000211107C02FEF3FEF3093C4032093C30355
:1033300010C0E091C503F091C6030580F681E02D31
:103340000680F781E02D228133813093C4032093DE
:10335000C3032091C3033091C4038217930710F471
:1033600020E09BC020E019E0E091C503F091C60386
:103370003081311107C08FEF9FEF9093C40380938A
:10338000C3038BC0E091C503F091C6030580F681AD
:10339000E02D0680F781E02D428153818417950747
:1033A00028F45093C4034093C30377C0AF014E5F2A
:1033B0005F4FA285B38564817581E680F780EB015C
:1033C000FD82EC82C681D7817B836A8311966D91E1
:1033D0007C9112974617570721F41296DC93CE93EF
:1033E0001197138612863C9131503C933C91A489ED
:1033F000B5891097F9F066857785E088F188EB014B
:10340000FD82EC82C089D1897B836A831196ED901D
:10341000FC901297BF01645F7F4FE616F70621F418
:103420001296DC93CE931197158A148A3C913150F1
:103430003C933C91A68930911D043A1710F4A09357
:103440001D041A9FD0011124BD0167507C4F7B01E0
:10345000DB011196CD91DC91D583C4836C817D8194
:10346000778366836C817D81DB0113965C934E9339
:1034700012975D834C83F386E286E70138813F5FD4
:103480003883A0917603B0917703468956963C9194
:10349000431708F469CF21E067CFE0917603F091FC
:1034A0007703E689D9E0ED9FF0011124E750FC4F46
:1034B0008081823008F021E08091AE0381110EC03E
:1034C0000AC08091AB039091AC0301969093AC033A
:1034D0008093AB0395C0222309F492C08091B80376
:1034E000882321F081E08093AE038AC01092AE035E
:1034F000A0917603B0917703E0917603F091770382
:103500002D913C918789908D82179307A8F0809127
:103510007603909177038091760390917703279AB1
:103520002F9A2FEF67EA71E6215060407040E1F773
:1035300000C000001F9AF5CF80911D0490E069E063
:103540002EC0019760F5F894279A2F9ABFEFC1EE2D
:10355000D4E0B150C040D040E1F700C000001F9A55
:103560002FEF67EA71E6215060407040E1F700C03C
:1035700000001F9A8FEF91EEA4E081509040A04090
:10358000E1F700C000001F9ABFEFC1EED4E0B150D8
:10359000C040D040E1F700C000001F9AD7CF482FAD
:1035A000689F9001699F300D1124F901E750FC4F8D
:1035B0005081552331F2A181B28112960D90BC91B8
:1035C000A02DB283A18324503C4FA217B30729F446
:1035D00012962D913C913283218329E0289FF0019E
:1035E000299FF00D1124E750FC4F0180F281E02D5E
:1035F00086819781909377038093760340931D048F
:10360000A0917603B0917703CD91CDBFDD91DEBF60
:10361000FF91EF91DF91CF91BF91AF919F918F91EA
:103620007F916F915F914F913F912F911F910F91DA
:10363000FF90EF90DF90CF90BF90AF909F908F90D2
:103640007F906F905F904F903F902F901F900F90C2
:103650000CBE0F900BBE0F900FBE0F9008950F92EF
:103660000FB6F8940F920BB60F920CB60F921F92F2
:1036700011242F923F924F925F926F927F928F927E
:103680009F92AF92BF92CF92DF92EF92FF920F93F1
:103690001F932F933F934F935F936F937F938F93DA
:1036A0009F93AF93BF93CF93DF93EF93FF93A0913B
:1036B0007603B09177030DB60D920EB60D92809100
:1036C000B803882321F081E08093AE038AC0109272
:1036D000AE03A0917603B0917703E0917603F09169
:1036E00077032D913C918789908D82179307A8F0DD
:1036F0008091760390917703809176039091770380
:10370000279A2F9A2FEF87EA91E621508040904028
:10371000E1F700C000001F9AF5CF80911D0490E0F2
:1037200069E02EC0019760F5F894279A2F9A8FEFE1
:1037300091EE24E0815090402040E1F700C000006D
:103740001F9A8FEF97EA21E6815090402040E1F7E1
:1037500000C000001F9A8FEF91EE24E0815090404E
:103760002040E1F700C000001F9A8FEF91EE24E0A7
:10377000815090402040E1F700C000001F9AD7CF51
:10378000482F689F9001699F300D1124F901E7507F
:10379000FC4F5081552331F2A181B28112960D90D8
:1037A000BC91A02DB283A18324503C4FA217B30734
:1037B00029F412962D913C913283218329E0289F90
:1037C000F001299FF00D1124E750FC4F0180F28198
:1037D000E02D8681978190937703809376034093C1
:1037E0001D04A0917603B0917703CD91CDBFDD91FB
:1037F000DEBFFF91EF91DF91CF91BF91AF919F918C
:103800008F917F916F915F914F913F912F911F9178
:103810000F91FF90EF90DF90CF90BF90AF909F906F
:103820008F907F906F905F904F903F902F901F9060
:103830000F900CBE0F900BBE0F900FBE0F9008950F
:103840007F928F929F92AF92BF92CF92DF92EF9230
:10385000FF920F931F93CF93DF938091B803811151
:1038600002C00E94E30A0FB6F8940F928091B80349
:1038700081508093B8038091B803882389F080E059
:103880000F900FBEDF91CF911F910F91FF90EF909E
:10389000DF90CF90BF90AF909F908F907F900895D2
:1038A0008091AD03882359F3D0E0C0E029E0F22EE7
:1038B000EE24E39429C0E091B403F091B503C681EE
:1038C000D781CE010C960E9448178E010E5F1F4FC4
:1038D000C8010E9448178E8990911D04981710F412
:1038E00080931D048F9DC0011124B80187509C4F07
:1038F0000E942817E0917603F09177039E898689CC
:10390000981710F0E092AE038091AF038111D3CFEE
:10391000CD2B11F00E945A08E090AB03F090AC035D
:10392000E114F10409F4B6C089E0A82E7724739459
:10393000CC24CA94DC2C8091B803811199C0C09129
:10394000F603D091F7032196D093F703C093F603C3
:103950002097F1F4E091C503F091C60380818111B5
:1039600080CF8091C5039091C6032091C703309109
:10397000C8033093C6032093C5039093C803809374
:10398000C7038091F8038F5F8093F8030E945A0861
:103990008091C3039091C403B12CC817D90708F0D4
:1039A0005BC0E0917603F0917703E689AE9EF0016B
:1039B0001124E750FC4F8081823010F0BB24B39477
:1039C0008091AE03811103C0BB2009F45AC07092EC
:1039D000AE0357C0E091C503F091C6030580F681A0
:1039E000E02D06811781D80112968D919C91C81700
:1039F000D90728F49093C4038093C303D2CF48011E
:103A0000B2E08B0E911CC4010E944817F801848912
:103A10009589892B21F0C8010C960E944817D8017E
:103A200056968C9190911D04981710F480931D0464
:103A30008A9DC0011124B40187509C4F0E94281711
:103A4000E0917603F0917703D80156969C91868990
:103A5000981710F0BB24B394E091C503F091C6030E
:103A600080818111B7CFD092C403C092C30399CF94
:103A70008091AB039091AC0301969093AC0380933B
:103A8000AB03B1E0EB1AF10809F055CF1092AC038B
:103A90001092AB038091AE03882309F4F0CE0E940C
:103AA0002F1B81E0EDCEAF92BF92DF92EF92FF929B
:103AB0000F931F93CF93DF9300D01F921F92CDB728
:103AC000DEB78C017B015D834C83009711F40E946B
:103AD000E30A672B21F4FC01848D8111F8CF0E9449
:103AE000FF16811104C08C819D81892B81F780E0B4
:103AF0005801F8E0AF0EB11CC0C0E480F580E114BD
:103B0000F10419F580E0F80115821482D394F801CC
:103B1000D28E9189992321F0C80141960E9468189C
:103B200081110E942F1B0F900FBE81E00F900F900C
:103B30000F900F900F90DF91CF911F910F91FF90F9
:103B4000EF90DF90BF90AF900895809176039091B1
:103B50007703E816F90609F0BACFF70182A18823A6
:103B600009F4B5CF815082A3268991A1291751F27A
:103B70008111C8CF5701F2E0AF0EB11CC5010E9400
:103B80004817F70181A1868B24E030E0281B31091A
:103B90003587248790911D04981710F480931D0495
:103BA000F9E08F9FC0011124B50187509C4F0E94FE
:103BB000281781E0A8CF50E0B701828193810E944D
:103BC0003F2AF801848D22813381820F932F911D2A
:103BD00093838283248135818217930708F45FC021
:103BE00080819181938382835AC02C813D81232BD4
:103BF00021F40F900FBE80E099CF811109C0809110
:103C0000F80389838091F6039091F7039B838A835D
:103C10000F900FBE0E9417170FB6F8940F92F8017D
:103C2000858D8F3F09F4158EF801868D8F3F09F43D
:103C3000168E0F900FBEBE016C5F7F4FCE010196B6
:103C40000E943518811133C00FB6F8940F92F80115
:103C5000928D838D0F900FBE981323C06C817D8150
:103C6000C5010E94ED18C8010E94AB180E94201CDB
:103C7000811102C00E942F1B81E00FB6F8940F92B1
:103C8000F801228D938D291708F0AFCFD28C448D87
:103C9000411191CF80819181892B09F42ECF80E051
:103CA00035CFC8010E94AB180E94201CE5CFC80187
:103CB0000E94AB180E94201C9ECF0F931F93CF939E
:103CC000DF9300D01F921F92CDB7DEB7009711F49B
:103CD0000E94E30A0091F4031091F5030115110508
:103CE000C9F019827B836A839D838C830E94FF16AF
:103CF00050E040E0BE016F5F7F4FC8010E94531D3E
:103D00000F900F900F900F900F90DF91CF911F9118
:103D10000F91089580E0F4CFEF92FF920F931F93DD
:103D2000CF93DF93E091CD03F091CE038081811199
:103D300013C08091CB039091CC039093CE038093DA
:103D4000CD03F093CC03E093CB03DF91CF911F9190
:103D50000F91FF90EF9008950580F681E02D00818E
:103D60001181C681D7817E0182E0E80EF11CC70176
:103D70000E944817E889F989CE0119958A8982FF3E
:103D8000D1CF8C859D85800F911F0817190760F48E
:103D90009B838A83D987C887B7018091CD0390918F
:103DA000CE030E946C17BECFB801CE010E945D1EEB
:103DB0008111B8CF0E94E30ACF93DF93009751F0AF
:103DC000EC010E941717CE010E945125DF91CF917F
:103DD0000C94201CDF91CF910895CF93DF93EC01D9
:103DE0008091B80381110E94E30A0E94171760E0D6
:103DF000CE010E94CC170E94201C811102C00E949B
:103E00002F1BDF91CF9108950F931F93CF93DF93D3
:103E1000EC010FB6F8940F92892B21F4C091760330
:103E2000D09177038E010E5F1F4FC8010E94481783
:103E30008C899D89892B21F0CE010C960E94481710
:103E4000809194038F5F8093940380917603909187
:103E500077038C179D07E9F4B8018BE893E00E9483
:103E6000281780918A038F5F80938A030F900FBE7B
:103E70008091B9038823F1F08091760390917703C4
:103E80008C179D07B9F48091B803882389F00E94AC
:103E9000E30A8091AD0381508093AD038F89988DA3
:103EA0000E94DC1ECE010E94DC1E0E945A08DECF5A
:103EB0000E942F1BDF91CF911F910F910895AF9218
:103EC000BF92CF92DF92FF920F931F93CF93DF9316
:103ED00000D01F921F92CDB7DEB78C016B015D83BE
:103EE0004C83892B11F40E94E30A0E94FF16811172
:103EF00004C08C819D81892BB1F780E0580191E14C
:103F0000A90EB11C44C02C813D81232B21F40F90BC
:103F10000FBE80E06DC0811109C08091F8038983D4
:103F20008091F6039091F7039B838A830F900FBED5
:103F30000E9417170FB6F8940F92F801858D8F3FE6
:103F400009F4158EF801868D8F3F09F4168E0F90B7
:103F50000FBEBE016C5F7F4FCE0101960E943518E7
:103F600081115BC0C8010E941D17882309F44FC04E
:103F70006C817D81C5010E94ED18C8010E94AB18BB
:103F80000E94201C811102C00E942F1B81E00FB6ED
:103F9000F8940F92F801F28CFF2009F4B4CF448D0D
:103FA0004423B1F050E086819781840F951F978359
:103FB0008683248135818217930720F08081918147
:103FC00097838683F80166817781C6010E943F2A24
:103FD000FA94F801F28E8085882339F0C80108969A
:103FE0000E94681881110E942F1B0F900FBE81E064
:103FF0000F900F900F900F900F90DF91CF911F9126
:104000000F91FF90DF90CF90BF90AF900895C801BF
:104010000E94AB180E94201CB9CFC8010E94AB18A7
:104020000E94201CC8010E941D17882309F4AECFEE
:1040300070CFCF93DF93EC010E941717CE010E943F
:10404000B524EC010E94201C209771F40E943E07C9
:104050002FEF80E792E0215080409040E1F700C0D0
:1040600000000E943C07F4CFCE01DF91CF9108956C
:104070000F931F93CF93DF93082F162F869FC001B6
:1040800011244F960E941920EC01009779F111112B
:1040900033C0998388830B8F1C8F0FB6F8940F92CF
:1040A000888199812B8D4C8DBC01249F600D711DE1
:1040B00011247D836C831A8E9B838A832150330B5A
:1040C000429FB001439F700D1124860F971F9F835D
:1040D0008E838FEF8D8F8E8FCE0108960E942718CA
:1040E000CE0141960E9427180F900FBECE01DF919E
:1040F000CF911F910F9108954F9699838883CBCFCD
:104100005F926F927F928F929F92AF92BF92CF9267
:10411000DF92EF92FF920F931F93CF93DF93782E4E
:10412000892E562E672E6A01922E132FCA010E94E5
:1041300019205C01892B09F4D9C088E290E00E9423
:104140001920EC01892B09F4CEC0B88EAF8AA601E4
:1041500065EA70E0C5010E94482A21E0C21AD10830
:10416000EF89F88DEC0DFD1D652D762DCE0149965C
:104170009B01285F3F4FDB014D91BD01DC014D9359
:10418000CD01AB0141505109DA014C91442319F0A2
:104190006217730781F718A2043008F003E00E8B52
:1041A00009A31AA21B861A861D8A1C8AD987C8876A
:1041B00084E090E0801B91099D878C87DB8BCA8B04
:1041C0001BA21CA21DA21EA21FA27082DF011197BA
:1041D0008C9211971C9211971C92119780E88C93E6
:1041E00011971C9211971C9211971C9257979C92B1
:1041F00011971C93B697F983E883E114F10419F041
:10420000F701D183C0830FB6F8940F928091AD036C
:104210008F5F8093AD038091760390917703892B14
:1042200009F075C0D0937703C09376038091AD03F6
:10423000813081F589EF93E00E94271882E094E0B5
:104240000E9427188BE094E00E94271884E194E0F4
:104250000E94271881E893E00E94271888E793E0DE
:104260000E9427188FEA93E00E9427188BE893E0BA
:104270000E9427188AEB93E00E94271881E893E0B8
:104280009093C6038093C50388E793E09093C80397
:104290008093C703809194038F5F809394038E89EA
:1042A00090911D04981710F480931D04F9E08F9FDE
:1042B000C0011124BE016E5F7F4F87509C4F0E944A
:1042C00028170F900FBE8091B903882351F0E09119
:1042D0007603F091770396898E89981710F40E94DF
:1042E0002F1B81E004C0C5010E94DC1E8FEFDF910F
:1042F000CF911F910F91FF90EF90DF90CF90BF90E3
:10430000AF909F908F907F906F905F900895809175
:10431000B9038111BFCFE0917603F09177039689BD
:104320008E89891708F4B6CFD0937703C0937603AC
:10433000B1CFEF92FF920F9399EAE92E93E0F92E15
:1043400000E030E020E040EC50E065E273E08EE910
:1043500091E00E948020813009F08EC00FB6F89461
:104360000F928091F4039091F503892BE1F48EE98B
:1043700093E00E94271885E993E00E9427188EE9B0
:1043800093E09093CE038093CD0385E993E09093DF
:10439000CC038093CB0365E08AE00E9438209093A1
:1043A000F5038093F4030F900FBE8091F403909176
:1043B000F503892B89F087EAE82E83E0F82E03E0E5
:1043C00030E020E045E550E06AE273E08CEC91E0FB
:1043D0000E948020811102C00E94E30A813009F00E
:1043E0004BC0F8942FEF3FEF3093C4032093C303E7
:1043F0008093B9031092F7031092F603A89588E111
:1044000090EC0FB6F894A895809360000FBE90933F
:104410006000A0917603B0917703CD91CDBFDD917F
:10442000DEBFFF91EF91DF91CF91BF91AF919F914F
:104430008F917F916F915F914F913F912F911F913C
:104440000F91FF90EF90DF90CF90BF90AF909F9033
:104450008F907F906F905F904F903F902F901F9024
:104460000F900CBE0F900BBE0F900FBE0F900895D3
:104470000F91FF90EF9008958F3FD1F7ADCF0E943D
:1044800002191895DF92EF92FF920F931F93CF932B
:10449000DF93109221041092200488EE93E0A0E0B4
:1044A000B0E08093220490932304A0932404B0935B
:1044B00025048EE492E090931F0480931E0485EC03
:1044C00090E090932B0480932A0484EC90E09093E6
:1044D0002D0480932C0480EC90E090932F04809323
:1044E0002E0481EC90E0909331048093300482ECB0
:1044F00090E0909333048093320486EC90E09093A4
:1045000035048093340410923704109238041092CA
:10451000390410923A041092C40484E48093C504D0
:1045200085E48093C6041092C10482E48093C2049F
:1045300083E48093C3041092BE0480E48093BF049C
:1045400081E48093C0041092BB048EE38093BC048A
:104550008FE38093BD04109281051092850510921F
:104560008405109286058CE692E0909380058093F6
:104570007F05EBE9F5E087ED95E010821482138268
:10458000158236968E179F07C1F784E192E09093CB
:10459000E2058093E10580E192E09093E405809349
:1045A000E30584E0E82EE092E505E092E60588E187
:1045B00092E09093E0058093DF058AE090E090938D
:1045C000E8058093E70584EF91E09093EA058093F6
:1045D000E9051092ED051092EC051092DB051092A2
:1045E000DC051092DD051092DE051092EB051092AD
:1045F0006A051092690580E692E0909368058093C1
:1046000067058DE080936B058FEF80936C051CE050
:1046100010936D058BE080936E059AE0F92EF09271
:104620006F0509E000937005D8E0D09371051092F2
:104630007205109273051092740510927505109210
:10464000760581E00E9419091092EA04C1E0C09346
:10465000EB046FE872E08CEE94E00E949A0AD0932B
:10466000F204C093F3046FE872E084EF94E00E94D8
:104670009A0A1092FA041092FB041092FC0425E0AE
:10468000D22ED092FD041092FE041092FF04F092FC
:104690000005109201051092020510920305C093C7
:1046A00004056DEF72E085E095E00E949A0AD093D0
:1046B0000B05C0930C0561E773E08DE095E00E9467
:1046C0009A0A00931305C0931405109215051093D0
:1046D0001605C0931705109218053FE0F32EF092CF
:1046E0001905C0931A0510921B0510921C05C09362
:1046F0001D0568E073E08EE195E00E949A0AD09370
:104700002405C093250563E773E086E295E00E94E7
:104710009A0A00932C05C0932D0510922E05109334
:104720002F05C093300510923105F0923205C093E9
:1047300033051092340510923505C093360563E1B8
:1047400073E087E395E00E949A0AD0933D05C093F9
:104750003E0561E773E08FE395E00E949A0A0093BB
:104760004505C09346051092470510934805C09330
:10477000490510924A05F0924B05C0934C051092E2
:104780004D0510924E05C0934F056EE173E080E534
:1047900095E00E949A0AD0935605C093570561E7A9
:1047A00073E088E595E00E949A0A00935E05C09345
:1047B0005F051092600510936105C0936205109229
:1047C0006305F0926405C093650510926605E0925A
:1047D000E704D092E80482E08093E90487EE94E055
:1047E0009093E6048093E5048FED94E00E945503D6
:1047F00087EC94E00E9455038DEC94E00E945503F1
:1048000083ED94E00E94550389ED94E0DF91CF9110
:104810001F910F91FF90EF90DF900C9455037894C7
:1048200084B5826084BD84B5816084BD85B58260B5
:1048300085BD85B5816085BD80916E008160809366
:104840006E001092810080918100826080938100CF
:1048500080918100816080938100809180008160DF
:10486000809380008091B10084608093B10080913A
:10487000B00081608093B00080919100826080934D
:1048800091008091910081608093910080919000CF
:104890008160809390008091A10082608093A1004C
:1048A0008091A10081608093A1008091A00081602F
:1048B0008093A000809121018260809321018091EA
:1048C000210181608093210180912001816080938A
:1048D000200180917A00846080937A0080917A0030
:1048E000826080937A0080917A00816080937A0060
:1048F00080917A00806880937A001092C1002091A4
:104900002C0230912D028FEF91E2821B930B90933A
:104910002902809328020E94CA130E9499210E94B2
:10492000CA130E947C04FDCF0F931F93CF93DF9394
:10493000C7E6D5E06997F1F38E01005F1F4FC017FE
:10494000D10751F008501109F80182819381009735
:10495000B1F30E945125F3CFF4E0CA3EDF0751F7CF
:10496000DF91CF911F910F9108950F931F93CF93D4
:10497000DF938230910510F482E090E0E091F80539
:10498000F091F90530E020E0B0E0A0E0309799F434
:104990002115310509F44AC0281B390B2430310593
:1049A000D8F58A819B816115710589F1FB0193839B
:1049B0008283FE0111C04081518102811381481719
:1049C0005907E0F04817590799F4109761F01296CB
:1049D0000C93129713961C933296CF01DF91CF91CF
:1049E0001F910F9108950093F8051093F905F4CFE6
:1049F0002115310551F04217530738F0A901DB01A9
:104A00009A01BD01DF01F801C1CFEF01F9CF909309
:104A1000F9058093F805CDCFFE01E20FF31F8193D6
:104A200091932250310939832883D7CF2091F605FD
:104A30003091F705232B41F420912A0230912B026B
:104A40003093F7052093F605209128023091290232
:104A50002115310541F42DB73EB740912C025091FC
:104A60002D02241B350BE091F605F091F705E217B6
:104A7000F307A0F42E1B3F0B2817390778F0AC0181
:104A80004E5F5F4F2417350748F04E0F5F1F50935E
:104A9000F7054093F605819391939FCFF0E0E0E016
:104AA0009CCFCF93DF930097E9F0FC0132971382FC
:104AB0001282A091F805B091F905ED0130E020E0F7
:104AC0001097A1F420813181820F931F2091F60568
:104AD0003091F7052817390709F061C0F093F70501
:104AE000E093F605DF91CF910895EA01CE17DF0735
:104AF000E8F54A815B819E0141155105B1F7E90155
:104B0000FB83EA8349915991C40FD51FEC17FD0728
:104B100061F4808191810296840F951FE901998348
:104B20008883828193819B838A83F0E0E0E0129600
:104B30008D919C9113970097B9F52D913C91119708
:104B4000CD010296820F931F2091F6053091F70553
:104B50002817390739F6309751F51092F905109258
:104B6000F805B093F705A093F605BCCFD383C283B5
:104B700040815181840F951FC817D90761F44E5F9A
:104B80005F4F88819981480F591F518340838A81E3
:104B90009B81938382832115310509F0B0CFF09377
:104BA000F905E093F8059ECFFD01DC01C0CF13822B
:104BB0001282D7CF0F931F93CF93DF93CDB7DEB77A
:104BC0002E970FB6F894DEBF0FBECDBF0E891F899A
:104BD000888D998D2EE02C831A83098397FF02C05C
:104BE00080E090E801979E838D83AE01445E5F4F25
:104BF0006A8D7B8DCE0101960E9417264D815E81C4
:104C000057FD0AC02F813885421753070CF49A01CB
:104C1000020F131FF80110822E960FB6F894DEBF14
:104C20000FBECDBFDF91CF911F910F9108952F92AD
:104C30003F924F925F926F927F928F929F92AF922C
:104C4000BF92CF92DF92EF92FF920F931F93CF9379
:104C5000DF9300D000D000D01F921F92CDB7DEB7F7
:104C60007C013B018A01FC0117821682838181FF4E
:104C7000DDC1CE0101965C01F7019381F30193FD43
:104C8000859193FF81913F01882309F453C18532B7
:104C900039F493FD859193FF81913F01853229F489
:104CA000B70190E00E942F28E7CF912C212C312CC6
:104CB000FFE1F31538F08B3211F190F4803209F1F5
:104CC000833229F137FC3CC020ED280F2A3050F503
:104CD00036FE20C08AE0989E200D1124922E06C038
:104CE0008D3291F0803371F7689430F8F30193FDC1
:104CF000859193FF81913F018111DACF21C06894A2
:104D000031F8689432F8F2CF689433F8EFCF6894B2
:104D100034F8ECCFEAE02E9E200D1124222E689468
:104D200035F8E4CF8E3229F436FC04C1689436F8A5
:104D3000DDCF8C3619F4689437F8D8CF8836B1F2C5
:104D4000982F9F7D95549330E0F08336A1F18337FF
:104D5000C1F1833509F063C02801F2E04F0E511C08
:104D6000F801C080D180692D70E036FC02C06FEF81
:104D70007FEFC6010E9419284C01689437F8820120
:104D80000AC00C5F1F4FFFE3F98388248394912CA2
:104D90006501E89437F833FE2DC0522C811491043C
:104DA00071F5552009F468CFB70180E290E00E94C8
:104DB0002F285A94F6CFF801808189830E5F1F4F08
:104DC000E4CF2801F2E04F0E511CF801C080D180E1
:104DD000692D70E036FC02C06FEF7FEFC6010E94C4
:104DE00024284C018201D5CFB70180E290E00E94D7
:104DF0002F282A942814190409F0B0F7CECFF60111
:104E000037FC859137FE81916F01B70190E00E94D8
:104E10002F2851105A94F1E08F1A9108BFCF843691
:104E200019F0893609F077C0F80137FE6BC0608150
:104E30007181828193810C5F1F4FF32DFF763F2E8E
:104E400097FF09C090958095709561957F4F8F4F22
:104E50009F4F689437F82AE030E0A5010E945F2850
:104E6000C82ECA188C2C432C36FE0CC0E89440F88F
:104E7000C91440F434FE05C032FC03C0F32DFE7E9D
:104E80004F2E892C44FEAAC0FE01EC0DF11D80813D
:104E9000803309F09CC0242D297E422E842D8870F9
:104EA000582E43FCAAC040FEA4C09C2C821418F4C7
:104EB0002C0C922C981844FEA6C0B70180E390E019
:104EC0000E942F2842FE09C088E790E041FE02C000
:104ED00088E590E0B7010E942F28C91408F49FC00C
:104EE000CA94D12C9FEFC91AD90ACA0CDB1CF6014F
:104EF00082916F01B70190E00E942F28AC14BD048D
:104F0000B1F74FCF60817181072E000C880B990B90
:104F10000E5F1F4F92CFD32CE894D4F82AE030E0F4
:104F20008537E1F1232D297FD22E8F36A9F1F0F4B8
:104F3000883551F1F701868197812B960FB6F89449
:104F4000DEBF0FBECDBFDF91CF911F910F91FF90BC
:104F5000EF90DF90CF90BF90AF909F908F907F9019
:104F60006F905F904F903F902F900895803749F059
:104F7000883701F7D4FE02C06894D2F820E130E00F
:104F80000DC06894D4F8F6CF34FE03C0822F86603B
:104F9000D82E20E132E002C028E030E0F801D7FE50
:104FA0000FC060817181828193810C5F1F4FA501C9
:104FB0000E945F28C82ECA183D2CE89437F852CFBB
:104FC0006081718190E080E00E5F1F4FF0CF42FC66
:104FD00002C0839463CF8394839460CF842D8678BA
:104FE00009F45CCFF6CFB70180E290E00E942F2851
:104FF00083948214C0F3512C5ECF522C5818821423
:1050000008F459CFF8CF842D867809F466CF8BE267
:1050100041FE80E247FC8DE2B70190E05CCFB70132
:1050200080E390E00E942F289A9457CF8FEF9FEF54
:1050300084CFFC010590615070400110D8F7809535
:1050400090958E0F9F1F0895FC0161507040019054
:105050000110D8F7809590958E0F9F1F08950F939C
:105060001F93CF93DF93182F092FEB018B8181FDC5
:1050700009C01FEF0FEF812F902FDF91CF911F916C
:105080000F91089582FF14C02E813F818C819D81F4
:10509000281739073CF4E881F981CF0101969983FB
:1050A000888310838E819F8101969F838E83E3CFB7
:1050B000E885F985812F1995892BA1F3DACFFA01BB
:1050C000AA27283051F1203181F1E8946F936E7F47
:1050D0006E5F7F4F8F4F9F4FAF4FB1E03ED0B4E038
:1050E0003CD0670F781F891F9A1FA11D680F791F79
:1050F0008A1F911DA11D6A0F711D811D911DA11D8A
:1051000020D009F468943F912AE0269F1124301999
:10511000305D3193DEF6CF010895462F4770405D34
:105120004193B3E00FD0C9F7F6CF462F4F70405DE3
:105130004A3318F0495D31FD4052419302D0A9F73E
:10514000EACFB4E0A6959795879577956795BA9538
:10515000C9F700976105710508959B01AC010A2EFE
:1051600006945795479537952795BA95C9F7620FD5
:10517000731F841F951FA01D0895F999FECF92BD3E
:1051800081BDF89A992780B50895262FF999FECF09
:105190001FBA92BD81BD20BD0FB6F894FA9AF99A54
:1051A0000FBE019608950E94DE28A59F900DB49F22
:1051B000900DA49F800D911D11240895A29FB00110
:1051C000B39FC001A39F700D811D1124911DB29F3B
:1051D000700D811D1124911D089597FB072E16F463
:1051E000009407D077FD09D00E944A2907FC05D01A
:1051F0003EF4909581959F4F0895709561957F4FEE
:105200000895A1E21A2EAA1BBB1BFD010DC0AA1F07
:10521000BB1FEE1FFF1FA217B307E407F50720F01F
:10522000A21BB30BE40BF50B661F771F881F991F9A
:105230001A9469F760957095809590959B01AC01E3
:10524000BD01CF010895052E97FB1EF400940E9426
:105250003A2957FD07D00E94012907FC03D04EF4DC
:105260000C943A2950954095309521953F4F4F4FDA
:105270005F4F089590958095709561957F4F8F4F02
:105280009F4F0895EE0FFF1F881F8BBF0790F69169
:10529000E02D1994AA1BBB1B51E107C0AA1FBB1F1D
:1052A000A617B70710F0A61BB70B881F991F5A95B2
:1052B000A9F780959095BC01CD0108954F925F921A
:1052C0006F927F928F929F92AF92BF92CF92DF9216
:1052D000EF92FF920F931F93CF93DF938C01009770
:1052E00099F4CB01DF91CF911F910F91FF90EF9037
:1052F000DF90CF90BF90AF909F908F907F906F90F6
:105300005F904F900C94B524FC01E60FF71F9C01B1
:1053100022503109E217F30708F4AEC0D901CD914C
:10532000DC911197C617D70720F1C530D10578F069
:10533000CE0104978617970750F0C61BD70B22970C
:10534000C193D1936D937C93CF010E945125C801E5
:10535000DF91CF911F910F91FF90EF90DF90CF9051
:10536000BF90AF909F908F907F906F905F904F9085
:1053700008955B01AC1ABD0A4C018C0E9D1EA091D4
:10538000F805B091F905512C412CF12CE12C109726
:1053900031F58091F6059091F7058815990509F08A
:1053A0005CC04616570608F058C0809128029091BC
:1053B0002902009741F48DB79EB740912C0250917D
:1053C0002D02841B950BE817F90708F055C0F093E0
:1053D000F705E093F605F90171836083B8CF8D91ED
:1053E0009C91119712966C90129713967C9013973C
:1053F000A815B90559F56C0142E0C40ED11CCA14B8
:10540000DB0420F1AC014A195B09DA011296159709
:1054100080F06282738251834083D9016D937C93C3
:10542000E114F10471F0D7011396FC93EE931297F7
:105430008ECF22968C0F9D1FF90191838083F301FB
:10544000EFCFF093F905E093F80581CF48165906A0
:1054500008F42C017D01D3019ACFCB010E94B52421
:105460007C01009749F0AE01B8010E943F2AC801B3
:105470000E94512587016BCF10E000E068CFFB014F
:10548000DC0102C001900D9241505040D8F70895C0
:10549000DC0101C06D9341505040E0F70895FB01DD
:1054A000DC0101900D920020E1F7089512E0CEEFAB
:1054B000D2E000E006C0802FFE010E944229219622
:1054C000011DCF3FD10780E00807A9F7F894FFCF6F
:1054D00034063406340634063406340634063406FC
:1054E000393837363D3C3B3A303132333435363754
:1054F00038394142434445460000FA05800000081F
:10550000CF079E076D07323334352E2F30312A2BCB
:105510002C2D2627282912131415000000000F0433
:105520007903A6035C04D703B503C9030000000098
:10553000CC0979032E072D07000000003807340737
:1055400031070D0A00416C61726D5F696E646578A8
:105550003A2020202000202050494E3A20202020B0
:10556000002020416C61726D20486F75723A2020D6
:105570002020002020416C61726D204D696E757491
:10558000653A202020200050696C6C5F6C65667461
:105590003A20202020004552524F522100455252BD
:1055A0004F5220434F44453A2030303300202046AC
:1055B0005F6B65795F6E756D3A00706167653A0083
:1055C0002020696E6465783A005461736B416C61A8
:1055D000726D31005461736B416C61726D320054B5
:1055E00061736B416C61726D33005461736B416C1C
:1055F00061726D340049444C4500546D72205376FD
:105600006300636F6D70696C65643A200053657068
:1056100020323120323032300030373A32343A31B1
:1056200031004B6579626F61726452656164004D4F
:1056300061696E4C6F67696300446973706C61796E
:06564000004200440000DE
:00000001FF
