:100000000C94CF020C9400030C9400030C94000396
:100010000C9400030C9400030C9400030C94000354
:100020000C9400030C9400030C9400030C94000344
:100030000C94051A0C9400030C9400030C94000318
:100040000C9400030C9400030C9400030C94000324
:100050000C9400030C9400030C9400030C94ED0E1C
:100060000C9400030C94B70E0C948D0E0C940003AA
:100070000C9400030C9400030C9400030C940003F4
:100080000C9400030C9400030C9400030C940003E4
:100090000C9400030C9400030C9400030C940003D4
:1000A0000C9400030C9400030C9400030C940003C4
:1000B0000C9400030C9400030C9400030C940003B4
:1000C0000C9400030C9400030C9400030C940003A4
:1000D0000C9400030C9400030C9400030C94000394
:1000E0000C9400030C9417060C9426050C94A70797
:1000F0000C9411050C941D050C9434050C94890284
:100100000C9415050C944C050C94E6030C943E05D8
:100110000C9442050C944F040C94F5030C94300598
:100120000C94B9030C946E010C942A050C94391CA0
:100130000C943C0B0C9438050C949C040C94C20257
:100140000C9446050C94AF020C94081A0C941306F8
:100150000C9417040C949C010C940C060C94230929
:100160000C94C8020C9409040C940B050C948E0A90
:100170000C9419050C9450050C9410060C944B0526
:100180000C9420050C940D06253032753A2530323A
:1001900075202530327500253032752F25303275A7
:1001A00020253032753A253032753A2530327500C7
:1001B00000002100240027002A002D003000330019
:1001C00001010000040107010A01000022002500CE
:1001D00028002B002E003100340002010000050130
:1001E00008010B01000020002300260029002C003C
:1001F0002F0032000001000003010601090105057E
:100200000505070508080808020202020A0A08088C
:1002100004040404010101010101010103030303BA
:1002200003030303040707070C0C0C0C0C0C0C0C49
:100230000202020206060606060606060B0B0B0B5A
:100240000B0B0B0B0102102020080810204010207F
:10025000408002010201080402010102040810208A
:100260004080804020100804020180040201804088
:1002700020100804020108040201010204081020F1
:100280004080010204081020408000000A0B02098F
:100290000C0D0E0807030401000000000000000020
:1002A000000000000000000000000000000000004E
:1002B000000000000000121110000000000000000B
:1002C000000000000000000000000000000000002E
:1002D0001F1C1F1E1F1E1F1F1E1F1E1F8091EA02B4
:1002E000811109C080915303823010F00E949B134A
:1002F0000E94BC04F3CF0FB6F8940F92E0912E0346
:10030000F0912F03C681D781CE0102960E94800F03
:1003100080914F03815080934F038091EA02815076
:100320008093EA020F900FBE8F89988D0E9442172A
:10033000CE010E944217D2CFCF93DF9300D01F92FD
:100340001F92CDB7DEB7E0910B03F0910C03F08064
:1003500010E000E0FF2029F00580F681E02D00810B
:1003600011810E944F0F0E94450F6C01809107037D
:1003700090910803C816D90608F04DC00E94F216E5
:10038000D0920803C09207030E948C1450E040E012
:10039000BE016F5F7F4F80911A0390911B030E94F3
:1003A0006A17882381F2898187FDF0CF0C811D8136
:1003B000D8011A968D919C91892B21F0C801029643
:1003C0000E94800F0E94450F7C018091070390914D
:1003D0000803E816F90610F40E94F216F0920803DA
:1003E000E0920703E981EA3088F60E2E000CFF0B3D
:1003F000D80152969C918827EF5FFD4F8F4F0C9448
:10040000A420890289028902C802AF02C2028902BD
:100410008902C802AF02D0920803C0920703FF20EE
:10042000B1F1C016D106D8F10E948C14E0910B03F3
:10043000F0910C030580F681E02DE680F780C7017E
:1004400002960E94800FD70152968C91529782FF9C
:1004500014C01C966D917C91600F711F9801A601CC
:10046000C7010E94DA0F882359F0B801C7010E9422
:10047000C316811105C00E94F3088E7FF701828B9D
:10048000D7015096ED91FC91C70119957FCFE0916E
:100490000903F0910A038081BB24B3948111B12C2C
:1004A000E0901A03F0901B030FB6F8940F92F70137
:1004B000858D8F3F09F4158ED7015E968C915E97DE
:1004C0008F3F11F45E961C920F900FBEF701828D44
:1004D000811115C0C701419671F26091E8027091D7
:1004E000E902645F7F4F0E94600FC8018C199D096B
:1004F000BB2011F08FEF9FEF6B2D0E940410C701FE
:100500000E9417110E948C14811140CF0E949B13EE
:100510003DCF9160F801928B2A813B81648575857E
:10052000620F731FA701C8010E94DA0F882309F424
:100530002DCFD8015096ED91FC91C8011995F80185
:10054000828982FF23CF6A817B8184859585680FAC
:10055000791FC8010E94C316811118CF8CCF9160FA
:10056000F801928B6A817B817587648761157105BB
:1005700009F481CF6E0D7F1D9701A701C8010E946C
:10058000DA0F04CF91FD04C0C8010E944217FECECD
:100590009E7FD80152969C93F9CE081A391C1124DB
:1005A0001FBECFEFD1E2DEBFCDBF00E00CBF12E037
:1005B000A0E0B2E0ECE6F3E400E00BBF02C007907D
:1005C0000D92A83EB107D9F725E0A8EEB2E001C030
:1005D0001D92A034B207E1F712E0CEECD2E000E0C9
:1005E00006C021970109802FFE010E94A420CD3C66
:1005F000D10780E00807A9F70E94B41B0C94A4213E
:100600000C94000096E0899FD0011124A353BB4FA6
:1006100090967C936E935F9791E091969C939197BF
:10062000E0913A05F0913B0590913905992339F015
:10063000309751F0811108C08091E90419943097E6
:1006400019F05C968C91FACF0895CF92DF92EF92D9
:10065000FF920F931F9396E0899FF0011124E353BB
:10066000FB4F11A2278D30A12130310551F178F0D7
:100670002230310509F451C02330310509F452C04C
:100680001F910F91FF90EF90DF90CF900895662318
:10069000B9F361E070E00E9402032FB7F8948091F3
:1006A000160390911703A0911803B09119032FBF5F
:1006B0008093250590932605A0932705B0932805E0
:1006C000DFCF9FB7F894C0901603D0901703E09047
:1006D0001803F09019039FBF00912505109126057E
:1006E0002091270530912805C01AD10AE20AF30AA1
:1006F000009137051091380530E020E00C151D05FC
:100700002E053F0550F462E070E01F910F91FF90BD
:10071000EF90DF90CF900C9402036111B1CF63E0B2
:1007200070E0F3CF70E060E0F0CFDC0115961C9232
:10073000159714961C92149713961C9213971C925B
:1007400081E011968C93119711968C911197282F17
:100750002150330BF901E053FD4FE491823009F44D
:10076000EF5FE11102C08F5FECCF81E012968C93B6
:100770000895AF92BF92CF92DF92EF92FF920F93C4
:100780001F93CF93DF936C017B018B01040F151F27
:10079000EB015E01AE18BF08C017D10759F069918F
:1007A000D601ED91FC910190F081E02DC6011995E3
:1007B000892B79F7C501DF91CF911F910F91FF90A0
:1007C000EF90DF90CF90BF90AF900895FC01538DD4
:1007D000448D252F30E0842F90E0821B930B54171B
:1007E00010F0CF96089501970895FC01918D828DA8
:1007F000981761F0A28DAE0FBF2FB11D5D968C9141
:10080000928D9F5F9F73928F90E008958FEF9FEF7F
:100810000895FC01918D828D981731F0828DE80F3B
:10082000F11D858D90E008958FEF9FEF0895FC01F5
:10083000918D228D892F90E0805C9F4F821B9109C2
:100840008F739927089588E793E00E94170421E0A9
:10085000892B09F420E0822F0895FC01A48DA80FB4
:10086000B92FB11DA35ABF4F2C91848D90E00196F2
:100870008F739927848FA689B7892C93A089B18912
:100880008C91837080648C93938D848D981306C0B3
:100890000288F389E02D80818F7D80830895EF9217
:1008A000FF920F931F93CF93DF93EC0181E0888F2A
:1008B0009B8D8C8D98131AC0E889F989808185FFFA
:1008C00015C09FB7F894EE89FF896083E889F9899C
:1008D00080818370806480839FBF81E090E0DF919E
:1008E000CF911F910F91FF90EF900895F62E0B8DF1
:1008F00010E00F5F1F4F0F731127E02E8C8D8E11AC
:100900000CC00FB607FCFACFE889F989808185FF12
:10091000F5CFCE010E942D04F1CFEB8DEC0FFD2F12
:10092000F11DE35AFF4FF0829FB7F8940B8FEA89CD
:10093000FB8980818062CFCFCF93DF93EC01888DDC
:100940008823B9F0AA89BB89E889F9898C9185FD4A
:1009500003C0808186FD0DC00FB607FCF7CF8C91D8
:1009600085FFF2CF808185FFEDCFCE010E942D045F
:10097000E9CFDF91CF91089580E090E0892B29F0B5
:100980000E94230481110E94000080E090E0892BE6
:1009900049F080E090E0892B29F00E94000081114D
:1009A0000E94000080E090E0892B49F080E090E018
:1009B000892B29F00E94000081110E94000080E034
:1009C00090E0892B49F080E090E0892B29F00E948B
:1009D000000081110C94000008958150823108F0CC
:1009E0005AC0E82FF0E08827E750FB4F8F4F0C9458
:1009F000A42019051D050B05110515054B0520053E
:100A000026052A053005340538053E0542054B0507
:100A100046054C055005809180008F7780938000BB
:100A20000895809180008F7DF9CF80918000877F2D
:100A3000F5CF84B58F7784BD089584B58F7DFBCFC6
:100A40008091B0008F778093B00008958091B000BE
:100A50008F7DF9CF809190008F77809390000895DB
:100A6000809190008F7DF9CF80919000877FF5CFA6
:100A70008091A0008F778093A00008958091A000BE
:100A80008F7DF9CF8091A000877FF5CF80912001E5
:100A90008F77809320010895809120018F7DF9CF79
:100AA00080912001877FF5CFCF93DF93282F30E00F
:100AB000F901E657FD4F8491F901EC5BFD4FD491AC
:100AC000F901E250FE4FC491CC23A1F081110E94A4
:100AD000ED04EC2FF0E0EE0FFF1FEC51FE4FA5915F
:100AE000B491EC91ED2381E090E009F480E0DF9196
:100AF000CF91089580E090E0FACF1F93CF93DF93DA
:100B0000282F30E0F901E657FD4F8491F901EC5BA5
:100B1000FD4FD491F901E250FE4FC491CC23A9F0CE
:100B2000162F81110E94ED04EC2FF0E0EE0FFF1F55
:100B3000E653FE4FA591B4918FB7F894EC91111143
:100B400008C0D095DE23DC938FBFDF91CF911F913A
:100B50000895DE2BF8CFCF93DF9390E0FC01EC5BA0
:100B6000FD4F249182509E4FFC0184918823C9F04F
:100B700090E0880F991FFC01E055FE4FA591B491BC
:100B8000FC01E653FE4FC591D49161110DC09FB792
:100B9000F8948C91209582238C9388812823288334
:100BA0009FBFDF91CF910895623051F49FB7F894C1
:100BB0003C91822F809583238C93E8812E2BEFCF5D
:100BC0008FB7F894EC912E2B2C938FBFEACF3FB7C1
:100BD000F8948091120390911303A0911403B091A3
:100BE000150326B5A89B05C02F3F19F00196A11D3E
:100BF000B11D3FBFBA2FA92F982F8827BC01CD0167
:100C0000620F711D811D911D42E0660F771F881FC5
:100C1000991F4A95D1F70895089590E080E00895CE
:100C2000862F0C945405862F642F0C947D05862FF7
:100C3000642F0C94AB051F9A0895279A2F9A089554
:100C4000FC019F012F5F3F4F80818F7E803269F0D2
:100C500080E02AE0919130ED390F3A3040F4829FE4
:100C6000900D112480ED890FF5CFF901EACF089599
:100C7000E0911E03F0911F038081811107C08FEF67
:100C80009FEF90930603809305030895E0911E0360
:100C9000F0911F030580F681E02D0680F781E02D9D
:100CA00082819381EECFCF93DF93EC0160E08E8160
:100CB0000E947D0561E08E810E947D0560E08E814D
:100CC0000E947D058BE891E00197F1F7DF91CF91CC
:100CD0000895CF92DF92EF92FF920F931F93CF93DD
:100CE000DF936C017C0187E0E80EF11CD0E0C0E0EE
:100CF000062F10E0B8010C2E02C0759567950A9476
:100D0000E2F76170F70181917F010E947D052196D4
:100D1000C430D10579F7C601DF91CF911F910F91B2
:100D2000FF90EF90DF90CF900C945306CF92DF921C
:100D3000EF92FF920F931F93CF93DF93EC01F62E68
:100D4000642F8C810E947D058D818F3F19F060E0BA
:100D50000E947D050F2D10E08F8584FF25C06E0158
:100D600087E0C80ED11CF12CE12CB8010E2C02C07A
:100D7000759567950A94E2F76170F60181916F01AC
:100D80000E947D05FFEFEF1AFF0A88E0E816F104E4
:100D900061F7CE01DF91CF911F910F91FF90EF90FE
:100DA000DF90CF900C945306B80184E07595679559
:100DB0008A95E1F7CE010E9469066F2DCE01DF9181
:100DC000CF911F910F91FF90EF90DF90CF900C94F7
:100DD000690640E0682F85EB94E00C949606CF936B
:100DE000DF93823029F49091C40498609093C404F6
:100DF0008093C8041092C90480E48093CA0480E1FF
:100E00008093CB0480E58093CC0461E08091B904A9
:100E10000E94AB058091BA048F3F19F061E00E94F7
:100E2000AB0561E08091BB040E94AB05C5EBD4E04B
:100E30009E01255B34408091C40484FD0BC084E096
:100E400090E021962817390744F461E08E810E94D2
:100E5000AB05EECF88E090E0F4CF8BE39DE0019707
:100E6000F1F760E08091B9040E947D0560E0809117
:100E7000BB040E947D058091BA048F3F19F060E0A9
:100E80000E947D058091C40484FD39C063E085EB38
:100E900094E00E946906CBE4D6E4CE010197F1F715
:100EA00063E085EB94E00E9469062197F1F763E027
:100EB00085EB94E00E94690683E592E00197F1F7E3
:100EC00062E085EB94E00E9469068091C404806230
:100ED0000E94E90684E08093C5048CE00E94E90644
:100EE00081E00E94E9068BE39FE10197F1F782E040
:100EF0008093C60486E0DF91CF910C94E90680626E
:100F00000E94E9068BE496E40197F1F78091C4040E
:100F100080620E94E90683E592E00197F1F78091F3
:100F2000C40480620E94E906D0CF643008F063E018
:100F30009091C804691710F06FEF690FE62FF0E089
:100F4000EB54FB4F9489890F80680C94E90641E0CB
:100F50000E94960681E090E00895EF92FF921F9321
:100F6000CF93DF937C01D0E0C0E010E0F7018081F7
:100F70000E9454050C2E01C0880F0A94EAF7182B22
:100F800061E0F70181810E947D0560E0F7018181C8
:100F90000E947D052196C830D10541F7812FDF9150
:100FA000CF911F91FF90EF900895FF920F931F93A1
:100FB000CF93DF938C01D62FF42EC0E06D2F61709C
:100FC000F80180810E947D0561E0F80181810E9425
:100FD0007D05C73039F4FF2029F060E0F8018081F9
:100FE0000E94AB0560E0F80181810E947D05D695E5
:100FF000CF5FC83019F7DF91CF911F910F91FF900C
:1010000008951F93CF93DF93EC01162F60E08A8140
:101010000E947D0561E08A810E94AB0560E08981C4
:101020000E947D0561E089810E94AB0561E08881B5
:101030000E94AB0561E08A810E947D058BE090E013
:101040000197F1F7412F4170612FCE01DF91CF91D0
:101050001F910C94D507FB0101900020E9F731970F
:10106000AF01461B570BDC01ED91FC910280F3812F
:10107000E02D19948F929F92AF92BF920F931F937E
:10108000CF93DF93CDB7DEB7A1970FB6F894DEBF4D
:101090000FBECDBF19A2423008F44AE08E010F5DA9
:1010A0001F4F842E912CB12CA12CA50194010E94DC
:1010B0008220E62FB901CA01EA3004F5E05DD801CB
:1010C000EE938D01232B242B252B79F790E080E0E4
:1010D000109729F0BD0188E793E00E942B08A196A4
:1010E0000FB6F894DEBF0FBECDBFDF91CF911F9139
:1010F0000F91BF90AF909F908F900895E95CDFCFE4
:10110000CF93DF93682F70E090E080E04AE00E9488
:101110003A08EC0166E472E088E793E00E942B084D
:101120008C0F9D1FDF91CF910895CF93DF93BC016A
:1011300088E793E00E942B08EC0166E472E088E700
:1011400093E00E942B088C0F9D1FDF91CF91089593
:101150000C942B08EF92FF920F931F93CF93DF9382
:10116000EC017B01198218821B821A821D821C826B
:10117000FB0101900020E9F731978F01061B170B47
:10118000B8016F5F7F4F90E080E00E94AC20009735
:10119000B9F0998388831B830A832C813D81232B9B
:1011A00011F4FC0110821D830C83B70188819981A1
:1011B000DF91CF911F910F91FF90EF900C949D21A3
:1011C00088819981009711F00E94F61C198218827B
:1011D0001D821C821B821A82DF91CF911F910F9179
:1011E000FF90EF900895F8940E941D062FEF81EE76
:1011F00094E0215080409040E1F700C000000E9440
:101200001B062FEF87EA91E6215080409040E1F7DE
:1012100000C000000E941B062FEF81EE94E02150D9
:1012200080409040E1F700C000000E941B062FEFB5
:1012300081EE94E0215080409040E1F700C0000032
:101240000E941B06D3CFCF93DF931F92CDB7DEB79B
:10125000412C512C32014394AA24AA94BA2C51E077
:10126000509339058FB7F8944091160350911703A6
:1012700060911803709119038FBF80912905909197
:101280002A05A0912B05B0912C05481B590B6A0B20
:101290007B0B8091350590913605B0E0A0E0841776
:1012A0009507A607B70708F015C110E08091330530
:1012B000181760F4E0912F05F0913005E10FF11D52
:1012C00062E080810E94AB051F5FF0CF312C8091DE
:1012D0003405381608F061C0E32CF12CE09131059B
:1012E000F0913205EE0DFF1D61E080810E94AB059B
:1012F000E0913105F0913205EE0DFF1D60E0808137
:101300000E947D05D301C201032C04C0880F991FE0
:10131000AA1FBB1F0A94D2F74C016C01C094D09451
:10132000212C80913305281608F5022D10E0E0915C
:101330002F05F0913005E00FF11F80810E945405C8
:101340000C5F1F4F000F111FF801E353FB4F892B58
:1013500041F4808191818829992991838083239404
:10136000E0CF808191818C219D21F7CFE0913105E3
:10137000F0913205EE0DFF1D61E080810E947D0538
:101380008091310590913205E80EF91E60E0F70179
:1013900080810E94AB0533949ACF0DEC14E0F801E4
:1013A000878D90A1892B21F4148EB68EA58E11A263
:1013B000369655E0E930F50799F7D12C8091330541
:1013C000D81608F053C0C12CED2CF12CEE0CFF1CEC
:1013D000C7018B529B4F7C0120913405C21608F047
:1013E00043C0F701608171810C2C02C0769567952E
:1013F0000A94E2F7D29E900111242C0D311DEDECE0
:10140000F4E080E0458D568D2417350709F484C03B
:101410008F5F36968A30B1F760FF24C0EDECF4E0C0
:1014200090E080E0448D411118C0E0912D05F091CD
:101430002E05E20FF31F408156E0589FF001599F9F
:10144000F00D1124E353FB4F448F368F258F10A2EC
:10145000178E61E00E94250305C0019636968A30FA
:10146000910501F7C394B8CFD394A8CF80E0F801D9
:1014700091A19111892F0A5F1F4FF5E009301F07D5
:10148000B1F79FB7F89440911603509117036091FC
:101490001803709119039FBF4093290550932A05A3
:1014A00060932B0570932C058823A1F08091EE04A6
:1014B000882381F08091EC049091ED04019751F420
:1014C0008091E9048983811109C081E090E00E9444
:1014D0005317C5CE109239051982F7CF41E050E07D
:1014E000BE016F5F7F4F80910D0390910E030E94AC
:1014F000BF15182F698188E793E00E944F0466E4C6
:1015000072E088E793E00E942B081130F1F289E441
:1015100092E00E949508D9CF61709CCFCF93DF9362
:1015200000D000D000D01F921F92CDB7DEB78E0141
:101530000A5F1F4F85E0F80111928A95E9F78FE065
:101540008F838BEAE82E93E0D92E2FE0F22E41E034
:1015500050E0BE01655F7F4F80910D0390910E03B7
:101560000E946A17813009F060C06B8588E793E0BC
:101570000E944F0466E472E088E793E00E942B0823
:1015800060E08AE10E947D0581E090E00E945317AF
:1015900061E08AE10E947D058B85813309F045C0B9
:1015A0009E818F81981708F062C08885811101C0E3
:1015B000DE8281E08A879E819E9D812D1124869501
:1015C0008887282F220F220F821B890F89879F5F10
:1015D0009E8360E572E088E793E00E94A8088E8110
:1015E0000E9480086DE572E088E793E00E94A808F9
:1015F000688570E090E080E04AE00E943A0863E687
:1016000072E088E793E00E94A808698570E090E0A6
:1016100080E04AE00E943A0860E572E088E793E0E3
:101620000E94A8088E810E94800841E050E0B80125
:1016300080910F03909110030E94BF15813009F42F
:1016400086CFFA8241E050E0BE016F5F7F4F80910C
:101650000F03909110030E946A1741E050E0B80117
:1016600080910F03909110030E94BF1570CF1E82CE
:101670001A8619861886B6CFCF93DF93CDB7DEB71B
:10168000E0970FB6F894DEBF0FBECDBF8FE08AA7FC
:10169000CE0101967C01BBE06B2E712C17E9C12EA7
:1016A00011E0D12E0BE3802E0FE1902E89E1282E40
:1016B0008E01015E1F4F98E8A92E91E0B92E41E0FE
:1016C00050E0BE01675D7F4F80910F039091100342
:1016D0000E946A17813021F08CE692E00E94950802
:1016E0000FB6F8940F92F7012EE111922A95E9F7BF
:1016F0006FEB80913304909134040E940108809133
:101700003304909134040E94AD078F77282F30E086
:10171000F4E035952795FA95E1F7922F990F990FF7
:10172000322E391A330C380E8091330490913404E0
:101730000E94AD07282F30E0A4E035952795AA95A3
:10174000E1F7922F990F990F422E491A440C480E37
:1017500080913304909134040E94AD0786FF21C12B
:10176000982F9F71292F30E0E4E035952795EA9571
:10177000E1F7322F330F330F522E531A550C590EF7
:1017800085FF02C08CE0580E8091330490913404A0
:101790000E94AD07282F30E044E0359527954A9503
:1017A000E1F7922F990F990F291B220F280F2FA7CE
:1017B00080913304909134040E94AD07282F30E0CB
:1017C00054E0359527955A95E1F7922F990F990F87
:1017D000291B220F280F2EA78091330490913404E7
:1017E0000E94AD0780913304909134040E94AD07AC
:1017F000282F30E064E0359527956A95E1F7922F20
:10180000990F990F291B220F280F28AB80913304C1
:10181000909134040E94AD07E0913304F0913404B8
:1018200060E082810E947D05C3010197F1F798A9CC
:1018300090932D04EEA5E0932E04FFA5F0932F04C2
:101840005092300440923104309232041F923F9201
:101850001F924F921F925F921F92FF931F92EF93DE
:10186000DF92CF921F922EE12F93FF92EF920E9470
:101870007F1D81E00E94E906C4010197F1F760E055
:1018800080E00E949507B70185EB94E00E94A808CC
:10189000EBA52E9EF0011124E85CFB4F6181808155
:1018A0000E949507EBA5E29DF0011124E65CFB4F39
:1018B000448155816081718185EB94E00E94B90378
:1018C0000FB6F894DEBF0FBECDBF8BA5882381F184
:1018D00061E088E00E949507F8012AE011922A95BC
:1018E000E9F78BA58150990B26E0289FF001299FED
:1018F000F00D1124EB5EFB4F85811F928F93848145
:101900001F928F9383811F928F93BF92AF921F92EA
:101910008AE08F931F930F930E947F1DB80185EB80
:1019200094E00E94A8080FB6F894DEBF0FBECDBFAA
:101930002BA5ECA58E2F90E0FC01EE0FFF1FE80F0A
:10194000F91F229EE00DF11D1124E85CFB4F618917
:1019500080890E9495078091C504982F926090938A
:10196000C5048A600E94E9066DE572E088E793E0AD
:101970000E94A8086BA570E090E080E04AE00E9419
:101980003A0863E672E088E793E00E94A8088CA515
:101990000E9480080F900FBE82E190E00E945317D2
:1019A0008ECE282F30E074E0359527957A95E1F7B3
:1019B000922F990F990F522E591A550CE4CE8F92EF
:1019C0009F92AF92BF92CF92DF92EF92FF920F93CE
:1019D0001F93CF93DF93E0918803F091890382E016
:1019E0008083E0918403F09185031082E091860367
:1019F000F091870380E1808310929003E0918C0343
:101A0000F0918D0386E08083E0918A03F0918B034F
:101A1000808180618083E0918A03F0918B038081D3
:101A200088608083E0918A03F0918B0380818068D5
:101A30008083E0918A03F0918B0380818F7D808386
:101A400082E00E94EF06C0913304D091340460E03C
:101A500089810E94AB0560E088810E94AB0560E04F
:101A60008A810E94AB0562E086E10E94AB0561E0DD
:101A70008AE10E94AB0561E08AE10E947D0569E888
:101A800072E088E793E00E94A80864E972E088E7C2
:101A900093E00E94A80880EA92E00E9495080E94C4
:101AA000E7054B015C0154EFC52EDD24D394E12CF6
:101AB000F12C0E94E705681979098A099B09683E9B
:101AC000734081059105A8F321E0C21AD108E1080D
:101AD000F10888EE880E83E0981EA11CB11CC11489
:101AE000D104E104F10429F78DE992E00E94200677
:101AF000C82F88E992E00E942006D82F80EA92E061
:101B00000E942006F82E83EA92E00E942006E82E2A
:101B100086EA92E00E942006D82E6EEB8091330474
:101B2000909134040E9401081AE08D2D612F0E94CB
:101B30006220682F660F680F660F6D0D40E0809180
:101B40003304909134040E94D5078E2D612F0E949A
:101B50006220682F660F680F660F6E0D40E080915F
:101B60003304909134040E94D5078F2D612F0E9479
:101B70006220682F660F680F660F6F0D40E080913E
:101B80003304909134040E94D5078D2F612F0E9459
:101B90006220682F660F680F660F6D0F40E080911E
:101BA0003304909134040E94D50740E069E08091AD
:101BB0003304909134040E94D5076C2F70E02D2FD0
:101BC00030E0E0EDF2E08491280F311D319682E0A3
:101BD000E83DF807C1F78C2F837011F42F5F3F4F5A
:101BE000CB0103969695879596958795EDE6F1E05E
:101BF0006E9FA0016F9F500D7E9F500D11244B5F73
:101C00005F4F840F951F820F931F67E070E00E9463
:101C10006E20682F811101C067E040E0809133049D
:101C2000909134040E94D5071AE08C2F612F0E94F6
:101C30006220682F660F680F660F6C0F40E080917E
:101C40003304909134040E94D50740E060E0809115
:101C50003304909134040E94D507E0913304F0914D
:101C6000340460E082810E947D058BE090E0019762
:101C7000F1F789E290E00E942418EC01009749F006
:101C80004F96998388831B8F81E08C8FCE010E94B1
:101C90006D10D0930E03C0930D038EE290E00E946E
:101CA0002418EC01009751F04F969983888383E0C4
:101CB0008B8F85E08C8FCE010E946D10D093100326
:101CC000C0930F0310E000E024E040E850E069EA30
:101CD00072E083E299E00E94431823E040E850E07C
:101CE00066EB72E08EE89AE00E94431825E040E837
:101CF00050E060EC72E08CE39BE00E944318DF91BF
:101D0000CF911F910F91FF90EF90DF90CF90BF90F8
:101D1000AF909F908F900C9458191F920F920FB60E
:101D20000F9211240BB60F922F933F934F935F9313
:101D30006F937F938F939F93AF93BF93EF93FF9393
:101D400088E793E00E942D04FF91EF91BF91AF913E
:101D50009F918F917F916F915F914F913F912F91C3
:101D60000F900BBE0F900FBE0F901F9018951F92F3
:101D70000F920FB60F9211240BB60F922F938F93E1
:101D80009F93EF93FF93E0918803F0918903808103
:101D9000E0918E03F0918F0382FD1DC090818091B0
:101DA00091038F5F8F7320919203821741F0E0912E
:101DB0009103F0E0E858FC4F958F80939103FF91D9
:101DC000EF919F918F912F910F900BBE0F900FBEAF
:101DD0000F901F9018958081F2CF1F920F920FB62F
:101DE0000F9211242F933F938F939F93AF93BF93A1
:101DF0008091160390911703A0911803B0911903D5
:101E00003091110323E0230F2D3758F50196A11DC2
:101E1000B11D209311038093160390931703A09391
:101E20001803B09319038091120390911303A091AA
:101E30001403B09115030196A11DB11D80931203E7
:101E400090931303A0931403B0931503BF91AF9124
:101E50009F918F913F912F910F900FBE0F901F90E8
:101E6000189526E8230F0296A11DB11DD2CF8091AF
:101E70004E03882331F080910403882321F080E011
:101E8000089581E0089582E008950FB6F8940F92C6
:101E900080915003909151030F900FBE089580914F
:101EA00004038F5F8093040308950FB6F8940F9294
:101EB000FC01928D0F900FBE81E0911180E008959A
:101EC000CF93DF939C01FB01DC011196CD91DC9156
:101ED000D383C2838C819D81958384838C819D81F2
:101EE000DC0113967C936E9312977D836C8331870C
:101EF0002087F90180818F5F8083DF91CF910895E2
:101F0000CF93DF93FC01A085B185828193812481E9
:101F10003581EC013D832C83C481D5819B838A83E9
:101F200011968D919C9112978E179F0721F412960E
:101F3000DC93CE931197118610868C9181508C93EF
:101F40008C91DF91CF9108950F931F93CF93DF93DF
:101F50008C01FB0180819181D80113968F3F9807F6
:101F6000F1F4E801AF81B88512968D919C91139799
:101F700093838283EC01FD83EC83B583A483139662
:101F8000FC93EE93129711870087F80180818F5F91
:101F90008083DF91CF911F910F910895D9011296FF
:101FA0002D913C911397E901488159818417950738
:101FB000A8F7DACFFC017383628391878087461785
:101FC000570790F0421B530B848595854817590796
:101FD000C8F4BF016E5F7F4F8091090390910A039F
:101FE0000E94A40F80E008954217530718F4621767
:101FF000730740F4BF016E5F7F4F80910B03909198
:102000000C03EECF81E00895FF920F931F93CF93BF
:10201000DF93EC01F62E0091500310915103809153
:10202000E8029091E90202960E94800FCF3FDC0700
:1020300089F4FF2079F06091E8027091E9026E5F07
:102040007F4F80E293E0DF91CF911F910F91FF903E
:102050000C94600FC00FD11FE091E802F091E902EB
:10206000D383C2836091E8027091E902C017D1075F
:1020700068F480911C0390911D036E5F7F4FDF9188
:10208000CF911F910F91FF900C94A40F80911E038C
:1020900090911F036E5F7F4F0E94A40F80910503F4
:1020A00090910603C817D90720F4D0930603C09374
:1020B0000503DF91CF911F910F91FF900895FC01CF
:1020C0000396928381832FEF3FEF3483238396839C
:1020D00085839087878310820895CF93DF93EC01E7
:1020E000892B11F40E94F3080FB6F8940F9288819F
:1020F00099812B8D4C8DBC01249F600D711D112485
:102100007D836C831A8E9B838A832150330B429F7D
:10211000B001439F700D1124860F971F9F838E83FC
:102120008FEF8D8F8E8FCE0108960E945F10CE01AB
:1021300041960E945F100F900FBE81E0DF91CF911A
:102140000895FC01DB010FB6F8940F924091500303
:10215000509151032D913C9111972F3F3207E1F09F
:1021600081819281609152037081761719F048172E
:102170005907C0F4481B590B4217530788F4241B16
:10218000350B2D933C9380915203808380915003B3
:10219000909151039283818380E00F900FBE089548
:1021A0001D921C9281E0F9CF0F931F93CF93DF9381
:1021B000DC011596ED91FC91C681D781209711F431
:1021C0000E94F3088E01045F1F4FC8010E94800F18
:1021D00080910403811125C00A501109C8010E9491
:1021E000800F8E8990917703981710F4809377036E
:1021F000B9E08B9FC0011124B8018D5A9C4F0E94F9
:10220000600FE091E802F091E9029E8986898917C2
:1022100060F481E080930303DF91CF911F910F91D0
:102220000895B80182E393E0EACF80E0F5CFEF9222
:10223000FF920F931F93CF93DF93EC010FB6F894A7
:102240000F921E8D7C0181E1E80EF11C01E0111658
:10225000D4F08FEF8E8F0F900FBE0FB6F8940F92C1
:102260001D8D7E0188E0E80EF11C01E01116B4F02E
:102270008FEF8D8F0F900FBEDF91CF911F910F9138
:10228000FF90EF9008958989882319F3C7010E9470
:10229000D4108111009303031150D9CF888588236E
:1022A00039F3C7010E94D410811100930303115028
:1022B000DDCFCF93DF93EB01009711F40E94F30879
:1022C0006091E8027091E902645F7F4F0E94A40F61
:1022D00061E0CE01DF91CF910C9404100F920FB604
:1022E000F8940F920BB60F920CB60F921F92112416
:1022F0002F923F924F925F926F927F928F929F9216
:10230000AF92BF92CF92DF92EF92FF920F931F9303
:102310002F933F934F935F936F937F938F939F93ED
:10232000AF93BF93CF93DF93EF93FF93A091E80216
:10233000B091E9020DB60D920EB60D9213BE8091CA
:10234000040381112AC18091500390915103019699
:102350009093510380935003009709F066C0E09179
:102360001E03F0911F032081222361F1F894279A24
:102370002F9A2FEF61EE74E0215060407040E1F73A
:1023800000C000001F9A8FEF97EAA1E681509040AD
:10239000A040E1F700C000001F9ABFEFC1EED4E0FB
:1023A000B150C040D040E1F700C000001F9A2FEFAD
:1023B00061EE74E0215060407040E1F700C0000021
:1023C0001F9AD7CF20911E0330911F0340911C0309
:1023D00050911D0350931F0340931E0330931D0320
:1023E00020931C03209152032F5F20935203E0910E
:1023F0001E03F0911F032081211107C02FEF3FEF33
:10240000309306032093050310C0E0911E03F09162
:102410001F030580F681E02D0680F781E02D2281E3
:1024200033813093060320930503209105033091F7
:1024300006038217930710F420E09BC020E019E008
:10244000E0911E03F0911F033081311107C08FEF1F
:102450009FEF90930603809305038BC0E0911E03CA
:10246000F0911F030580F681E02D0680F781E02DB5
:10247000428153818417950728F4509306034093B3
:10248000050377C0AF014E5F5F4FA285B3856481BE
:102490007581E680F780EB01FD82EC82C681D781F1
:1024A0007B836A8311966D917C911297461757072B
:1024B00021F41296DC93CE931197138612863C91E9
:1024C00031503C933C91A489B5891097F9F0668509
:1024D0007785E088F188EB01FD82EC82C089D189A3
:1024E0007B836A831196ED90FC901297BF01645F25
:1024F0007F4FE616F70621F41296DC93CE931197E0
:10250000158A148A3C9131503C933C91A6893091B4
:1025100077033A1710F4A09377031A9FD001112480
:10252000BD016D5A7C4F7B01DB011196CD91DC9191
:10253000D583C4836C817D81778366836C817D8143
:10254000DB0113965C934E9312975D834C83F38665
:10255000E286E70138813F5F3883A091E802B091BD
:10256000E902468956963C91431708F469CF21E069
:1025700067CFE091E802F091E902E689D9E0ED9FAA
:10258000F0011124ED5AFC4F8081823008F021E0E7
:102590008091030381110EC00AC0809101039091C4
:1025A00002030196909302038093010395C02223B6
:1025B00009F492C080910403882321F081E0809384
:1025C00003038AC010920303A091E802B091E902CC
:1025D000E091E802F091E9022D913C918789908D7C
:1025E00082179307A8F08091E8029091E902809108
:1025F000E8029091E902279A2F9A2FEF67EA71E695
:10260000215060407040E1F700C000001F9AF5CFF4
:102610008091770390E069E02EC0019760F5F8940F
:10262000279A2F9ABFEFC1EED4E0B150C040D040FE
:10263000E1F700C000001F9A2FEF67EA71E6215012
:1026400060407040E1F700C000001F9A8FEF91EEEC
:10265000A4E081509040A040E1F700C000001F9A24
:10266000BFEFC1EED4E0B150C040D040E1F700C0B0
:1026700000001F9AD7CF482F689F9001699F300DA7
:102680001124F901ED5AFC4F5081552331F2A181FB
:10269000B28112960D90BC91A02DB283A1832A5ACB
:1026A0003C4FA217B30729F412962D913C91328327
:1026B000218329E0289FF001299FF00D1124ED5A74
:1026C000FC4F0180F281E02D868197819093E90291
:1026D0008093E80240937703A091E802B091E90269
:1026E000CD91CDBFDD91DEBFFF91EF91DF91CF9115
:1026F000BF91AF919F918F917F916F915F914F911A
:102700003F912F911F910F91FF90EF90DF90CF900D
:10271000BF90AF909F908F907F906F905F904F9001
:102720003F902F901F900F900CBE0F900BBE0F90FC
:102730000FBE0F9008950F920FB6F8940F920BB63C
:102740000F920CB60F921F9211242F923F924F922C
:102750005F926F927F928F929F92AF92BF92CF9231
:10276000DF92EF92FF920F931F932F933F934F931C
:102770005F936F937F938F939F93AF93BF93CF9309
:10278000DF93EF93FF93A091E802B091E9020DB6B9
:102790000D920EB60D9280910403882321F081E002
:1027A000809303038AC010920303A091E802B091C2
:1027B000E902E091E802F091E9022D913C918789CC
:1027C000908D82179307A8F08091E8029091E9021A
:1027D0008091E8029091E902279A2F9A2FEF87EAD9
:1027E00091E6215080409040E1F700C000001F9A20
:1027F000F5CF8091770390E069E02EC0019760F5F6
:10280000F894279A2F9A8FEF91EE24E08150904010
:102810002040E1F700C000001F9A8FEF97EA21E601
:10282000815090402040E1F700C000001F9A8FEFD8
:1028300091EE24E0815090402040E1F700C000007C
:102840001F9A8FEF91EE24E0815090402040E1F7F5
:1028500000C000001F9AD7CF482F689F9001699F42
:10286000300D1124F901ED5AFC4F5081552331F2FE
:10287000A181B28112960D90BC91A02DB283A1834B
:102880002A5A3C4FA217B30729F412962D913C9176
:102890003283218329E0289FF001299FF00D112424
:1028A000ED5AFC4F0180F281E02D86819781909353
:1028B000E9028093E80240937703A091E802B09187
:1028C000E902CD91CDBFDD91DEBFFF91EF91DF91A8
:1028D000CF91BF91AF919F918F917F916F915F91B8
:1028E0004F913F912F911F910F91FF90EF90DF90AB
:1028F000CF90BF90AF909F908F907F906F905F90A0
:102900004F903F902F901F900F900CBE0F900BBEDA
:102910000F900FBE0F9008957F928F929F92AF926B
:10292000BF92CF92DF92EF92FF920F931F93CF93BC
:10293000DF9380910403811102C00E94F3080FB657
:10294000F8940F9280910403815080930403809146
:102950000403882389F080E00F900FBEDF91CF91B0
:102960001F910F91FF90EF90DF90CF90BF90AF90AD
:102970009F908F907F90089580914F03882359F303
:10298000D0E0C0E029E0F22EEE24E39429C0E091EB
:102990003703F0913803C681D781CE010C960E948F
:1029A000800F8E010E5F1F4FC8010E94800F8E891D
:1029B00090917703981710F4809377038F9DC0014F
:1029C0001124B8018D5A9C4F0E94600FE091E802DB
:1029D000F091E9029E898689981710F0E09203032E
:1029E000809132038111D3CFCD2B11F00E94380694
:1029F000E0900103F0900203E114F10409F4B6C081
:102A000089E0A82E77247394CC24CA94DC2C80917E
:102A10000403811199C0C0915003D09151032196B4
:102A2000D0935103C09350032097F1F4E0911E031B
:102A3000F0911F038081811180CF80911E039091BE
:102A40001F0320911C0330911D0330931F0320931B
:102A50001E0390931D0380931C03809152038F5F8C
:102A6000809352030E9438068091050390910603DB
:102A7000B12CC817D90708F05BC0E091E802F091CB
:102A8000E902E689AE9EF0011124ED5AFC4F8081E7
:102A9000823010F0BB24B39480910303811103C0F2
:102AA000BB2009F45AC07092030357C0E0911E0383
:102AB000F0911F030580F681E02D06811781D80172
:102AC00012968D919C91C817D90728F4909306030C
:102AD00080930503D2CF4801B2E08B0E911CC40154
:102AE0000E94800FF80184899589892B21F0C80103
:102AF0000C960E94800FD80156968C919091770386
:102B0000981710F4809377038A9DC0011124B401B3
:102B10008D5A9C4F0E94600FE091E802F091E9020B
:102B2000D80156969C918689981710F0BB24B394CF
:102B3000E0911E03F0911F0380818111B7CFD092E5
:102B40000603C092050399CF80910103909102037F
:102B500001969093020380930103B1E0EB1AF10810
:102B600009F055CF109202031092010380910303E4
:102B7000882309F4F0CE0E949B1381E0EDCEAF9242
:102B8000BF92DF92EF92FF920F931F93CF93DF9349
:102B900000D01F921F92CDB7DEB78C017B015D8301
:102BA0004C83892B11F40E94F3080E94370F811186
:102BB00004C08C819D81892BB1F780E0580128E009
:102BC000A20EB11CC0C0E480F580E114F10419F537
:102BD00080E0F80115821482D394F801D28E918995
:102BE000992321F0C80141960E94D41081110E94BE
:102BF0009B130F900FBE81E00F900F900F900F90DE
:102C00000F90DF91CF911F910F91FF90EF90DF9088
:102C1000BF90AF9008958091E8029091E902E81684
:102C2000F90609F0C0CFF70182A1882309F4BBCFD0
:102C3000815082A3268991A1291751F28111C8CF11
:102C40005701F2E0AF0EB11CC5010E94800FF701E1
:102C500081A1868B24E030E0281B31093587248749
:102C600090917703981710F480937703F9E08F9F82
:102C7000C0011124B5018D5A9C4F0E94600F81E064
:102C8000A8CF50E0B701828193810E948D21F80185
:102C9000848D22813381820F932F911D93838283B0
:102CA000248135818217930708F45FC08081918168
:102CB000938382835AC02C813D81232B21F40F9072
:102CC0000FBE80E099CF811109C0809152038983A2
:102CD00080915003909151039B838A830F900FBE84
:102CE0000E944F0F0FB6F8940F92F801858D8F3F19
:102CF00009F4158EF801868D8F3F09F4168E0F901A
:102D00000FBEBE016C5F7F4FCE0101960E94A110E5
:102D1000811133C00FB6F8940F92F801928D838D14
:102D20000F900FBE981323C06C817D81C5010E9456
:102D30005911C8010E9417110E948C14811102C000
:102D40000E949B1381E00FB6F8940F92F801228D38
:102D5000938D291708F0AFCFD28C448D411191CFBC
:102D600080819181892B09F42ECF80E035CFC80175
:102D70000E9417110E948C14E5CFC8010E94171100
:102D80000E948C149ECF0F931F93CF93DF9300D09C
:102D90001F921F92CDB7DEB7009711F40E94F3087F
:102DA00000911A0310911B0301151105C9F0198236
:102DB0007B836A839D838C830E94370F50E040E0C1
:102DC000BE016F5F7F4FC8010E94BF150F900F902B
:102DD0000F900F900F90DF91CF911F910F91089559
:102DE00080E0F4CFEF92FF920F931F93CF93DF9386
:102DF000E0910B03F0910C038081811113C080914D
:102E0000090390910A0390930C0380930B03F093B2
:102E10000A03E0930903DF91CF911F910F91FF9077
:102E2000EF9008950580F681E02D00811181C68123
:102E3000D7817E0182E0E80EF11CC7010E94800F5D
:102E4000E889F989CE0119958A8982FFD1CF8C85CD
:102E50009D85800F911F0817190760F49B838A8353
:102E6000D987C887B70180910B0390910C030E940A
:102E7000A40FBECFB801CE010E94C3168111B8CFF6
:102E80000E94F308CF93DF93009751F0EC010E946A
:102E90004F0FCE010E94F61CDF91CF910C948C1441
:102EA000DF91CF910895CF93DF93EC0180910403DC
:102EB00081110E94F3080E944F0F60E0CE010E9432
:102EC00004100E948C14811102C00E949B13DF9198
:102ED000CF910895AF92BF92CF92DF92FF920F935E
:102EE0001F93CF93DF9300D01F921F92CDB7DEB711
:102EF0008C016B015D834C83892B11F40E94F308D4
:102F00000E94370F811104C08C819D81892BB1F7FC
:102F100080E0580191E1A90EB11C44C02C813D8193
:102F2000232B21F40F900FBE80E06DC0811109C0EA
:102F300080915203898380915003909151039B8328
:102F40008A830F900FBE0E944F0F0FB6F8940F9216
:102F5000F801858D8F3F09F4158EF801868D8F3F1E
:102F600009F4168E0F900FBEBE016C5F7F4FCE012D
:102F700001960E94A11081115BC0C8010E94550FEB
:102F8000882309F44FC06C817D81C5010E945911CD
:102F9000C8010E9417110E948C14811102C00E9466
:102FA0009B1381E00FB6F8940F92F801F28CFF208A
:102FB00009F4B4CF448D4423B1F050E08681978169
:102FC000840F951F97838683248135818217930709
:102FD00020F08081918197838683F80166817781D3
:102FE000C6010E948D21FA94F801F28E8085882313
:102FF00039F0C80108960E94D41081110E949B13D9
:103000000F900FBE81E00F900F900F900F900F90D8
:10301000DF91CF911F910F91FF90DF90CF90BF90E4
:10302000AF900895C8010E9417110E948C14B9CF67
:10303000C8010E9417110E948C14C8010E94550FEC
:10304000882309F4AECF70CFCF93DF93EC010E94B9
:103050004F0FCE010E945A1CEC010E948C14209745
:1030600071F40E941D062FEF80E792E0215080400E
:103070009040E1F700C000000E941B06F4CFCE0193
:10308000DF91CF9108957F928F929F92AF92BF92DE
:10309000CF92DF92EF92FF920F931F93CF93DF9324
:1030A000982EE92E762E872E6A01F22ECA010E94F2
:1030B00024185C01892B09F4DAC088E290E00E94B0
:1030C0002418EC01892B09F4CFC0B88EAF8AA60171
:1030D00065EA70E0C5010E94962121E0C21AD1087C
:1030E000EF89F88DEC0DFD1D672D782DCE014996E9
:1030F0009B01285F3F4FDB014D91BD01DC014D93EA
:10310000CD01AB0141505109DA014C91442319F032
:103110006217730781F718A22F2D243008F023E0DF
:103120002E8B29A31AA21B861A861D8A1C8AD98770
:10313000C88784E090E0821B91099D878C87DB8B98
:10314000CA8B1BA21CA21DA21EA21FA29082DF017D
:103150001197EC9211971C9211971C92119780E88D
:103160008C9311971C9211971C9211971C92579750
:103170001C9211971C92B697F983E88301151105EB
:1031800019F0F801D183C0830FB6F8940F928091A3
:103190004F038F5F80934F038091E8029091E90283
:1031A000892B09F073C0D093E902C093E8028091A3
:1031B0004F03813081F583E593E00E945F108CE539
:1031C00093E00E945F1085E693E00E945F108EE618
:1031D00093E00E945F1084E493E00E945F108BE311
:1031E00093E00E945F1082E393E00E945F1089E207
:1031F00093E00E945F1080E293E00E945F1084E4FD
:1032000093E090931F0380931E038BE393E09093CE
:103210001D0380931C0380914D038F5F80934D03AA
:103220008E8990917703981710F480937703F9E0D3
:103230008F9FC0011124BE016E5F7F4F8D5A9C4F3E
:103240000E94600F0F900FBE80914E03882351F0B3
:10325000E091E802F091E90296898E89981710F4BE
:103260000E949B1381E004C0C5010E9442178FEFAA
:10327000DF91CF911F910F91FF90EF90DF90CF9052
:10328000BF90AF909F908F907F90089580914E0354
:103290008111C1CFE091E802F091E90296898E890F
:1032A000891708F4B8CFD093E902C093E802B3CFEE
:1032B0000F931F93CF93DF930FEF12E020E040ECCA
:1032C00050E06CE772E08EE691E00E944318813096
:1032D00009F098C00FB6F8940F9280911A0390915C
:1032E0001B03892B49F584EF92E00E945F108BEE5F
:1032F00092E00E945F1084EF92E090930C03809321
:103300000B038BEE92E090930A038093090381E50F
:1033100090E00E942418EC01009751F04F96998399
:1033200088838AE08B8F85E08C8FCE010E946D10A0
:10333000D0931B03C0931A030F900FBE80911A0302
:1033400090911B03892B69F00DEF12E023E045E516
:1033500050E061E872E08CE991E00E94431881112D
:1033600002C00E94F308813009F04CC0F8942FEF9E
:103370003FEF309306032093050380934E03109292
:10338000510310925003A89588E190EC0FB6F89481
:10339000A895809360000FBE90936000A091E80212
:1033A000B091E902CD91CDBFDD91DEBFFF91EF91EC
:1033B000DF91CF91BF91AF919F918F917F916F914D
:1033C0005F914F913F912F911F910F91FF90EF903F
:1033D000DF90CF90BF90AF909F908F907F906F9035
:1033E0005F904F903F902F901F900F900CBE0F90CA
:1033F0000BBE0F900FBE0F900895DF91CF911F91DC
:103400000F9108958F3FC9F7ACCF0E946E111895A8
:10341000DF92EF92FF920F931F93CF93DF9310925F
:103420007B0310927A0388EE93E0A0E0B0E08093F3
:103430007C0390937D03A0937E03B0937F0382E28D
:1034400092E0909379038093780385EC90E09093D9
:1034500085038093840384EC90E0909387038093AA
:10346000860380EC90E0909389038093880381EC3D
:1034700090E090938B0380938A0382EC90E090938A
:103480008D0380938C0386EC90E090938F03809360
:103490008E03109291031092920310929303109254
:1034A00094031092CF041092D3041092D20410927D
:1034B000D40480E492E09093CE048093CD04E9EEAE
:1034C000F4E085E295E0108214821382158236962C
:1034D0008E179F07C1F784E092E0909330058093A8
:1034E0002F0580E092E0909332058093310584E0CF
:1034F000D82ED0923305D092340588E092E0909394
:103500002E0580932D058AE090E0909336058093F8
:10351000350584EF91E0909338058093370510923C
:103520003B0510923A051092290510922A05109237
:103530002B0510922C05109239051092B8041092A8
:10354000B70484E392E09093B6048093B5048DE0D1
:103550008093B9048FEF8093BA04DCE0D093BB046E
:103560008BE08093BC049AE0F92EF092BD0489E0D0
:103570008093BE0418E01093BF041092C004109210
:10358000C1041092C2041092C3041092C40481E0DA
:103590000E94EF0610923804C1E0C093390462E93A
:1035A00072E08AE394E00E94AA0810934004C0935A
:1035B000410462E972E082E494E00E94AA08109259
:1035C0004804C0934904D0934A0405E000934B0497
:1035D000C0934C04D0934D04F0924E04C0934F041A
:1035E0002EE0E22EE092500410925104C093520457
:1035F00068EC72E083E594E00E94AA0810935904F5
:10360000C0935A046FEC72E08BE594E00E94AA0824
:1036100010936104C0936204D09363040093640424
:10362000C0936504D0936604F0926704C093680465
:10363000E092690410926A04C0936B0461ED72E039
:103640008CE694E00E94AA0810937204C09373045D
:1036500068ED72E084E794E00E94AA0810937A046F
:10366000C0937B04D0937C0400937D04C0937E04BC
:10367000D0937F04F0928004C0938104E09282048E
:1036800010928304C09384046AED72E085E894E0AC
:103690000E94AA0810938B04C0938C046FEC72E014
:1036A0008DE894E00E94AA0810939304C0939404B8
:1036B000D093950400939604C0939704D0939804F4
:1036C000F0929904C0939A04E0929B0410929C0497
:1036D000C0939D0461EE72E08EE994E00E94AA0816
:1036E0001093A404C093A5046FEC72E086EA94E002
:1036F0000E94AA081093AC04C093AD04D093AE040A
:103700000093AF04C093B004D093B104F092B2041C
:10371000C093B304E092B404D0923504009336040D
:1037200082E08093370485E394E09093340480939F
:1037300033048DE294E00E94950385E194E00E94B9
:1037400095038BE194E00E94950381E294E00E944E
:10375000950387E294E0DF91CF911F910F91FF9045
:10376000EF90DF900C949503789484B5826084BDCB
:1037700084B5816084BD85B5826085BD85B5816075
:1037800085BD80916E00816080936E0010928100F3
:1037900080918100826080938100809181008160AE
:1037A000809381008091800081608093800080916F
:1037B000B10084608093B1008091B00081608093FB
:1037C000B00080919100826080939100809191007F
:1037D000816080939100809190008160809390003F
:1037E0008091A10082608093A1008091A1008160FE
:1037F0008093A1008091A00081608093A0008091BF
:103800002101826080932101809121018160809358
:1038100021018091200181608093200180917A00B4
:10382000846080937A0080917A00826080937A002D
:1038300080917A00816080937A0080917A0080681C
:1038400080937A001092C10020911C0230911D02D9
:103850008FEF91E2821B930B9093190280931802D1
:103860000E94DF0C0E9458190E94DF0C0E94BC04C9
:10387000FDCF0F931F93CF93DF93C5EBD4E06997F0
:10388000F1F38E01005F1F4FC017D10751F00850B0
:103890001109F801828193810097B1F30E94F61C0F
:1038A000F3CFF4E0C833DF0751F7DF91CF911F91D9
:1038B0000F9108950F931F93CF93DF93823091055B
:1038C00010F482E090E0E0913E05F0913F0530E099
:1038D00020E0B0E0A0E0309799F42115310509F41B
:1038E0004AC0281B390B24303105D8F58A819B81C9
:1038F0006115710589F1FB0193838283FE0111C07B
:10390000408151810281138148175907E0F048171F
:10391000590799F4109761F012960C931297139629
:103920001C933296CF01DF91CF911F910F91089593
:1039300000933E0510933F05F4CF2115310551F05A
:103940004217530738F0A901DB019A01BD01DF01DD
:10395000F801C1CFEF01F9CF90933F0580933E0569
:10396000CDCFFE01E20FF31F8193919322503109D5
:1039700039832883D7CF20913C0530913D05232BF7
:1039800041F420911A0230911B0230933D0520939F
:103990003C0520911802309119022115310541F49E
:1039A0002DB73EB740911C0250911D02241B350BD0
:1039B000E0913C05F0913D05E217F307A0F42E1BC2
:1039C0003F0B2817390778F0AC014E5F5F4F241783
:1039D000350748F04E0F5F1F50933D0540933C055F
:1039E000819391939FCFF0E0E0E09CCFCF93DF9362
:1039F0000097E9F0FC01329713821282A0913E05F4
:103A0000B0913F05ED0130E020E01097A1F4208156
:103A10003181820F931F20913C0530913D0528177D
:103A2000390709F061C0F0933D05E0933C05DF9153
:103A3000CF910895EA01CE17DF07E8F54A815B814F
:103A40009E0141155105B1F7E901FB83EA834991D4
:103A50005991C40FD51FEC17FD0761F48081918146
:103A60000296840F951FE90199838883828193814F
:103A70009B838A83F0E0E0E012968D919C911397EE
:103A80000097B9F52D913C911197CD010296820FC7
:103A9000931F20913C0530913D052817390739F6D1
:103AA000309751F510923F0510923E05B0933D05B9
:103AB000A0933C05BCCFD383C28340815181840F46
:103AC000951FC817D90761F44E5F5F4F88819981B0
:103AD000480F591F518340838A819B81938382833E
:103AE0002115310509F0B0CFF0933F05E0933E0575
:103AF0009ECFFD01DC01C0CF13821282D7CF0F937E
:103B00001F93CF93DF93CDB7DEB72E970FB6F89400
:103B1000DEBF0FBECDBF0E891F89888D998D2EE027
:103B20002C831A83098397FF02C080E090E80197F5
:103B30009E838D83AE01445E5F4F6A8D7B8DCE0187
:103B400001960E94BC1D4D815E8157FD0AC02F81E8
:103B50003885421753070CF49A01020F131FF8011E
:103B600010822E960FB6F894DEBF0FBECDBFDF9148
:103B7000CF911F910F9108952F923F924F925F9294
:103B80006F927F928F929F92AF92BF92CF92DF926D
:103B9000EF92FF920F931F93CF93DF9300D000D04B
:103BA00000D01F921F92CDB7DEB77C013B018A0186
:103BB000FC0117821682838181FFDDC1CE0101964F
:103BC0005C01F7019381F30193FD859193FF81914E
:103BD0003F01882309F453C1853239F493FD85915F
:103BE00093FF81913F01853229F4B70190E00E9453
:103BF000D41FE7CF912C212C312CFFE1F31538F0A5
:103C00008B3211F190F4803209F1833229F137FCC3
:103C10003CC020ED280F2A3050F536FE20C08AE047
:103C2000989E200D1124922E06C08D3291F0803383
:103C300071F7689430F8F30193FD859193FF8191BA
:103C40003F018111DACF21C0689431F8689432F8CD
:103C5000F2CF689433F8EFCF689434F8ECCFEAE011
:103C60002E9E200D1124222E689435F8E4CF8E323A
:103C700029F436FC04C1689436F8DDCF8C3619F48B
:103C8000689437F8D8CF8836B1F2982F9F7D955435
:103C90009330E0F08336A1F18337C1F1833509F029
:103CA00063C02801F2E04F0E511CF801C080D180A2
:103CB000692D70E036FC02C06FEF7FEFC6010E94F5
:103CC000BE1F4C01689437F882010AC00C5F1F4F79
:103CD000FFE3F98388248394912C6501E89437F8F5
:103CE00033FE2DC0522C8114910471F5552009F436
:103CF00068CFB70180E290E00E94D41F5A94F6CFBB
:103D0000F801808189830E5F1F4FE4CF2801F2E024
:103D10004F0E511CF801C080D180692D70E036FC37
:103D200002C06FEF7FEFC6010E94C91F4C018201E4
:103D3000D5CFB70180E290E00E94D41F2A942814C6
:103D4000190409F0B0F7CECFF60137FC859137FEA4
:103D500081916F01B70190E00E94D41F51105A94D5
:103D6000F1E08F1A9108BFCF843619F0893609F037
:103D700077C0F80137FE6BC06081718182819381C9
:103D80000C5F1F4FF32DFF763F2E97FF09C09095D4
:103D90008095709561957F4F8F4F9F4F689437F84E
:103DA0002AE030E0A5010E940420C82ECA188C2CFD
:103DB000432C36FE0CC0E89440F8C91440F434FE9D
:103DC00005C032FC03C0F32DFE7E4F2E892C44FE2D
:103DD000AAC0FE01EC0DF11D8081803309F09CC06A
:103DE000242D297E422E842D8870582E43FCAAC093
:103DF00040FEA4C09C2C821418F42C0C922C981811
:103E000044FEA6C0B70180E390E00E94D41F42FEAA
:103E100009C088E790E041FE02C088E590E0B70164
:103E20000E94D41FC91408F49FC0CA94D12C9FEFDC
:103E3000C91AD90ACA0CDB1CF60182916F01B701BD
:103E400090E00E94D41FAC14BD04B1F74FCF608145
:103E50007181072E000C880B990B0E5F1F4F92CFBC
:103E6000D32CE894D4F82AE030E08537E1F1232D13
:103E7000297FD22E8F36A9F1F0F4883551F1F70160
:103E8000868197812B960FB6F894DEBF0FBECDBF0B
:103E9000DF91CF911F910F91FF90EF90DF90CF9026
:103EA000BF90AF909F908F907F906F905F904F905A
:103EB0003F902F900895803749F0883701F7D4FE5E
:103EC00002C06894D2F820E130E00DC06894D4F8C4
:103ED000F6CF34FE03C0822F8660D82E20E132E078
:103EE00002C028E030E0F801D7FE0FC06081718188
:103EF000828193810C5F1F4FA5010E940420C82E70
:103F0000CA183D2CE89437F852CF6081718190E057
:103F100080E00E5F1F4FF0CF42FC02C0839463CF5E
:103F20008394839460CF842D867809F45CCFF6CF98
:103F3000B70180E290E00E94D41F83948214C0F302
:103F4000512C5ECF522C5818821408F459CFF8CF58
:103F5000842D867809F466CF8BE241FE80E247FC2F
:103F60008DE2B70190E05CCFB70180E390E00E9462
:103F7000D41F9A9457CF8FEF9FEF84CFFC01059009
:103F8000615070400110D8F7809590958E0F9F1F5B
:103F90000895FC016150704001900110D8F78095A0
:103FA00090958E0F9F1F08950F931F93CF93DF93CC
:103FB000182F092FEB018B8181FD09C01FEF0FEF37
:103FC000812F902FDF91CF911F910F91089582FF44
:103FD00014C02E813F818C819D81281739073CF4C4
:103FE000E881F981CF0101969983888310838E81BE
:103FF0009F8101969F838E83E3CFE885F985812F8A
:104000001995892BA1F3DACFFA01AA27283051F1AB
:10401000203181F1E8946F936E7F6E5F7F4F8F4FF9
:104020009F4FAF4FB1E03ED0B4E03CD0670F781F58
:10403000891F9A1FA11D680F791F8A1F911DA11D3D
:104040006A0F711D811D911DA11D20D009F4689476
:104050003F912AE0269F11243019305D3193DEF61E
:10406000CF010895462F4770405D4193B3E00FD0D4
:10407000C9F7F6CF462F4F70405D4A3318F0495DBF
:1040800031FD4052419302D0A9F7EACFB4E0A695A2
:104090009795879577956795BA95C9F700976105C4
:1040A000710508959B01AC010A2E0694579547951A
:1040B00037952795BA95C9F7620F731F841F951F0F
:1040C000A01D0895991B79E004C0991F961708F068
:1040D000961B881F7A95C9F780950895AA1BBB1B6C
:1040E00051E107C0AA1FBB1FA617B70710F0A61BF8
:1040F000B70B881F991F5A95A9F780959095BC0119
:10410000CD010895A1E21A2EAA1BBB1BFD010DC013
:10411000AA1FBB1FEE1FFF1FA217B307E407F50777
:1041200020F0A21BB30BE40BF50B661F771F881F53
:10413000991F1A9469F760957095809590959B01E9
:10414000AC01BD01CF010895EE0FFF1F881F8BBF8B
:104150000790F691E02D19944F925F926F927F92A3
:104160008F929F92AF92BF92CF92DF92EF92FF9287
:104170000F931F93CF93DF938C01009799F4CB019A
:10418000DF91CF911F910F91FF90EF90DF90CF9033
:10419000BF90AF909F908F907F906F905F904F9067
:1041A0000C945A1CFC01E60FF71F9C0122503109A8
:1041B000E217F30708F4AEC0D901CD91DC91119755
:1041C000C617D70720F1C530D10578F0CE01049786
:1041D0008617970750F0C61BD70B2297C193D19330
:1041E0006D937C93CF010E94F61CC801DF91CF91A3
:1041F0001F910F91FF90EF90DF90CF90BF90AF9005
:104200009F908F907F906F905F904F9008955B018B
:10421000AC1ABD0A4C018C0E9D1EA0913E05B091BA
:104220003F05512C412CF12CE12C109731F5809158
:104230003C0590913D058815990509F05CC046162E
:10424000570608F058C08091180290911902009703
:1042500041F48DB79EB740911C0250911D02841B02
:10426000950BE817F90708F055C0F0933D05E0936A
:104270003C05F90171836083B8CF8D919C911197B2
:1042800012966C90129713967C901397A815B90507
:1042900059F56C0142E0C40ED11CCA14DB0420F1B4
:1042A000AC014A195B09DA011296159780F0628217
:1042B000738251834083D9016D937C93E114F1049F
:1042C00071F0D7011396FC93EE9312978ECF22963E
:1042D0008C0F9D1FF90191838083F301EFCFF09341
:1042E0003F05E0933E0581CF4816590608F42C019E
:1042F0007D01D3019ACFCB010E945A1C7C0100970B
:1043000049F0AE01B8010E948D21C8010E94F61C3F
:1043100087016BCF10E000E068CFFB01DC0102C039
:1043200001900D9241505040D8F70895DC0101C032
:104330006D9341505040E0F70895FB01DC0101907E
:104340000D920020E1F7089512E0CEECD2E000E0FB
:1043500006C0802FFE010E94A4202196011DCF3CA3
:0C436000D10780E00807A9F7F894FFCF10
:10436C00393837363D3C3B3A3031323334353637D9
:10437C003839414243444546000040058000000066
:10438C0000004F04B903E6039C041704F503090469
:10439C0000000000A707B9030D060C060000000082
:1043AC001706130610060D0A004552524F522100F3
:1043BC002020465F6B65795F6E756D3A00706167A2
:1043CC00653A002020696E6465783A004552524F78
:1043DC005220434F44453A203030330049444C4539
:1043EC0000546D722053766300636F6D70696C6559
:1043FC00643A20005365702031382032303230005E
:10440C0032323A34343A3133004B6579626F61722F
:10441C006452656164004D61696E4C6F676963003D
:10442C00446973706C617900416C61726D3100424A
:10443C0000416C61726D32004400416C61726D33ED
:08444C0000416C61726D340047
:00000001FF
